{
  "_format": "hh-sol-artifact-1",
  "contractName": "MysteryDropEvent",
  "sourceName": "contracts/MysteryDropEvent.sol",
  "abi": [
    {
      "inputs": [
        {
          "internalType": "string",
          "name": "name",
          "type": "string"
        },
        {
          "internalType": "string",
          "name": "symbol",
          "type": "string"
        },
        {
          "internalType": "string",
          "name": "unrevealedURI",
          "type": "string"
        },
        {
          "internalType": "address",
          "name": "premiumNFT",
          "type": "address"
        },
        {
          "internalType": "uint64",
          "name": "_nftPurchasedRequired",
          "type": "uint64"
        },
        {
          "internalType": "uint256",
          "name": "maxSupply",
          "type": "uint256"
        },
        {
          "internalType": "string",
          "name": "baseURI",
          "type": "string"
        },
        {
          "internalType": "uint64",
          "name": "clSubscriptionId",
          "type": "uint64"
        }
      ],
      "stateMutability": "nonpayable",
      "type": "constructor"
    },
    {
      "inputs": [],
      "name": "EmptyArgs",
      "type": "error"
    },
    {
      "inputs": [],
      "name": "EmptySource",
      "type": "error"
    },
    {
      "inputs": [],
      "name": "LimitPerUserExceeded",
      "type": "error"
    },
    {
      "inputs": [],
      "name": "NoInlineSecrets",
      "type": "error"
    },
    {
      "inputs": [],
      "name": "NotAllowed",
      "type": "error"
    },
    {
      "inputs": [
        {
          "internalType": "address",
          "name": "have",
          "type": "address"
        },
        {
          "internalType": "address",
          "name": "want",
          "type": "address"
        }
      ],
      "name": "OnlyCoordinatorCanFulfill",
      "type": "error"
    },
    {
      "inputs": [],
      "name": "OnlyRouterCanFulfill",
      "type": "error"
    },
    {
      "inputs": [
        {
          "internalType": "bytes32",
          "name": "requestId",
          "type": "bytes32"
        }
      ],
      "name": "UnexpectedRequestID",
      "type": "error"
    },
    {
      "anonymous": false,
      "inputs": [
        {
          "indexed": true,
          "internalType": "address",
          "name": "owner",
          "type": "address"
        },
        {
          "indexed": true,
          "internalType": "address",
          "name": "approved",
          "type": "address"
        },
        {
          "indexed": true,
          "internalType": "uint256",
          "name": "tokenId",
          "type": "uint256"
        }
      ],
      "name": "Approval",
      "type": "event"
    },
    {
      "anonymous": false,
      "inputs": [
        {
          "indexed": true,
          "internalType": "address",
          "name": "owner",
          "type": "address"
        },
        {
          "indexed": true,
          "internalType": "address",
          "name": "operator",
          "type": "address"
        },
        {
          "indexed": false,
          "internalType": "bool",
          "name": "approved",
          "type": "bool"
        }
      ],
      "name": "ApprovalForAll",
      "type": "event"
    },
    {
      "anonymous": false,
      "inputs": [
        {
          "indexed": false,
          "internalType": "address",
          "name": "subscriber",
          "type": "address"
        },
        {
          "indexed": false,
          "internalType": "bytes32",
          "name": "requestId",
          "type": "bytes32"
        }
      ],
      "name": "LuckyNFTRequest",
      "type": "event"
    },
    {
      "anonymous": false,
      "inputs": [
        {
          "indexed": true,
          "internalType": "address",
          "name": "from",
          "type": "address"
        },
        {
          "indexed": true,
          "internalType": "address",
          "name": "to",
          "type": "address"
        }
      ],
      "name": "OwnershipTransferRequested",
      "type": "event"
    },
    {
      "anonymous": false,
      "inputs": [
        {
          "indexed": true,
          "internalType": "address",
          "name": "from",
          "type": "address"
        },
        {
          "indexed": true,
          "internalType": "address",
          "name": "to",
          "type": "address"
        }
      ],
      "name": "OwnershipTransferred",
      "type": "event"
    },
    {
      "anonymous": false,
      "inputs": [
        {
          "indexed": false,
          "internalType": "uint256",
          "name": "requestId",
          "type": "uint256"
        }
      ],
      "name": "RandomnessRequest",
      "type": "event"
    },
    {
      "anonymous": false,
      "inputs": [
        {
          "indexed": true,
          "internalType": "bytes32",
          "name": "id",
          "type": "bytes32"
        }
      ],
      "name": "RequestFulfilled",
      "type": "event"
    },
    {
      "anonymous": false,
      "inputs": [
        {
          "indexed": true,
          "internalType": "bytes32",
          "name": "id",
          "type": "bytes32"
        }
      ],
      "name": "RequestSent",
      "type": "event"
    },
    {
      "anonymous": false,
      "inputs": [
        {
          "indexed": true,
          "internalType": "bytes32",
          "name": "requestId",
          "type": "bytes32"
        },
        {
          "indexed": false,
          "internalType": "bytes",
          "name": "response",
          "type": "bytes"
        },
        {
          "indexed": false,
          "internalType": "bytes",
          "name": "err",
          "type": "bytes"
        }
      ],
      "name": "Response",
      "type": "event"
    },
    {
      "anonymous": false,
      "inputs": [
        {
          "indexed": true,
          "internalType": "address",
          "name": "from",
          "type": "address"
        },
        {
          "indexed": true,
          "internalType": "address",
          "name": "to",
          "type": "address"
        },
        {
          "indexed": true,
          "internalType": "uint256",
          "name": "tokenId",
          "type": "uint256"
        }
      ],
      "name": "Transfer",
      "type": "event"
    },
    {
      "inputs": [],
      "name": "acceptOwnership",
      "outputs": [],
      "stateMutability": "nonpayable",
      "type": "function"
    },
    {
      "inputs": [
        {
          "internalType": "address",
          "name": "to",
          "type": "address"
        },
        {
          "internalType": "uint256",
          "name": "tokenId",
          "type": "uint256"
        }
      ],
      "name": "approve",
      "outputs": [],
      "stateMutability": "nonpayable",
      "type": "function"
    },
    {
      "inputs": [
        {
          "internalType": "address",
          "name": "owner",
          "type": "address"
        }
      ],
      "name": "balanceOf",
      "outputs": [
        {
          "internalType": "uint256",
          "name": "",
          "type": "uint256"
        }
      ],
      "stateMutability": "view",
      "type": "function"
    },
    {
      "inputs": [
        {
          "internalType": "uint256",
          "name": "tokenId",
          "type": "uint256"
        }
      ],
      "name": "getApproved",
      "outputs": [
        {
          "internalType": "address",
          "name": "",
          "type": "address"
        }
      ],
      "stateMutability": "view",
      "type": "function"
    },
    {
      "inputs": [],
      "name": "getBaseURI",
      "outputs": [
        {
          "internalType": "string",
          "name": "",
          "type": "string"
        }
      ],
      "stateMutability": "view",
      "type": "function"
    },
    {
      "inputs": [],
      "name": "getProvenanceHash",
      "outputs": [
        {
          "internalType": "string",
          "name": "",
          "type": "string"
        }
      ],
      "stateMutability": "view",
      "type": "function"
    },
    {
      "inputs": [
        {
          "internalType": "bytes32",
          "name": "requestId",
          "type": "bytes32"
        },
        {
          "internalType": "bytes",
          "name": "response",
          "type": "bytes"
        },
        {
          "internalType": "bytes",
          "name": "err",
          "type": "bytes"
        }
      ],
      "name": "handleOracleFulfillment",
      "outputs": [],
      "stateMutability": "nonpayable",
      "type": "function"
    },
    {
      "inputs": [
        {
          "internalType": "address",
          "name": "owner",
          "type": "address"
        },
        {
          "internalType": "address",
          "name": "operator",
          "type": "address"
        }
      ],
      "name": "isApprovedForAll",
      "outputs": [
        {
          "internalType": "bool",
          "name": "",
          "type": "bool"
        }
      ],
      "stateMutability": "view",
      "type": "function"
    },
    {
      "inputs": [],
      "name": "name",
      "outputs": [
        {
          "internalType": "string",
          "name": "",
          "type": "string"
        }
      ],
      "stateMutability": "view",
      "type": "function"
    },
    {
      "inputs": [],
      "name": "nftPurchasedRequired",
      "outputs": [
        {
          "internalType": "uint64",
          "name": "",
          "type": "uint64"
        }
      ],
      "stateMutability": "view",
      "type": "function"
    },
    {
      "inputs": [],
      "name": "owner",
      "outputs": [
        {
          "internalType": "address",
          "name": "",
          "type": "address"
        }
      ],
      "stateMutability": "view",
      "type": "function"
    },
    {
      "inputs": [
        {
          "internalType": "uint256",
          "name": "tokenId",
          "type": "uint256"
        }
      ],
      "name": "ownerOf",
      "outputs": [
        {
          "internalType": "address",
          "name": "",
          "type": "address"
        }
      ],
      "stateMutability": "view",
      "type": "function"
    },
    {
      "inputs": [
        {
          "internalType": "uint256",
          "name": "requestId",
          "type": "uint256"
        },
        {
          "internalType": "uint256[]",
          "name": "randomWords",
          "type": "uint256[]"
        }
      ],
      "name": "rawFulfillRandomWords",
      "outputs": [],
      "stateMutability": "nonpayable",
      "type": "function"
    },
    {
      "inputs": [],
      "name": "reveal",
      "outputs": [],
      "stateMutability": "nonpayable",
      "type": "function"
    },
    {
      "inputs": [],
      "name": "s_lastError",
      "outputs": [
        {
          "internalType": "bytes",
          "name": "",
          "type": "bytes"
        }
      ],
      "stateMutability": "view",
      "type": "function"
    },
    {
      "inputs": [],
      "name": "s_lastRequestId",
      "outputs": [
        {
          "internalType": "bytes32",
          "name": "",
          "type": "bytes32"
        }
      ],
      "stateMutability": "view",
      "type": "function"
    },
    {
      "inputs": [],
      "name": "s_lastResponse",
      "outputs": [
        {
          "internalType": "bytes",
          "name": "",
          "type": "bytes"
        }
      ],
      "stateMutability": "view",
      "type": "function"
    },
    {
      "inputs": [
        {
          "internalType": "bytes32",
          "name": "",
          "type": "bytes32"
        }
      ],
      "name": "s_requestIdToSubscriber",
      "outputs": [
        {
          "internalType": "address",
          "name": "",
          "type": "address"
        }
      ],
      "stateMutability": "view",
      "type": "function"
    },
    {
      "inputs": [
        {
          "internalType": "address",
          "name": "",
          "type": "address"
        }
      ],
      "name": "s_subscriberToRequestId",
      "outputs": [
        {
          "internalType": "bytes32",
          "name": "",
          "type": "bytes32"
        }
      ],
      "stateMutability": "view",
      "type": "function"
    },
    {
      "inputs": [
        {
          "internalType": "address",
          "name": "from",
          "type": "address"
        },
        {
          "internalType": "address",
          "name": "to",
          "type": "address"
        },
        {
          "internalType": "uint256",
          "name": "tokenId",
          "type": "uint256"
        }
      ],
      "name": "safeTransferFrom",
      "outputs": [],
      "stateMutability": "nonpayable",
      "type": "function"
    },
    {
      "inputs": [
        {
          "internalType": "address",
          "name": "from",
          "type": "address"
        },
        {
          "internalType": "address",
          "name": "to",
          "type": "address"
        },
        {
          "internalType": "uint256",
          "name": "tokenId",
          "type": "uint256"
        },
        {
          "internalType": "bytes",
          "name": "_data",
          "type": "bytes"
        }
      ],
      "name": "safeTransferFrom",
      "outputs": [],
      "stateMutability": "nonpayable",
      "type": "function"
    },
    {
      "inputs": [
        {
          "internalType": "string[]",
          "name": "args",
          "type": "string[]"
        }
      ],
      "name": "sendRequest",
      "outputs": [
        {
          "internalType": "bytes32",
          "name": "requestId",
          "type": "bytes32"
        }
      ],
      "stateMutability": "nonpayable",
      "type": "function"
    },
    {
      "inputs": [
        {
          "internalType": "address",
          "name": "operator",
          "type": "address"
        },
        {
          "internalType": "bool",
          "name": "approved",
          "type": "bool"
        }
      ],
      "name": "setApprovalForAll",
      "outputs": [],
      "stateMutability": "nonpayable",
      "type": "function"
    },
    {
      "inputs": [
        {
          "internalType": "bytes4",
          "name": "interfaceId",
          "type": "bytes4"
        }
      ],
      "name": "supportsInterface",
      "outputs": [
        {
          "internalType": "bool",
          "name": "",
          "type": "bool"
        }
      ],
      "stateMutability": "view",
      "type": "function"
    },
    {
      "inputs": [],
      "name": "symbol",
      "outputs": [
        {
          "internalType": "string",
          "name": "",
          "type": "string"
        }
      ],
      "stateMutability": "view",
      "type": "function"
    },
    {
      "inputs": [
        {
          "internalType": "uint256",
          "name": "tokenId",
          "type": "uint256"
        }
      ],
      "name": "tokenURI",
      "outputs": [
        {
          "internalType": "string",
          "name": "",
          "type": "string"
        }
      ],
      "stateMutability": "view",
      "type": "function"
    },
    {
      "inputs": [
        {
          "internalType": "address",
          "name": "owner",
          "type": "address"
        }
      ],
      "name": "tokensOfOwner",
      "outputs": [
        {
          "internalType": "uint256[]",
          "name": "",
          "type": "uint256[]"
        }
      ],
      "stateMutability": "view",
      "type": "function"
    },
    {
      "inputs": [],
      "name": "totalSupply",
      "outputs": [
        {
          "internalType": "uint256",
          "name": "",
          "type": "uint256"
        }
      ],
      "stateMutability": "view",
      "type": "function"
    },
    {
      "inputs": [
        {
          "internalType": "address",
          "name": "from",
          "type": "address"
        },
        {
          "internalType": "address",
          "name": "to",
          "type": "address"
        },
        {
          "internalType": "uint256",
          "name": "tokenId",
          "type": "uint256"
        }
      ],
      "name": "transferFrom",
      "outputs": [],
      "stateMutability": "nonpayable",
      "type": "function"
    },
    {
      "inputs": [
        {
          "internalType": "address",
          "name": "to",
          "type": "address"
        }
      ],
      "name": "transferOwnership",
      "outputs": [],
      "stateMutability": "nonpayable",
      "type": "function"
    }
  ],
  "bytecode": "0x610160604052620493e0600d60006101000a81548163ffffffff021916908363ffffffff1602179055507f66756e2d6176616c616e6368652d66756a692d3100000000000000000000000060001b600e556040518061020001604052806101cd815260200162006e256101cd9139601690816200007d919062000854565b503480156200008b57600080fd5b5060405162006ff238038062006ff28339818101604052810190620000b1919062000b7a565b73a9d587a00a31a52ed70d6026794a8fc5e2f5dcb033806000732ed832ba664535e5886b75d64c46eb9a228c26108c8c828073ffffffffffffffffffffffffffffffffffffffff1660808173ffffffffffffffffffffffffffffffffffffffff168152505050816001908162000128919062000854565b5080600290816200013a919062000854565b506200014b620003eb60201b60201c565b600481905550505050600073ffffffffffffffffffffffffffffffffffffffff168273ffffffffffffffffffffffffffffffffffffffff1603620001c6576040517f08c379a0000000000000000000000000000000000000000000000000000000008152600401620001bd9062000d20565b60405180910390fd5b81600860006101000a81548173ffffffffffffffffffffffffffffffffffffffff021916908373ffffffffffffffffffffffffffffffffffffffff160217905550600073ffffffffffffffffffffffffffffffffffffffff168173ffffffffffffffffffffffffffffffffffffffff16146200024e576200024d81620003f060201b60201c565b5b5050508073ffffffffffffffffffffffffffffffffffffffff1660a08173ffffffffffffffffffffffffffffffffffffffff1681525050508261014081815250507f354d2f95da55398f44b7cff77da56283d9c6c829a4bdf1bbcaf2ad6a4d081f6160001b60e081815250508560139081620002cb919062000854565b508067ffffffffffffffff1660c08167ffffffffffffffff1681525050732ed832ba664535e5886b75d64c46eb9a228c261073ffffffffffffffffffffffffffffffffffffffff166101008173ffffffffffffffffffffffffffffffffffffffff168152505061032e67ffffffffffffffff166101208167ffffffffffffffff168152505083601060006101000a81548167ffffffffffffffff021916908367ffffffffffffffff16021790555081600f90816200038a919062000854565b5084601560006101000a81548173ffffffffffffffffffffffffffffffffffffffff021916908373ffffffffffffffffffffffffffffffffffffffff160217905550620003dd326200052160201b60201c565b505050505050505062000e26565b600090565b3373ffffffffffffffffffffffffffffffffffffffff168173ffffffffffffffffffffffffffffffffffffffff160362000461576040517f08c379a0000000000000000000000000000000000000000000000000000000008152600401620004589062000d92565b60405180910390fd5b80600960006101000a81548173ffffffffffffffffffffffffffffffffffffffff021916908373ffffffffffffffffffffffffffffffffffffffff1602179055508073ffffffffffffffffffffffffffffffffffffffff16600860009054906101000a900473ffffffffffffffffffffffffffffffffffffffff1673ffffffffffffffffffffffffffffffffffffffff167fed8889f560326eb138920d842192f0eb3dd22b4f139c87a2c57538e05bae127860405160405180910390a350565b620005316200054560201b60201c565b6200054281620003f060201b60201c565b50565b600860009054906101000a900473ffffffffffffffffffffffffffffffffffffffff1673ffffffffffffffffffffffffffffffffffffffff163373ffffffffffffffffffffffffffffffffffffffff1614620005d8576040517f08c379a0000000000000000000000000000000000000000000000000000000008152600401620005cf9062000e04565b60405180910390fd5b565b600081519050919050565b7f4e487b7100000000000000000000000000000000000000000000000000000000600052604160045260246000fd5b7f4e487b7100000000000000000000000000000000000000000000000000000000600052602260045260246000fd5b600060028204905060018216806200065c57607f821691505b60208210810362000672576200067162000614565b5b50919050565b60008190508160005260206000209050919050565b60006020601f8301049050919050565b600082821b905092915050565b600060088302620006dc7fffffffffffffffffffffffffffffffffffffffffffffffffffffffffffffffff826200069d565b620006e886836200069d565b95508019841693508086168417925050509392505050565b6000819050919050565b6000819050919050565b6000620007356200072f620007298462000700565b6200070a565b62000700565b9050919050565b6000819050919050565b620007518362000714565b6200076962000760826200073c565b848454620006aa565b825550505050565b600090565b6200078062000771565b6200078d81848462000746565b505050565b5b81811015620007b557620007a960008262000776565b60018101905062000793565b5050565b601f8211156200080457620007ce8162000678565b620007d9846200068d565b81016020851015620007e9578190505b62000801620007f8856200068d565b83018262000792565b50505b505050565b600082821c905092915050565b6000620008296000198460080262000809565b1980831691505092915050565b600062000844838362000816565b9150826002028217905092915050565b6200085f82620005da565b67ffffffffffffffff8111156200087b576200087a620005e5565b5b62000887825462000643565b62000894828285620007b9565b600060209050601f831160018114620008cc5760008415620008b7578287015190505b620008c3858262000836565b86555062000933565b601f198416620008dc8662000678565b60005b828110156200090657848901518255600182019150602085019450602081019050620008df565b8683101562000926578489015162000922601f89168262000816565b8355505b6001600288020188555050505b505050505050565b6000604051905090565b600080fd5b600080fd5b600080fd5b600080fd5b6000601f19601f8301169050919050565b620009758262000959565b810181811067ffffffffffffffff82111715620009975762000996620005e5565b5b80604052505050565b6000620009ac6200093b565b9050620009ba82826200096a565b919050565b600067ffffffffffffffff821115620009dd57620009dc620005e5565b5b620009e88262000959565b9050602081019050919050565b60005b8381101562000a15578082015181840152602081019050620009f8565b60008484015250505050565b600062000a3862000a3284620009bf565b620009a0565b90508281526020810184848401111562000a575762000a5662000954565b5b62000a64848285620009f5565b509392505050565b600082601f83011262000a845762000a836200094f565b5b815162000a9684826020860162000a21565b91505092915050565b600073ffffffffffffffffffffffffffffffffffffffff82169050919050565b600062000acc8262000a9f565b9050919050565b62000ade8162000abf565b811462000aea57600080fd5b50565b60008151905062000afe8162000ad3565b92915050565b600067ffffffffffffffff82169050919050565b62000b238162000b04565b811462000b2f57600080fd5b50565b60008151905062000b438162000b18565b92915050565b62000b548162000700565b811462000b6057600080fd5b50565b60008151905062000b748162000b49565b92915050565b600080600080600080600080610100898b03121562000b9e5762000b9d62000945565b5b600089015167ffffffffffffffff81111562000bbf5762000bbe6200094a565b5b62000bcd8b828c0162000a6c565b985050602089015167ffffffffffffffff81111562000bf15762000bf06200094a565b5b62000bff8b828c0162000a6c565b975050604089015167ffffffffffffffff81111562000c235762000c226200094a565b5b62000c318b828c0162000a6c565b965050606062000c448b828c0162000aed565b955050608062000c578b828c0162000b32565b94505060a062000c6a8b828c0162000b63565b93505060c089015167ffffffffffffffff81111562000c8e5762000c8d6200094a565b5b62000c9c8b828c0162000a6c565b92505060e062000caf8b828c0162000b32565b9150509295985092959890939650565b600082825260208201905092915050565b7f43616e6e6f7420736574206f776e657220746f207a65726f0000000000000000600082015250565b600062000d0860188362000cbf565b915062000d158262000cd0565b602082019050919050565b6000602082019050818103600083015262000d3b8162000cf9565b9050919050565b7f43616e6e6f74207472616e7366657220746f2073656c66000000000000000000600082015250565b600062000d7a60178362000cbf565b915062000d878262000d42565b602082019050919050565b6000602082019050818103600083015262000dad8162000d6b565b9050919050565b7f4f6e6c792063616c6c61626c65206279206f776e657200000000000000000000600082015250565b600062000dec60168362000cbf565b915062000df98262000db4565b602082019050919050565b6000602082019050818103600083015262000e1f8162000ddd565b9050919050565b60805160a05160c05160e051610100516101205161014051615f9662000e8f600039600061283a01526000612fcd01526000612f7d01526000612fa501526000610e9d0152600081816108f1015261237d0152600081816109c20152610a160152615f966000f3fe608060405234801561001057600080fd5b50600436106101da5760003560e01c806370a082311161010457806395d89b41116100a2578063b88d4fde11610071578063b88d4fde14610547578063c87b56dd14610563578063e985e9c514610593578063f2fde38b146105c3576101da565b806395d89b41146104e5578063a22cb46514610503578063a475b5dd1461051f578063b1e2174914610529576101da565b80638462151c116100de5780638462151c146104495780638da5cb5b146104795780638eb58bdd1461049757806394b3fbc2146104c7576101da565b806370a08231146103f1578063714c53981461042157806379ba50971461043f576101da565b806323b872dd1161017c57806342842e0e1161014b57806342842e0e146103575780634b0795a8146103735780634c8f60a3146103915780636352211e146103c1576101da565b806323b872dd146102cf5780632510551a146102eb578063272af3d9146103095780633944ea3a14610339576101da565b8063095ea7b3116101b8578063095ea7b31461025d5780630ca761751461027957806318160ddd146102955780631fe543e3146102b3576101da565b806301ffc9a7146101df57806306fdde031461020f578063081812fc1461022d575b600080fd5b6101f960048036038101906101f49190613d89565b6105df565b6040516102069190613dd1565b60405180910390f35b6102176106c1565b6040516102249190613e7c565b60405180910390f35b61024760048036038101906102429190613ed4565b610753565b6040516102549190613f42565b60405180910390f35b61027760048036038101906102729190613f89565b6107d8565b005b610293600480360381019061028e9190614134565b6108ef565b005b61029d6109b1565b6040516102aa91906141ce565b60405180910390f35b6102cd60048036038101906102c891906142b1565b6109c0565b005b6102e960048036038101906102e4919061430d565b610a80565b005b6102f3610ae0565b6040516103009190614383565b60405180910390f35b610323600480360381019061031e919061439e565b610afa565b6040516103309190613f42565b60405180910390f35b610341610b2d565b60405161034e9190614420565b60405180910390f35b610371600480360381019061036c919061430d565b610bbb565b005b61037b610bdb565b6040516103889190614420565b60405180910390f35b6103ab60048036038101906103a691906145c4565b610c69565b6040516103b8919061461c565b60405180910390f35b6103db60048036038101906103d69190613ed4565b610fbd565b6040516103e89190613f42565b60405180910390f35b61040b60048036038101906104069190614637565b610fd5565b60405161041891906141ce565b60405180910390f35b6104296110d4565b6040516104369190613e7c565b60405180910390f35b610447611166565b005b610463600480360381019061045e9190614637565b6112fd565b6040516104709190614722565b60405180910390f35b6104816113f6565b60405161048e9190613f42565b60405180910390f35b6104b160048036038101906104ac9190614637565b611420565b6040516104be919061461c565b60405180910390f35b6104cf611438565b6040516104dc9190613e7c565b60405180910390f35b6104ed6114ca565b6040516104fa9190613e7c565b60405180910390f35b61051d60048036038101906105189190614770565b61155c565b005b6105276116dc565b005b6105316116ee565b60405161053e919061461c565b60405180910390f35b610561600480360381019061055c91906147b0565b6116f4565b005b61057d60048036038101906105789190613ed4565b611756565b60405161058a9190613e7c565b60405180910390f35b6105ad60048036038101906105a89190614833565b611839565b6040516105ba9190613dd1565b60405180910390f35b6105dd60048036038101906105d89190614637565b6118cd565b005b60007f80ac58cd000000000000000000000000000000000000000000000000000000007bffffffffffffffffffffffffffffffffffffffffffffffffffffffff1916827bffffffffffffffffffffffffffffffffffffffffffffffffffffffff191614806106aa57507f5b5e139f000000000000000000000000000000000000000000000000000000007bffffffffffffffffffffffffffffffffffffffffffffffffffffffff1916827bffffffffffffffffffffffffffffffffffffffffffffffffffffffff1916145b806106ba57506106b9826118e1565b5b9050919050565b6060600180546106d0906148a2565b80601f01602080910402602001604051908101604052809291908181526020018280546106fc906148a2565b80156107495780601f1061071e57610100808354040283529160200191610749565b820191906000526020600020905b81548152906001019060200180831161072c57829003601f168201915b5050505050905090565b600061075e8261194b565b61079d576040517f08c379a000000000000000000000000000000000000000000000000000000000815260040161079490614945565b60405180910390fd5b6005600083815260200190815260200160002060009054906101000a900473ffffffffffffffffffffffffffffffffffffffff169050919050565b60006107e382610fbd565b90508073ffffffffffffffffffffffffffffffffffffffff168373ffffffffffffffffffffffffffffffffffffffff1603610853576040517f08c379a000000000000000000000000000000000000000000000000000000000815260040161084a906149d7565b60405180910390fd5b8073ffffffffffffffffffffffffffffffffffffffff16610872611971565b73ffffffffffffffffffffffffffffffffffffffff1614806108a157506108a08161089b611971565b611839565b5b6108e0576040517f08c379a00000000000000000000000000000000000000000000000000000000081526004016108d790614a69565b60405180910390fd5b6108ea8383611979565b505050565b7f000000000000000000000000000000000000000000000000000000000000000073ffffffffffffffffffffffffffffffffffffffff163373ffffffffffffffffffffffffffffffffffffffff1614610974576040517fc6829f8300000000000000000000000000000000000000000000000000000000815260040160405180910390fd5b61097f838383611a32565b827f85e1543bf2f84fe80c6badbce3648c8539ad1df4d2b3d822938ca0538be727e660405160405180910390a2505050565b60006109bb611b17565b905090565b7f000000000000000000000000000000000000000000000000000000000000000073ffffffffffffffffffffffffffffffffffffffff163373ffffffffffffffffffffffffffffffffffffffff1614610a7257337f00000000000000000000000000000000000000000000000000000000000000006040517f1cf993f4000000000000000000000000000000000000000000000000000000008152600401610a69929190614a89565b60405180910390fd5b610a7c8282611b33565b5050565b610a91610a8b611971565b82611b9e565b610ad0576040517f08c379a0000000000000000000000000000000000000000000000000000000008152600401610ac790614b24565b60405180910390fd5b610adb838383611c7c565b505050565b601060009054906101000a900467ffffffffffffffff1681565b60126020528060005260406000206000915054906101000a900473ffffffffffffffffffffffffffffffffffffffff1681565b600b8054610b3a906148a2565b80601f0160208091040260200160405190810160405280929190818152602001828054610b66906148a2565b8015610bb35780601f10610b8857610100808354040283529160200191610bb3565b820191906000526020600020905b815481529060010190602001808311610b9657829003601f168201915b505050505081565b610bd6838383604051806020016040528060008152506116f4565b505050565b600c8054610be8906148a2565b80601f0160208091040260200160405190810160405280929190818152602001828054610c14906148a2565b8015610c615780601f10610c3657610100808354040283529160200191610c61565b820191906000526020600020905b815481529060010190602001808311610c4457829003601f168201915b505050505081565b600080601560009054906101000a900473ffffffffffffffffffffffffffffffffffffffff1673ffffffffffffffffffffffffffffffffffffffff166370a08231336040518263ffffffff1660e01b8152600401610cc79190613f42565b602060405180830381865afa158015610ce4573d6000803e3d6000fd5b505050506040513d601f19601f82011682018060405250810190610d089190614b59565b11610d48576040517f08c379a0000000000000000000000000000000000000000000000000000000008152600401610d3f90614bf8565b60405180910390fd5b6000801b601160003373ffffffffffffffffffffffffffffffffffffffff1673ffffffffffffffffffffffffffffffffffffffff1681526020019081526020016000205403610dcc576040517f08c379a0000000000000000000000000000000000000000000000000000000008152600401610dc390614c8a565b60405180910390fd5b610dd4613c71565b610e7160168054610de4906148a2565b80601f0160208091040260200160405190810160405280929190818152602001828054610e10906148a2565b8015610e5d5780601f10610e3257610100808354040283529160200191610e5d565b820191906000526020600020905b815481529060010190602001808311610e4057829003601f168201915b505050505082611f0390919063ffffffff16565b600083511115610e8f57610e8e8382611f1490919063ffffffff16565b5b610ed7610e9b82611f5c565b7f0000000000000000000000000000000000000000000000000000000000000000600d60009054906101000a900463ffffffff16600e54612378565b600a81905550600a54601160003373ffffffffffffffffffffffffffffffffffffffff1673ffffffffffffffffffffffffffffffffffffffff168152602001908152602001600020819055503360126000600a54815260200190815260200160002060006101000a81548173ffffffffffffffffffffffffffffffffffffffff021916908373ffffffffffffffffffffffffffffffffffffffff1602179055507f1f3150ce1e4656d0fe4803e9c729ffd693b2b0b5051d39b69e80e431b346f02533600a54604051610faa929190614caa565b60405180910390a1600a54915050919050565b600080610fc98361245b565b50905080915050919050565b60008073ffffffffffffffffffffffffffffffffffffffff168273ffffffffffffffffffffffffffffffffffffffff1603611045576040517f08c379a000000000000000000000000000000000000000000000000000000000815260040161103c90614d45565b60405180910390fd5b6000806110506124ec565b90505b61105b6124f1565b8110156110ca5761106b8161194b565b156110b95761107981610fbd565b73ffffffffffffffffffffffffffffffffffffffff168473ffffffffffffffffffffffffffffffffffffffff16036110b857816110b590614d94565b91505b5b806110c390614d94565b9050611053565b5080915050919050565b6060600f80546110e3906148a2565b80601f016020809104026020016040519081016040528092919081815260200182805461110f906148a2565b801561115c5780601f106111315761010080835404028352916020019161115c565b820191906000526020600020905b81548152906001019060200180831161113f57829003601f168201915b5050505050905090565b600960009054906101000a900473ffffffffffffffffffffffffffffffffffffffff1673ffffffffffffffffffffffffffffffffffffffff163373ffffffffffffffffffffffffffffffffffffffff16146111f6576040517f08c379a00000000000000000000000000000000000000000000000000000000081526004016111ed90614e28565b60405180910390fd5b6000600860009054906101000a900473ffffffffffffffffffffffffffffffffffffffff16905033600860006101000a81548173ffffffffffffffffffffffffffffffffffffffff021916908373ffffffffffffffffffffffffffffffffffffffff1602179055506000600960006101000a81548173ffffffffffffffffffffffffffffffffffffffff021916908373ffffffffffffffffffffffffffffffffffffffff1602179055503373ffffffffffffffffffffffffffffffffffffffff168173ffffffffffffffffffffffffffffffffffffffff167f8be0079c531659141344cd1fd0a4f28419497f9722a3daafe3b4186f6b6457e060405160405180910390a350565b606060008061130b84610fd5565b905060008167ffffffffffffffff81111561132957611328614009565b5b6040519080825280602002602001820160405280156113575781602001602082028036833780820191505090505b50905060006113646124ec565b90505b8284146113ea576113778161194b565b156113df578573ffffffffffffffffffffffffffffffffffffffff1661139c82610fbd565b73ffffffffffffffffffffffffffffffffffffffff16036113de57808285806001019650815181106113d1576113d0614e48565b5b6020026020010181815250505b5b806001019050611367565b50809350505050919050565b6000600860009054906101000a900473ffffffffffffffffffffffffffffffffffffffff16905090565b60116020528060005260406000206000915090505481565b606060148054611447906148a2565b80601f0160208091040260200160405190810160405280929190818152602001828054611473906148a2565b80156114c05780601f10611495576101008083540402835291602001916114c0565b820191906000526020600020905b8154815290600101906020018083116114a357829003601f168201915b5050505050905090565b6060600280546114d9906148a2565b80601f0160208091040260200160405190810160405280929190818152602001828054611505906148a2565b80156115525780601f1061152757610100808354040283529160200191611552565b820191906000526020600020905b81548152906001019060200180831161153557829003601f168201915b5050505050905090565b611564611971565b73ffffffffffffffffffffffffffffffffffffffff168273ffffffffffffffffffffffffffffffffffffffff16036115d1576040517f08c379a00000000000000000000000000000000000000000000000000000000081526004016115c890614ec3565b60405180910390fd5b80600660006115de611971565b73ffffffffffffffffffffffffffffffffffffffff1673ffffffffffffffffffffffffffffffffffffffff16815260200190815260200160002060008473ffffffffffffffffffffffffffffffffffffffff1673ffffffffffffffffffffffffffffffffffffffff16815260200190815260200160002060006101000a81548160ff0219169083151502179055508173ffffffffffffffffffffffffffffffffffffffff1661168b611971565b73ffffffffffffffffffffffffffffffffffffffff167f17307eab39ab6107e8899845ad3d59bd9653f200f220920489ca2b5937696c31836040516116d09190613dd1565b60405180910390a35050565b6116e46124fb565b6116ec61258d565b565b600a5481565b6117056116ff611971565b83611b9e565b611744576040517f08c379a000000000000000000000000000000000000000000000000000000000815260040161173b90614b24565b60405180910390fd5b611750848484846126b4565b50505050565b60606117618261194b565b6117a0576040517f08c379a000000000000000000000000000000000000000000000000000000000815260040161179790614f55565b60405180910390fd5b6000600754036117b9576117b2612712565b9050611834565b60006117c36127a4565b905060006117db846007546117d6612836565b61285e565b905060008251116117fb576040518060200160405280600081525061182f565b8161180582612927565b61180d612a87565b60405160200161181f93929190614fb1565b6040516020818303038152906040525b925050505b919050565b6000600660008473ffffffffffffffffffffffffffffffffffffffff1673ffffffffffffffffffffffffffffffffffffffff16815260200190815260200160002060008373ffffffffffffffffffffffffffffffffffffffff1673ffffffffffffffffffffffffffffffffffffffff16815260200190815260200160002060009054906101000a900460ff16905092915050565b6118d56124fb565b6118de81612ac4565b50565b60007f01ffc9a7000000000000000000000000000000000000000000000000000000007bffffffffffffffffffffffffffffffffffffffffffffffffffffffff1916827bffffffffffffffffffffffffffffffffffffffffffffffffffffffff1916149050919050565b60006119556124f1565b8210801561196a5750816119676124ec565b11155b9050919050565b600033905090565b816005600083815260200190815260200160002060006101000a81548173ffffffffffffffffffffffffffffffffffffffff021916908373ffffffffffffffffffffffffffffffffffffffff160217905550808273ffffffffffffffffffffffffffffffffffffffff166119ec83610fbd565b73ffffffffffffffffffffffffffffffffffffffff167f8c5be1e5ebec7d5bd14f71427d1e84f3dd0314c0f7b2291e5b200ac8c7c3b92560405160405180910390a45050565b82600a5414611a7857826040517fd068bf5b000000000000000000000000000000000000000000000000000000008152600401611a6f919061461c565b60405180910390fd5b81600b9081611a87919061518e565b5080600c9081611a97919061518e565b50611ad660126000600a54815260200190815260200160002060009054906101000a900473ffffffffffffffffffffffffffffffffffffffff16612bf2565b827f7873807bf6ddc50401cd3d29bbe0decee23fd4d68d273f4b5eb83cded4d2f172600b600c604051611b0a9291906152e4565b60405180910390a2505050565b6000611b216124ec565b600454611b2e919061531b565b905090565b600060075414611b78576040517f08c379a0000000000000000000000000000000000000000000000000000000008152600401611b6f9061539b565b60405180910390fd5b80600081518110611b8c57611b8b614e48565b5b60200260200101516007819055505050565b6000611ba98261194b565b611be8576040517f08c379a0000000000000000000000000000000000000000000000000000000008152600401611bdf9061542d565b60405180910390fd5b6000611bf383610fbd565b90508073ffffffffffffffffffffffffffffffffffffffff168473ffffffffffffffffffffffffffffffffffffffff161480611c6257508373ffffffffffffffffffffffffffffffffffffffff16611c4a84610753565b73ffffffffffffffffffffffffffffffffffffffff16145b80611c735750611c728185611839565b5b91505092915050565b600080611c888361245b565b915091508473ffffffffffffffffffffffffffffffffffffffff168273ffffffffffffffffffffffffffffffffffffffff1614611cfa576040517f08c379a0000000000000000000000000000000000000000000000000000000008152600401611cf1906154bf565b60405180910390fd5b600073ffffffffffffffffffffffffffffffffffffffff168473ffffffffffffffffffffffffffffffffffffffff1603611d69576040517f08c379a0000000000000000000000000000000000000000000000000000000008152600401611d6090615551565b60405180910390fd5b611d768585856001612c3f565b611d81600084611979565b6000600184611d909190615571565b9050611da6816000612cdb90919063ffffffff16565b158015611db95750611db66124f1565b81105b15611e2557856003600083815260200190815260200160002060006101000a81548173ffffffffffffffffffffffffffffffffffffffff021916908373ffffffffffffffffffffffffffffffffffffffff160217905550611e24816000612d3690919063ffffffff16565b5b846003600086815260200190815260200160002060006101000a81548173ffffffffffffffffffffffffffffffffffffffff021916908373ffffffffffffffffffffffffffffffffffffffff160217905550818414611e9357611e92846000612d3690919063ffffffff16565b5b838573ffffffffffffffffffffffffffffffffffffffff168773ffffffffffffffffffffffffffffffffffffffff167fddf252ad1be2c89b69c2b068fc378daa952ba7f163c4a11628f55a4df523b3ef60405160405180910390a4611efb8686866001612d93565b505050505050565b611f108260008084612d99565b5050565b6000815103611f4f576040517ffe936cb700000000000000000000000000000000000000000000000000000000815260040160405180910390fd5b808260a001819052505050565b60606000611f6b610100612e43565b9050611fb56040518060400160405280600c81526020017f636f64654c6f636174696f6e000000000000000000000000000000000000000081525082612e6a90919063ffffffff16565b611fde83600001516002811115611fcf57611fce6155a5565b5b82612e9390919063ffffffff16565b6120266040518060400160405280600881526020017f6c616e677561676500000000000000000000000000000000000000000000000081525082612e6a90919063ffffffff16565b61204f836040015160008111156120405761203f6155a5565b5b82612e9390919063ffffffff16565b6120976040518060400160405280600681526020017f736f75726365000000000000000000000000000000000000000000000000000081525082612e6a90919063ffffffff16565b6120ae836060015182612e6a90919063ffffffff16565b60008360a0015151111561216a576121046040518060400160405280600481526020017f617267730000000000000000000000000000000000000000000000000000000081525082612e6a90919063ffffffff16565b61210d81612ee3565b60005b8360a001515181101561215f5761214e8460a00151828151811061213757612136614e48565b5b602002602001015183612e6a90919063ffffffff16565b8061215890614d94565b9050612110565b5061216981612f0b565b5b600083608001515111156122ab576000600281111561218c5761218b6155a5565b5b836020015160028111156121a3576121a26155a5565b5b036121da576040517fa80d31f700000000000000000000000000000000000000000000000000000000815260040160405180910390fd5b6122226040518060400160405280600f81526020017f736563726574734c6f636174696f6e000000000000000000000000000000000081525082612e6a90919063ffffffff16565b61224b8360200151600281111561223c5761223b6155a5565b5b82612e9390919063ffffffff16565b6122936040518060400160405280600781526020017f736563726574730000000000000000000000000000000000000000000000000081525082612e6a90919063ffffffff16565b6122aa836080015182612f3390919063ffffffff16565b5b60008360c00151511115612367576123016040518060400160405280600981526020017f627974657341726773000000000000000000000000000000000000000000000081525082612e6a90919063ffffffff16565b61230a81612ee3565b60005b8360c001515181101561235c5761234b8460c00151828151811061233457612333614e48565b5b602002602001015183612f3390919063ffffffff16565b8061235590614d94565b905061230d565b5061236681612f0b565b5b806000015160000151915050919050565b6000807f000000000000000000000000000000000000000000000000000000000000000073ffffffffffffffffffffffffffffffffffffffff1663461d27628688600188886040518663ffffffff1660e01b81526004016123dd959493929190615610565b6020604051808303816000875af11580156123fc573d6000803e3d6000fd5b505050506040513d601f19601f82011682018060405250810190612420919061567f565b9050807f1131472297a800fee664d1d89cfa8f7676ff07189ecc53f80bbb5f4969099db860405160405180910390a280915050949350505050565b6000806124678361194b565b6124a6576040517f08c379a000000000000000000000000000000000000000000000000000000000815260040161249d9061571e565b60405180910390fd5b6124af83612f5c565b90506003600082815260200190815260200160002060009054906101000a900473ffffffffffffffffffffffffffffffffffffffff169150915091565b600090565b6000600454905090565b600860009054906101000a900473ffffffffffffffffffffffffffffffffffffffff1673ffffffffffffffffffffffffffffffffffffffff163373ffffffffffffffffffffffffffffffffffffffff161461258b576040517f08c379a00000000000000000000000000000000000000000000000000000000081526004016125829061578a565b60405180910390fd5b565b6000600754146125d2576040517f08c379a00000000000000000000000000000000000000000000000000000000081526004016125c99061539b565b60405180910390fd5b60006125dc612f79565b73ffffffffffffffffffffffffffffffffffffffff16635d3b1d306125ff612fa1565b612607612fc9565b61260f612ff1565b62030d4060016040518663ffffffff1660e01b81526004016126359594939291906157e5565b6020604051808303816000875af1158015612654573d6000803e3d6000fd5b505050506040513d601f19601f820116820180604052508101906126789190614b59565b90507f76421cb080d40e8a03ba462b500012451ba59bdebc46694dc458807c1d754b62816040516126a991906141ce565b60405180910390a150565b6126bf848484611c7c565b6126cd848484600185612ffa565b61270c576040517f08c379a0000000000000000000000000000000000000000000000000000000008152600401612703906158aa565b60405180910390fd5b50505050565b606060138054612721906148a2565b80601f016020809104026020016040519081016040528092919081815260200182805461274d906148a2565b801561279a5780601f1061276f5761010080835404028352916020019161279a565b820191906000526020600020905b81548152906001019060200180831161277d57829003601f168201915b5050505050905090565b6060600f80546127b3906148a2565b80601f01602080910402602001604051908101604052809291908181526020018280546127df906148a2565b801561282c5780601f106128015761010080835404028352916020019161282c565b820191906000526020600020905b81548152906001019060200180831161280f57829003601f168201915b5050505050905090565b60007f0000000000000000000000000000000000000000000000000000000000000000905090565b60008184106040518060400160405280601e81526020017f696e707574206973206e6f742077697468696e2074686520646f6d61696e0000815250906128da576040517f08c379a00000000000000000000000000000000000000000000000000000000081526004016128d19190613e7c565b60405180910390fd5b50600060016128e8846131bc565b0160ff1690505b60011561291f5761290e846003838861322e909392919063ffffffff16565b915082821061291f578194506128ef565b509392505050565b60606000820361296e576040518060400160405280600181526020017f30000000000000000000000000000000000000000000000000000000000000008152509050612a82565b600082905060005b600082146129a057808061298990614d94565b915050600a8261299991906158f9565b9150612976565b60008167ffffffffffffffff8111156129bc576129bb614009565b5b6040519080825280601f01601f1916602001820160405280156129ee5781602001600182028036833780820191505090505b5090505b60008514612a7b57600182612a07919061531b565b9150600a85612a16919061592a565b6030612a229190615571565b60f81b818381518110612a3857612a37614e48565b5b60200101907effffffffffffffffffffffffffffffffffffffffffffffffffffffffffffff1916908160001a905350600a85612a7491906158f9565b94506129f2565b8093505050505b919050565b60606040518060400160405280600581526020017f2e6a736f6e000000000000000000000000000000000000000000000000000000815250905090565b3373ffffffffffffffffffffffffffffffffffffffff168173ffffffffffffffffffffffffffffffffffffffff1603612b32576040517f08c379a0000000000000000000000000000000000000000000000000000000008152600401612b29906159a7565b60405180910390fd5b80600960006101000a81548173ffffffffffffffffffffffffffffffffffffffff021916908373ffffffffffffffffffffffffffffffffffffffff1602179055508073ffffffffffffffffffffffffffffffffffffffff16600860009054906101000a900473ffffffffffffffffffffffffffffffffffffffff1673ffffffffffffffffffffffffffffffffffffffff167fed8889f560326eb138920d842192f0eb3dd22b4f139c87a2c57538e05bae127860405160405180910390a350565b612bfa613393565b15612c31576040517f3d693ada00000000000000000000000000000000000000000000000000000000815260040160405180910390fd5b612c3c8160016133a0565b50565b600073ffffffffffffffffffffffffffffffffffffffff168473ffffffffffffffffffffffffffffffffffffffff1603612cc957612c7b612836565b8183612c879190615571565b1115612cc8576040517f08c379a0000000000000000000000000000000000000000000000000000000008152600401612cbf90615a13565b60405180910390fd5b5b612cd5848484846133be565b50505050565b600080600883901c9050600060ff84167f8000000000000000000000000000000000000000000000000000000000000000901c9050600081866000016000858152602001908152602001600020541614159250505092915050565b6000600882901c9050600060ff83167f8000000000000000000000000000000000000000000000000000000000000000901c9050808460000160008481526020019081526020016000206000828254179250508190555050505050565b50505050565b6000815103612dd4576040517f22ce3edd00000000000000000000000000000000000000000000000000000000815260040160405180910390fd5b8284600001906002811115612dec57612deb6155a5565b5b90816002811115612e0057612dff6155a5565b5b815250508184604001906000811115612e1c57612e1b6155a5565b5b90816000811115612e3057612e2f6155a5565b5b8152505080846060018190525050505050565b612e4b613ce3565b612e598160000151836133c4565b506000816020018181525050919050565b612e77826003835161343d565b612e8e8183600001516135e690919063ffffffff16565b505050565b612eb560026005600660ff16901b17836000015161360290919063ffffffff16565b50612edf8282604051602001612ecb91906141ce565b604051602081830303815290604052612f33565b5050565b612eee81600461366c565b600181602001818151612f019190615571565b9150818152505050565b612f1681600761366c565b600181602001818151612f29919061531b565b9150818152505050565b612f40826002835161343d565b612f578183600001516135e690919063ffffffff16565b505050565b6000612f7282600061369290919063ffffffff16565b9050919050565b60007f0000000000000000000000000000000000000000000000000000000000000000905090565b60007f0000000000000000000000000000000000000000000000000000000000000000905090565b60007f0000000000000000000000000000000000000000000000000000000000000000905090565b6000600a905090565b600061301b8573ffffffffffffffffffffffffffffffffffffffff1661378b565b156131ae576001905060008490505b83856130369190615571565b8110156131a8578573ffffffffffffffffffffffffffffffffffffffff1663150b7a02613061611971565b8984876040518563ffffffff1660e01b81526004016130839493929190615a33565b6020604051808303816000875af19250505080156130bf57506040513d601f19601f820116820180604052508101906130bc9190615a94565b60015b613141573d80600081146130ef576040519150601f19603f3d011682016040523d82523d6000602084013e6130f4565b606091505b506000815103613139576040517f08c379a0000000000000000000000000000000000000000000000000000000008152600401613130906158aa565b60405180910390fd5b805181602001fd5b828015613192575063150b7a0260e01b7bffffffffffffffffffffffffffffffffffffffffffffffffffffffff1916817bffffffffffffffffffffffffffffffffffffffffffffffffffffffff1916145b92505080806131a090614d94565b91505061302a565b506131b3565b600190505b95945050505050565b60006040518061012001604052806101008152602001615e61610100913960f87e818283848586878898a8b8c8d8e8f929395969799a9b9d9e9faaeb6bedeeff6132058561379e565b02901c8151811061321957613218614e48565b5b602001015160f81c60f81b60f81c9050919050565b60008060028381613242576132416158ca565b5b0490506000818403905060006001826001901b03905060006001846001901b039050600082858b901c1690506000828b16905060005b8981101561334f5760008b82604051602001613295929190615ac1565b6040516020818303038152906040528051906020012060001c90506000839050600080600285816132c9576132c86158ca565b5b06036133065784836040516020016132e2929190615ac1565b6040516020818303038152906040528051906020012060001c881686189050613339565b8483604051602001613319929190615ac1565b6040516020818303038152906040528051906020012060001c8716861890505b8195508094505050508080600101915050613278565b50600060028a81613363576133626158ca565b5b060361337c57808683901b17965050505050505061338b565b808583901b1796505050505050505b949350505050565b6000806007541415905090565b6133ba828260405180602001604052806000815250613802565b5050565b50505050565b6133cc613d03565b60006020836133db919061592a565b14613407576020826133ed919061592a565b60206133f9919061531b565b826134049190615571565b91505b81836020018181525050604051808452600081528281016020018181101561342e57600080fd5b80604052505082905092915050565b60178167ffffffffffffffff1611613478576134728160058460ff16901b60ff1617846000015161360290919063ffffffff16565b506135e1565b60ff8167ffffffffffffffff16116134d6576134ab601860058460ff16901b17846000015161360290919063ffffffff16565b506134d08167ffffffffffffffff166001856000015161386b9092919063ffffffff16565b506135e0565b61ffff8167ffffffffffffffff16116135355761350a601960058460ff16901b17846000015161360290919063ffffffff16565b5061352f8167ffffffffffffffff166002856000015161386b9092919063ffffffff16565b506135df565b63ffffffff8167ffffffffffffffff16116135965761356b601a60058460ff16901b17846000015161360290919063ffffffff16565b506135908167ffffffffffffffff166004856000015161386b9092919063ffffffff16565b506135de565b6135b7601b60058460ff16901b17846000015161360290919063ffffffff16565b506135dc8167ffffffffffffffff166008856000015161386b9092919063ffffffff16565b505b5b5b5b505050565b6135ee613d03565b6135fa838384516138f8565b905092915050565b61360a613d03565b6000836000015151905060006001826136239190615571565b90508460200151821061364757613646856002836136419190615aea565b6139db565b5b8451602083820101858153815183111561365f578282525b5050849250505092915050565b61368d601f60058360ff16901b17836000015161360290919063ffffffff16565b505050565b600080600883901c9050600060ff8416905060008560000160008481526020019081526020016000205490508160ff1881901c905060008111156136eb576136d9816139ff565b60ff168203600884901b179350613782565b5b6001156137815760008311613736576040517f08c379a000000000000000000000000000000000000000000000000000000000815260040161372d90615b9e565b60405180910390fd5b828060019003935050856000016000848152602001908152602001600020549050600081111561377c57613769816139ff565b60ff0360ff16600884901b179350613781565b6136ec565b5b50505092915050565b600080823b905060008111915050919050565b60008082116137ac57600080fd5b608082901c82179150604082901c82179150602082901c82179150601082901c82179150600882901c82179150600482901c82179150600282901c82179150600182901c8217915060018083901c019050919050565b600061380c6124f1565b90506138188484613a71565b613826600085838686612ffa565b613865576040517f08c379a000000000000000000000000000000000000000000000000000000000815260040161385c906158aa565b60405180910390fd5b50505050565b613873613d03565b600084600001515190506000818461388b9190615571565b905085602001518111156138b0576138af866002836138aa9190615aea565b6139db565b5b60006001856101006138c29190615cf1565b6138cc919061531b565b9050865182810187831982511617815281518411156138e9578382525b50508693505050509392505050565b613900613d03565b825182111561390e57600080fd5b60008460000151519050600083826139269190615571565b9050856020015181111561394b5761394a866002836139459190615aea565b6139db565b5b60008087518051856020830101935080851115613966578482525b60208901925050505b602086106139ad57805182526020826139889190615571565b91506020816139979190615571565b90506020866139a6919061531b565b955061396f565b60006001876020036101000a0390508019825116818451168181178552505050879450505050509392505050565b6000826000015190506139ee83836133c4565b506139f983826135e6565b50505050565b60006040518061012001604052806101008152602001615e61610100913960f87e818283848586878898a8b8c8d8e8f929395969799a9b9d9e9faaeb6bedeeff613a4885613c56565b02901c81518110613a5c57613a5b614e48565b5b602001015160f81c60f81b60f81c9050919050565b6000613a7b6124f1565b905060008211613ac0576040517f08c379a0000000000000000000000000000000000000000000000000000000008152600401613ab790615dae565b60405180910390fd5b600073ffffffffffffffffffffffffffffffffffffffff168373ffffffffffffffffffffffffffffffffffffffff1603613b2f576040517f08c379a0000000000000000000000000000000000000000000000000000000008152600401613b2690615e40565b60405180910390fd5b613b3c6000848385612c3f565b8160046000828254613b4e9190615571565b92505081905550826003600083815260200190815260200160002060006101000a81548173ffffffffffffffffffffffffffffffffffffffff021916908373ffffffffffffffffffffffffffffffffffffffff160217905550613bbb816000612d3690919063ffffffff16565b613bc86000848385612d93565b60008190505b8282613bda9190615571565b811015613c5057808473ffffffffffffffffffffffffffffffffffffffff16600073ffffffffffffffffffffffffffffffffffffffff167fddf252ad1be2c89b69c2b068fc378daa952ba7f163c4a11628f55a4df523b3ef60405160405180910390a48080613c4890614d94565b915050613bce565b50505050565b6000808211613c6457600080fd5b8160000382169050919050565b6040518060e0016040528060006002811115613c9057613c8f6155a5565b5b815260200160006002811115613ca957613ca86155a5565b5b8152602001600080811115613cc157613cc06155a5565b5b8152602001606081526020016060815260200160608152602001606081525090565b6040518060400160405280613cf6613d03565b8152602001600081525090565b604051806040016040528060608152602001600081525090565b6000604051905090565b600080fd5b600080fd5b60007fffffffff0000000000000000000000000000000000000000000000000000000082169050919050565b613d6681613d31565b8114613d7157600080fd5b50565b600081359050613d8381613d5d565b92915050565b600060208284031215613d9f57613d9e613d27565b5b6000613dad84828501613d74565b91505092915050565b60008115159050919050565b613dcb81613db6565b82525050565b6000602082019050613de66000830184613dc2565b92915050565b600081519050919050565b600082825260208201905092915050565b60005b83811015613e26578082015181840152602081019050613e0b565b60008484015250505050565b6000601f19601f8301169050919050565b6000613e4e82613dec565b613e588185613df7565b9350613e68818560208601613e08565b613e7181613e32565b840191505092915050565b60006020820190508181036000830152613e968184613e43565b905092915050565b6000819050919050565b613eb181613e9e565b8114613ebc57600080fd5b50565b600081359050613ece81613ea8565b92915050565b600060208284031215613eea57613ee9613d27565b5b6000613ef884828501613ebf565b91505092915050565b600073ffffffffffffffffffffffffffffffffffffffff82169050919050565b6000613f2c82613f01565b9050919050565b613f3c81613f21565b82525050565b6000602082019050613f576000830184613f33565b92915050565b613f6681613f21565b8114613f7157600080fd5b50565b600081359050613f8381613f5d565b92915050565b60008060408385031215613fa057613f9f613d27565b5b6000613fae85828601613f74565b9250506020613fbf85828601613ebf565b9150509250929050565b6000819050919050565b613fdc81613fc9565b8114613fe757600080fd5b50565b600081359050613ff981613fd3565b92915050565b600080fd5b600080fd5b7f4e487b7100000000000000000000000000000000000000000000000000000000600052604160045260246000fd5b61404182613e32565b810181811067ffffffffffffffff821117156140605761405f614009565b5b80604052505050565b6000614073613d1d565b905061407f8282614038565b919050565b600067ffffffffffffffff82111561409f5761409e614009565b5b6140a882613e32565b9050602081019050919050565b82818337600083830152505050565b60006140d76140d284614084565b614069565b9050828152602081018484840111156140f3576140f2614004565b5b6140fe8482856140b5565b509392505050565b600082601f83011261411b5761411a613fff565b5b813561412b8482602086016140c4565b91505092915050565b60008060006060848603121561414d5761414c613d27565b5b600061415b86828701613fea565b935050602084013567ffffffffffffffff81111561417c5761417b613d2c565b5b61418886828701614106565b925050604084013567ffffffffffffffff8111156141a9576141a8613d2c565b5b6141b586828701614106565b9150509250925092565b6141c881613e9e565b82525050565b60006020820190506141e360008301846141bf565b92915050565b600067ffffffffffffffff82111561420457614203614009565b5b602082029050602081019050919050565b600080fd5b600061422d614228846141e9565b614069565b905080838252602082019050602084028301858111156142505761424f614215565b5b835b8181101561427957806142658882613ebf565b845260208401935050602081019050614252565b5050509392505050565b600082601f83011261429857614297613fff565b5b81356142a884826020860161421a565b91505092915050565b600080604083850312156142c8576142c7613d27565b5b60006142d685828601613ebf565b925050602083013567ffffffffffffffff8111156142f7576142f6613d2c565b5b61430385828601614283565b9150509250929050565b60008060006060848603121561432657614325613d27565b5b600061433486828701613f74565b935050602061434586828701613f74565b925050604061435686828701613ebf565b9150509250925092565b600067ffffffffffffffff82169050919050565b61437d81614360565b82525050565b60006020820190506143986000830184614374565b92915050565b6000602082840312156143b4576143b3613d27565b5b60006143c284828501613fea565b91505092915050565b600081519050919050565b600082825260208201905092915050565b60006143f2826143cb565b6143fc81856143d6565b935061440c818560208601613e08565b61441581613e32565b840191505092915050565b6000602082019050818103600083015261443a81846143e7565b905092915050565b600067ffffffffffffffff82111561445d5761445c614009565b5b602082029050602081019050919050565b600067ffffffffffffffff82111561448957614488614009565b5b61449282613e32565b9050602081019050919050565b60006144b26144ad8461446e565b614069565b9050828152602081018484840111156144ce576144cd614004565b5b6144d98482856140b5565b509392505050565b600082601f8301126144f6576144f5613fff565b5b813561450684826020860161449f565b91505092915050565b600061452261451d84614442565b614069565b9050808382526020820190506020840283018581111561454557614544614215565b5b835b8181101561458c57803567ffffffffffffffff81111561456a57614569613fff565b5b80860161457789826144e1565b85526020850194505050602081019050614547565b5050509392505050565b600082601f8301126145ab576145aa613fff565b5b81356145bb84826020860161450f565b91505092915050565b6000602082840312156145da576145d9613d27565b5b600082013567ffffffffffffffff8111156145f8576145f7613d2c565b5b61460484828501614596565b91505092915050565b61461681613fc9565b82525050565b6000602082019050614631600083018461460d565b92915050565b60006020828403121561464d5761464c613d27565b5b600061465b84828501613f74565b91505092915050565b600081519050919050565b600082825260208201905092915050565b6000819050602082019050919050565b61469981613e9e565b82525050565b60006146ab8383614690565b60208301905092915050565b6000602082019050919050565b60006146cf82614664565b6146d9818561466f565b93506146e483614680565b8060005b838110156147155781516146fc888261469f565b9750614707836146b7565b9250506001810190506146e8565b5085935050505092915050565b6000602082019050818103600083015261473c81846146c4565b905092915050565b61474d81613db6565b811461475857600080fd5b50565b60008135905061476a81614744565b92915050565b6000806040838503121561478757614786613d27565b5b600061479585828601613f74565b92505060206147a68582860161475b565b9150509250929050565b600080600080608085870312156147ca576147c9613d27565b5b60006147d887828801613f74565b94505060206147e987828801613f74565b93505060406147fa87828801613ebf565b925050606085013567ffffffffffffffff81111561481b5761481a613d2c565b5b61482787828801614106565b91505092959194509250565b6000806040838503121561484a57614849613d27565b5b600061485885828601613f74565b925050602061486985828601613f74565b9150509250929050565b7f4e487b7100000000000000000000000000000000000000000000000000000000600052602260045260246000fd5b600060028204905060018216806148ba57607f821691505b6020821081036148cd576148cc614873565b5b50919050565b7f4552433732315073693a20617070726f76656420717565727920666f72206e6f60008201527f6e6578697374656e7420746f6b656e0000000000000000000000000000000000602082015250565b600061492f602f83613df7565b915061493a826148d3565b604082019050919050565b6000602082019050818103600083015261495e81614922565b9050919050565b7f4552433732315073693a20617070726f76616c20746f2063757272656e74206f60008201527f776e657200000000000000000000000000000000000000000000000000000000602082015250565b60006149c1602483613df7565b91506149cc82614965565b604082019050919050565b600060208201905081810360008301526149f0816149b4565b9050919050565b7f4552433732315073693a20617070726f76652063616c6c6572206973206e6f7460008201527f206f776e6572206e6f7220617070726f76656420666f7220616c6c0000000000602082015250565b6000614a53603b83613df7565b9150614a5e826149f7565b604082019050919050565b60006020820190508181036000830152614a8281614a46565b9050919050565b6000604082019050614a9e6000830185613f33565b614aab6020830184613f33565b9392505050565b7f4552433732315073693a207472616e736665722063616c6c6572206973206e6f60008201527f74206f776e6572206e6f7220617070726f766564000000000000000000000000602082015250565b6000614b0e603483613df7565b9150614b1982614ab2565b604082019050919050565b60006020820190508181036000830152614b3d81614b01565b9050919050565b600081519050614b5381613ea8565b92915050565b600060208284031215614b6f57614b6e613d27565b5b6000614b7d84828501614b44565b91505092915050565b7f53656e64657220686176656e2774207375627363726962656420746f2063726560008201527f61746f7200000000000000000000000000000000000000000000000000000000602082015250565b6000614be2602483613df7565b9150614bed82614b86565b604082019050919050565b60006020820190508181036000830152614c1181614bd5565b9050919050565b7f5468652053756273637269626572277320616c7265616479207265717565737460008201527f6564204c75636b79206d696e74696e6700000000000000000000000000000000602082015250565b6000614c74603083613df7565b9150614c7f82614c18565b604082019050919050565b60006020820190508181036000830152614ca381614c67565b9050919050565b6000604082019050614cbf6000830185613f33565b614ccc602083018461460d565b9392505050565b7f4552433732315073693a2062616c616e636520717565727920666f722074686560008201527f207a65726f206164647265737300000000000000000000000000000000000000602082015250565b6000614d2f602d83613df7565b9150614d3a82614cd3565b604082019050919050565b60006020820190508181036000830152614d5e81614d22565b9050919050565b7f4e487b7100000000000000000000000000000000000000000000000000000000600052601160045260246000fd5b6000614d9f82613e9e565b91507fffffffffffffffffffffffffffffffffffffffffffffffffffffffffffffffff8203614dd157614dd0614d65565b5b600182019050919050565b7f4d7573742062652070726f706f736564206f776e657200000000000000000000600082015250565b6000614e12601683613df7565b9150614e1d82614ddc565b602082019050919050565b60006020820190508181036000830152614e4181614e05565b9050919050565b7f4e487b7100000000000000000000000000000000000000000000000000000000600052603260045260246000fd5b7f4552433732315073693a20617070726f766520746f2063616c6c657200000000600082015250565b6000614ead601c83613df7565b9150614eb882614e77565b602082019050919050565b60006020820190508181036000830152614edc81614ea0565b9050919050565b7f4552433732315073693a2055524920717565727920666f72206e6f6e6578697360008201527f74656e7420746f6b656e00000000000000000000000000000000000000000000602082015250565b6000614f3f602a83613df7565b9150614f4a82614ee3565b604082019050919050565b60006020820190508181036000830152614f6e81614f32565b9050919050565b600081905092915050565b6000614f8b82613dec565b614f958185614f75565b9350614fa5818560208601613e08565b80840191505092915050565b6000614fbd8286614f80565b9150614fc98285614f80565b9150614fd58284614f80565b9150819050949350505050565b60008190508160005260206000209050919050565b60006020601f8301049050919050565b600082821b905092915050565b6000600883026150447fffffffffffffffffffffffffffffffffffffffffffffffffffffffffffffffff82615007565b61504e8683615007565b95508019841693508086168417925050509392505050565b6000819050919050565b600061508b61508661508184613e9e565b615066565b613e9e565b9050919050565b6000819050919050565b6150a583615070565b6150b96150b182615092565b848454615014565b825550505050565b600090565b6150ce6150c1565b6150d981848461509c565b505050565b5b818110156150fd576150f26000826150c6565b6001810190506150df565b5050565b601f8211156151425761511381614fe2565b61511c84614ff7565b8101602085101561512b578190505b61513f61513785614ff7565b8301826150de565b50505b505050565b600082821c905092915050565b600061516560001984600802615147565b1980831691505092915050565b600061517e8383615154565b9150826002028217905092915050565b615197826143cb565b67ffffffffffffffff8111156151b0576151af614009565b5b6151ba82546148a2565b6151c5828285615101565b600060209050601f8311600181146151f857600084156151e6578287015190505b6151f08582615172565b865550615258565b601f19841661520686614fe2565b60005b8281101561522e57848901518255600182019150602085019450602081019050615209565b8683101561524b5784890151615247601f891682615154565b8355505b6001600288020188555050505b505050505050565b6000815461526d816148a2565b61527781866143d6565b9450600182166000811461529257600181146152a8576152db565b60ff1983168652811515602002860193506152db565b6152b185614fe2565b60005b838110156152d3578154818901526001820191506020810190506152b4565b808801955050505b50505092915050565b600060408201905081810360008301526152fe8185615260565b905081810360208301526153128184615260565b90509392505050565b600061532682613e9e565b915061533183613e9e565b925082820390508181111561534957615348614d65565b5b92915050565b7f416c72656164792072657665616c656400000000000000000000000000000000600082015250565b6000615385601083613df7565b91506153908261534f565b602082019050919050565b600060208201905081810360008301526153b481615378565b9050919050565b7f4552433732315073693a206f70657261746f7220717565727920666f72206e6f60008201527f6e6578697374656e7420746f6b656e0000000000000000000000000000000000602082015250565b6000615417602f83613df7565b9150615422826153bb565b604082019050919050565b600060208201905081810360008301526154468161540a565b9050919050565b7f4552433732315073693a207472616e73666572206f6620746f6b656e2074686160008201527f74206973206e6f74206f776e0000000000000000000000000000000000000000602082015250565b60006154a9602c83613df7565b91506154b48261544d565b604082019050919050565b600060208201905081810360008301526154d88161549c565b9050919050565b7f4552433732315073693a207472616e7366657220746f20746865207a65726f2060008201527f6164647265737300000000000000000000000000000000000000000000000000602082015250565b600061553b602783613df7565b9150615546826154df565b604082019050919050565b6000602082019050818103600083015261556a8161552e565b9050919050565b600061557c82613e9e565b915061558783613e9e565b925082820190508082111561559f5761559e614d65565b5b92915050565b7f4e487b7100000000000000000000000000000000000000000000000000000000600052602160045260246000fd5b600061ffff82169050919050565b6155eb816155d4565b82525050565b600063ffffffff82169050919050565b61560a816155f1565b82525050565b600060a0820190506156256000830188614374565b818103602083015261563781876143e7565b905061564660408301866155e2565b6156536060830185615601565b615660608083018461460d565b9695505050505050565b60008151905061567981613fd3565b92915050565b60006020828403121561569557615694613d27565b5b60006156a38482850161566a565b91505092915050565b7f4552433732315073693a206f776e657220717565727920666f72206e6f6e657860008201527f697374656e7420746f6b656e0000000000000000000000000000000000000000602082015250565b6000615708602c83613df7565b9150615713826156ac565b604082019050919050565b60006020820190508181036000830152615737816156fb565b9050919050565b7f4f6e6c792063616c6c61626c65206279206f776e657200000000000000000000600082015250565b6000615774601683613df7565b915061577f8261573e565b602082019050919050565b600060208201905081810360008301526157a381615767565b9050919050565b6000819050919050565b60006157cf6157ca6157c5846157aa565b615066565b6155f1565b9050919050565b6157df816157b4565b82525050565b600060a0820190506157fa600083018861460d565b6158076020830187614374565b61581460408301866155e2565b6158216060830185615601565b61582e60808301846157d6565b9695505050505050565b7f4552433732315073693a207472616e7366657220746f206e6f6e20455243373260008201527f31526563656976657220696d706c656d656e7465720000000000000000000000602082015250565b6000615894603583613df7565b915061589f82615838565b604082019050919050565b600060208201905081810360008301526158c381615887565b9050919050565b7f4e487b7100000000000000000000000000000000000000000000000000000000600052601260045260246000fd5b600061590482613e9e565b915061590f83613e9e565b92508261591f5761591e6158ca565b5b828204905092915050565b600061593582613e9e565b915061594083613e9e565b9250826159505761594f6158ca565b5b828206905092915050565b7f43616e6e6f74207472616e7366657220746f2073656c66000000000000000000600082015250565b6000615991601783613df7565b915061599c8261595b565b602082019050919050565b600060208201905081810360008301526159c081615984565b9050919050565b7f457863656564206d6178696d756d20737570706c792100000000000000000000600082015250565b60006159fd601683613df7565b9150615a08826159c7565b602082019050919050565b60006020820190508181036000830152615a2c816159f0565b9050919050565b6000608082019050615a486000830187613f33565b615a556020830186613f33565b615a6260408301856141bf565b8181036060830152615a7481846143e7565b905095945050505050565b600081519050615a8e81613d5d565b92915050565b600060208284031215615aaa57615aa9613d27565b5b6000615ab884828501615a7f565b91505092915050565b6000604082019050615ad660008301856141bf565b615ae360208301846141bf565b9392505050565b6000615af582613e9e565b9150615b0083613e9e565b9250828202615b0e81613e9e565b91508282048414831517615b2557615b24614d65565b5b5092915050565b7f4269744d6170733a205468652073657420626974206265666f7265207468652060008201527f696e64657820646f65736e27742065786973742e000000000000000000000000602082015250565b6000615b88603483613df7565b9150615b9382615b2c565b604082019050919050565b60006020820190508181036000830152615bb781615b7b565b9050919050565b60008160011c9050919050565b6000808291508390505b6001851115615c1557808604811115615bf157615bf0614d65565b5b6001851615615c005780820291505b8081029050615c0e85615bbe565b9450615bd5565b94509492505050565b600082615c2e5760019050615cea565b81615c3c5760009050615cea565b8160018114615c525760028114615c5c57615c8b565b6001915050615cea565b60ff841115615c6e57615c6d614d65565b5b8360020a915084821115615c8557615c84614d65565b5b50615cea565b5060208310610133831016604e8410600b8410161715615cc05782820a905083811115615cbb57615cba614d65565b5b615cea565b615ccd8484846001615bcb565b92509050818404811115615ce457615ce3614d65565b5b81810290505b9392505050565b6000615cfc82613e9e565b9150615d0783613e9e565b9250615d347fffffffffffffffffffffffffffffffffffffffffffffffffffffffffffffffff8484615c1e565b905092915050565b7f4552433732315073693a207175616e74697479206d757374206265206772656160008201527f7465722030000000000000000000000000000000000000000000000000000000602082015250565b6000615d98602583613df7565b9150615da382615d3c565b604082019050919050565b60006020820190508181036000830152615dc781615d8b565b9050919050565b7f4552433732315073693a206d696e7420746f20746865207a65726f206164647260008201527f6573730000000000000000000000000000000000000000000000000000000000602082015250565b6000615e2a602383613df7565b9150615e3582615dce565b604082019050919050565b60006020820190508181036000830152615e5981615e1d565b905091905056fe0001020903110a19042112290b311a3905412245134d2a550c5d32651b6d3a7506264262237d468514804e8d2b95569d0d495ea533a966b11c886eb93bc176c9071727374353637324837e9b47af86c7155181ad4fd18ed32c9096db57d59ee30e2e4a6a5f92a6be3498aae067ddb2eb1d5989b56fd7baf33ca0c2ee77e5caf7ff0810182028303840444c545c646c7425617c847f8c949c48a4a8b087b8c0c816365272829aaec650acd0d28fdad4e22d6991bd97dfdcea58b4d6f29fede4f6fe0f1f2f3f4b5b6b607b8b93a3a7b7bf357199c5abcfd9e168bcdee9b3f1ecf5fd1e3e5a7a8aa2b670c4ced8bbe8f0f4fc3d79a1c3cde7effb78cce6facbf9f8a2646970667358221220503409b10e4659a69abd23aafa70216dfc5e4a01270fef4692bec3aad22bb3c364736f6c63430008130033636f6e7374206164647265737343726561746f72203d20617267735b305d636f6e737420616464726573734275796572203d20617267735b315d636f6e737420636865636b4e465450757263686173656452657175657374203d2061776169742046756e6374696f6e732e6d616b654874747052657175657374287b75726c3a206068747470733a2f2f6d657461646174612d73746f726167652e617a75726577656273697465732e6e65742f6170692f76312f736f6369616c732f63726561746f722f247b6164647265737343726561746f727d2f62757965722f247b6164647265737342757965727d607d2969662028636865636b4e4654507572636861736564526571756573742e6572726f7229207b636f6e736f6c652e6572726f7228636865636b4e4654507572636861736564526571756573742e6572726f72297468726f77204572726f72282752657175657374206661696c656427297d636f6e7374207b2064617461207d203d20636865636b4e465450757263686173656452657175657374636f6e7374206e6674426f75676874203d20646174612e6e756d42757972657475726e2046756e6374696f6e732e656e636f646555696e74323536286e6674426f7567687429",
  "linkReferences": {},
  "deployedLinkReferences": {}
}