{
  "_format": "hh-sol-artifact-1",
  "contractName": "NftMarketplace",
  "sourceName": "contracts/Marketplace.sol",
  "abi": [
    {
      "inputs": [
        {
          "internalType": "address",
          "name": "link",
          "type": "address"
        },
        {
          "internalType": "address",
          "name": "aggregatorAddr",
          "type": "address"
        },
        {
          "internalType": "address",
          "name": "usdcAddress",
          "type": "address"
        }
      ],
      "stateMutability": "nonpayable",
      "type": "constructor"
    },
    {
      "inputs": [
        {
          "internalType": "address",
          "name": "nftAddress",
          "type": "address"
        },
        {
          "internalType": "uint256",
          "name": "tokenId",
          "type": "uint256"
        }
      ],
      "name": "AlreadyListed",
      "type": "error"
    },
    {
      "inputs": [],
      "name": "NFTPriceMustBeAboveZero",
      "type": "error"
    },
    {
      "inputs": [],
      "name": "NotApprovedForMarketplace",
      "type": "error"
    },
    {
      "inputs": [
        {
          "internalType": "address",
          "name": "nftAddress",
          "type": "address"
        },
        {
          "internalType": "uint256",
          "name": "tokenId",
          "type": "uint256"
        }
      ],
      "name": "NotListed",
      "type": "error"
    },
    {
      "inputs": [],
      "name": "NotOwner",
      "type": "error"
    },
    {
      "inputs": [
        {
          "internalType": "address",
          "name": "nftAddress",
          "type": "address"
        },
        {
          "internalType": "uint256",
          "name": "tokenId",
          "type": "uint256"
        },
        {
          "internalType": "uint256",
          "name": "price",
          "type": "uint256"
        },
        {
          "internalType": "uint256",
          "name": "promptPrice",
          "type": "uint256"
        }
      ],
      "name": "PromptIsNotBuyable",
      "type": "error"
    },
    {
      "anonymous": false,
      "inputs": [
        {
          "indexed": true,
          "internalType": "address",
          "name": "buyer",
          "type": "address"
        },
        {
          "indexed": true,
          "internalType": "address",
          "name": "nftAddress",
          "type": "address"
        },
        {
          "indexed": true,
          "internalType": "uint256",
          "name": "tokenId",
          "type": "uint256"
        },
        {
          "indexed": false,
          "internalType": "uint256",
          "name": "nftPrice",
          "type": "uint256"
        },
        {
          "indexed": false,
          "internalType": "uint256",
          "name": "promptPrice",
          "type": "uint256"
        }
      ],
      "name": "ItemBought",
      "type": "event"
    },
    {
      "anonymous": false,
      "inputs": [
        {
          "indexed": true,
          "internalType": "address",
          "name": "seller",
          "type": "address"
        },
        {
          "indexed": true,
          "internalType": "address",
          "name": "nftAddress",
          "type": "address"
        },
        {
          "indexed": true,
          "internalType": "uint256",
          "name": "tokenId",
          "type": "uint256"
        }
      ],
      "name": "ItemCanceled",
      "type": "event"
    },
    {
      "anonymous": false,
      "inputs": [
        {
          "indexed": true,
          "internalType": "address",
          "name": "seller",
          "type": "address"
        },
        {
          "indexed": true,
          "internalType": "address",
          "name": "nftAddress",
          "type": "address"
        },
        {
          "indexed": true,
          "internalType": "uint256",
          "name": "tokenId",
          "type": "uint256"
        },
        {
          "indexed": false,
          "internalType": "uint256",
          "name": "nftPrice",
          "type": "uint256"
        },
        {
          "indexed": false,
          "internalType": "uint256",
          "name": "promptPrice",
          "type": "uint256"
        }
      ],
      "name": "ItemListed",
      "type": "event"
    },
    {
      "anonymous": false,
      "inputs": [
        {
          "indexed": true,
          "internalType": "address",
          "name": "buyer",
          "type": "address"
        },
        {
          "indexed": true,
          "internalType": "address",
          "name": "nftAddress",
          "type": "address"
        },
        {
          "indexed": true,
          "internalType": "uint256",
          "name": "tokenId",
          "type": "uint256"
        },
        {
          "indexed": false,
          "internalType": "uint256",
          "name": "nftPrice",
          "type": "uint256"
        },
        {
          "indexed": false,
          "internalType": "uint256",
          "name": "promptPrice",
          "type": "uint256"
        }
      ],
      "name": "PromptBought",
      "type": "event"
    },
    {
      "inputs": [
        {
          "internalType": "address",
          "name": "nftAddress",
          "type": "address"
        },
        {
          "internalType": "uint256",
          "name": "tokenId",
          "type": "uint256"
        },
        {
          "internalType": "uint256",
          "name": "tokenAmount",
          "type": "uint256"
        }
      ],
      "name": "buyItem",
      "outputs": [],
      "stateMutability": "payable",
      "type": "function"
    },
    {
      "inputs": [
        {
          "internalType": "address",
          "name": "nftAddress",
          "type": "address"
        },
        {
          "internalType": "uint256",
          "name": "tokenId",
          "type": "uint256"
        },
        {
          "internalType": "uint256",
          "name": "tokenAmount",
          "type": "uint256"
        }
      ],
      "name": "buyPrompt",
      "outputs": [],
      "stateMutability": "payable",
      "type": "function"
    },
    {
      "inputs": [
        {
          "internalType": "address",
          "name": "nftAddress",
          "type": "address"
        },
        {
          "internalType": "uint256",
          "name": "tokenId",
          "type": "uint256"
        }
      ],
      "name": "cancelListing",
      "outputs": [],
      "stateMutability": "nonpayable",
      "type": "function"
    },
    {
      "inputs": [],
      "name": "getChainlinkDataFeedLatestAnswer",
      "outputs": [
        {
          "internalType": "int256",
          "name": "",
          "type": "int256"
        }
      ],
      "stateMutability": "view",
      "type": "function"
    },
    {
      "inputs": [
        {
          "internalType": "address",
          "name": "nftAddress",
          "type": "address"
        },
        {
          "internalType": "uint256",
          "name": "tokenId",
          "type": "uint256"
        }
      ],
      "name": "getListPromptBuyers",
      "outputs": [
        {
          "internalType": "address[]",
          "name": "",
          "type": "address[]"
        }
      ],
      "stateMutability": "view",
      "type": "function"
    },
    {
      "inputs": [
        {
          "internalType": "address",
          "name": "nftAddress",
          "type": "address"
        },
        {
          "internalType": "uint256",
          "name": "tokenId",
          "type": "uint256"
        }
      ],
      "name": "getListing",
      "outputs": [
        {
          "components": [
            {
              "internalType": "uint256",
              "name": "nftPrice",
              "type": "uint256"
            },
            {
              "internalType": "uint256",
              "name": "promptPrice",
              "type": "uint256"
            },
            {
              "internalType": "address",
              "name": "seller",
              "type": "address"
            }
          ],
          "internalType": "struct NftMarketplace.Listing",
          "name": "",
          "type": "tuple"
        }
      ],
      "stateMutability": "view",
      "type": "function"
    },
    {
      "inputs": [
        {
          "internalType": "address",
          "name": "nftAddress",
          "type": "address"
        },
        {
          "internalType": "uint256",
          "name": "tokenId",
          "type": "uint256"
        }
      ],
      "name": "getPromptPrice",
      "outputs": [
        {
          "internalType": "uint256",
          "name": "",
          "type": "uint256"
        },
        {
          "internalType": "uint256",
          "name": "",
          "type": "uint256"
        }
      ],
      "stateMutability": "view",
      "type": "function"
    },
    {
      "inputs": [
        {
          "internalType": "address",
          "name": "nftAddress",
          "type": "address"
        },
        {
          "internalType": "uint256",
          "name": "tokenId",
          "type": "uint256"
        }
      ],
      "name": "getTokenPrice",
      "outputs": [
        {
          "internalType": "uint256",
          "name": "",
          "type": "uint256"
        },
        {
          "internalType": "uint256",
          "name": "",
          "type": "uint256"
        }
      ],
      "stateMutability": "view",
      "type": "function"
    },
    {
      "inputs": [
        {
          "internalType": "address",
          "name": "nftAddress",
          "type": "address"
        },
        {
          "internalType": "uint256",
          "name": "tokenId",
          "type": "uint256"
        },
        {
          "internalType": "uint256",
          "name": "nftPrice",
          "type": "uint256"
        },
        {
          "internalType": "uint256",
          "name": "promptPrice",
          "type": "uint256"
        }
      ],
      "name": "listItem",
      "outputs": [],
      "stateMutability": "nonpayable",
      "type": "function"
    },
    {
      "inputs": [
        {
          "internalType": "uint256",
          "name": "input",
          "type": "uint256"
        }
      ],
      "name": "roundToMillion",
      "outputs": [
        {
          "internalType": "uint256",
          "name": "",
          "type": "uint256"
        }
      ],
      "stateMutability": "pure",
      "type": "function"
    },
    {
      "inputs": [
        {
          "internalType": "address",
          "name": "nftAddress",
          "type": "address"
        },
        {
          "internalType": "uint256",
          "name": "tokenId",
          "type": "uint256"
        },
        {
          "internalType": "uint256",
          "name": "newNFTPrice",
          "type": "uint256"
        },
        {
          "internalType": "uint256",
          "name": "newPromptPrice",
          "type": "uint256"
        }
      ],
      "name": "updateListing",
      "outputs": [],
      "stateMutability": "nonpayable",
      "type": "function"
    },
    {
      "inputs": [
        {
          "internalType": "address",
          "name": "nftAddress",
          "type": "address"
        },
        {
          "internalType": "uint256",
          "name": "tokenId",
          "type": "uint256"
        },
        {
          "internalType": "uint256",
          "name": "newPromptPrice",
          "type": "uint256"
        }
      ],
      "name": "updatePromptPrice",
      "outputs": [],
      "stateMutability": "nonpayable",
      "type": "function"
    },
    {
      "inputs": [],
      "name": "usdc",
      "outputs": [
        {
          "internalType": "address",
          "name": "",
          "type": "address"
        }
      ],
      "stateMutability": "view",
      "type": "function"
    }
  ],
  "bytecode": "0x60a0604052600260009054906101000a900473ffffffffffffffffffffffffffffffffffffffff16600360006101000a81548173ffffffffffffffffffffffffffffffffffffffff021916908373ffffffffffffffffffffffffffffffffffffffff1602179055503480156200007457600080fd5b5060405162002c7938038062002c7983398181016040528101906200009a9190620001cb565b600160008190555081600160006101000a81548173ffffffffffffffffffffffffffffffffffffffff021916908373ffffffffffffffffffffffffffffffffffffffff1602179055508273ffffffffffffffffffffffffffffffffffffffff1660808173ffffffffffffffffffffffffffffffffffffffff168152505080600260006101000a81548173ffffffffffffffffffffffffffffffffffffffff021916908373ffffffffffffffffffffffffffffffffffffffff16021790555050505062000227565b600080fd5b600073ffffffffffffffffffffffffffffffffffffffff82169050919050565b6000620001938262000166565b9050919050565b620001a58162000186565b8114620001b157600080fd5b50565b600081519050620001c5816200019a565b92915050565b600080600060608486031215620001e757620001e662000161565b5b6000620001f786828701620001b4565b93505060206200020a86828701620001b4565b92505060406200021d86828701620001b4565b9150509250925092565b608051612a396200024060003960005050612a396000f3fe6080604052600436106100c25760003560e01c8063b2ddee061161007f578063c9f7153c11610059578063c9f7153c1461028d578063d9964757146102cb578063e590af6e146102f4578063f6b45c4614610310576100c2565b8063b2ddee0614610210578063bcb143ef14610239578063bea4dfb514610262576100c2565b80633e413bee146100c757806344cc4a13146100f25780636be6fe4e146101305780637752cf4914610159578063786ae4381461019657806388700d1c146101d3575b600080fd5b3480156100d357600080fd5b506100dc61032c565b6040516100e99190612059565b60405180910390f35b3480156100fe57600080fd5b50610119600480360381019061011491906120db565b610352565b60405161012792919061212a565b60405180910390f35b34801561013c57600080fd5b5061015760048036038101906101529190612153565b61045d565b005b34801561016557600080fd5b50610180600480360381019061017b91906120db565b6105a7565b60405161018d9190612264565b60405180910390f35b3480156101a257600080fd5b506101bd60048036038101906101b89190612286565b610686565b6040516101ca91906122b3565b60405180910390f35b3480156101df57600080fd5b506101fa60048036038101906101f591906120db565b6106bc565b604051610207919061231f565b60405180910390f35b34801561021c57600080fd5b50610237600480360381019061023291906120db565b610791565b005b34801561024557600080fd5b50610260600480360381019061025b919061233a565b610a83565b005b34801561026e57600080fd5b50610277610ef8565b60405161028491906123ba565b60405180910390f35b34801561029957600080fd5b506102b460048036038101906102af91906120db565b610f99565b6040516102c292919061212a565b60405180910390f35b3480156102d757600080fd5b506102f260048036038101906102ed919061233a565b6110a4565b005b61030e60048036038101906103099190612153565b61145a565b005b61032a60048036038101906103259190612153565b611994565b005b600260009054906101000a900473ffffffffffffffffffffffffffffffffffffffff1681565b6000806000600460008673ffffffffffffffffffffffffffffffffffffffff1673ffffffffffffffffffffffffffffffffffffffff168152602001908152602001600020600085815260200190815260200160002060405180606001604052908160008201548152602001600182015481526020016002820160009054906101000a900473ffffffffffffffffffffffffffffffffffffffff1673ffffffffffffffffffffffffffffffffffffffff1673ffffffffffffffffffffffffffffffffffffffff1681525050905080602001516305f5e100826020015161043d610438610ef8565b610686565b6104479190612404565b6104519190612475565b92509250509250929050565b6002600054036104a2576040517f08c379a000000000000000000000000000000000000000000000000000000000815260040161049990612503565b60405180910390fd5b6002600081905550828233600083905060008173ffffffffffffffffffffffffffffffffffffffff16636352211e856040518263ffffffff1660e01b81526004016104ed91906122b3565b602060405180830381865afa15801561050a573d6000803e3d6000fd5b505050506040513d601f19601f8201168201806040525081019061052e9190612538565b90508073ffffffffffffffffffffffffffffffffffffffff168373ffffffffffffffffffffffffffffffffffffffff1614610595576040517f30cd747100000000000000000000000000000000000000000000000000000000815260040160405180910390fd5b50505050506001600081905550505050565b6060600560008473ffffffffffffffffffffffffffffffffffffffff1673ffffffffffffffffffffffffffffffffffffffff168152602001908152602001600020600083815260200190815260200160002080548060200260200160405190810160405280929190818152602001828054801561067957602002820191906000526020600020905b8160009054906101000a900473ffffffffffffffffffffffffffffffffffffffff1673ffffffffffffffffffffffffffffffffffffffff168152602001906001019080831161062f575b5050505050905092915050565b600080620f4240806207a1208561069d9190612565565b6106a79190612475565b6106b19190612404565b905080915050919050565b6106c4611f72565b600460008473ffffffffffffffffffffffffffffffffffffffff1673ffffffffffffffffffffffffffffffffffffffff168152602001908152602001600020600083815260200190815260200160002060405180606001604052908160008201548152602001600182015481526020016002820160009054906101000a900473ffffffffffffffffffffffffffffffffffffffff1673ffffffffffffffffffffffffffffffffffffffff1673ffffffffffffffffffffffffffffffffffffffff1681525050905092915050565b818133600083905060008173ffffffffffffffffffffffffffffffffffffffff16636352211e856040518263ffffffff1660e01b81526004016107d491906122b3565b602060405180830381865afa1580156107f1573d6000803e3d6000fd5b505050506040513d601f19601f820116820180604052508101906108159190612538565b90508073ffffffffffffffffffffffffffffffffffffffff168373ffffffffffffffffffffffffffffffffffffffff161461087c576040517f30cd747100000000000000000000000000000000000000000000000000000000815260040160405180910390fd5b86866000600460008473ffffffffffffffffffffffffffffffffffffffff1673ffffffffffffffffffffffffffffffffffffffff168152602001908152602001600020600083815260200190815260200160002060405180606001604052908160008201548152602001600182015481526020016002820160009054906101000a900473ffffffffffffffffffffffffffffffffffffffff1673ffffffffffffffffffffffffffffffffffffffff1673ffffffffffffffffffffffffffffffffffffffff1681525050905060008160000151116109925782826040517f6831488c000000000000000000000000000000000000000000000000000000008152600401610989929190612599565b60405180910390fd5b600460008b73ffffffffffffffffffffffffffffffffffffffff1673ffffffffffffffffffffffffffffffffffffffff16815260200190815260200160002060008a815260200190815260200160002060008082016000905560018201600090556002820160006101000a81549073ffffffffffffffffffffffffffffffffffffffff02191690555050888a73ffffffffffffffffffffffffffffffffffffffff163373ffffffffffffffffffffffffffffffffffffffff167f9ba1a3cb55ce8d63d072a886f94d2a744f50cddf82128e897d0661f5ec62315860405160405180910390a450505050505050505050565b83836000600460008473ffffffffffffffffffffffffffffffffffffffff1673ffffffffffffffffffffffffffffffffffffffff168152602001908152602001600020600083815260200190815260200160002060405180606001604052908160008201548152602001600182015481526020016002820160009054906101000a900473ffffffffffffffffffffffffffffffffffffffff1673ffffffffffffffffffffffffffffffffffffffff1673ffffffffffffffffffffffffffffffffffffffff16815250509050600081600001511115610b9a5782826040517f4a5568d5000000000000000000000000000000000000000000000000000000008152600401610b91929190612599565b60405180910390fd5b868633600083905060008173ffffffffffffffffffffffffffffffffffffffff16636352211e856040518263ffffffff1660e01b8152600401610bdd91906122b3565b602060405180830381865afa158015610bfa573d6000803e3d6000fd5b505050506040513d601f19601f82011682018060405250810190610c1e9190612538565b90508073ffffffffffffffffffffffffffffffffffffffff168373ffffffffffffffffffffffffffffffffffffffff1614610c85576040517f30cd747100000000000000000000000000000000000000000000000000000000815260040160405180910390fd5b60008a11610cbf576040517f463d85e900000000000000000000000000000000000000000000000000000000815260040160405180910390fd5b60008c90503073ffffffffffffffffffffffffffffffffffffffff168173ffffffffffffffffffffffffffffffffffffffff1663081812fc8e6040518263ffffffff1660e01b8152600401610d1491906122b3565b602060405180830381865afa158015610d31573d6000803e3d6000fd5b505050506040513d601f19601f82011682018060405250810190610d559190612538565b73ffffffffffffffffffffffffffffffffffffffff1614610da2576040517f4be3a2c500000000000000000000000000000000000000000000000000000000815260040160405180910390fd5b60405180606001604052808c81526020018b81526020013373ffffffffffffffffffffffffffffffffffffffff16815250600460008f73ffffffffffffffffffffffffffffffffffffffff1673ffffffffffffffffffffffffffffffffffffffff16815260200190815260200160002060008e8152602001908152602001600020600082015181600001556020820151816001015560408201518160020160006101000a81548173ffffffffffffffffffffffffffffffffffffffff021916908373ffffffffffffffffffffffffffffffffffffffff1602179055509050508b8d73ffffffffffffffffffffffffffffffffffffffff163373ffffffffffffffffffffffffffffffffffffffff167f91623fbd639d8d503fe2e77aab334b032313685f1b28c84d838c4b647b1f5d9d8e8e604051610ee192919061212a565b60405180910390a450505050505050505050505050565b600080600160009054906101000a900473ffffffffffffffffffffffffffffffffffffffff1673ffffffffffffffffffffffffffffffffffffffff1663feaf968c6040518163ffffffff1660e01b815260040160a060405180830381865afa158015610f68573d6000803e3d6000fd5b505050506040513d601f19601f82011682018060405250810190610f8c9190612645565b5050509150508091505090565b6000806000600460008673ffffffffffffffffffffffffffffffffffffffff1673ffffffffffffffffffffffffffffffffffffffff168152602001908152602001600020600085815260200190815260200160002060405180606001604052908160008201548152602001600182015481526020016002820160009054906101000a900473ffffffffffffffffffffffffffffffffffffffff1673ffffffffffffffffffffffffffffffffffffffff1673ffffffffffffffffffffffffffffffffffffffff1681525050905080600001516305f5e100826000015161108461107f610ef8565b610686565b61108e9190612404565b6110989190612475565b92509250509250929050565b83836000600460008473ffffffffffffffffffffffffffffffffffffffff1673ffffffffffffffffffffffffffffffffffffffff168152602001908152602001600020600083815260200190815260200160002060405180606001604052908160008201548152602001600182015481526020016002820160009054906101000a900473ffffffffffffffffffffffffffffffffffffffff1673ffffffffffffffffffffffffffffffffffffffff1673ffffffffffffffffffffffffffffffffffffffff1681525050905060008160000151116111ba5782826040517f6831488c0000000000000000000000000000000000000000000000000000000081526004016111b1929190612599565b60405180910390fd5b6002600054036111ff576040517f08c379a00000000000000000000000000000000000000000000000000000000081526004016111f690612503565b60405180910390fd5b6002600081905550868633600083905060008173ffffffffffffffffffffffffffffffffffffffff16636352211e856040518263ffffffff1660e01b815260040161124a91906122b3565b602060405180830381865afa158015611267573d6000803e3d6000fd5b505050506040513d601f19601f8201168201806040525081019061128b9190612538565b90508073ffffffffffffffffffffffffffffffffffffffff168373ffffffffffffffffffffffffffffffffffffffff16146112f2576040517f30cd747100000000000000000000000000000000000000000000000000000000815260040160405180910390fd5b60008a1161132c576040517f463d85e900000000000000000000000000000000000000000000000000000000815260040160405180910390fd5b89600460008e73ffffffffffffffffffffffffffffffffffffffff1673ffffffffffffffffffffffffffffffffffffffff16815260200190815260200160002060008d81526020019081526020016000206000018190555088600460008e73ffffffffffffffffffffffffffffffffffffffff1673ffffffffffffffffffffffffffffffffffffffff16815260200190815260200160002060008d8152602001908152602001600020600101819055508a8c73ffffffffffffffffffffffffffffffffffffffff163373ffffffffffffffffffffffffffffffffffffffff167f91623fbd639d8d503fe2e77aab334b032313685f1b28c84d838c4b647b1f5d9d8d8d60405161143c92919061212a565b60405180910390a45050505050600160008190555050505050505050565b60026000540361149f576040517f08c379a000000000000000000000000000000000000000000000000000000000815260040161149690612503565b60405180910390fd5b60026000819055506000600460008573ffffffffffffffffffffffffffffffffffffffff1673ffffffffffffffffffffffffffffffffffffffff168152602001908152602001600020600084815260200190815260200160002060405180606001604052908160008201548152602001600182015481526020016002820160009054906101000a900473ffffffffffffffffffffffffffffffffffffffff1673ffffffffffffffffffffffffffffffffffffffff1673ffffffffffffffffffffffffffffffffffffffff1681525050905060008160200151116115c7578383826000015183602001516040517ffeb77efa0000000000000000000000000000000000000000000000000000000081526004016115be94939291906126c0565b60405180910390fd5b60006305f5e10082602001516115e36115de610ef8565b610686565b6115ed9190612404565b6115f79190612475565b90506000831461170257808314611643576040517f08c379a000000000000000000000000000000000000000000000000000000000815260040161163a90612751565b60405180910390fd5b64e8d4a51000836116549190612475565b9050600360009054906101000a900473ffffffffffffffffffffffffffffffffffffffff1673ffffffffffffffffffffffffffffffffffffffff166323b872dd338460400151846040518463ffffffff1660e01b81526004016116b993929190612771565b6020604051808303816000875af11580156116d8573d6000803e3d6000fd5b505050506040513d601f19601f820116820180604052508101906116fc91906127e0565b506117fe565b81602001513414611748576040517f08c379a000000000000000000000000000000000000000000000000000000000815260040161173f90612859565b60405180910390fd5b6000826040015173ffffffffffffffffffffffffffffffffffffffff168360200151604051611776906128aa565b60006040518083038185875af1925050503d80600081146117b3576040519150601f19603f3d011682016040523d82523d6000602084013e6117b8565b606091505b50509050806117fc576040517f08c379a00000000000000000000000000000000000000000000000000000000081526004016117f39061290b565b60405180910390fd5b505b6000600560008773ffffffffffffffffffffffffffffffffffffffff1673ffffffffffffffffffffffffffffffffffffffff1681526020019081526020016000206000868152602001908152602001600020905080339080600181540180825580915050600190039060005260206000200160009091909190916101000a81548173ffffffffffffffffffffffffffffffffffffffff021916908373ffffffffffffffffffffffffffffffffffffffff16021790555080600560008873ffffffffffffffffffffffffffffffffffffffff1673ffffffffffffffffffffffffffffffffffffffff1681526020019081526020016000206000878152602001908152602001600020908054611913929190611fa9565b50848673ffffffffffffffffffffffffffffffffffffffff163373ffffffffffffffffffffffffffffffffffffffff167f488166e6e7d3c062535710aef4766e8d2e1b7a26eeb1c29aa98e4529900a1d7f8660000151876020015160405161197c92919061212a565b60405180910390a45050506001600081905550505050565b82826000600460008473ffffffffffffffffffffffffffffffffffffffff1673ffffffffffffffffffffffffffffffffffffffff168152602001908152602001600020600083815260200190815260200160002060405180606001604052908160008201548152602001600182015481526020016002820160009054906101000a900473ffffffffffffffffffffffffffffffffffffffff1673ffffffffffffffffffffffffffffffffffffffff1673ffffffffffffffffffffffffffffffffffffffff168152505090506000816000015111611aaa5782826040517f6831488c000000000000000000000000000000000000000000000000000000008152600401611aa1929190612599565b60405180910390fd5b600260005403611aef576040517f08c379a0000000000000000000000000000000000000000000000000000000008152600401611ae690612503565b60405180910390fd5b60026000819055506000600460008873ffffffffffffffffffffffffffffffffffffffff1673ffffffffffffffffffffffffffffffffffffffff168152602001908152602001600020600087815260200190815260200160002060405180606001604052908160008201548152602001600182015481526020016002820160009054906101000a900473ffffffffffffffffffffffffffffffffffffffff1673ffffffffffffffffffffffffffffffffffffffff1673ffffffffffffffffffffffffffffffffffffffff1681525050905060006305f5e1008260000151611bdc611bd7610ef8565b610686565b611be69190612404565b611bf09190612475565b905060008614611cfb57808614611c3c576040517f08c379a0000000000000000000000000000000000000000000000000000000008152600401611c3390612977565b60405180910390fd5b64e8d4a5100086611c4d9190612475565b9050600360009054906101000a900473ffffffffffffffffffffffffffffffffffffffff1673ffffffffffffffffffffffffffffffffffffffff166323b872dd338460400151846040518463ffffffff1660e01b8152600401611cb293929190612771565b6020604051808303816000875af1158015611cd1573d6000803e3d6000fd5b505050506040513d601f19601f82011682018060405250810190611cf591906127e0565b50611df3565b81600001513414611d41576040517f08c379a0000000000000000000000000000000000000000000000000000000008152600401611d38906129e3565b60405180910390fd5b60003373ffffffffffffffffffffffffffffffffffffffff168360000151604051611d6b906128aa565b60006040518083038185875af1925050503d8060008114611da8576040519150601f19603f3d011682016040523d82523d6000602084013e611dad565b606091505b5050905080611df1576040517f08c379a0000000000000000000000000000000000000000000000000000000008152600401611de89061290b565b60405180910390fd5b505b600460008973ffffffffffffffffffffffffffffffffffffffff1673ffffffffffffffffffffffffffffffffffffffff168152602001908152602001600020600088815260200190815260200160002060008082016000905560018201600090556002820160006101000a81549073ffffffffffffffffffffffffffffffffffffffff021916905550508773ffffffffffffffffffffffffffffffffffffffff166342842e0e8360400151338a6040518463ffffffff1660e01b8152600401611ebe93929190612771565b600060405180830381600087803b158015611ed857600080fd5b505af1158015611eec573d6000803e3d6000fd5b50505050868873ffffffffffffffffffffffffffffffffffffffff163373ffffffffffffffffffffffffffffffffffffffff167f2991548a0e30c2c69fd9661959d01ee276b5e142c07dfab9d917ddf1c120485e85600001518660200151604051611f5892919061212a565b60405180910390a450506001600081905550505050505050565b60405180606001604052806000815260200160008152602001600073ffffffffffffffffffffffffffffffffffffffff1681525090565b828054828255906000526020600020908101928215611fea5760005260206000209182015b82811115611fe9578254825591600101919060010190611fce565b5b509050611ff79190611ffb565b5090565b5b80821115612014576000816000905550600101611ffc565b5090565b600073ffffffffffffffffffffffffffffffffffffffff82169050919050565b600061204382612018565b9050919050565b61205381612038565b82525050565b600060208201905061206e600083018461204a565b92915050565b600080fd5b61208281612038565b811461208d57600080fd5b50565b60008135905061209f81612079565b92915050565b6000819050919050565b6120b8816120a5565b81146120c357600080fd5b50565b6000813590506120d5816120af565b92915050565b600080604083850312156120f2576120f1612074565b5b600061210085828601612090565b9250506020612111858286016120c6565b9150509250929050565b612124816120a5565b82525050565b600060408201905061213f600083018561211b565b61214c602083018461211b565b9392505050565b60008060006060848603121561216c5761216b612074565b5b600061217a86828701612090565b935050602061218b868287016120c6565b925050604061219c868287016120c6565b9150509250925092565b600081519050919050565b600082825260208201905092915050565b6000819050602082019050919050565b6121db81612038565b82525050565b60006121ed83836121d2565b60208301905092915050565b6000602082019050919050565b6000612211826121a6565b61221b81856121b1565b9350612226836121c2565b8060005b8381101561225757815161223e88826121e1565b9750612249836121f9565b92505060018101905061222a565b5085935050505092915050565b6000602082019050818103600083015261227e8184612206565b905092915050565b60006020828403121561229c5761229b612074565b5b60006122aa848285016120c6565b91505092915050565b60006020820190506122c8600083018461211b565b92915050565b6122d7816120a5565b82525050565b6060820160008201516122f360008501826122ce565b50602082015161230660208501826122ce565b50604082015161231960408501826121d2565b50505050565b600060608201905061233460008301846122dd565b92915050565b6000806000806080858703121561235457612353612074565b5b600061236287828801612090565b9450506020612373878288016120c6565b9350506040612384878288016120c6565b9250506060612395878288016120c6565b91505092959194509250565b6000819050919050565b6123b4816123a1565b82525050565b60006020820190506123cf60008301846123ab565b92915050565b7f4e487b7100000000000000000000000000000000000000000000000000000000600052601160045260246000fd5b600061240f826120a5565b915061241a836120a5565b9250828202612428816120a5565b9150828204841483151761243f5761243e6123d5565b5b5092915050565b7f4e487b7100000000000000000000000000000000000000000000000000000000600052601260045260246000fd5b6000612480826120a5565b915061248b836120a5565b92508261249b5761249a612446565b5b828204905092915050565b600082825260208201905092915050565b7f5265656e7472616e637947756172643a207265656e7472616e742063616c6c00600082015250565b60006124ed601f836124a6565b91506124f8826124b7565b602082019050919050565b6000602082019050818103600083015261251c816124e0565b9050919050565b60008151905061253281612079565b92915050565b60006020828403121561254e5761254d612074565b5b600061255c84828501612523565b91505092915050565b6000612570826120a5565b915061257b836120a5565b9250828201905080821115612593576125926123d5565b5b92915050565b60006040820190506125ae600083018561204a565b6125bb602083018461211b565b9392505050565b600069ffffffffffffffffffff82169050919050565b6125e1816125c2565b81146125ec57600080fd5b50565b6000815190506125fe816125d8565b92915050565b61260d816123a1565b811461261857600080fd5b50565b60008151905061262a81612604565b92915050565b60008151905061263f816120af565b92915050565b600080600080600060a0868803121561266157612660612074565b5b600061266f888289016125ef565b95505060206126808882890161261b565b945050604061269188828901612630565b93505060606126a288828901612630565b92505060806126b3888289016125ef565b9150509295509295909350565b60006080820190506126d5600083018761204a565b6126e2602083018661211b565b6126ef604083018561211b565b6126fc606083018461211b565b95945050505050565b7f4e46542050726f6d7074204552433230205072696365206e6f74206d65740000600082015250565b600061273b601e836124a6565b915061274682612705565b602082019050919050565b6000602082019050818103600083015261276a8161272e565b9050919050565b6000606082019050612786600083018661204a565b612793602083018561204a565b6127a0604083018461211b565b949350505050565b60008115159050919050565b6127bd816127a8565b81146127c857600080fd5b50565b6000815190506127da816127b4565b92915050565b6000602082840312156127f6576127f5612074565b5b6000612804848285016127cb565b91505092915050565b7f4e46542050726f6d7074205072696365206e6f74206d65740000000000000000600082015250565b60006128436018836124a6565b915061284e8261280d565b602082019050919050565b6000602082019050818103600083015261287281612836565b9050919050565b600081905092915050565b50565b6000612894600083612879565b915061289f82612884565b600082019050919050565b60006128b582612887565b9150819050919050565b7f5472616e73666572206661696c65640000000000000000000000000000000000600082015250565b60006128f5600f836124a6565b9150612900826128bf565b602082019050919050565b60006020820190508181036000830152612924816128e8565b9050919050565b7f4e4654204552433230205072696365206e6f74206d6574000000000000000000600082015250565b60006129616017836124a6565b915061296c8261292b565b602082019050919050565b6000602082019050818103600083015261299081612954565b9050919050565b7f4e4654205072696365206e6f74206d6574000000000000000000000000000000600082015250565b60006129cd6011836124a6565b91506129d882612997565b602082019050919050565b600060208201905081810360008301526129fc816129c0565b905091905056fea264697066735822122055cfa264c15bcfbcad97426602085659e6574fea210a7bf87266c4615da456cb64736f6c63430008130033",
  "linkReferences": {},
  "deployedLinkReferences": {}
}