{
  "_format": "hh-sol-artifact-1",
  "contractName": "NftMarketplace",
  "sourceName": "contracts/Marketplace.sol",
  "abi": [
    {
      "inputs": [
        {
          "internalType": "address",
          "name": "link",
          "type": "address"
        },
        {
          "internalType": "address",
          "name": "aggregatorAddr",
          "type": "address"
        }
      ],
      "stateMutability": "nonpayable",
      "type": "constructor"
    },
    {
      "inputs": [
        {
          "internalType": "address",
          "name": "nftAddress",
          "type": "address"
        },
        {
          "internalType": "uint256",
          "name": "tokenId",
          "type": "uint256"
        }
      ],
      "name": "AlreadyListed",
      "type": "error"
    },
    {
      "inputs": [],
      "name": "NFTPriceMustBeAboveZero",
      "type": "error"
    },
    {
      "inputs": [],
      "name": "NotApprovedForMarketplace",
      "type": "error"
    },
    {
      "inputs": [
        {
          "internalType": "address",
          "name": "nftAddress",
          "type": "address"
        },
        {
          "internalType": "uint256",
          "name": "tokenId",
          "type": "uint256"
        }
      ],
      "name": "NotListed",
      "type": "error"
    },
    {
      "inputs": [],
      "name": "NotOwner",
      "type": "error"
    },
    {
      "inputs": [
        {
          "internalType": "address",
          "name": "nftAddress",
          "type": "address"
        },
        {
          "internalType": "uint256",
          "name": "tokenId",
          "type": "uint256"
        },
        {
          "internalType": "uint256",
          "name": "price",
          "type": "uint256"
        },
        {
          "internalType": "uint256",
          "name": "promptPrice",
          "type": "uint256"
        }
      ],
      "name": "PromptIsNotBuyable",
      "type": "error"
    },
    {
      "anonymous": false,
      "inputs": [
        {
          "indexed": true,
          "internalType": "address",
          "name": "buyer",
          "type": "address"
        },
        {
          "indexed": true,
          "internalType": "address",
          "name": "nftAddress",
          "type": "address"
        },
        {
          "indexed": true,
          "internalType": "uint256",
          "name": "tokenId",
          "type": "uint256"
        },
        {
          "indexed": false,
          "internalType": "uint256",
          "name": "nftPrice",
          "type": "uint256"
        },
        {
          "indexed": false,
          "internalType": "uint256",
          "name": "promptPrice",
          "type": "uint256"
        }
      ],
      "name": "ItemBought",
      "type": "event"
    },
    {
      "anonymous": false,
      "inputs": [
        {
          "indexed": true,
          "internalType": "address",
          "name": "seller",
          "type": "address"
        },
        {
          "indexed": true,
          "internalType": "address",
          "name": "nftAddress",
          "type": "address"
        },
        {
          "indexed": true,
          "internalType": "uint256",
          "name": "tokenId",
          "type": "uint256"
        }
      ],
      "name": "ItemCanceled",
      "type": "event"
    },
    {
      "anonymous": false,
      "inputs": [
        {
          "indexed": true,
          "internalType": "address",
          "name": "seller",
          "type": "address"
        },
        {
          "indexed": true,
          "internalType": "address",
          "name": "nftAddress",
          "type": "address"
        },
        {
          "indexed": true,
          "internalType": "uint256",
          "name": "tokenId",
          "type": "uint256"
        },
        {
          "indexed": false,
          "internalType": "uint256",
          "name": "nftPrice",
          "type": "uint256"
        },
        {
          "indexed": false,
          "internalType": "uint256",
          "name": "promptPrice",
          "type": "uint256"
        }
      ],
      "name": "ItemListed",
      "type": "event"
    },
    {
      "anonymous": false,
      "inputs": [
        {
          "indexed": true,
          "internalType": "address",
          "name": "buyer",
          "type": "address"
        },
        {
          "indexed": true,
          "internalType": "address",
          "name": "nftAddress",
          "type": "address"
        },
        {
          "indexed": true,
          "internalType": "uint256",
          "name": "tokenId",
          "type": "uint256"
        },
        {
          "indexed": false,
          "internalType": "uint256",
          "name": "nftPrice",
          "type": "uint256"
        },
        {
          "indexed": false,
          "internalType": "uint256",
          "name": "promptPrice",
          "type": "uint256"
        }
      ],
      "name": "PromptBought",
      "type": "event"
    },
    {
      "inputs": [
        {
          "internalType": "address",
          "name": "nftAddress",
          "type": "address"
        },
        {
          "internalType": "uint256",
          "name": "tokenId",
          "type": "uint256"
        },
        {
          "internalType": "address",
          "name": "tokenAddress",
          "type": "address"
        },
        {
          "internalType": "uint256",
          "name": "tokenAmount",
          "type": "uint256"
        }
      ],
      "name": "buyItem",
      "outputs": [],
      "stateMutability": "payable",
      "type": "function"
    },
    {
      "inputs": [
        {
          "internalType": "address",
          "name": "nftAddress",
          "type": "address"
        },
        {
          "internalType": "uint256",
          "name": "tokenId",
          "type": "uint256"
        },
        {
          "internalType": "address",
          "name": "tokenAddress",
          "type": "address"
        },
        {
          "internalType": "uint256",
          "name": "tokenAmount",
          "type": "uint256"
        }
      ],
      "name": "buyPrompt",
      "outputs": [],
      "stateMutability": "payable",
      "type": "function"
    },
    {
      "inputs": [
        {
          "internalType": "address",
          "name": "nftAddress",
          "type": "address"
        },
        {
          "internalType": "uint256",
          "name": "tokenId",
          "type": "uint256"
        }
      ],
      "name": "cancelListing",
      "outputs": [],
      "stateMutability": "nonpayable",
      "type": "function"
    },
    {
      "inputs": [],
      "name": "getChainlinkDataFeedLatestAnswer",
      "outputs": [
        {
          "internalType": "int256",
          "name": "",
          "type": "int256"
        }
      ],
      "stateMutability": "view",
      "type": "function"
    },
    {
      "inputs": [
        {
          "internalType": "address",
          "name": "nftAddress",
          "type": "address"
        },
        {
          "internalType": "uint256",
          "name": "tokenId",
          "type": "uint256"
        }
      ],
      "name": "getListPromptBuyers",
      "outputs": [
        {
          "internalType": "address[]",
          "name": "",
          "type": "address[]"
        }
      ],
      "stateMutability": "view",
      "type": "function"
    },
    {
      "inputs": [
        {
          "internalType": "address",
          "name": "nftAddress",
          "type": "address"
        },
        {
          "internalType": "uint256",
          "name": "tokenId",
          "type": "uint256"
        }
      ],
      "name": "getListing",
      "outputs": [
        {
          "components": [
            {
              "internalType": "uint256",
              "name": "nftPrice",
              "type": "uint256"
            },
            {
              "internalType": "uint256",
              "name": "promptPrice",
              "type": "uint256"
            },
            {
              "internalType": "address",
              "name": "seller",
              "type": "address"
            }
          ],
          "internalType": "struct NftMarketplace.Listing",
          "name": "",
          "type": "tuple"
        }
      ],
      "stateMutability": "view",
      "type": "function"
    },
    {
      "inputs": [
        {
          "internalType": "address",
          "name": "nftAddress",
          "type": "address"
        },
        {
          "internalType": "uint256",
          "name": "tokenId",
          "type": "uint256"
        }
      ],
      "name": "getPromptPrice",
      "outputs": [
        {
          "internalType": "uint256",
          "name": "",
          "type": "uint256"
        }
      ],
      "stateMutability": "view",
      "type": "function"
    },
    {
      "inputs": [
        {
          "internalType": "address",
          "name": "nftAddress",
          "type": "address"
        },
        {
          "internalType": "uint256",
          "name": "tokenId",
          "type": "uint256"
        },
        {
          "internalType": "uint256",
          "name": "nftPrice",
          "type": "uint256"
        },
        {
          "internalType": "uint256",
          "name": "promptPrice",
          "type": "uint256"
        }
      ],
      "name": "listItem",
      "outputs": [],
      "stateMutability": "nonpayable",
      "type": "function"
    },
    {
      "inputs": [
        {
          "internalType": "address",
          "name": "nftAddress",
          "type": "address"
        },
        {
          "internalType": "uint256",
          "name": "tokenId",
          "type": "uint256"
        },
        {
          "internalType": "uint256",
          "name": "newNFTPrice",
          "type": "uint256"
        },
        {
          "internalType": "uint256",
          "name": "newPromptPrice",
          "type": "uint256"
        }
      ],
      "name": "updateListing",
      "outputs": [],
      "stateMutability": "nonpayable",
      "type": "function"
    },
    {
      "inputs": [
        {
          "internalType": "address",
          "name": "nftAddress",
          "type": "address"
        },
        {
          "internalType": "uint256",
          "name": "tokenId",
          "type": "uint256"
        },
        {
          "internalType": "uint256",
          "name": "newPromptPrice",
          "type": "uint256"
        }
      ],
      "name": "updatePromptPrice",
      "outputs": [],
      "stateMutability": "nonpayable",
      "type": "function"
    }
  ],
  "bytecode": "0x60a06040523480156200001157600080fd5b50604051620028a7380380620028a7833981810160405281019062000037919062000126565b600160008190555080600160006101000a81548173ffffffffffffffffffffffffffffffffffffffff021916908373ffffffffffffffffffffffffffffffffffffffff1602179055508173ffffffffffffffffffffffffffffffffffffffff1660808173ffffffffffffffffffffffffffffffffffffffff168152505050506200016d565b600080fd5b600073ffffffffffffffffffffffffffffffffffffffff82169050919050565b6000620000ee82620000c1565b9050919050565b6200010081620000e1565b81146200010c57600080fd5b50565b6000815190506200012081620000f5565b92915050565b6000806040838503121562000140576200013f620000bc565b5b600062000150858286016200010f565b925050602062000163858286016200010f565b9150509250929050565b60805161272162000186600039600050506127216000f3fe6080604052600436106100915760003560e01c8063b2ddee0611610059578063b2ddee0614610192578063bcb143ef146101bb578063bea4dfb5146101e4578063d99647571461020f578063de2506041461023857610091565b806344cc4a13146100965780636be6fe4e146100d35780637752cf49146100fc5780638765a5981461013957806388700d1c14610155575b600080fd5b3480156100a257600080fd5b506100bd60048036038101906100b89190611e1a565b610254565b6040516100ca9190611e69565b60405180910390f35b3480156100df57600080fd5b506100fa60048036038101906100f59190611e84565b61034d565b005b34801561010857600080fd5b50610123600480360381019061011e9190611e1a565b610497565b6040516101309190611f95565b60405180910390f35b610153600480360381019061014e9190611fb7565b610576565b005b34801561016157600080fd5b5061017c60048036038101906101779190611e1a565b610a8d565b604051610189919061206f565b60405180910390f35b34801561019e57600080fd5b506101b960048036038101906101b49190611e1a565b610b62565b005b3480156101c757600080fd5b506101e260048036038101906101dd919061208a565b610e54565b005b3480156101f057600080fd5b506101f96112c9565b604051610206919061210a565b60405180910390f35b34801561021b57600080fd5b506102366004803603810190610231919061208a565b61136a565b005b610252600480360381019061024d9190611fb7565b611720565b005b600080600260008573ffffffffffffffffffffffffffffffffffffffff1673ffffffffffffffffffffffffffffffffffffffff168152602001908152602001600020600084815260200190815260200160002060405180606001604052908160008201548152602001600182015481526020016002820160009054906101000a900473ffffffffffffffffffffffffffffffffffffffff1673ffffffffffffffffffffffffffffffffffffffff1673ffffffffffffffffffffffffffffffffffffffff168152505090506305f5e10081602001516103306112c9565b61033a9190612154565b61034491906121c5565b91505092915050565b600260005403610392576040517f08c379a000000000000000000000000000000000000000000000000000000000815260040161038990612253565b60405180910390fd5b6002600081905550828233600083905060008173ffffffffffffffffffffffffffffffffffffffff16636352211e856040518263ffffffff1660e01b81526004016103dd9190611e69565b602060405180830381865afa1580156103fa573d6000803e3d6000fd5b505050506040513d601f19601f8201168201806040525081019061041e9190612288565b90508073ffffffffffffffffffffffffffffffffffffffff168373ffffffffffffffffffffffffffffffffffffffff1614610485576040517f30cd747100000000000000000000000000000000000000000000000000000000815260040160405180910390fd5b50505050506001600081905550505050565b6060600360008473ffffffffffffffffffffffffffffffffffffffff1673ffffffffffffffffffffffffffffffffffffffff168152602001908152602001600020600083815260200190815260200160002080548060200260200160405190810160405280929190818152602001828054801561056957602002820191906000526020600020905b8160009054906101000a900473ffffffffffffffffffffffffffffffffffffffff1673ffffffffffffffffffffffffffffffffffffffff168152602001906001019080831161051f575b5050505050905092915050565b6002600054036105bb576040517f08c379a00000000000000000000000000000000000000000000000000000000081526004016105b290612253565b60405180910390fd5b60026000819055506000600260008673ffffffffffffffffffffffffffffffffffffffff1673ffffffffffffffffffffffffffffffffffffffff168152602001908152602001600020600085815260200190815260200160002060405180606001604052908160008201548152602001600182015481526020016002820160009054906101000a900473ffffffffffffffffffffffffffffffffffffffff1673ffffffffffffffffffffffffffffffffffffffff1673ffffffffffffffffffffffffffffffffffffffff1681525050905060008160200151116106e3578484826000015183602001516040517ffeb77efa0000000000000000000000000000000000000000000000000000000081526004016106da94939291906122c4565b60405180910390fd5b60006305f5e10082602001516106f76112c9565b6107019190612154565b61070b91906121c5565b9050600083146107fa57808314610757576040517f08c379a000000000000000000000000000000000000000000000000000000000815260040161074e90612355565b60405180910390fd5b600084905064e8d4a510008461076d91906121c5565b91508073ffffffffffffffffffffffffffffffffffffffff166323b872dd338560400151856040518463ffffffff1660e01b81526004016107b093929190612375565b6020604051808303816000875af11580156107cf573d6000803e3d6000fd5b505050506040513d601f19601f820116820180604052508101906107f391906123e4565b50506108f6565b81602001513414610840576040517f08c379a00000000000000000000000000000000000000000000000000000000081526004016108379061245d565b60405180910390fd5b6000826040015173ffffffffffffffffffffffffffffffffffffffff16836020015160405161086e906124ae565b60006040518083038185875af1925050503d80600081146108ab576040519150601f19603f3d011682016040523d82523d6000602084013e6108b0565b606091505b50509050806108f4576040517f08c379a00000000000000000000000000000000000000000000000000000000081526004016108eb9061250f565b60405180910390fd5b505b6000600360008873ffffffffffffffffffffffffffffffffffffffff1673ffffffffffffffffffffffffffffffffffffffff1681526020019081526020016000206000878152602001908152602001600020905080339080600181540180825580915050600190039060005260206000200160009091909190916101000a81548173ffffffffffffffffffffffffffffffffffffffff021916908373ffffffffffffffffffffffffffffffffffffffff16021790555080600360008973ffffffffffffffffffffffffffffffffffffffff1673ffffffffffffffffffffffffffffffffffffffff1681526020019081526020016000206000888152602001908152602001600020908054610a0b929190611cdb565b50858773ffffffffffffffffffffffffffffffffffffffff163373ffffffffffffffffffffffffffffffffffffffff167f488166e6e7d3c062535710aef4766e8d2e1b7a26eeb1c29aa98e4529900a1d7f86600001518760200151604051610a7492919061252f565b60405180910390a4505050600160008190555050505050565b610a95611d2d565b600260008473ffffffffffffffffffffffffffffffffffffffff1673ffffffffffffffffffffffffffffffffffffffff168152602001908152602001600020600083815260200190815260200160002060405180606001604052908160008201548152602001600182015481526020016002820160009054906101000a900473ffffffffffffffffffffffffffffffffffffffff1673ffffffffffffffffffffffffffffffffffffffff1673ffffffffffffffffffffffffffffffffffffffff1681525050905092915050565b818133600083905060008173ffffffffffffffffffffffffffffffffffffffff16636352211e856040518263ffffffff1660e01b8152600401610ba59190611e69565b602060405180830381865afa158015610bc2573d6000803e3d6000fd5b505050506040513d601f19601f82011682018060405250810190610be69190612288565b90508073ffffffffffffffffffffffffffffffffffffffff168373ffffffffffffffffffffffffffffffffffffffff1614610c4d576040517f30cd747100000000000000000000000000000000000000000000000000000000815260040160405180910390fd5b86866000600260008473ffffffffffffffffffffffffffffffffffffffff1673ffffffffffffffffffffffffffffffffffffffff168152602001908152602001600020600083815260200190815260200160002060405180606001604052908160008201548152602001600182015481526020016002820160009054906101000a900473ffffffffffffffffffffffffffffffffffffffff1673ffffffffffffffffffffffffffffffffffffffff1673ffffffffffffffffffffffffffffffffffffffff168152505090506000816000015111610d635782826040517f6831488c000000000000000000000000000000000000000000000000000000008152600401610d5a929190612558565b60405180910390fd5b600260008b73ffffffffffffffffffffffffffffffffffffffff1673ffffffffffffffffffffffffffffffffffffffff16815260200190815260200160002060008a815260200190815260200160002060008082016000905560018201600090556002820160006101000a81549073ffffffffffffffffffffffffffffffffffffffff02191690555050888a73ffffffffffffffffffffffffffffffffffffffff163373ffffffffffffffffffffffffffffffffffffffff167f9ba1a3cb55ce8d63d072a886f94d2a744f50cddf82128e897d0661f5ec62315860405160405180910390a450505050505050505050565b83836000600260008473ffffffffffffffffffffffffffffffffffffffff1673ffffffffffffffffffffffffffffffffffffffff168152602001908152602001600020600083815260200190815260200160002060405180606001604052908160008201548152602001600182015481526020016002820160009054906101000a900473ffffffffffffffffffffffffffffffffffffffff1673ffffffffffffffffffffffffffffffffffffffff1673ffffffffffffffffffffffffffffffffffffffff16815250509050600081600001511115610f6b5782826040517f4a5568d5000000000000000000000000000000000000000000000000000000008152600401610f62929190612558565b60405180910390fd5b868633600083905060008173ffffffffffffffffffffffffffffffffffffffff16636352211e856040518263ffffffff1660e01b8152600401610fae9190611e69565b602060405180830381865afa158015610fcb573d6000803e3d6000fd5b505050506040513d601f19601f82011682018060405250810190610fef9190612288565b90508073ffffffffffffffffffffffffffffffffffffffff168373ffffffffffffffffffffffffffffffffffffffff1614611056576040517f30cd747100000000000000000000000000000000000000000000000000000000815260040160405180910390fd5b60008a11611090576040517f463d85e900000000000000000000000000000000000000000000000000000000815260040160405180910390fd5b60008c90503073ffffffffffffffffffffffffffffffffffffffff168173ffffffffffffffffffffffffffffffffffffffff1663081812fc8e6040518263ffffffff1660e01b81526004016110e59190611e69565b602060405180830381865afa158015611102573d6000803e3d6000fd5b505050506040513d601f19601f820116820180604052508101906111269190612288565b73ffffffffffffffffffffffffffffffffffffffff1614611173576040517f4be3a2c500000000000000000000000000000000000000000000000000000000815260040160405180910390fd5b60405180606001604052808c81526020018b81526020013373ffffffffffffffffffffffffffffffffffffffff16815250600260008f73ffffffffffffffffffffffffffffffffffffffff1673ffffffffffffffffffffffffffffffffffffffff16815260200190815260200160002060008e8152602001908152602001600020600082015181600001556020820151816001015560408201518160020160006101000a81548173ffffffffffffffffffffffffffffffffffffffff021916908373ffffffffffffffffffffffffffffffffffffffff1602179055509050508b8d73ffffffffffffffffffffffffffffffffffffffff163373ffffffffffffffffffffffffffffffffffffffff167f91623fbd639d8d503fe2e77aab334b032313685f1b28c84d838c4b647b1f5d9d8e8e6040516112b292919061252f565b60405180910390a450505050505050505050505050565b600080600160009054906101000a900473ffffffffffffffffffffffffffffffffffffffff1673ffffffffffffffffffffffffffffffffffffffff1663feaf968c6040518163ffffffff1660e01b815260040160a060405180830381865afa158015611339573d6000803e3d6000fd5b505050506040513d601f19601f8201168201806040525081019061135d9190612604565b5050509150508091505090565b83836000600260008473ffffffffffffffffffffffffffffffffffffffff1673ffffffffffffffffffffffffffffffffffffffff168152602001908152602001600020600083815260200190815260200160002060405180606001604052908160008201548152602001600182015481526020016002820160009054906101000a900473ffffffffffffffffffffffffffffffffffffffff1673ffffffffffffffffffffffffffffffffffffffff1673ffffffffffffffffffffffffffffffffffffffff1681525050905060008160000151116114805782826040517f6831488c000000000000000000000000000000000000000000000000000000008152600401611477929190612558565b60405180910390fd5b6002600054036114c5576040517f08c379a00000000000000000000000000000000000000000000000000000000081526004016114bc90612253565b60405180910390fd5b6002600081905550868633600083905060008173ffffffffffffffffffffffffffffffffffffffff16636352211e856040518263ffffffff1660e01b81526004016115109190611e69565b602060405180830381865afa15801561152d573d6000803e3d6000fd5b505050506040513d601f19601f820116820180604052508101906115519190612288565b90508073ffffffffffffffffffffffffffffffffffffffff168373ffffffffffffffffffffffffffffffffffffffff16146115b8576040517f30cd747100000000000000000000000000000000000000000000000000000000815260040160405180910390fd5b60008a116115f2576040517f463d85e900000000000000000000000000000000000000000000000000000000815260040160405180910390fd5b89600260008e73ffffffffffffffffffffffffffffffffffffffff1673ffffffffffffffffffffffffffffffffffffffff16815260200190815260200160002060008d81526020019081526020016000206000018190555088600260008e73ffffffffffffffffffffffffffffffffffffffff1673ffffffffffffffffffffffffffffffffffffffff16815260200190815260200160002060008d8152602001908152602001600020600101819055508a8c73ffffffffffffffffffffffffffffffffffffffff163373ffffffffffffffffffffffffffffffffffffffff167f91623fbd639d8d503fe2e77aab334b032313685f1b28c84d838c4b647b1f5d9d8d8d60405161170292919061252f565b60405180910390a45050505050600160008190555050505050505050565b83836000600260008473ffffffffffffffffffffffffffffffffffffffff1673ffffffffffffffffffffffffffffffffffffffff168152602001908152602001600020600083815260200190815260200160002060405180606001604052908160008201548152602001600182015481526020016002820160009054906101000a900473ffffffffffffffffffffffffffffffffffffffff1673ffffffffffffffffffffffffffffffffffffffff1673ffffffffffffffffffffffffffffffffffffffff1681525050905060008160000151116118365782826040517f6831488c00000000000000000000000000000000000000000000000000000000815260040161182d929190612558565b60405180910390fd5b60026000540361187b576040517f08c379a000000000000000000000000000000000000000000000000000000000815260040161187290612253565b60405180910390fd5b60026000819055506000600260008973ffffffffffffffffffffffffffffffffffffffff1673ffffffffffffffffffffffffffffffffffffffff168152602001908152602001600020600088815260200190815260200160002060405180606001604052908160008201548152602001600182015481526020016002820160009054906101000a900473ffffffffffffffffffffffffffffffffffffffff1673ffffffffffffffffffffffffffffffffffffffff1673ffffffffffffffffffffffffffffffffffffffff1681525050905060006305f5e10082602001516119606112c9565b61196a9190612154565b61197491906121c5565b905060008614611a63578086146119c0576040517f08c379a00000000000000000000000000000000000000000000000000000000081526004016119b790612355565b60405180910390fd5b600087905064e8d4a51000876119d691906121c5565b91508073ffffffffffffffffffffffffffffffffffffffff166323b872dd338560400151856040518463ffffffff1660e01b8152600401611a1993929190612375565b6020604051808303816000875af1158015611a38573d6000803e3d6000fd5b505050506040513d601f19601f82011682018060405250810190611a5c91906123e4565b5050611b5b565b81600001513414611aa9576040517f08c379a0000000000000000000000000000000000000000000000000000000008152600401611aa0906126cb565b60405180910390fd5b60003373ffffffffffffffffffffffffffffffffffffffff168360000151604051611ad3906124ae565b60006040518083038185875af1925050503d8060008114611b10576040519150601f19603f3d011682016040523d82523d6000602084013e611b15565b606091505b5050905080611b59576040517f08c379a0000000000000000000000000000000000000000000000000000000008152600401611b509061250f565b60405180910390fd5b505b600260008a73ffffffffffffffffffffffffffffffffffffffff1673ffffffffffffffffffffffffffffffffffffffff168152602001908152602001600020600089815260200190815260200160002060008082016000905560018201600090556002820160006101000a81549073ffffffffffffffffffffffffffffffffffffffff021916905550508873ffffffffffffffffffffffffffffffffffffffff166342842e0e8360400151338b6040518463ffffffff1660e01b8152600401611c2693929190612375565b600060405180830381600087803b158015611c4057600080fd5b505af1158015611c54573d6000803e3d6000fd5b50505050878973ffffffffffffffffffffffffffffffffffffffff163373ffffffffffffffffffffffffffffffffffffffff167f2991548a0e30c2c69fd9661959d01ee276b5e142c07dfab9d917ddf1c120485e85600001518660200151604051611cc092919061252f565b60405180910390a45050600160008190555050505050505050565b828054828255906000526020600020908101928215611d1c5760005260206000209182015b82811115611d1b578254825591600101919060010190611d00565b5b509050611d299190611d64565b5090565b60405180606001604052806000815260200160008152602001600073ffffffffffffffffffffffffffffffffffffffff1681525090565b5b80821115611d7d576000816000905550600101611d65565b5090565b600080fd5b600073ffffffffffffffffffffffffffffffffffffffff82169050919050565b6000611db182611d86565b9050919050565b611dc181611da6565b8114611dcc57600080fd5b50565b600081359050611dde81611db8565b92915050565b6000819050919050565b611df781611de4565b8114611e0257600080fd5b50565b600081359050611e1481611dee565b92915050565b60008060408385031215611e3157611e30611d81565b5b6000611e3f85828601611dcf565b9250506020611e5085828601611e05565b9150509250929050565b611e6381611de4565b82525050565b6000602082019050611e7e6000830184611e5a565b92915050565b600080600060608486031215611e9d57611e9c611d81565b5b6000611eab86828701611dcf565b9350506020611ebc86828701611e05565b9250506040611ecd86828701611e05565b9150509250925092565b600081519050919050565b600082825260208201905092915050565b6000819050602082019050919050565b611f0c81611da6565b82525050565b6000611f1e8383611f03565b60208301905092915050565b6000602082019050919050565b6000611f4282611ed7565b611f4c8185611ee2565b9350611f5783611ef3565b8060005b83811015611f88578151611f6f8882611f12565b9750611f7a83611f2a565b925050600181019050611f5b565b5085935050505092915050565b60006020820190508181036000830152611faf8184611f37565b905092915050565b60008060008060808587031215611fd157611fd0611d81565b5b6000611fdf87828801611dcf565b9450506020611ff087828801611e05565b935050604061200187828801611dcf565b925050606061201287828801611e05565b91505092959194509250565b61202781611de4565b82525050565b606082016000820151612043600085018261201e565b506020820151612056602085018261201e565b5060408201516120696040850182611f03565b50505050565b6000606082019050612084600083018461202d565b92915050565b600080600080608085870312156120a4576120a3611d81565b5b60006120b287828801611dcf565b94505060206120c387828801611e05565b93505060406120d487828801611e05565b92505060606120e587828801611e05565b91505092959194509250565b6000819050919050565b612104816120f1565b82525050565b600060208201905061211f60008301846120fb565b92915050565b7f4e487b7100000000000000000000000000000000000000000000000000000000600052601160045260246000fd5b600061215f82611de4565b915061216a83611de4565b925082820261217881611de4565b9150828204841483151761218f5761218e612125565b5b5092915050565b7f4e487b7100000000000000000000000000000000000000000000000000000000600052601260045260246000fd5b60006121d082611de4565b91506121db83611de4565b9250826121eb576121ea612196565b5b828204905092915050565b600082825260208201905092915050565b7f5265656e7472616e637947756172643a207265656e7472616e742063616c6c00600082015250565b600061223d601f836121f6565b915061224882612207565b602082019050919050565b6000602082019050818103600083015261226c81612230565b9050919050565b60008151905061228281611db8565b92915050565b60006020828403121561229e5761229d611d81565b5b60006122ac84828501612273565b91505092915050565b6122be81611da6565b82525050565b60006080820190506122d960008301876122b5565b6122e66020830186611e5a565b6122f36040830185611e5a565b6123006060830184611e5a565b95945050505050565b7f4e46542050726f6d7074204552433230205072696365206e6f74206d65740000600082015250565b600061233f601e836121f6565b915061234a82612309565b602082019050919050565b6000602082019050818103600083015261236e81612332565b9050919050565b600060608201905061238a60008301866122b5565b61239760208301856122b5565b6123a46040830184611e5a565b949350505050565b60008115159050919050565b6123c1816123ac565b81146123cc57600080fd5b50565b6000815190506123de816123b8565b92915050565b6000602082840312156123fa576123f9611d81565b5b6000612408848285016123cf565b91505092915050565b7f4e46542050726f6d7074205072696365206e6f74206d65740000000000000000600082015250565b60006124476018836121f6565b915061245282612411565b602082019050919050565b600060208201905081810360008301526124768161243a565b9050919050565b600081905092915050565b50565b600061249860008361247d565b91506124a382612488565b600082019050919050565b60006124b98261248b565b9150819050919050565b7f5472616e73666572206661696c65640000000000000000000000000000000000600082015250565b60006124f9600f836121f6565b9150612504826124c3565b602082019050919050565b60006020820190508181036000830152612528816124ec565b9050919050565b60006040820190506125446000830185611e5a565b6125516020830184611e5a565b9392505050565b600060408201905061256d60008301856122b5565b61257a6020830184611e5a565b9392505050565b600069ffffffffffffffffffff82169050919050565b6125a081612581565b81146125ab57600080fd5b50565b6000815190506125bd81612597565b92915050565b6125cc816120f1565b81146125d757600080fd5b50565b6000815190506125e9816125c3565b92915050565b6000815190506125fe81611dee565b92915050565b600080600080600060a086880312156126205761261f611d81565b5b600061262e888289016125ae565b955050602061263f888289016125da565b9450506040612650888289016125ef565b9350506060612661888289016125ef565b9250506080612672888289016125ae565b9150509295509295909350565b7f4e4654205072696365206e6f74206d6574000000000000000000000000000000600082015250565b60006126b56011836121f6565b91506126c08261267f565b602082019050919050565b600060208201905081810360008301526126e4816126a8565b905091905056fea26469706673582212202e72c84bfec3d8801ded9f8885531e1f4722453ba06404b4662e2b69c91e024364736f6c63430008130033",
  "linkReferences": {},
  "deployedLinkReferences": {}
}