{
  "_format": "hh-sol-artifact-1",
  "contractName": "NEXTHYPE",
  "sourceName": "contracts/NexthypeNFT.sol",
  "abi": [
    {
      "inputs": [],
      "stateMutability": "nonpayable",
      "type": "constructor"
    },
    {
      "anonymous": false,
      "inputs": [
        {
          "indexed": true,
          "internalType": "address",
          "name": "owner",
          "type": "address"
        },
        {
          "indexed": true,
          "internalType": "address",
          "name": "approved",
          "type": "address"
        },
        {
          "indexed": true,
          "internalType": "uint256",
          "name": "tokenId",
          "type": "uint256"
        }
      ],
      "name": "Approval",
      "type": "event"
    },
    {
      "anonymous": false,
      "inputs": [
        {
          "indexed": true,
          "internalType": "address",
          "name": "owner",
          "type": "address"
        },
        {
          "indexed": true,
          "internalType": "address",
          "name": "operator",
          "type": "address"
        },
        {
          "indexed": false,
          "internalType": "bool",
          "name": "approved",
          "type": "bool"
        }
      ],
      "name": "ApprovalForAll",
      "type": "event"
    },
    {
      "anonymous": false,
      "inputs": [
        {
          "indexed": true,
          "internalType": "address",
          "name": "previousOwner",
          "type": "address"
        },
        {
          "indexed": true,
          "internalType": "address",
          "name": "newOwner",
          "type": "address"
        }
      ],
      "name": "OwnershipTransferred",
      "type": "event"
    },
    {
      "anonymous": false,
      "inputs": [
        {
          "indexed": true,
          "internalType": "address",
          "name": "from",
          "type": "address"
        },
        {
          "indexed": true,
          "internalType": "address",
          "name": "to",
          "type": "address"
        },
        {
          "indexed": true,
          "internalType": "uint256",
          "name": "tokenId",
          "type": "uint256"
        }
      ],
      "name": "Transfer",
      "type": "event"
    },
    {
      "inputs": [
        {
          "internalType": "address",
          "name": "to",
          "type": "address"
        },
        {
          "internalType": "uint256",
          "name": "tokenId",
          "type": "uint256"
        }
      ],
      "name": "approve",
      "outputs": [],
      "stateMutability": "nonpayable",
      "type": "function"
    },
    {
      "inputs": [
        {
          "internalType": "address",
          "name": "owner",
          "type": "address"
        }
      ],
      "name": "balanceOf",
      "outputs": [
        {
          "internalType": "uint256",
          "name": "",
          "type": "uint256"
        }
      ],
      "stateMutability": "view",
      "type": "function"
    },
    {
      "inputs": [
        {
          "internalType": "uint256",
          "name": "tokenId",
          "type": "uint256"
        }
      ],
      "name": "getApproved",
      "outputs": [
        {
          "internalType": "address",
          "name": "",
          "type": "address"
        }
      ],
      "stateMutability": "view",
      "type": "function"
    },
    {
      "inputs": [
        {
          "internalType": "address",
          "name": "owner",
          "type": "address"
        },
        {
          "internalType": "address",
          "name": "operator",
          "type": "address"
        }
      ],
      "name": "isApprovedForAll",
      "outputs": [
        {
          "internalType": "bool",
          "name": "",
          "type": "bool"
        }
      ],
      "stateMutability": "view",
      "type": "function"
    },
    {
      "inputs": [],
      "name": "name",
      "outputs": [
        {
          "internalType": "string",
          "name": "",
          "type": "string"
        }
      ],
      "stateMutability": "view",
      "type": "function"
    },
    {
      "inputs": [],
      "name": "owner",
      "outputs": [
        {
          "internalType": "address",
          "name": "",
          "type": "address"
        }
      ],
      "stateMutability": "view",
      "type": "function"
    },
    {
      "inputs": [
        {
          "internalType": "uint256",
          "name": "tokenId",
          "type": "uint256"
        }
      ],
      "name": "ownerOf",
      "outputs": [
        {
          "internalType": "address",
          "name": "",
          "type": "address"
        }
      ],
      "stateMutability": "view",
      "type": "function"
    },
    {
      "inputs": [],
      "name": "renounceOwnership",
      "outputs": [],
      "stateMutability": "nonpayable",
      "type": "function"
    },
    {
      "inputs": [
        {
          "internalType": "string",
          "name": "_tokenURI",
          "type": "string"
        }
      ],
      "name": "safeMint",
      "outputs": [],
      "stateMutability": "nonpayable",
      "type": "function"
    },
    {
      "inputs": [
        {
          "internalType": "address",
          "name": "from",
          "type": "address"
        },
        {
          "internalType": "address",
          "name": "to",
          "type": "address"
        },
        {
          "internalType": "uint256",
          "name": "tokenId",
          "type": "uint256"
        }
      ],
      "name": "safeTransferFrom",
      "outputs": [],
      "stateMutability": "nonpayable",
      "type": "function"
    },
    {
      "inputs": [
        {
          "internalType": "address",
          "name": "from",
          "type": "address"
        },
        {
          "internalType": "address",
          "name": "to",
          "type": "address"
        },
        {
          "internalType": "uint256",
          "name": "tokenId",
          "type": "uint256"
        },
        {
          "internalType": "bytes",
          "name": "_data",
          "type": "bytes"
        }
      ],
      "name": "safeTransferFrom",
      "outputs": [],
      "stateMutability": "nonpayable",
      "type": "function"
    },
    {
      "inputs": [
        {
          "internalType": "address",
          "name": "operator",
          "type": "address"
        },
        {
          "internalType": "bool",
          "name": "approved",
          "type": "bool"
        }
      ],
      "name": "setApprovalForAll",
      "outputs": [],
      "stateMutability": "nonpayable",
      "type": "function"
    },
    {
      "inputs": [
        {
          "internalType": "bytes4",
          "name": "interfaceId",
          "type": "bytes4"
        }
      ],
      "name": "supportsInterface",
      "outputs": [
        {
          "internalType": "bool",
          "name": "",
          "type": "bool"
        }
      ],
      "stateMutability": "view",
      "type": "function"
    },
    {
      "inputs": [],
      "name": "symbol",
      "outputs": [
        {
          "internalType": "string",
          "name": "",
          "type": "string"
        }
      ],
      "stateMutability": "view",
      "type": "function"
    },
    {
      "inputs": [],
      "name": "tokenId",
      "outputs": [
        {
          "internalType": "uint256",
          "name": "",
          "type": "uint256"
        }
      ],
      "stateMutability": "view",
      "type": "function"
    },
    {
      "inputs": [
        {
          "internalType": "uint256",
          "name": "tokenId",
          "type": "uint256"
        }
      ],
      "name": "tokenURI",
      "outputs": [
        {
          "internalType": "string",
          "name": "",
          "type": "string"
        }
      ],
      "stateMutability": "view",
      "type": "function"
    },
    {
      "inputs": [
        {
          "internalType": "address",
          "name": "from",
          "type": "address"
        },
        {
          "internalType": "address",
          "name": "to",
          "type": "address"
        },
        {
          "internalType": "uint256",
          "name": "tokenId",
          "type": "uint256"
        }
      ],
      "name": "transferFrom",
      "outputs": [],
      "stateMutability": "nonpayable",
      "type": "function"
    },
    {
      "inputs": [
        {
          "internalType": "address",
          "name": "newOwner",
          "type": "address"
        }
      ],
      "name": "transferOwnership",
      "outputs": [],
      "stateMutability": "nonpayable",
      "type": "function"
    }
  ],
  "bytecode": "0x60806040523480156200001157600080fd5b506040518060400160405280600881526020017f4e455854485950450000000000000000000000000000000000000000000000008152506040518060400160405280600381526020017f4e4554000000000000000000000000000000000000000000000000000000000081525081600090816200008f919062000412565b508060019081620000a1919062000412565b505050620000c4620000b8620000ca60201b60201c565b620000d260201b60201c565b620004f9565b600033905090565b6000600760009054906101000a900473ffffffffffffffffffffffffffffffffffffffff16905081600760006101000a81548173ffffffffffffffffffffffffffffffffffffffff021916908373ffffffffffffffffffffffffffffffffffffffff1602179055508173ffffffffffffffffffffffffffffffffffffffff168173ffffffffffffffffffffffffffffffffffffffff167f8be0079c531659141344cd1fd0a4f28419497f9722a3daafe3b4186f6b6457e060405160405180910390a35050565b600081519050919050565b7f4e487b7100000000000000000000000000000000000000000000000000000000600052604160045260246000fd5b7f4e487b7100000000000000000000000000000000000000000000000000000000600052602260045260246000fd5b600060028204905060018216806200021a57607f821691505b60208210810362000230576200022f620001d2565b5b50919050565b60008190508160005260206000209050919050565b60006020601f8301049050919050565b600082821b905092915050565b6000600883026200029a7fffffffffffffffffffffffffffffffffffffffffffffffffffffffffffffffff826200025b565b620002a686836200025b565b95508019841693508086168417925050509392505050565b6000819050919050565b6000819050919050565b6000620002f3620002ed620002e784620002be565b620002c8565b620002be565b9050919050565b6000819050919050565b6200030f83620002d2565b620003276200031e82620002fa565b84845462000268565b825550505050565b600090565b6200033e6200032f565b6200034b81848462000304565b505050565b5b8181101562000373576200036760008262000334565b60018101905062000351565b5050565b601f821115620003c2576200038c8162000236565b62000397846200024b565b81016020851015620003a7578190505b620003bf620003b6856200024b565b83018262000350565b50505b505050565b600082821c905092915050565b6000620003e760001984600802620003c7565b1980831691505092915050565b6000620004028383620003d4565b9150826002028217905092915050565b6200041d8262000198565b67ffffffffffffffff811115620004395762000438620001a3565b5b62000445825462000201565b6200045282828562000377565b600060209050601f8311600181146200048a576000841562000475578287015190505b620004818582620003f4565b865550620004f1565b601f1984166200049a8662000236565b60005b82811015620004c4578489015182556001820191506020850194506020810190506200049d565b86831015620004e45784890151620004e0601f891682620003d4565b8355505b6001600288020188555050505b505050505050565b61316380620005096000396000f3fe608060405234801561001057600080fd5b50600436106101165760003560e01c806370a08231116100a2578063a22cb46511610071578063a22cb465146102cd578063b88d4fde146102e9578063c87b56dd14610305578063e985e9c514610335578063f2fde38b1461036557610116565b806370a0823114610257578063715018a6146102875780638da5cb5b1461029157806395d89b41146102af57610116565b806317d70f7c116100e957806317d70f7c146101b557806323b872dd146101d357806342842e0e146101ef5780636352211e1461020b578063695850fb1461023b57610116565b806301ffc9a71461011b57806306fdde031461014b578063081812fc14610169578063095ea7b314610199575b600080fd5b61013560048036038101906101309190611b89565b610381565b6040516101429190611bd1565b60405180910390f35b610153610463565b6040516101609190611c7c565b60405180910390f35b610183600480360381019061017e9190611cd4565b6104f5565b6040516101909190611d42565b60405180910390f35b6101b360048036038101906101ae9190611d89565b61057a565b005b6101bd610691565b6040516101ca9190611dd8565b60405180910390f35b6101ed60048036038101906101e89190611df3565b610697565b005b61020960048036038101906102049190611df3565b6106f7565b005b61022560048036038101906102209190611cd4565b610717565b6040516102329190611d42565b60405180910390f35b61025560048036038101906102509190611f7b565b6107c8565b005b610271600480360381019061026c9190611fc4565b610802565b60405161027e9190611dd8565b60405180910390f35b61028f6108b9565b005b610299610941565b6040516102a69190611d42565b60405180910390f35b6102b761096b565b6040516102c49190611c7c565b60405180910390f35b6102e760048036038101906102e2919061201d565b6109fd565b005b61030360048036038101906102fe91906120fe565b610b7d565b005b61031f600480360381019061031a9190611cd4565b610bdf565b60405161032c9190611c7c565b60405180910390f35b61034f600480360381019061034a9190612181565b610d30565b60405161035c9190611bd1565b60405180910390f35b61037f600480360381019061037a9190611fc4565b610dc4565b005b60007f80ac58cd000000000000000000000000000000000000000000000000000000007bffffffffffffffffffffffffffffffffffffffffffffffffffffffff1916827bffffffffffffffffffffffffffffffffffffffffffffffffffffffff1916148061044c57507f5b5e139f000000000000000000000000000000000000000000000000000000007bffffffffffffffffffffffffffffffffffffffffffffffffffffffff1916827bffffffffffffffffffffffffffffffffffffffffffffffffffffffff1916145b8061045c575061045b82610ebb565b5b9050919050565b606060008054610472906121f0565b80601f016020809104026020016040519081016040528092919081815260200182805461049e906121f0565b80156104eb5780601f106104c0576101008083540402835291602001916104eb565b820191906000526020600020905b8154815290600101906020018083116104ce57829003601f168201915b5050505050905090565b600061050082610f25565b61053f576040517f08c379a000000000000000000000000000000000000000000000000000000000815260040161053690612293565b60405180910390fd5b6004600083815260200190815260200160002060009054906101000a900473ffffffffffffffffffffffffffffffffffffffff169050919050565b600061058582610717565b90508073ffffffffffffffffffffffffffffffffffffffff168373ffffffffffffffffffffffffffffffffffffffff16036105f5576040517f08c379a00000000000000000000000000000000000000000000000000000000081526004016105ec90612325565b60405180910390fd5b8073ffffffffffffffffffffffffffffffffffffffff16610614610f91565b73ffffffffffffffffffffffffffffffffffffffff16148061064357506106428161063d610f91565b610d30565b5b610682576040517f08c379a0000000000000000000000000000000000000000000000000000000008152600401610679906123b7565b60405180910390fd5b61068c8383610f99565b505050565b60085481565b6106a86106a2610f91565b82611052565b6106e7576040517f08c379a00000000000000000000000000000000000000000000000000000000081526004016106de90612449565b60405180910390fd5b6106f2838383611130565b505050565b61071283838360405180602001604052806000815250610b7d565b505050565b6000806002600084815260200190815260200160002060009054906101000a900473ffffffffffffffffffffffffffffffffffffffff169050600073ffffffffffffffffffffffffffffffffffffffff168173ffffffffffffffffffffffffffffffffffffffff16036107bf576040517f08c379a00000000000000000000000000000000000000000000000000000000081526004016107b6906124db565b60405180910390fd5b80915050919050565b6000600860008154809291906107dd9061252a565b9190505590506107f46107ee610f91565b8261138b565b6107fe81836113a9565b5050565b60008073ffffffffffffffffffffffffffffffffffffffff168273ffffffffffffffffffffffffffffffffffffffff1603610872576040517f08c379a0000000000000000000000000000000000000000000000000000000008152600401610869906125e4565b60405180910390fd5b600360008373ffffffffffffffffffffffffffffffffffffffff1673ffffffffffffffffffffffffffffffffffffffff168152602001908152602001600020549050919050565b6108c1610f91565b73ffffffffffffffffffffffffffffffffffffffff166108df610941565b73ffffffffffffffffffffffffffffffffffffffff1614610935576040517f08c379a000000000000000000000000000000000000000000000000000000000815260040161092c90612650565b60405180910390fd5b61093f6000611416565b565b6000600760009054906101000a900473ffffffffffffffffffffffffffffffffffffffff16905090565b60606001805461097a906121f0565b80601f01602080910402602001604051908101604052809291908181526020018280546109a6906121f0565b80156109f35780601f106109c8576101008083540402835291602001916109f3565b820191906000526020600020905b8154815290600101906020018083116109d657829003601f168201915b5050505050905090565b610a05610f91565b73ffffffffffffffffffffffffffffffffffffffff168273ffffffffffffffffffffffffffffffffffffffff1603610a72576040517f08c379a0000000000000000000000000000000000000000000000000000000008152600401610a69906126bc565b60405180910390fd5b8060056000610a7f610f91565b73ffffffffffffffffffffffffffffffffffffffff1673ffffffffffffffffffffffffffffffffffffffff16815260200190815260200160002060008473ffffffffffffffffffffffffffffffffffffffff1673ffffffffffffffffffffffffffffffffffffffff16815260200190815260200160002060006101000a81548160ff0219169083151502179055508173ffffffffffffffffffffffffffffffffffffffff16610b2c610f91565b73ffffffffffffffffffffffffffffffffffffffff167f17307eab39ab6107e8899845ad3d59bd9653f200f220920489ca2b5937696c3183604051610b719190611bd1565b60405180910390a35050565b610b8e610b88610f91565b83611052565b610bcd576040517f08c379a0000000000000000000000000000000000000000000000000000000008152600401610bc490612449565b60405180910390fd5b610bd9848484846114dc565b50505050565b6060610bea82610f25565b610c29576040517f08c379a0000000000000000000000000000000000000000000000000000000008152600401610c209061274e565b60405180910390fd5b6000600660008481526020019081526020016000208054610c49906121f0565b80601f0160208091040260200160405190810160405280929190818152602001828054610c75906121f0565b8015610cc25780601f10610c9757610100808354040283529160200191610cc2565b820191906000526020600020905b815481529060010190602001808311610ca557829003601f168201915b505050505090506000610cd3611538565b90506000815103610ce8578192505050610d2b565b600082511115610d1d578082604051602001610d059291906127aa565b60405160208183030381529060405292505050610d2b565b610d268461154f565b925050505b919050565b6000600560008473ffffffffffffffffffffffffffffffffffffffff1673ffffffffffffffffffffffffffffffffffffffff16815260200190815260200160002060008373ffffffffffffffffffffffffffffffffffffffff1673ffffffffffffffffffffffffffffffffffffffff16815260200190815260200160002060009054906101000a900460ff16905092915050565b610dcc610f91565b73ffffffffffffffffffffffffffffffffffffffff16610dea610941565b73ffffffffffffffffffffffffffffffffffffffff1614610e40576040517f08c379a0000000000000000000000000000000000000000000000000000000008152600401610e3790612650565b60405180910390fd5b600073ffffffffffffffffffffffffffffffffffffffff168173ffffffffffffffffffffffffffffffffffffffff1603610eaf576040517f08c379a0000000000000000000000000000000000000000000000000000000008152600401610ea690612840565b60405180910390fd5b610eb881611416565b50565b60007f01ffc9a7000000000000000000000000000000000000000000000000000000007bffffffffffffffffffffffffffffffffffffffffffffffffffffffff1916827bffffffffffffffffffffffffffffffffffffffffffffffffffffffff1916149050919050565b60008073ffffffffffffffffffffffffffffffffffffffff166002600084815260200190815260200160002060009054906101000a900473ffffffffffffffffffffffffffffffffffffffff1673ffffffffffffffffffffffffffffffffffffffff1614159050919050565b600033905090565b816004600083815260200190815260200160002060006101000a81548173ffffffffffffffffffffffffffffffffffffffff021916908373ffffffffffffffffffffffffffffffffffffffff160217905550808273ffffffffffffffffffffffffffffffffffffffff1661100c83610717565b73ffffffffffffffffffffffffffffffffffffffff167f8c5be1e5ebec7d5bd14f71427d1e84f3dd0314c0f7b2291e5b200ac8c7c3b92560405160405180910390a45050565b600061105d82610f25565b61109c576040517f08c379a0000000000000000000000000000000000000000000000000000000008152600401611093906128d2565b60405180910390fd5b60006110a783610717565b90508073ffffffffffffffffffffffffffffffffffffffff168473ffffffffffffffffffffffffffffffffffffffff16148061111657508373ffffffffffffffffffffffffffffffffffffffff166110fe846104f5565b73ffffffffffffffffffffffffffffffffffffffff16145b8061112757506111268185610d30565b5b91505092915050565b8273ffffffffffffffffffffffffffffffffffffffff1661115082610717565b73ffffffffffffffffffffffffffffffffffffffff16146111a6576040517f08c379a000000000000000000000000000000000000000000000000000000000815260040161119d90612964565b60405180910390fd5b600073ffffffffffffffffffffffffffffffffffffffff168273ffffffffffffffffffffffffffffffffffffffff1603611215576040517f08c379a000000000000000000000000000000000000000000000000000000000815260040161120c906129f6565b60405180910390fd5b6112208383836115f6565b61122b600082610f99565b6001600360008573ffffffffffffffffffffffffffffffffffffffff1673ffffffffffffffffffffffffffffffffffffffff168152602001908152602001600020600082825461127b9190612a16565b925050819055506001600360008473ffffffffffffffffffffffffffffffffffffffff1673ffffffffffffffffffffffffffffffffffffffff16815260200190815260200160002060008282546112d29190612a4a565b92505081905550816002600083815260200190815260200160002060006101000a81548173ffffffffffffffffffffffffffffffffffffffff021916908373ffffffffffffffffffffffffffffffffffffffff160217905550808273ffffffffffffffffffffffffffffffffffffffff168473ffffffffffffffffffffffffffffffffffffffff167fddf252ad1be2c89b69c2b068fc378daa952ba7f163c4a11628f55a4df523b3ef60405160405180910390a4505050565b6113a58282604051806020016040528060008152506115fb565b5050565b6113b282610f25565b6113f1576040517f08c379a00000000000000000000000000000000000000000000000000000000081526004016113e890612af0565b60405180910390fd5b806006600084815260200190815260200160002090816114119190612cbc565b505050565b6000600760009054906101000a900473ffffffffffffffffffffffffffffffffffffffff16905081600760006101000a81548173ffffffffffffffffffffffffffffffffffffffff021916908373ffffffffffffffffffffffffffffffffffffffff1602179055508173ffffffffffffffffffffffffffffffffffffffff168173ffffffffffffffffffffffffffffffffffffffff167f8be0079c531659141344cd1fd0a4f28419497f9722a3daafe3b4186f6b6457e060405160405180910390a35050565b6114e7848484611130565b6114f384848484611656565b611532576040517f08c379a000000000000000000000000000000000000000000000000000000000815260040161152990612e00565b60405180910390fd5b50505050565b606060405180602001604052806000815250905090565b606061155a82610f25565b611599576040517f08c379a000000000000000000000000000000000000000000000000000000000815260040161159090612e92565b60405180910390fd5b60006115a3611538565b905060008151116115c357604051806020016040528060008152506115ee565b806115cd846117dd565b6040516020016115de9291906127aa565b6040516020818303038152906040525b915050919050565b505050565b611605838361193d565b6116126000848484611656565b611651576040517f08c379a000000000000000000000000000000000000000000000000000000000815260040161164890612e00565b60405180910390fd5b505050565b60006116778473ffffffffffffffffffffffffffffffffffffffff16611b0a565b156117d0578373ffffffffffffffffffffffffffffffffffffffff1663150b7a026116a0610f91565b8786866040518563ffffffff1660e01b81526004016116c29493929190612f07565b6020604051808303816000875af19250505080156116fe57506040513d601f19601f820116820180604052508101906116fb9190612f68565b60015b611780573d806000811461172e576040519150601f19603f3d011682016040523d82523d6000602084013e611733565b606091505b506000815103611778576040517f08c379a000000000000000000000000000000000000000000000000000000000815260040161176f90612e00565b60405180910390fd5b805181602001fd5b63150b7a0260e01b7bffffffffffffffffffffffffffffffffffffffffffffffffffffffff1916817bffffffffffffffffffffffffffffffffffffffffffffffffffffffff1916149150506117d5565b600190505b949350505050565b606060008203611824576040518060400160405280600181526020017f30000000000000000000000000000000000000000000000000000000000000008152509050611938565b600082905060005b6000821461185657808061183f9061252a565b915050600a8261184f9190612fc4565b915061182c565b60008167ffffffffffffffff81111561187257611871611e50565b5b6040519080825280601f01601f1916602001820160405280156118a45781602001600182028036833780820191505090505b5090505b60008514611931576001826118bd9190612a16565b9150600a856118cc9190612ff5565b60306118d89190612a4a565b60f81b8183815181106118ee576118ed613026565b5b60200101907effffffffffffffffffffffffffffffffffffffffffffffffffffffffffffff1916908160001a905350600a8561192a9190612fc4565b94506118a8565b8093505050505b919050565b600073ffffffffffffffffffffffffffffffffffffffff168273ffffffffffffffffffffffffffffffffffffffff16036119ac576040517f08c379a00000000000000000000000000000000000000000000000000000000081526004016119a3906130a1565b60405180910390fd5b6119b581610f25565b156119f5576040517f08c379a00000000000000000000000000000000000000000000000000000000081526004016119ec9061310d565b60405180910390fd5b611a01600083836115f6565b6001600360008473ffffffffffffffffffffffffffffffffffffffff1673ffffffffffffffffffffffffffffffffffffffff1681526020019081526020016000206000828254611a519190612a4a565b92505081905550816002600083815260200190815260200160002060006101000a81548173ffffffffffffffffffffffffffffffffffffffff021916908373ffffffffffffffffffffffffffffffffffffffff160217905550808273ffffffffffffffffffffffffffffffffffffffff16600073ffffffffffffffffffffffffffffffffffffffff167fddf252ad1be2c89b69c2b068fc378daa952ba7f163c4a11628f55a4df523b3ef60405160405180910390a45050565b600080823b905060008111915050919050565b6000604051905090565b600080fd5b600080fd5b60007fffffffff0000000000000000000000000000000000000000000000000000000082169050919050565b611b6681611b31565b8114611b7157600080fd5b50565b600081359050611b8381611b5d565b92915050565b600060208284031215611b9f57611b9e611b27565b5b6000611bad84828501611b74565b91505092915050565b60008115159050919050565b611bcb81611bb6565b82525050565b6000602082019050611be66000830184611bc2565b92915050565b600081519050919050565b600082825260208201905092915050565b60005b83811015611c26578082015181840152602081019050611c0b565b60008484015250505050565b6000601f19601f8301169050919050565b6000611c4e82611bec565b611c588185611bf7565b9350611c68818560208601611c08565b611c7181611c32565b840191505092915050565b60006020820190508181036000830152611c968184611c43565b905092915050565b6000819050919050565b611cb181611c9e565b8114611cbc57600080fd5b50565b600081359050611cce81611ca8565b92915050565b600060208284031215611cea57611ce9611b27565b5b6000611cf884828501611cbf565b91505092915050565b600073ffffffffffffffffffffffffffffffffffffffff82169050919050565b6000611d2c82611d01565b9050919050565b611d3c81611d21565b82525050565b6000602082019050611d576000830184611d33565b92915050565b611d6681611d21565b8114611d7157600080fd5b50565b600081359050611d8381611d5d565b92915050565b60008060408385031215611da057611d9f611b27565b5b6000611dae85828601611d74565b9250506020611dbf85828601611cbf565b9150509250929050565b611dd281611c9e565b82525050565b6000602082019050611ded6000830184611dc9565b92915050565b600080600060608486031215611e0c57611e0b611b27565b5b6000611e1a86828701611d74565b9350506020611e2b86828701611d74565b9250506040611e3c86828701611cbf565b9150509250925092565b600080fd5b600080fd5b7f4e487b7100000000000000000000000000000000000000000000000000000000600052604160045260246000fd5b611e8882611c32565b810181811067ffffffffffffffff82111715611ea757611ea6611e50565b5b80604052505050565b6000611eba611b1d565b9050611ec68282611e7f565b919050565b600067ffffffffffffffff821115611ee657611ee5611e50565b5b611eef82611c32565b9050602081019050919050565b82818337600083830152505050565b6000611f1e611f1984611ecb565b611eb0565b905082815260208101848484011115611f3a57611f39611e4b565b5b611f45848285611efc565b509392505050565b600082601f830112611f6257611f61611e46565b5b8135611f72848260208601611f0b565b91505092915050565b600060208284031215611f9157611f90611b27565b5b600082013567ffffffffffffffff811115611faf57611fae611b2c565b5b611fbb84828501611f4d565b91505092915050565b600060208284031215611fda57611fd9611b27565b5b6000611fe884828501611d74565b91505092915050565b611ffa81611bb6565b811461200557600080fd5b50565b60008135905061201781611ff1565b92915050565b6000806040838503121561203457612033611b27565b5b600061204285828601611d74565b925050602061205385828601612008565b9150509250929050565b600067ffffffffffffffff82111561207857612077611e50565b5b61208182611c32565b9050602081019050919050565b60006120a161209c8461205d565b611eb0565b9050828152602081018484840111156120bd576120bc611e4b565b5b6120c8848285611efc565b509392505050565b600082601f8301126120e5576120e4611e46565b5b81356120f584826020860161208e565b91505092915050565b6000806000806080858703121561211857612117611b27565b5b600061212687828801611d74565b945050602061213787828801611d74565b935050604061214887828801611cbf565b925050606085013567ffffffffffffffff81111561216957612168611b2c565b5b612175878288016120d0565b91505092959194509250565b6000806040838503121561219857612197611b27565b5b60006121a685828601611d74565b92505060206121b785828601611d74565b9150509250929050565b7f4e487b7100000000000000000000000000000000000000000000000000000000600052602260045260246000fd5b6000600282049050600182168061220857607f821691505b60208210810361221b5761221a6121c1565b5b50919050565b7f4552433732313a20617070726f76656420717565727920666f72206e6f6e657860008201527f697374656e7420746f6b656e0000000000000000000000000000000000000000602082015250565b600061227d602c83611bf7565b915061228882612221565b604082019050919050565b600060208201905081810360008301526122ac81612270565b9050919050565b7f4552433732313a20617070726f76616c20746f2063757272656e74206f776e6560008201527f7200000000000000000000000000000000000000000000000000000000000000602082015250565b600061230f602183611bf7565b915061231a826122b3565b604082019050919050565b6000602082019050818103600083015261233e81612302565b9050919050565b7f4552433732313a20617070726f76652063616c6c6572206973206e6f74206f7760008201527f6e6572206e6f7220617070726f76656420666f7220616c6c0000000000000000602082015250565b60006123a1603883611bf7565b91506123ac82612345565b604082019050919050565b600060208201905081810360008301526123d081612394565b9050919050565b7f4552433732313a207472616e736665722063616c6c6572206973206e6f74206f60008201527f776e6572206e6f7220617070726f766564000000000000000000000000000000602082015250565b6000612433603183611bf7565b915061243e826123d7565b604082019050919050565b6000602082019050818103600083015261246281612426565b9050919050565b7f4552433732313a206f776e657220717565727920666f72206e6f6e657869737460008201527f656e7420746f6b656e0000000000000000000000000000000000000000000000602082015250565b60006124c5602983611bf7565b91506124d082612469565b604082019050919050565b600060208201905081810360008301526124f4816124b8565b9050919050565b7f4e487b7100000000000000000000000000000000000000000000000000000000600052601160045260246000fd5b600061253582611c9e565b91507fffffffffffffffffffffffffffffffffffffffffffffffffffffffffffffffff8203612567576125666124fb565b5b600182019050919050565b7f4552433732313a2062616c616e636520717565727920666f7220746865207a6560008201527f726f206164647265737300000000000000000000000000000000000000000000602082015250565b60006125ce602a83611bf7565b91506125d982612572565b604082019050919050565b600060208201905081810360008301526125fd816125c1565b9050919050565b7f4f776e61626c653a2063616c6c6572206973206e6f7420746865206f776e6572600082015250565b600061263a602083611bf7565b915061264582612604565b602082019050919050565b600060208201905081810360008301526126698161262d565b9050919050565b7f4552433732313a20617070726f766520746f2063616c6c657200000000000000600082015250565b60006126a6601983611bf7565b91506126b182612670565b602082019050919050565b600060208201905081810360008301526126d581612699565b9050919050565b7f45524337323155524953746f726167653a2055524920717565727920666f722060008201527f6e6f6e6578697374656e7420746f6b656e000000000000000000000000000000602082015250565b6000612738603183611bf7565b9150612743826126dc565b604082019050919050565b600060208201905081810360008301526127678161272b565b9050919050565b600081905092915050565b600061278482611bec565b61278e818561276e565b935061279e818560208601611c08565b80840191505092915050565b60006127b68285612779565b91506127c28284612779565b91508190509392505050565b7f4f776e61626c653a206e6577206f776e657220697320746865207a65726f206160008201527f6464726573730000000000000000000000000000000000000000000000000000602082015250565b600061282a602683611bf7565b9150612835826127ce565b604082019050919050565b600060208201905081810360008301526128598161281d565b9050919050565b7f4552433732313a206f70657261746f7220717565727920666f72206e6f6e657860008201527f697374656e7420746f6b656e0000000000000000000000000000000000000000602082015250565b60006128bc602c83611bf7565b91506128c782612860565b604082019050919050565b600060208201905081810360008301526128eb816128af565b9050919050565b7f4552433732313a207472616e73666572206f6620746f6b656e2074686174206960008201527f73206e6f74206f776e0000000000000000000000000000000000000000000000602082015250565b600061294e602983611bf7565b9150612959826128f2565b604082019050919050565b6000602082019050818103600083015261297d81612941565b9050919050565b7f4552433732313a207472616e7366657220746f20746865207a65726f2061646460008201527f7265737300000000000000000000000000000000000000000000000000000000602082015250565b60006129e0602483611bf7565b91506129eb82612984565b604082019050919050565b60006020820190508181036000830152612a0f816129d3565b9050919050565b6000612a2182611c9e565b9150612a2c83611c9e565b9250828203905081811115612a4457612a436124fb565b5b92915050565b6000612a5582611c9e565b9150612a6083611c9e565b9250828201905080821115612a7857612a776124fb565b5b92915050565b7f45524337323155524953746f726167653a2055524920736574206f66206e6f6e60008201527f6578697374656e7420746f6b656e000000000000000000000000000000000000602082015250565b6000612ada602e83611bf7565b9150612ae582612a7e565b604082019050919050565b60006020820190508181036000830152612b0981612acd565b9050919050565b60008190508160005260206000209050919050565b60006020601f8301049050919050565b600082821b905092915050565b600060088302612b727fffffffffffffffffffffffffffffffffffffffffffffffffffffffffffffffff82612b35565b612b7c8683612b35565b95508019841693508086168417925050509392505050565b6000819050919050565b6000612bb9612bb4612baf84611c9e565b612b94565b611c9e565b9050919050565b6000819050919050565b612bd383612b9e565b612be7612bdf82612bc0565b848454612b42565b825550505050565b600090565b612bfc612bef565b612c07818484612bca565b505050565b5b81811015612c2b57612c20600082612bf4565b600181019050612c0d565b5050565b601f821115612c7057612c4181612b10565b612c4a84612b25565b81016020851015612c59578190505b612c6d612c6585612b25565b830182612c0c565b50505b505050565b600082821c905092915050565b6000612c9360001984600802612c75565b1980831691505092915050565b6000612cac8383612c82565b9150826002028217905092915050565b612cc582611bec565b67ffffffffffffffff811115612cde57612cdd611e50565b5b612ce882546121f0565b612cf3828285612c2f565b600060209050601f831160018114612d265760008415612d14578287015190505b612d1e8582612ca0565b865550612d86565b601f198416612d3486612b10565b60005b82811015612d5c57848901518255600182019150602085019450602081019050612d37565b86831015612d795784890151612d75601f891682612c82565b8355505b6001600288020188555050505b505050505050565b7f4552433732313a207472616e7366657220746f206e6f6e20455243373231526560008201527f63656976657220696d706c656d656e7465720000000000000000000000000000602082015250565b6000612dea603283611bf7565b9150612df582612d8e565b604082019050919050565b60006020820190508181036000830152612e1981612ddd565b9050919050565b7f4552433732314d657461646174613a2055524920717565727920666f72206e6f60008201527f6e6578697374656e7420746f6b656e0000000000000000000000000000000000602082015250565b6000612e7c602f83611bf7565b9150612e8782612e20565b604082019050919050565b60006020820190508181036000830152612eab81612e6f565b9050919050565b600081519050919050565b600082825260208201905092915050565b6000612ed982612eb2565b612ee38185612ebd565b9350612ef3818560208601611c08565b612efc81611c32565b840191505092915050565b6000608082019050612f1c6000830187611d33565b612f296020830186611d33565b612f366040830185611dc9565b8181036060830152612f488184612ece565b905095945050505050565b600081519050612f6281611b5d565b92915050565b600060208284031215612f7e57612f7d611b27565b5b6000612f8c84828501612f53565b91505092915050565b7f4e487b7100000000000000000000000000000000000000000000000000000000600052601260045260246000fd5b6000612fcf82611c9e565b9150612fda83611c9e565b925082612fea57612fe9612f95565b5b828204905092915050565b600061300082611c9e565b915061300b83611c9e565b92508261301b5761301a612f95565b5b828206905092915050565b7f4e487b7100000000000000000000000000000000000000000000000000000000600052603260045260246000fd5b7f4552433732313a206d696e7420746f20746865207a65726f2061646472657373600082015250565b600061308b602083611bf7565b915061309682613055565b602082019050919050565b600060208201905081810360008301526130ba8161307e565b9050919050565b7f4552433732313a20746f6b656e20616c7265616479206d696e74656400000000600082015250565b60006130f7601c83611bf7565b9150613102826130c1565b602082019050919050565b60006020820190508181036000830152613126816130ea565b905091905056fea2646970667358221220557d5e796523401d0b4849c74c14d71dc8542ccedfe332f60348bac3a003302d64736f6c63430008130033",
  "linkReferences": {},
  "deployedLinkReferences": {}
}