{
  "_format": "hh-sol-artifact-1",
  "contractName": "NEXTHYPE",
  "sourceName": "contracts/NexthypeNFT.sol",
  "abi": [
    {
      "inputs": [],
      "stateMutability": "nonpayable",
      "type": "constructor"
    },
    {
      "anonymous": false,
      "inputs": [
        {
          "indexed": true,
          "internalType": "address",
          "name": "owner",
          "type": "address"
        },
        {
          "indexed": true,
          "internalType": "address",
          "name": "approved",
          "type": "address"
        },
        {
          "indexed": true,
          "internalType": "uint256",
          "name": "tokenId",
          "type": "uint256"
        }
      ],
      "name": "Approval",
      "type": "event"
    },
    {
      "anonymous": false,
      "inputs": [
        {
          "indexed": true,
          "internalType": "address",
          "name": "owner",
          "type": "address"
        },
        {
          "indexed": true,
          "internalType": "address",
          "name": "operator",
          "type": "address"
        },
        {
          "indexed": false,
          "internalType": "bool",
          "name": "approved",
          "type": "bool"
        }
      ],
      "name": "ApprovalForAll",
      "type": "event"
    },
    {
      "anonymous": false,
      "inputs": [
        {
          "indexed": true,
          "internalType": "address",
          "name": "previousOwner",
          "type": "address"
        },
        {
          "indexed": true,
          "internalType": "address",
          "name": "newOwner",
          "type": "address"
        }
      ],
      "name": "OwnershipTransferred",
      "type": "event"
    },
    {
      "anonymous": false,
      "inputs": [
        {
          "indexed": true,
          "internalType": "address",
          "name": "from",
          "type": "address"
        },
        {
          "indexed": true,
          "internalType": "address",
          "name": "to",
          "type": "address"
        },
        {
          "indexed": true,
          "internalType": "uint256",
          "name": "tokenId",
          "type": "uint256"
        }
      ],
      "name": "Transfer",
      "type": "event"
    },
    {
      "inputs": [
        {
          "internalType": "address",
          "name": "to",
          "type": "address"
        },
        {
          "internalType": "uint256",
          "name": "tokenId",
          "type": "uint256"
        }
      ],
      "name": "approve",
      "outputs": [],
      "stateMutability": "nonpayable",
      "type": "function"
    },
    {
      "inputs": [
        {
          "internalType": "address",
          "name": "owner",
          "type": "address"
        }
      ],
      "name": "balanceOf",
      "outputs": [
        {
          "internalType": "uint256",
          "name": "",
          "type": "uint256"
        }
      ],
      "stateMutability": "view",
      "type": "function"
    },
    {
      "inputs": [
        {
          "internalType": "uint256",
          "name": "tokenId",
          "type": "uint256"
        }
      ],
      "name": "getApproved",
      "outputs": [
        {
          "internalType": "address",
          "name": "",
          "type": "address"
        }
      ],
      "stateMutability": "view",
      "type": "function"
    },
    {
      "inputs": [],
      "name": "getTotal",
      "outputs": [
        {
          "internalType": "uint256",
          "name": "",
          "type": "uint256"
        }
      ],
      "stateMutability": "view",
      "type": "function"
    },
    {
      "inputs": [
        {
          "internalType": "address",
          "name": "owner",
          "type": "address"
        },
        {
          "internalType": "address",
          "name": "operator",
          "type": "address"
        }
      ],
      "name": "isApprovedForAll",
      "outputs": [
        {
          "internalType": "bool",
          "name": "",
          "type": "bool"
        }
      ],
      "stateMutability": "view",
      "type": "function"
    },
    {
      "inputs": [],
      "name": "name",
      "outputs": [
        {
          "internalType": "string",
          "name": "",
          "type": "string"
        }
      ],
      "stateMutability": "view",
      "type": "function"
    },
    {
      "inputs": [],
      "name": "owner",
      "outputs": [
        {
          "internalType": "address",
          "name": "",
          "type": "address"
        }
      ],
      "stateMutability": "view",
      "type": "function"
    },
    {
      "inputs": [
        {
          "internalType": "uint256",
          "name": "tokenId",
          "type": "uint256"
        }
      ],
      "name": "ownerOf",
      "outputs": [
        {
          "internalType": "address",
          "name": "",
          "type": "address"
        }
      ],
      "stateMutability": "view",
      "type": "function"
    },
    {
      "inputs": [],
      "name": "renounceOwnership",
      "outputs": [],
      "stateMutability": "nonpayable",
      "type": "function"
    },
    {
      "inputs": [
        {
          "internalType": "string",
          "name": "_tokenURI",
          "type": "string"
        }
      ],
      "name": "safeMint",
      "outputs": [],
      "stateMutability": "nonpayable",
      "type": "function"
    },
    {
      "inputs": [
        {
          "internalType": "address",
          "name": "from",
          "type": "address"
        },
        {
          "internalType": "address",
          "name": "to",
          "type": "address"
        },
        {
          "internalType": "uint256",
          "name": "tokenId",
          "type": "uint256"
        }
      ],
      "name": "safeTransferFrom",
      "outputs": [],
      "stateMutability": "nonpayable",
      "type": "function"
    },
    {
      "inputs": [
        {
          "internalType": "address",
          "name": "from",
          "type": "address"
        },
        {
          "internalType": "address",
          "name": "to",
          "type": "address"
        },
        {
          "internalType": "uint256",
          "name": "tokenId",
          "type": "uint256"
        },
        {
          "internalType": "bytes",
          "name": "_data",
          "type": "bytes"
        }
      ],
      "name": "safeTransferFrom",
      "outputs": [],
      "stateMutability": "nonpayable",
      "type": "function"
    },
    {
      "inputs": [
        {
          "internalType": "address",
          "name": "operator",
          "type": "address"
        },
        {
          "internalType": "bool",
          "name": "approved",
          "type": "bool"
        }
      ],
      "name": "setApprovalForAll",
      "outputs": [],
      "stateMutability": "nonpayable",
      "type": "function"
    },
    {
      "inputs": [
        {
          "internalType": "bytes4",
          "name": "interfaceId",
          "type": "bytes4"
        }
      ],
      "name": "supportsInterface",
      "outputs": [
        {
          "internalType": "bool",
          "name": "",
          "type": "bool"
        }
      ],
      "stateMutability": "view",
      "type": "function"
    },
    {
      "inputs": [],
      "name": "symbol",
      "outputs": [
        {
          "internalType": "string",
          "name": "",
          "type": "string"
        }
      ],
      "stateMutability": "view",
      "type": "function"
    },
    {
      "inputs": [
        {
          "internalType": "uint256",
          "name": "tokenId",
          "type": "uint256"
        }
      ],
      "name": "tokenURI",
      "outputs": [
        {
          "internalType": "string",
          "name": "",
          "type": "string"
        }
      ],
      "stateMutability": "view",
      "type": "function"
    },
    {
      "inputs": [
        {
          "internalType": "address",
          "name": "from",
          "type": "address"
        },
        {
          "internalType": "address",
          "name": "to",
          "type": "address"
        },
        {
          "internalType": "uint256",
          "name": "tokenId",
          "type": "uint256"
        }
      ],
      "name": "transferFrom",
      "outputs": [],
      "stateMutability": "nonpayable",
      "type": "function"
    },
    {
      "inputs": [
        {
          "internalType": "address",
          "name": "newOwner",
          "type": "address"
        }
      ],
      "name": "transferOwnership",
      "outputs": [],
      "stateMutability": "nonpayable",
      "type": "function"
    }
  ],
  "bytecode": "0x60806040523480156200001157600080fd5b506040518060400160405280600881526020017f4e455854485950450000000000000000000000000000000000000000000000008152506040518060400160405280600381526020017f4e4554000000000000000000000000000000000000000000000000000000000081525081600090816200008f919062000412565b508060019081620000a1919062000412565b505050620000c4620000b8620000ca60201b60201c565b620000d260201b60201c565b620004f9565b600033905090565b6000600760009054906101000a900473ffffffffffffffffffffffffffffffffffffffff16905081600760006101000a81548173ffffffffffffffffffffffffffffffffffffffff021916908373ffffffffffffffffffffffffffffffffffffffff1602179055508173ffffffffffffffffffffffffffffffffffffffff168173ffffffffffffffffffffffffffffffffffffffff167f8be0079c531659141344cd1fd0a4f28419497f9722a3daafe3b4186f6b6457e060405160405180910390a35050565b600081519050919050565b7f4e487b7100000000000000000000000000000000000000000000000000000000600052604160045260246000fd5b7f4e487b7100000000000000000000000000000000000000000000000000000000600052602260045260246000fd5b600060028204905060018216806200021a57607f821691505b60208210810362000230576200022f620001d2565b5b50919050565b60008190508160005260206000209050919050565b60006020601f8301049050919050565b600082821b905092915050565b6000600883026200029a7fffffffffffffffffffffffffffffffffffffffffffffffffffffffffffffffff826200025b565b620002a686836200025b565b95508019841693508086168417925050509392505050565b6000819050919050565b6000819050919050565b6000620002f3620002ed620002e784620002be565b620002c8565b620002be565b9050919050565b6000819050919050565b6200030f83620002d2565b620003276200031e82620002fa565b84845462000268565b825550505050565b600090565b6200033e6200032f565b6200034b81848462000304565b505050565b5b8181101562000373576200036760008262000334565b60018101905062000351565b5050565b601f821115620003c2576200038c8162000236565b62000397846200024b565b81016020851015620003a7578190505b620003bf620003b6856200024b565b83018262000350565b50505b505050565b600082821c905092915050565b6000620003e760001984600802620003c7565b1980831691505092915050565b6000620004028383620003d4565b9150826002028217905092915050565b6200041d8262000198565b67ffffffffffffffff811115620004395762000438620001a3565b5b62000445825462000201565b6200045282828562000377565b600060209050601f8311600181146200048a576000841562000475578287015190505b620004818582620003f4565b865550620004f1565b601f1984166200049a8662000236565b60005b82811015620004c4578489015182556001820191506020850194506020810190506200049d565b86831015620004e45784890151620004e0601f891682620003d4565b8355505b6001600288020188555050505b505050505050565b61316780620005096000396000f3fe608060405234801561001057600080fd5b50600436106101165760003560e01c8063715018a6116100a2578063a22cb46511610071578063a22cb465146102cd578063b88d4fde146102e9578063c87b56dd14610305578063e985e9c514610335578063f2fde38b1461036557610116565b8063715018a614610269578063775a25e3146102735780638da5cb5b1461029157806395d89b41146102af57610116565b806323b872dd116100e957806323b872dd146101b557806342842e0e146101d15780636352211e146101ed578063695850fb1461021d57806370a082311461023957610116565b806301ffc9a71461011b57806306fdde031461014b578063081812fc14610169578063095ea7b314610199575b600080fd5b61013560048036038101906101309190611b8d565b610381565b6040516101429190611bd5565b60405180910390f35b610153610463565b6040516101609190611c80565b60405180910390f35b610183600480360381019061017e9190611cd8565b6104f5565b6040516101909190611d46565b60405180910390f35b6101b360048036038101906101ae9190611d8d565b61057a565b005b6101cf60048036038101906101ca9190611dcd565b610691565b005b6101eb60048036038101906101e69190611dcd565b6106f1565b005b61020760048036038101906102029190611cd8565b610711565b6040516102149190611d46565b60405180910390f35b61023760048036038101906102329190611f55565b6107c2565b005b610253600480360381019061024e9190611f9e565b6107fc565b6040516102609190611fda565b60405180910390f35b6102716108b3565b005b61027b61093b565b6040516102889190611fda565b60405180910390f35b610299610945565b6040516102a69190611d46565b60405180910390f35b6102b761096f565b6040516102c49190611c80565b60405180910390f35b6102e760048036038101906102e29190612021565b610a01565b005b61030360048036038101906102fe9190612102565b610b81565b005b61031f600480360381019061031a9190611cd8565b610be3565b60405161032c9190611c80565b60405180910390f35b61034f600480360381019061034a9190612185565b610d34565b60405161035c9190611bd5565b60405180910390f35b61037f600480360381019061037a9190611f9e565b610dc8565b005b60007f80ac58cd000000000000000000000000000000000000000000000000000000007bffffffffffffffffffffffffffffffffffffffffffffffffffffffff1916827bffffffffffffffffffffffffffffffffffffffffffffffffffffffff1916148061044c57507f5b5e139f000000000000000000000000000000000000000000000000000000007bffffffffffffffffffffffffffffffffffffffffffffffffffffffff1916827bffffffffffffffffffffffffffffffffffffffffffffffffffffffff1916145b8061045c575061045b82610ebf565b5b9050919050565b606060008054610472906121f4565b80601f016020809104026020016040519081016040528092919081815260200182805461049e906121f4565b80156104eb5780601f106104c0576101008083540402835291602001916104eb565b820191906000526020600020905b8154815290600101906020018083116104ce57829003601f168201915b5050505050905090565b600061050082610f29565b61053f576040517f08c379a000000000000000000000000000000000000000000000000000000000815260040161053690612297565b60405180910390fd5b6004600083815260200190815260200160002060009054906101000a900473ffffffffffffffffffffffffffffffffffffffff169050919050565b600061058582610711565b90508073ffffffffffffffffffffffffffffffffffffffff168373ffffffffffffffffffffffffffffffffffffffff16036105f5576040517f08c379a00000000000000000000000000000000000000000000000000000000081526004016105ec90612329565b60405180910390fd5b8073ffffffffffffffffffffffffffffffffffffffff16610614610f95565b73ffffffffffffffffffffffffffffffffffffffff16148061064357506106428161063d610f95565b610d34565b5b610682576040517f08c379a0000000000000000000000000000000000000000000000000000000008152600401610679906123bb565b60405180910390fd5b61068c8383610f9d565b505050565b6106a261069c610f95565b82611056565b6106e1576040517f08c379a00000000000000000000000000000000000000000000000000000000081526004016106d89061244d565b60405180910390fd5b6106ec838383611134565b505050565b61070c83838360405180602001604052806000815250610b81565b505050565b6000806002600084815260200190815260200160002060009054906101000a900473ffffffffffffffffffffffffffffffffffffffff169050600073ffffffffffffffffffffffffffffffffffffffff168173ffffffffffffffffffffffffffffffffffffffff16036107b9576040517f08c379a00000000000000000000000000000000000000000000000000000000081526004016107b0906124df565b60405180910390fd5b80915050919050565b6000600860008154809291906107d79061252e565b9190505590506107ee6107e8610f95565b8261138f565b6107f881836113ad565b5050565b60008073ffffffffffffffffffffffffffffffffffffffff168273ffffffffffffffffffffffffffffffffffffffff160361086c576040517f08c379a0000000000000000000000000000000000000000000000000000000008152600401610863906125e8565b60405180910390fd5b600360008373ffffffffffffffffffffffffffffffffffffffff1673ffffffffffffffffffffffffffffffffffffffff168152602001908152602001600020549050919050565b6108bb610f95565b73ffffffffffffffffffffffffffffffffffffffff166108d9610945565b73ffffffffffffffffffffffffffffffffffffffff161461092f576040517f08c379a000000000000000000000000000000000000000000000000000000000815260040161092690612654565b60405180910390fd5b610939600061141a565b565b6000600854905090565b6000600760009054906101000a900473ffffffffffffffffffffffffffffffffffffffff16905090565b60606001805461097e906121f4565b80601f01602080910402602001604051908101604052809291908181526020018280546109aa906121f4565b80156109f75780601f106109cc576101008083540402835291602001916109f7565b820191906000526020600020905b8154815290600101906020018083116109da57829003601f168201915b5050505050905090565b610a09610f95565b73ffffffffffffffffffffffffffffffffffffffff168273ffffffffffffffffffffffffffffffffffffffff1603610a76576040517f08c379a0000000000000000000000000000000000000000000000000000000008152600401610a6d906126c0565b60405180910390fd5b8060056000610a83610f95565b73ffffffffffffffffffffffffffffffffffffffff1673ffffffffffffffffffffffffffffffffffffffff16815260200190815260200160002060008473ffffffffffffffffffffffffffffffffffffffff1673ffffffffffffffffffffffffffffffffffffffff16815260200190815260200160002060006101000a81548160ff0219169083151502179055508173ffffffffffffffffffffffffffffffffffffffff16610b30610f95565b73ffffffffffffffffffffffffffffffffffffffff167f17307eab39ab6107e8899845ad3d59bd9653f200f220920489ca2b5937696c3183604051610b759190611bd5565b60405180910390a35050565b610b92610b8c610f95565b83611056565b610bd1576040517f08c379a0000000000000000000000000000000000000000000000000000000008152600401610bc89061244d565b60405180910390fd5b610bdd848484846114e0565b50505050565b6060610bee82610f29565b610c2d576040517f08c379a0000000000000000000000000000000000000000000000000000000008152600401610c2490612752565b60405180910390fd5b6000600660008481526020019081526020016000208054610c4d906121f4565b80601f0160208091040260200160405190810160405280929190818152602001828054610c79906121f4565b8015610cc65780601f10610c9b57610100808354040283529160200191610cc6565b820191906000526020600020905b815481529060010190602001808311610ca957829003601f168201915b505050505090506000610cd761153c565b90506000815103610cec578192505050610d2f565b600082511115610d21578082604051602001610d099291906127ae565b60405160208183030381529060405292505050610d2f565b610d2a84611553565b925050505b919050565b6000600560008473ffffffffffffffffffffffffffffffffffffffff1673ffffffffffffffffffffffffffffffffffffffff16815260200190815260200160002060008373ffffffffffffffffffffffffffffffffffffffff1673ffffffffffffffffffffffffffffffffffffffff16815260200190815260200160002060009054906101000a900460ff16905092915050565b610dd0610f95565b73ffffffffffffffffffffffffffffffffffffffff16610dee610945565b73ffffffffffffffffffffffffffffffffffffffff1614610e44576040517f08c379a0000000000000000000000000000000000000000000000000000000008152600401610e3b90612654565b60405180910390fd5b600073ffffffffffffffffffffffffffffffffffffffff168173ffffffffffffffffffffffffffffffffffffffff1603610eb3576040517f08c379a0000000000000000000000000000000000000000000000000000000008152600401610eaa90612844565b60405180910390fd5b610ebc8161141a565b50565b60007f01ffc9a7000000000000000000000000000000000000000000000000000000007bffffffffffffffffffffffffffffffffffffffffffffffffffffffff1916827bffffffffffffffffffffffffffffffffffffffffffffffffffffffff1916149050919050565b60008073ffffffffffffffffffffffffffffffffffffffff166002600084815260200190815260200160002060009054906101000a900473ffffffffffffffffffffffffffffffffffffffff1673ffffffffffffffffffffffffffffffffffffffff1614159050919050565b600033905090565b816004600083815260200190815260200160002060006101000a81548173ffffffffffffffffffffffffffffffffffffffff021916908373ffffffffffffffffffffffffffffffffffffffff160217905550808273ffffffffffffffffffffffffffffffffffffffff1661101083610711565b73ffffffffffffffffffffffffffffffffffffffff167f8c5be1e5ebec7d5bd14f71427d1e84f3dd0314c0f7b2291e5b200ac8c7c3b92560405160405180910390a45050565b600061106182610f29565b6110a0576040517f08c379a0000000000000000000000000000000000000000000000000000000008152600401611097906128d6565b60405180910390fd5b60006110ab83610711565b90508073ffffffffffffffffffffffffffffffffffffffff168473ffffffffffffffffffffffffffffffffffffffff16148061111a57508373ffffffffffffffffffffffffffffffffffffffff16611102846104f5565b73ffffffffffffffffffffffffffffffffffffffff16145b8061112b575061112a8185610d34565b5b91505092915050565b8273ffffffffffffffffffffffffffffffffffffffff1661115482610711565b73ffffffffffffffffffffffffffffffffffffffff16146111aa576040517f08c379a00000000000000000000000000000000000000000000000000000000081526004016111a190612968565b60405180910390fd5b600073ffffffffffffffffffffffffffffffffffffffff168273ffffffffffffffffffffffffffffffffffffffff1603611219576040517f08c379a0000000000000000000000000000000000000000000000000000000008152600401611210906129fa565b60405180910390fd5b6112248383836115fa565b61122f600082610f9d565b6001600360008573ffffffffffffffffffffffffffffffffffffffff1673ffffffffffffffffffffffffffffffffffffffff168152602001908152602001600020600082825461127f9190612a1a565b925050819055506001600360008473ffffffffffffffffffffffffffffffffffffffff1673ffffffffffffffffffffffffffffffffffffffff16815260200190815260200160002060008282546112d69190612a4e565b92505081905550816002600083815260200190815260200160002060006101000a81548173ffffffffffffffffffffffffffffffffffffffff021916908373ffffffffffffffffffffffffffffffffffffffff160217905550808273ffffffffffffffffffffffffffffffffffffffff168473ffffffffffffffffffffffffffffffffffffffff167fddf252ad1be2c89b69c2b068fc378daa952ba7f163c4a11628f55a4df523b3ef60405160405180910390a4505050565b6113a98282604051806020016040528060008152506115ff565b5050565b6113b682610f29565b6113f5576040517f08c379a00000000000000000000000000000000000000000000000000000000081526004016113ec90612af4565b60405180910390fd5b806006600084815260200190815260200160002090816114159190612cc0565b505050565b6000600760009054906101000a900473ffffffffffffffffffffffffffffffffffffffff16905081600760006101000a81548173ffffffffffffffffffffffffffffffffffffffff021916908373ffffffffffffffffffffffffffffffffffffffff1602179055508173ffffffffffffffffffffffffffffffffffffffff168173ffffffffffffffffffffffffffffffffffffffff167f8be0079c531659141344cd1fd0a4f28419497f9722a3daafe3b4186f6b6457e060405160405180910390a35050565b6114eb848484611134565b6114f78484848461165a565b611536576040517f08c379a000000000000000000000000000000000000000000000000000000000815260040161152d90612e04565b60405180910390fd5b50505050565b606060405180602001604052806000815250905090565b606061155e82610f29565b61159d576040517f08c379a000000000000000000000000000000000000000000000000000000000815260040161159490612e96565b60405180910390fd5b60006115a761153c565b905060008151116115c757604051806020016040528060008152506115f2565b806115d1846117e1565b6040516020016115e29291906127ae565b6040516020818303038152906040525b915050919050565b505050565b6116098383611941565b611616600084848461165a565b611655576040517f08c379a000000000000000000000000000000000000000000000000000000000815260040161164c90612e04565b60405180910390fd5b505050565b600061167b8473ffffffffffffffffffffffffffffffffffffffff16611b0e565b156117d4578373ffffffffffffffffffffffffffffffffffffffff1663150b7a026116a4610f95565b8786866040518563ffffffff1660e01b81526004016116c69493929190612f0b565b6020604051808303816000875af192505050801561170257506040513d601f19601f820116820180604052508101906116ff9190612f6c565b60015b611784573d8060008114611732576040519150601f19603f3d011682016040523d82523d6000602084013e611737565b606091505b50600081510361177c576040517f08c379a000000000000000000000000000000000000000000000000000000000815260040161177390612e04565b60405180910390fd5b805181602001fd5b63150b7a0260e01b7bffffffffffffffffffffffffffffffffffffffffffffffffffffffff1916817bffffffffffffffffffffffffffffffffffffffffffffffffffffffff1916149150506117d9565b600190505b949350505050565b606060008203611828576040518060400160405280600181526020017f3000000000000000000000000000000000000000000000000000000000000000815250905061193c565b600082905060005b6000821461185a5780806118439061252e565b915050600a826118539190612fc8565b9150611830565b60008167ffffffffffffffff81111561187657611875611e2a565b5b6040519080825280601f01601f1916602001820160405280156118a85781602001600182028036833780820191505090505b5090505b60008514611935576001826118c19190612a1a565b9150600a856118d09190612ff9565b60306118dc9190612a4e565b60f81b8183815181106118f2576118f161302a565b5b60200101907effffffffffffffffffffffffffffffffffffffffffffffffffffffffffffff1916908160001a905350600a8561192e9190612fc8565b94506118ac565b8093505050505b919050565b600073ffffffffffffffffffffffffffffffffffffffff168273ffffffffffffffffffffffffffffffffffffffff16036119b0576040517f08c379a00000000000000000000000000000000000000000000000000000000081526004016119a7906130a5565b60405180910390fd5b6119b981610f29565b156119f9576040517f08c379a00000000000000000000000000000000000000000000000000000000081526004016119f090613111565b60405180910390fd5b611a05600083836115fa565b6001600360008473ffffffffffffffffffffffffffffffffffffffff1673ffffffffffffffffffffffffffffffffffffffff1681526020019081526020016000206000828254611a559190612a4e565b92505081905550816002600083815260200190815260200160002060006101000a81548173ffffffffffffffffffffffffffffffffffffffff021916908373ffffffffffffffffffffffffffffffffffffffff160217905550808273ffffffffffffffffffffffffffffffffffffffff16600073ffffffffffffffffffffffffffffffffffffffff167fddf252ad1be2c89b69c2b068fc378daa952ba7f163c4a11628f55a4df523b3ef60405160405180910390a45050565b600080823b905060008111915050919050565b6000604051905090565b600080fd5b600080fd5b60007fffffffff0000000000000000000000000000000000000000000000000000000082169050919050565b611b6a81611b35565b8114611b7557600080fd5b50565b600081359050611b8781611b61565b92915050565b600060208284031215611ba357611ba2611b2b565b5b6000611bb184828501611b78565b91505092915050565b60008115159050919050565b611bcf81611bba565b82525050565b6000602082019050611bea6000830184611bc6565b92915050565b600081519050919050565b600082825260208201905092915050565b60005b83811015611c2a578082015181840152602081019050611c0f565b60008484015250505050565b6000601f19601f8301169050919050565b6000611c5282611bf0565b611c5c8185611bfb565b9350611c6c818560208601611c0c565b611c7581611c36565b840191505092915050565b60006020820190508181036000830152611c9a8184611c47565b905092915050565b6000819050919050565b611cb581611ca2565b8114611cc057600080fd5b50565b600081359050611cd281611cac565b92915050565b600060208284031215611cee57611ced611b2b565b5b6000611cfc84828501611cc3565b91505092915050565b600073ffffffffffffffffffffffffffffffffffffffff82169050919050565b6000611d3082611d05565b9050919050565b611d4081611d25565b82525050565b6000602082019050611d5b6000830184611d37565b92915050565b611d6a81611d25565b8114611d7557600080fd5b50565b600081359050611d8781611d61565b92915050565b60008060408385031215611da457611da3611b2b565b5b6000611db285828601611d78565b9250506020611dc385828601611cc3565b9150509250929050565b600080600060608486031215611de657611de5611b2b565b5b6000611df486828701611d78565b9350506020611e0586828701611d78565b9250506040611e1686828701611cc3565b9150509250925092565b600080fd5b600080fd5b7f4e487b7100000000000000000000000000000000000000000000000000000000600052604160045260246000fd5b611e6282611c36565b810181811067ffffffffffffffff82111715611e8157611e80611e2a565b5b80604052505050565b6000611e94611b21565b9050611ea08282611e59565b919050565b600067ffffffffffffffff821115611ec057611ebf611e2a565b5b611ec982611c36565b9050602081019050919050565b82818337600083830152505050565b6000611ef8611ef384611ea5565b611e8a565b905082815260208101848484011115611f1457611f13611e25565b5b611f1f848285611ed6565b509392505050565b600082601f830112611f3c57611f3b611e20565b5b8135611f4c848260208601611ee5565b91505092915050565b600060208284031215611f6b57611f6a611b2b565b5b600082013567ffffffffffffffff811115611f8957611f88611b30565b5b611f9584828501611f27565b91505092915050565b600060208284031215611fb457611fb3611b2b565b5b6000611fc284828501611d78565b91505092915050565b611fd481611ca2565b82525050565b6000602082019050611fef6000830184611fcb565b92915050565b611ffe81611bba565b811461200957600080fd5b50565b60008135905061201b81611ff5565b92915050565b6000806040838503121561203857612037611b2b565b5b600061204685828601611d78565b92505060206120578582860161200c565b9150509250929050565b600067ffffffffffffffff82111561207c5761207b611e2a565b5b61208582611c36565b9050602081019050919050565b60006120a56120a084612061565b611e8a565b9050828152602081018484840111156120c1576120c0611e25565b5b6120cc848285611ed6565b509392505050565b600082601f8301126120e9576120e8611e20565b5b81356120f9848260208601612092565b91505092915050565b6000806000806080858703121561211c5761211b611b2b565b5b600061212a87828801611d78565b945050602061213b87828801611d78565b935050604061214c87828801611cc3565b925050606085013567ffffffffffffffff81111561216d5761216c611b30565b5b612179878288016120d4565b91505092959194509250565b6000806040838503121561219c5761219b611b2b565b5b60006121aa85828601611d78565b92505060206121bb85828601611d78565b9150509250929050565b7f4e487b7100000000000000000000000000000000000000000000000000000000600052602260045260246000fd5b6000600282049050600182168061220c57607f821691505b60208210810361221f5761221e6121c5565b5b50919050565b7f4552433732313a20617070726f76656420717565727920666f72206e6f6e657860008201527f697374656e7420746f6b656e0000000000000000000000000000000000000000602082015250565b6000612281602c83611bfb565b915061228c82612225565b604082019050919050565b600060208201905081810360008301526122b081612274565b9050919050565b7f4552433732313a20617070726f76616c20746f2063757272656e74206f776e6560008201527f7200000000000000000000000000000000000000000000000000000000000000602082015250565b6000612313602183611bfb565b915061231e826122b7565b604082019050919050565b6000602082019050818103600083015261234281612306565b9050919050565b7f4552433732313a20617070726f76652063616c6c6572206973206e6f74206f7760008201527f6e6572206e6f7220617070726f76656420666f7220616c6c0000000000000000602082015250565b60006123a5603883611bfb565b91506123b082612349565b604082019050919050565b600060208201905081810360008301526123d481612398565b9050919050565b7f4552433732313a207472616e736665722063616c6c6572206973206e6f74206f60008201527f776e6572206e6f7220617070726f766564000000000000000000000000000000602082015250565b6000612437603183611bfb565b9150612442826123db565b604082019050919050565b600060208201905081810360008301526124668161242a565b9050919050565b7f4552433732313a206f776e657220717565727920666f72206e6f6e657869737460008201527f656e7420746f6b656e0000000000000000000000000000000000000000000000602082015250565b60006124c9602983611bfb565b91506124d48261246d565b604082019050919050565b600060208201905081810360008301526124f8816124bc565b9050919050565b7f4e487b7100000000000000000000000000000000000000000000000000000000600052601160045260246000fd5b600061253982611ca2565b91507fffffffffffffffffffffffffffffffffffffffffffffffffffffffffffffffff820361256b5761256a6124ff565b5b600182019050919050565b7f4552433732313a2062616c616e636520717565727920666f7220746865207a6560008201527f726f206164647265737300000000000000000000000000000000000000000000602082015250565b60006125d2602a83611bfb565b91506125dd82612576565b604082019050919050565b60006020820190508181036000830152612601816125c5565b9050919050565b7f4f776e61626c653a2063616c6c6572206973206e6f7420746865206f776e6572600082015250565b600061263e602083611bfb565b915061264982612608565b602082019050919050565b6000602082019050818103600083015261266d81612631565b9050919050565b7f4552433732313a20617070726f766520746f2063616c6c657200000000000000600082015250565b60006126aa601983611bfb565b91506126b582612674565b602082019050919050565b600060208201905081810360008301526126d98161269d565b9050919050565b7f45524337323155524953746f726167653a2055524920717565727920666f722060008201527f6e6f6e6578697374656e7420746f6b656e000000000000000000000000000000602082015250565b600061273c603183611bfb565b9150612747826126e0565b604082019050919050565b6000602082019050818103600083015261276b8161272f565b9050919050565b600081905092915050565b600061278882611bf0565b6127928185612772565b93506127a2818560208601611c0c565b80840191505092915050565b60006127ba828561277d565b91506127c6828461277d565b91508190509392505050565b7f4f776e61626c653a206e6577206f776e657220697320746865207a65726f206160008201527f6464726573730000000000000000000000000000000000000000000000000000602082015250565b600061282e602683611bfb565b9150612839826127d2565b604082019050919050565b6000602082019050818103600083015261285d81612821565b9050919050565b7f4552433732313a206f70657261746f7220717565727920666f72206e6f6e657860008201527f697374656e7420746f6b656e0000000000000000000000000000000000000000602082015250565b60006128c0602c83611bfb565b91506128cb82612864565b604082019050919050565b600060208201905081810360008301526128ef816128b3565b9050919050565b7f4552433732313a207472616e73666572206f6620746f6b656e2074686174206960008201527f73206e6f74206f776e0000000000000000000000000000000000000000000000602082015250565b6000612952602983611bfb565b915061295d826128f6565b604082019050919050565b6000602082019050818103600083015261298181612945565b9050919050565b7f4552433732313a207472616e7366657220746f20746865207a65726f2061646460008201527f7265737300000000000000000000000000000000000000000000000000000000602082015250565b60006129e4602483611bfb565b91506129ef82612988565b604082019050919050565b60006020820190508181036000830152612a13816129d7565b9050919050565b6000612a2582611ca2565b9150612a3083611ca2565b9250828203905081811115612a4857612a476124ff565b5b92915050565b6000612a5982611ca2565b9150612a6483611ca2565b9250828201905080821115612a7c57612a7b6124ff565b5b92915050565b7f45524337323155524953746f726167653a2055524920736574206f66206e6f6e60008201527f6578697374656e7420746f6b656e000000000000000000000000000000000000602082015250565b6000612ade602e83611bfb565b9150612ae982612a82565b604082019050919050565b60006020820190508181036000830152612b0d81612ad1565b9050919050565b60008190508160005260206000209050919050565b60006020601f8301049050919050565b600082821b905092915050565b600060088302612b767fffffffffffffffffffffffffffffffffffffffffffffffffffffffffffffffff82612b39565b612b808683612b39565b95508019841693508086168417925050509392505050565b6000819050919050565b6000612bbd612bb8612bb384611ca2565b612b98565b611ca2565b9050919050565b6000819050919050565b612bd783612ba2565b612beb612be382612bc4565b848454612b46565b825550505050565b600090565b612c00612bf3565b612c0b818484612bce565b505050565b5b81811015612c2f57612c24600082612bf8565b600181019050612c11565b5050565b601f821115612c7457612c4581612b14565b612c4e84612b29565b81016020851015612c5d578190505b612c71612c6985612b29565b830182612c10565b50505b505050565b600082821c905092915050565b6000612c9760001984600802612c79565b1980831691505092915050565b6000612cb08383612c86565b9150826002028217905092915050565b612cc982611bf0565b67ffffffffffffffff811115612ce257612ce1611e2a565b5b612cec82546121f4565b612cf7828285612c33565b600060209050601f831160018114612d2a5760008415612d18578287015190505b612d228582612ca4565b865550612d8a565b601f198416612d3886612b14565b60005b82811015612d6057848901518255600182019150602085019450602081019050612d3b565b86831015612d7d5784890151612d79601f891682612c86565b8355505b6001600288020188555050505b505050505050565b7f4552433732313a207472616e7366657220746f206e6f6e20455243373231526560008201527f63656976657220696d706c656d656e7465720000000000000000000000000000602082015250565b6000612dee603283611bfb565b9150612df982612d92565b604082019050919050565b60006020820190508181036000830152612e1d81612de1565b9050919050565b7f4552433732314d657461646174613a2055524920717565727920666f72206e6f60008201527f6e6578697374656e7420746f6b656e0000000000000000000000000000000000602082015250565b6000612e80602f83611bfb565b9150612e8b82612e24565b604082019050919050565b60006020820190508181036000830152612eaf81612e73565b9050919050565b600081519050919050565b600082825260208201905092915050565b6000612edd82612eb6565b612ee78185612ec1565b9350612ef7818560208601611c0c565b612f0081611c36565b840191505092915050565b6000608082019050612f206000830187611d37565b612f2d6020830186611d37565b612f3a6040830185611fcb565b8181036060830152612f4c8184612ed2565b905095945050505050565b600081519050612f6681611b61565b92915050565b600060208284031215612f8257612f81611b2b565b5b6000612f9084828501612f57565b91505092915050565b7f4e487b7100000000000000000000000000000000000000000000000000000000600052601260045260246000fd5b6000612fd382611ca2565b9150612fde83611ca2565b925082612fee57612fed612f99565b5b828204905092915050565b600061300482611ca2565b915061300f83611ca2565b92508261301f5761301e612f99565b5b828206905092915050565b7f4e487b7100000000000000000000000000000000000000000000000000000000600052603260045260246000fd5b7f4552433732313a206d696e7420746f20746865207a65726f2061646472657373600082015250565b600061308f602083611bfb565b915061309a82613059565b602082019050919050565b600060208201905081810360008301526130be81613082565b9050919050565b7f4552433732313a20746f6b656e20616c7265616479206d696e74656400000000600082015250565b60006130fb601c83611bfb565b9150613106826130c5565b602082019050919050565b6000602082019050818103600083015261312a816130ee565b905091905056fea264697066735822122036d6691c59a81461e1837150f9e544b23341d344661c95ec174ff352060d4fdd64736f6c63430008130033",
  "linkReferences": {},
  "deployedLinkReferences": {}
}