{
  "_format": "hh-sol-artifact-1",
  "contractName": "MysteryBoxFactory",
  "sourceName": "contracts/MysteryBoxFactory.sol",
  "abi": [
    {
      "anonymous": false,
      "inputs": [
        {
          "indexed": false,
          "internalType": "address",
          "name": "owner",
          "type": "address"
        },
        {
          "indexed": false,
          "internalType": "address",
          "name": "tokenAddress",
          "type": "address"
        }
      ],
      "name": "MysteryBoxCreated",
      "type": "event"
    },
    {
      "inputs": [
        {
          "internalType": "string",
          "name": "name",
          "type": "string"
        },
        {
          "internalType": "string",
          "name": "symbol",
          "type": "string"
        },
        {
          "internalType": "string",
          "name": "unrevealedURI",
          "type": "string"
        },
        {
          "internalType": "uint256",
          "name": "maxSupply",
          "type": "uint256"
        },
        {
          "internalType": "uint256",
          "name": "maxMintPerUser",
          "type": "uint256"
        },
        {
          "internalType": "uint256",
          "name": "fee",
          "type": "uint256"
        },
        {
          "internalType": "bytes32",
          "name": "whitelistRoot",
          "type": "bytes32"
        },
        {
          "internalType": "uint64",
          "name": "vrfSubscriptionId",
          "type": "uint64"
        }
      ],
      "name": "deployMysteryBox",
      "outputs": [
        {
          "internalType": "address",
          "name": "",
          "type": "address"
        }
      ],
      "stateMutability": "nonpayable",
      "type": "function"
    },
    {
      "inputs": [
        {
          "internalType": "uint256",
          "name": "",
          "type": "uint256"
        }
      ],
      "name": "events",
      "outputs": [
        {
          "internalType": "contract MysteryBox",
          "name": "",
          "type": "address"
        }
      ],
      "stateMutability": "view",
      "type": "function"
    },
    {
      "inputs": [],
      "name": "getTotalEvents",
      "outputs": [
        {
          "internalType": "uint256",
          "name": "amount",
          "type": "uint256"
        }
      ],
      "stateMutability": "view",
      "type": "function"
    }
  ],
  "bytecode": "0x608060405234801561001057600080fd5b506136c3806100206000396000f3fe60806040523480156200001157600080fd5b5060043610620000465760003560e01c80630b791430146200004b57806361606940146200007f5780639a0fc2e41462000091575b600080fd5b620000626200005c366004620001cd565b620000a8565b6040516001600160a01b0390911681526020015b60405180910390f35b60005460405190815260200162000076565b62000062620000a2366004620002b0565b620000d3565b60008181548110620000b957600080fd5b6000918252602090912001546001600160a01b0316905081565b6000808989898989898989604051620000ec90620001bf565b620000ff989796959493929190620003c4565b604051809103906000f0801580156200011c573d6000803e3d6000fd5b50600080546001810182559080527f290decd9548b62a8d60345a988386fc84ba6bc95484008f6362f93160ef3e56301805473ffffffffffffffffffffffffffffffffffffffff19166001600160a01b0383169081179091556040805133815260208101929092529192507f22308b4c224dc308a2189589a94cda0db5913e053cbb46df2f0f47f388d2dd41910160405180910390a19998505050505050505050565b613251806200043d83390190565b600060208284031215620001e057600080fd5b5035919050565b634e487b7160e01b600052604160045260246000fd5b600082601f8301126200020f57600080fd5b813567ffffffffffffffff808211156200022d576200022d620001e7565b604051601f8301601f19908116603f01168101908282118183101715620002585762000258620001e7565b816040528381528660208588010111156200027257600080fd5b836020870160208301376000602085830101528094505050505092915050565b803567ffffffffffffffff81168114620002ab57600080fd5b919050565b600080600080600080600080610100898b031215620002ce57600080fd5b883567ffffffffffffffff80821115620002e757600080fd5b620002f58c838d01620001fd565b995060208b01359150808211156200030c57600080fd5b6200031a8c838d01620001fd565b985060408b01359150808211156200033157600080fd5b50620003408b828c01620001fd565b965050606089013594506080890135935060a0890135925060c089013591506200036d60e08a0162000292565b90509295985092959890939650565b6000815180845260005b81811015620003a45760208185018101518683018201520162000386565b506000602082860101526020601f19601f83011685010191505092915050565b6000610100808352620003da8184018c6200037c565b90508281036020840152620003f0818b6200037c565b9050828103604084015262000406818a6200037c565b60608401989098525050608081019490945260a084019290925260c083015267ffffffffffffffff1660e090910152939250505056fe6101406040523480156200001257600080fd5b506040516200325138038062003251833981016040819052620000359162000313565b732ed832ba664535e5886b75d64c46eb9a228c26106080819052888860016200005f83826200046d565b5060026200006e82826200046d565b5050600060045550620000839050336200010a565b60a085905260c08490527f354d2f95da55398f44b7cff77da56283d9c6c829a4bdf1bbcaf2ad6a4d081f6160e052732ed832ba664535e5886b75d64c46eb9a228c2610610100526001600160401b038116610120526009839055600e829055600b620000f087826200046d565b50620000fc326200015c565b505050505050505062000539565b600880546001600160a01b038381166001600160a01b0319831681179093556040519116919082907f8be0079c531659141344cd1fd0a4f28419497f9722a3daafe3b4186f6b6457e090600090a35050565b6008546001600160a01b03163314620001bc5760405162461bcd60e51b815260206004820181905260248201527f4f776e61626c653a2063616c6c6572206973206e6f7420746865206f776e657260448201526064015b60405180910390fd5b6001600160a01b038116620002235760405162461bcd60e51b815260206004820152602660248201527f4f776e61626c653a206e6577206f776e657220697320746865207a65726f206160448201526564647265737360d01b6064820152608401620001b3565b6200022e816200010a565b50565b634e487b7160e01b600052604160045260246000fd5b600082601f8301126200025957600080fd5b81516001600160401b038082111562000276576200027662000231565b604051601f8301601f19908116603f01168101908282118183101715620002a157620002a162000231565b81604052838152602092508683858801011115620002be57600080fd5b600091505b83821015620002e25785820183015181830184015290820190620002c3565b600093810190920192909252949350505050565b80516001600160401b03811681146200030e57600080fd5b919050565b600080600080600080600080610100898b0312156200033157600080fd5b88516001600160401b03808211156200034957600080fd5b620003578c838d0162000247565b995060208b01519150808211156200036e57600080fd5b6200037c8c838d0162000247565b985060408b01519150808211156200039357600080fd5b50620003a28b828c0162000247565b965050606089015194506080890151935060a0890151925060c08901519150620003cf60e08a01620002f6565b90509295985092959890939650565b600181811c90821680620003f357607f821691505b6020821081036200041457634e487b7160e01b600052602260045260246000fd5b50919050565b601f8211156200046857600081815260208120601f850160051c81016020861015620004435750805b601f850160051c820191505b8181101562000464578281556001016200044f565b5050505b505050565b81516001600160401b0381111562000489576200048962000231565b620004a1816200049a8454620003de565b846200041a565b602080601f831160018114620004d95760008415620004c05750858301515b600019600386901b1c1916600185901b17855562000464565b600085815260208120601f198616915b828110156200050a57888601518255948401946001909101908401620004e9565b5085821015620005295787850151600019600388901b60f8161c191681555b5050505050600190811b01905550565b60805160a05160c05160e0516101005161012051612cba620005976000396000611933015260006118e3015260006119120152600061173a01526000818161106e0152611d1401526000818161091301526109550152612cba6000f3fe6080604052600436106101e35760003560e01c8063715018a611610102578063b88d4fde11610095578063e985e9c511610064578063e985e9c514610535578063eddd0d9c1461057e578063f2fde38b1461059e578063f5aa406d146105be57600080fd5b8063b88d4fde146104cd578063b977fe55146104ed578063c87b56dd14610500578063ced72f871461052057600080fd5b806395d89b41116100d157806395d89b411461046e578063a22cb46514610483578063a475b5dd146104a3578063b742d9cb146104b857600080fd5b8063715018a6146103f95780638462151c1461040e5780638da5cb5b1461043b57806394b3fbc21461045957600080fd5b806323b872dd1161017a57806355f804b31161014957806355f804b3146103845780636352211e146103a457806370a08231146103c4578063714c5398146103e457600080fd5b806323b872dd1461031c5780632db115441461033c5780633ccfd60b1461034f57806342842e0e1461036457600080fd5b80630e2d56cf116101b65780630e2d56cf1461029957806310969523146102b957806318160ddd146102d95780631fe543e3146102fc57600080fd5b806301ffc9a7146101e857806306fdde031461021d578063081812fc1461023f578063095ea7b314610277575b600080fd5b3480156101f457600080fd5b50610208610203366004612411565b6105de565b60405190151581526020015b60405180910390f35b34801561022957600080fd5b506102326105ef565b6040516102149190612485565b34801561024b57600080fd5b5061025f61025a366004612498565b610681565b6040516001600160a01b039091168152602001610214565b34801561028357600080fd5b506102976102923660046124cd565b610711565b005b3480156102a557600080fd5b506102976102b4366004612507565b610846565b3480156102c557600080fd5b506102976102d43660046125c1565b6108a1565b3480156102e557600080fd5b506102ee6108f9565b604051908152602001610214565b34801561030857600080fd5b5061029761031736600461260a565b610908565b34801561032857600080fd5b506102976103373660046126bc565b61098c565b61029761034a366004612498565b610a0a565b34801561035b57600080fd5b50610297610a39565b34801561037057600080fd5b5061029761037f3660046126bc565b610b06565b34801561039057600080fd5b5061029761039f3660046125c1565b610b21565b3480156103b057600080fd5b5061025f6103bf366004612498565b610b75565b3480156103d057600080fd5b506102ee6103df3660046126f8565b610b89565b3480156103f057600080fd5b50610232610c57565b34801561040557600080fd5b50610297610c66565b34801561041a57600080fd5b5061042e6104293660046126f8565b610cba565b6040516102149190612713565b34801561044757600080fd5b506008546001600160a01b031661025f565b34801561046557600080fd5b50610232610d81565b34801561047a57600080fd5b50610232610d90565b34801561048f57600080fd5b5061029761049e366004612757565b610d9f565b3480156104af57600080fd5b50610297610e63565b3480156104c457600080fd5b50600e546102ee565b3480156104d957600080fd5b506102976104e836600461278a565b610eb3565b6102976104fb366004612806565b610f38565b34801561050c57600080fd5b5061023261051b366004612498565b610fd8565b34801561052c57600080fd5b506009546102ee565b34801561054157600080fd5b50610208610550366004612885565b6001600160a01b03918216600090815260066020908152604080832093909416825291909152205460ff1690565b34801561058a57600080fd5b50610297610599366004612498565b611105565b3480156105aa57600080fd5b506102976105b93660046126f8565b611152565b3480156105ca57600080fd5b506102976105d9366004612498565b611208565b60006105e982611255565b92915050565b6060600180546105fe906128af565b80601f016020809104026020016040519081016040528092919081815260200182805461062a906128af565b80156106775780601f1061064c57610100808354040283529160200191610677565b820191906000526020600020905b81548152906001019060200180831161065a57829003601f168201915b5050505050905090565b600061068c826112a5565b6106f55760405162461bcd60e51b815260206004820152602f60248201527f4552433732315073693a20617070726f76656420717565727920666f72206e6f60448201526e3732bc34b9ba32b73a103a37b5b2b760891b60648201526084015b60405180910390fd5b506000908152600560205260409020546001600160a01b031690565b600061071c82610b75565b9050806001600160a01b0316836001600160a01b03160361078b5760405162461bcd60e51b8152602060048201526024808201527f4552433732315073693a20617070726f76616c20746f2063757272656e74206f6044820152633bb732b960e11b60648201526084016106ec565b336001600160a01b03821614806107c557506001600160a01b038116600090815260066020908152604080832033845290915290205460ff165b6108375760405162461bcd60e51b815260206004820152603b60248201527f4552433732315073693a20617070726f76652063616c6c6572206973206e6f7460448201527f206f776e6572206e6f7220617070726f76656420666f7220616c6c000000000060648201526084016106ec565b61084183836112c1565b505050565b6008546001600160a01b0316331461088e5760405162461bcd60e51b81526020600482018190526024820152600080516020612b6583398151915260448201526064016106ec565b600d805460ff1916911515919091179055565b6008546001600160a01b031633146108e95760405162461bcd60e51b81526020600482018190526024820152600080516020612b6583398151915260448201526064016106ec565b600c6108f5828261292f565b5050565b600061090361132f565b905090565b336001600160a01b037f000000000000000000000000000000000000000000000000000000000000000016146109825760405163073e64fd60e21b81523360048201526001600160a01b037f00000000000000000000000000000000000000000000000000000000000000001660248201526044016106ec565b6108f5828261133f565b61099633826113a7565b6109ff5760405162461bcd60e51b815260206004820152603460248201527f4552433732315073693a207472616e736665722063616c6c6572206973206e6f6044820152731d081bdddb995c881b9bdc88185c1c1c9bdd995960621b60648201526084016106ec565b610841838383611490565b600d5460ff16610a2d57604051631eb49d6d60e11b815260040160405180910390fd5b610a36816116b8565b50565b6008546001600160a01b03163314610a815760405162461bcd60e51b81526020600482018190526024820152600080516020612b6583398151915260448201526064016106ec565b6000610a956008546001600160a01b031690565b6001600160a01b03164760405160006040518083038185875af1925050503d8060008114610adf576040519150601f19603f3d011682016040523d82523d6000602084013e610ae4565b606091505b5050905080610a365760405163c4fd53a560e01b815260040160405180910390fd5b61084183838360405180602001604052806000815250610eb3565b6008546001600160a01b03163314610b695760405162461bcd60e51b81526020600482018190526024820152600080516020612b6583398151915260448201526064016106ec565b600a6108f5828261292f565b600080610b81836117b3565b509392505050565b60006001600160a01b038216610bf75760405162461bcd60e51b815260206004820152602d60248201527f4552433732315073693a2062616c616e636520717565727920666f722074686560448201526c207a65726f206164647265737360981b60648201526084016106ec565b6000805b600454811015610c5057610c0e816112a5565b15610c4057610c1c81610b75565b6001600160a01b0316846001600160a01b031603610c4057610c3d82612a05565b91505b610c4981612a05565b9050610bfb565b5092915050565b6060600a80546105fe906128af565b6008546001600160a01b03163314610cae5760405162461bcd60e51b81526020600482018190526024820152600080516020612b6583398151915260448201526064016106ec565b610cb8600061184a565b565b6060600080610cc884610b89565b905060008167ffffffffffffffff811115610ce557610ce5612522565b604051908082528060200260200182016040528015610d0e578160200160208202803683370190505b50905060005b828414610d7857610d24816112a5565b15610d7057856001600160a01b0316610d3c82610b75565b6001600160a01b031603610d705780828580600101965081518110610d6357610d63612a1e565b6020026020010181815250505b600101610d14565b50949350505050565b6060600c80546105fe906128af565b6060600280546105fe906128af565b336001600160a01b03831603610df75760405162461bcd60e51b815260206004820152601c60248201527f4552433732315073693a20617070726f766520746f2063616c6c65720000000060448201526064016106ec565b3360008181526006602090815260408083206001600160a01b03871680855290835292819020805460ff191686151590811790915590519081529192917f17307eab39ab6107e8899845ad3d59bd9653f200f220920489ca2b5937696c31910160405180910390a35050565b6008546001600160a01b03163314610eab5760405162461bcd60e51b81526020600482018190526024820152600080516020612b6583398151915260448201526064016106ec565b610cb861189c565b610ebd33836113a7565b610f265760405162461bcd60e51b815260206004820152603460248201527f4552433732315073693a207472616e736665722063616c6c6572206973206e6f6044820152731d081bdddb995c881b9bdc88185c1c1c9bdd995960621b60648201526084016106ec565b610f3284848484611a1e565b50505050565b6040516bffffffffffffffffffffffff193360601b166020820152600090603401604051602081830303815290604052805190602001209050610fb283838080602002602001604051908101604052809392919081815260200183836020028082843760009201919091525050600e549150849050611aa1565b610fcf57604051637c75aa6f60e11b815260040160405180910390fd5b610f32846116b8565b6060610fe3826112a5565b6110425760405162461bcd60e51b815260206004820152602a60248201527f4552433732315073693a2055524920717565727920666f72206e6f6e657869736044820152693a32b73a103a37b5b2b760b11b60648201526084016106ec565b600754600003611054576105e9611b50565b600061105e610c57565b90506000611095846007546110907f000000000000000000000000000000000000000000000000000000000000000090565b611b5f565b905060008251116110b557604051806020016040528060008152506110fd565b816110bf82611beb565b604080518082019091526005815264173539b7b760d91b60208201526040516020016110ed93929190612a34565b6040516020818303038152906040525b949350505050565b6008546001600160a01b0316331461114d5760405162461bcd60e51b81526020600482018190526024820152600080516020612b6583398151915260448201526064016106ec565b600955565b6008546001600160a01b0316331461119a5760405162461bcd60e51b81526020600482018190526024820152600080516020612b6583398151915260448201526064016106ec565b6001600160a01b0381166111ff5760405162461bcd60e51b815260206004820152602660248201527f4f776e61626c653a206e6577206f776e657220697320746865207a65726f206160448201526564647265737360d01b60648201526084016106ec565b610a368161184a565b6008546001600160a01b031633146112505760405162461bcd60e51b81526020600482018190526024820152600080516020612b6583398151915260448201526064016106ec565b600e55565b60006001600160e01b031982166380ac58cd60e01b148061128657506001600160e01b03198216635b5e139f60e01b145b806105e957506301ffc9a760e01b6001600160e01b03198316146105e9565b60006112b060045490565b821080156105e95750600192915050565b600081815260056020526040902080546001600160a01b0319166001600160a01b03841690811790915581906112f682610b75565b6001600160a01b03167f8c5be1e5ebec7d5bd14f71427d1e84f3dd0314c0f7b2291e5b200ac8c7c3b92560405160405180910390a45050565b6000806004546109039190612a77565b600754156113825760405162461bcd60e51b815260206004820152601060248201526f105b1c9958591e481c995d99585b195960821b60448201526064016106ec565b8060008151811061139557611395612a1e565b60200260200101516007819055505050565b60006113b2826112a5565b6114165760405162461bcd60e51b815260206004820152602f60248201527f4552433732315073693a206f70657261746f7220717565727920666f72206e6f60448201526e3732bc34b9ba32b73a103a37b5b2b760891b60648201526084016106ec565b600061142183610b75565b9050806001600160a01b0316846001600160a01b0316148061145c5750836001600160a01b031661145184610681565b6001600160a01b0316145b806110fd57506001600160a01b0380821660009081526006602090815260408083209388168352929052205460ff166110fd565b60008061149c836117b3565b91509150846001600160a01b0316826001600160a01b0316146115165760405162461bcd60e51b815260206004820152602c60248201527f4552433732315073693a207472616e73666572206f6620746f6b656e2074686160448201526b3a1034b9903737ba1037bbb760a11b60648201526084016106ec565b6001600160a01b03841661157c5760405162461bcd60e51b815260206004820152602760248201527f4552433732315073693a207472616e7366657220746f20746865207a65726f206044820152666164647265737360c81b60648201526084016106ec565b6115898585856001611d04565b6115946000846112c1565b60006115a1846001612a8a565b600881901c600090815260208190526040902054909150600160ff1b60ff83161c161580156115d1575060045481105b1561161d57600081815260036020908152604080832080546001600160a01b0319166001600160a01b038b16179055600884901c83529082905290208054600160ff1b60ff84161c1790555b600084815260036020526040902080546001600160a01b0319166001600160a01b03871617905581841461166e57600884901c60009081526020819052604090208054600160ff1b60ff87161c1790555b83856001600160a01b0316876001600160a01b03167fddf252ad1be2c89b69c2b068fc378daa952ba7f163c4a11628f55a4df523b3ef60405160405180910390a45b505050505050565b600754156116d957604051631eb49d6d60e11b815260040160405180910390fd5b806000036116fa57604051631f2a200560e01b815260040160405180910390fd5b806009546117089190612a9d565b3410156117285760405163044044a560e21b815260040160405180910390fd5b336000908152600f60205260409020547f000000000000000000000000000000000000000000000000000000000000000090611765908390612a8a565b11156117845760405163016d952560e31b815260040160405180910390fd5b336000908152600f6020526040812080548392906117a3908490612a8a565b90915550610a3690503382611d90565b6000806117bf836112a5565b6118205760405162461bcd60e51b815260206004820152602c60248201527f4552433732315073693a206f776e657220717565727920666f72206e6f6e657860448201526b34b9ba32b73a103a37b5b2b760a11b60648201526084016106ec565b61182983611daa565b6000818152600360205260409020546001600160a01b031694909350915050565b600880546001600160a01b038381166001600160a01b0319831681179093556040519116919082907f8be0079c531659141344cd1fd0a4f28419497f9722a3daafe3b4186f6b6457e090600090a35050565b600754156118df5760405162461bcd60e51b815260206004820152601060248201526f105b1c9958591e481c995d99585b195960821b60448201526064016106ec565b60007f00000000000000000000000000000000000000000000000000000000000000006001600160a01b0316635d3b1d307f00000000000000000000000000000000000000000000000000000000000000007f0000000000000000000000000000000000000000000000000000000000000000600a6040516001600160e01b031960e086901b168152600481019390935267ffffffffffffffff909116602483015261ffff16604482015262030d4060648201526001608482015260a4016020604051808303816000875af11580156119bc573d6000803e3d6000fd5b505050506040513d601f19601f820116820180604052508101906119e09190612ab4565b90507f76421cb080d40e8a03ba462b500012451ba59bdebc46694dc458807c1d754b6281604051611a1391815260200190565b60405180910390a150565b611a29848484611490565b611a37848484600185611db6565b610f325760405162461bcd60e51b815260206004820152603560248201527f4552433732315073693a207472616e7366657220746f206e6f6e20455243373260448201527418a932b1b2b4bb32b91034b6b83632b6b2b73a32b960591b60648201526084016106ec565b600081815b8551811015611b45576000868281518110611ac357611ac3612a1e565b60200260200101519050808311611b05576040805160208101859052908101829052606001604051602081830303815290604052805190602001209250611b32565b60408051602081018390529081018490526060016040516020818303038152906040528051906020012092505b5080611b3d81612a05565b915050611aa6565b509092149392505050565b6060600b80546105fe906128af565b60008184106040518060400160405280601e81526020017f696e707574206973206e6f742077697468696e2074686520646f6d61696e000081525090611bb85760405162461bcd60e51b81526004016106ec9190612485565b506000611bc483611f3b565b60010160ff1690505b611bda8585600384611fa5565b9150828210610b8157819450611bcd565b606081600003611c125750506040805180820190915260018152600360fc1b602082015290565b8160005b8115611c3c5780611c2681612a05565b9150611c359050600a83612ae3565b9150611c16565b60008167ffffffffffffffff811115611c5757611c57612522565b6040519080825280601f01601f191660200182016040528015611c81576020820181803683370190505b5090505b84156110fd57611c96600183612a77565b9150611ca3600a86612af7565b611cae906030612a8a565b60f81b818381518110611cc357611cc3612a1e565b60200101907effffffffffffffffffffffffffffffffffffffffffffffffffffffffffffff1916908160001a905350611cfd600a86612ae3565b9450611c85565b6001600160a01b038416611d8b577f0000000000000000000000000000000000000000000000000000000000000000611d3d8284612a8a565b1115611d8b5760405162461bcd60e51b815260206004820152601660248201527f457863656564206d6178696d756d20737570706c79210000000000000000000060448201526064016106ec565b610f32565b6108f582826040518060200160405280600081525061209e565b60006105e981836120c3565b60006001600160a01b0385163b15611f2e57506001835b611dd78486612a8a565b811015611f2857604051630a85bd0160e11b81526001600160a01b0387169063150b7a0290611e109033908b9086908990600401612b0b565b6020604051808303816000875af1925050508015611e4b575060408051601f3d908101601f19168201909252611e4891810190612b47565b60015b611ef6573d808015611e79576040519150601f19603f3d011682016040523d82523d6000602084013e611e7e565b606091505b508051600003611eee5760405162461bcd60e51b815260206004820152603560248201527f4552433732315073693a207472616e7366657220746f206e6f6e20455243373260448201527418a932b1b2b4bb32b91034b6b83632b6b2b73a32b960591b60648201526084016106ec565b805181602001fd5b828015611f1357506001600160e01b03198116630a85bd0160e11b145b92505080611f2081612a05565b915050611dcd565b50611f32565b5060015b95945050505050565b60006040518061012001604052806101008152602001612b85610100913960f87e818283848586878898a8b8c8d8e8f929395969799a9b9d9e9faaeb6bedeeff611f84856121c4565b02901c81518110611f9757611f97612a1e565b016020015160f81c92915050565b600060028204808303600180821b60001990810191841b0188841c8216898216865b89811015612072576040805160208082018e90528183018490528251808303840181526060909201909252805191012082600060018416810361203657506040805160208082018790528183018590528251808303840181526060909201909252805191012087168518612064565b5060408051602080820187905281830185905282518083038401815260609092019092528051910120861685185b909450925050600101611fc7565b506002890660000361208e57941b90931793506110fd92505050565b931b90921793506110fd92505050565b60006120a960045490565b90506120b5848461220b565b611a37600085838686611db6565b600881901c60008181526020849052604081205490919060ff808516919082181c8015612105576120f38161239f565b60ff168203600884901b1793506121bb565b6000831161217b5760405162461bcd60e51b815260206004820152603460248201527f4269744d6170733a205468652073657420626974206265666f7265207468652060448201527f696e64657820646f65736e27742065786973742e00000000000000000000000060648201526084016106ec565b5060001990910160008181526020869052604090205490919080156121b6576121a38161239f565b60ff0360ff16600884901b1793506121bb565b612105565b50505092915050565b60008082116121d257600080fd5b50608081901c17604081901c17602081901c17601081901c17600881901c17600481901c17600281901c17600181811c909117811c0190565b600061221660045490565b9050600082116122765760405162461bcd60e51b815260206004820152602560248201527f4552433732315073693a207175616e74697479206d7573742062652067726561604482015264074657220360dc1b60648201526084016106ec565b6001600160a01b0383166122d85760405162461bcd60e51b815260206004820152602360248201527f4552433732315073693a206d696e7420746f20746865207a65726f206164647260448201526265737360e81b60648201526084016106ec565b6122e56000848385611d04565b81600460008282546122f79190612a8a565b9091555050600081815260036020908152604080832080546001600160a01b0319166001600160a01b038816179055600884901c83529082905290208054600160ff1b60ff84161c179055805b61234e8383612a8a565b811015610f325760405181906001600160a01b038616906000907fddf252ad1be2c89b69c2b068fc378daa952ba7f163c4a11628f55a4df523b3ef908290a48061239781612a05565b915050612344565b60006040518061012001604052806101008152602001612b85610100913960f87e818283848586878898a8b8c8d8e8f929395969799a9b9d9e9faaeb6bedeeff611f848560008082116123f157600080fd5b5060008190031690565b6001600160e01b031981168114610a3657600080fd5b60006020828403121561242357600080fd5b813561242e816123fb565b9392505050565b60005b83811015612450578181015183820152602001612438565b50506000910152565b60008151808452612471816020860160208601612435565b601f01601f19169290920160200192915050565b60208152600061242e6020830184612459565b6000602082840312156124aa57600080fd5b5035919050565b80356001600160a01b03811681146124c857600080fd5b919050565b600080604083850312156124e057600080fd5b6124e9836124b1565b946020939093013593505050565b803580151581146124c857600080fd5b60006020828403121561251957600080fd5b61242e826124f7565b634e487b7160e01b600052604160045260246000fd5b604051601f8201601f1916810167ffffffffffffffff8111828210171561256157612561612522565b604052919050565b600067ffffffffffffffff83111561258357612583612522565b612596601f8401601f1916602001612538565b90508281528383830111156125aa57600080fd5b828260208301376000602084830101529392505050565b6000602082840312156125d357600080fd5b813567ffffffffffffffff8111156125ea57600080fd5b8201601f810184136125fb57600080fd5b6110fd84823560208401612569565b6000806040838503121561261d57600080fd5b8235915060208084013567ffffffffffffffff8082111561263d57600080fd5b818601915086601f83011261265157600080fd5b81358181111561266357612663612522565b8060051b9150612674848301612538565b818152918301840191848101908984111561268e57600080fd5b938501935b838510156126ac57843582529385019390850190612693565b8096505050505050509250929050565b6000806000606084860312156126d157600080fd5b6126da846124b1565b92506126e8602085016124b1565b9150604084013590509250925092565b60006020828403121561270a57600080fd5b61242e826124b1565b6020808252825182820181905260009190848201906040850190845b8181101561274b5783518352928401929184019160010161272f565b50909695505050505050565b6000806040838503121561276a57600080fd5b612773836124b1565b9150612781602084016124f7565b90509250929050565b600080600080608085870312156127a057600080fd5b6127a9856124b1565b93506127b7602086016124b1565b925060408501359150606085013567ffffffffffffffff8111156127da57600080fd5b8501601f810187136127eb57600080fd5b6127fa87823560208401612569565b91505092959194509250565b60008060006040848603121561281b57600080fd5b83359250602084013567ffffffffffffffff8082111561283a57600080fd5b818601915086601f83011261284e57600080fd5b81358181111561285d57600080fd5b8760208260051b850101111561287257600080fd5b6020830194508093505050509250925092565b6000806040838503121561289857600080fd5b6128a1836124b1565b9150612781602084016124b1565b600181811c908216806128c357607f821691505b6020821081036128e357634e487b7160e01b600052602260045260246000fd5b50919050565b601f82111561084157600081815260208120601f850160051c810160208610156129105750805b601f850160051c820191505b818110156116b05782815560010161291c565b815167ffffffffffffffff81111561294957612949612522565b61295d8161295784546128af565b846128e9565b602080601f831160018114612992576000841561297a5750858301515b600019600386901b1c1916600185901b1785556116b0565b600085815260208120601f198616915b828110156129c1578886015182559484019460019091019084016129a2565b50858210156129df5787850151600019600388901b60f8161c191681555b5050505050600190811b01905550565b634e487b7160e01b600052601160045260246000fd5b600060018201612a1757612a176129ef565b5060010190565b634e487b7160e01b600052603260045260246000fd5b60008451612a46818460208901612435565b845190830190612a5a818360208901612435565b8451910190612a6d818360208801612435565b0195945050505050565b818103818111156105e9576105e96129ef565b808201808211156105e9576105e96129ef565b80820281158282048414176105e9576105e96129ef565b600060208284031215612ac657600080fd5b5051919050565b634e487b7160e01b600052601260045260246000fd5b600082612af257612af2612acd565b500490565b600082612b0657612b06612acd565b500690565b60006001600160a01b03808716835280861660208401525083604083015260806060830152612b3d6080830184612459565b9695505050505050565b600060208284031215612b5957600080fd5b815161242e816123fb56fe4f776e61626c653a2063616c6c6572206973206e6f7420746865206f776e65720001020903110a19042112290b311a3905412245134d2a550c5d32651b6d3a7506264262237d468514804e8d2b95569d0d495ea533a966b11c886eb93bc176c9071727374353637324837e9b47af86c7155181ad4fd18ed32c9096db57d59ee30e2e4a6a5f92a6be3498aae067ddb2eb1d5989b56fd7baf33ca0c2ee77e5caf7ff0810182028303840444c545c646c7425617c847f8c949c48a4a8b087b8c0c816365272829aaec650acd0d28fdad4e22d6991bd97dfdcea58b4d6f29fede4f6fe0f1f2f3f4b5b6b607b8b93a3a7b7bf357199c5abcfd9e168bcdee9b3f1ecf5fd1e3e5a7a8aa2b670c4ced8bbe8f0f4fc3d79a1c3cde7effb78cce6facbf9f8a2646970667358221220e15ba60b489f92c6adba66d8acb4d11bee7f320c02dd9e8440e5db53b358957264736f6c63430008130033a2646970667358221220bf826597c4215945c2dd8699fc7698991706a8dc4e5b8deb370a40b1732a66f364736f6c63430008130033",
  "linkReferences": {},
  "deployedLinkReferences": {}
}