{
  "_format": "hh-sol-artifact-1",
  "contractName": "LuckyTreasury",
  "sourceName": "contracts/LuckyTreasury.sol",
  "abi": [
    {
      "inputs": [
        {
          "internalType": "address",
          "name": "_luckyNFT",
          "type": "address"
        },
        {
          "internalType": "address",
          "name": "_net",
          "type": "address"
        },
        {
          "internalType": "uint256",
          "name": "_luckyPoint",
          "type": "uint256"
        },
        {
          "internalType": "uint256",
          "name": "_tokenReward",
          "type": "uint256"
        }
      ],
      "stateMutability": "nonpayable",
      "type": "constructor"
    },
    {
      "anonymous": false,
      "inputs": [
        {
          "indexed": true,
          "internalType": "address",
          "name": "previousOwner",
          "type": "address"
        },
        {
          "indexed": true,
          "internalType": "address",
          "name": "newOwner",
          "type": "address"
        }
      ],
      "name": "OwnershipTransferred",
      "type": "event"
    },
    {
      "inputs": [
        {
          "internalType": "bytes",
          "name": "",
          "type": "bytes"
        }
      ],
      "name": "checkUpkeep",
      "outputs": [
        {
          "internalType": "bool",
          "name": "upkeepNeeded",
          "type": "bool"
        },
        {
          "internalType": "bytes",
          "name": "",
          "type": "bytes"
        }
      ],
      "stateMutability": "view",
      "type": "function"
    },
    {
      "inputs": [],
      "name": "luckyNFT",
      "outputs": [
        {
          "internalType": "contract LuckyNFT",
          "name": "",
          "type": "address"
        }
      ],
      "stateMutability": "view",
      "type": "function"
    },
    {
      "inputs": [],
      "name": "nexthype",
      "outputs": [
        {
          "internalType": "address",
          "name": "",
          "type": "address"
        }
      ],
      "stateMutability": "view",
      "type": "function"
    },
    {
      "inputs": [],
      "name": "owner",
      "outputs": [
        {
          "internalType": "address",
          "name": "",
          "type": "address"
        }
      ],
      "stateMutability": "view",
      "type": "function"
    },
    {
      "inputs": [
        {
          "internalType": "bytes",
          "name": "",
          "type": "bytes"
        }
      ],
      "name": "performUpkeep",
      "outputs": [],
      "stateMutability": "nonpayable",
      "type": "function"
    },
    {
      "inputs": [],
      "name": "renounceOwnership",
      "outputs": [],
      "stateMutability": "nonpayable",
      "type": "function"
    },
    {
      "inputs": [],
      "name": "s_forwarderAddress",
      "outputs": [
        {
          "internalType": "address",
          "name": "",
          "type": "address"
        }
      ],
      "stateMutability": "view",
      "type": "function"
    },
    {
      "inputs": [
        {
          "internalType": "address",
          "name": "",
          "type": "address"
        }
      ],
      "name": "s_subscriberToRewardStatus",
      "outputs": [
        {
          "internalType": "bool",
          "name": "",
          "type": "bool"
        }
      ],
      "stateMutability": "view",
      "type": "function"
    },
    {
      "inputs": [
        {
          "internalType": "address",
          "name": "forwarderAddress",
          "type": "address"
        }
      ],
      "name": "setForwarderAddress",
      "outputs": [],
      "stateMutability": "nonpayable",
      "type": "function"
    },
    {
      "inputs": [
        {
          "internalType": "address",
          "name": "newOwner",
          "type": "address"
        }
      ],
      "name": "transferOwnership",
      "outputs": [],
      "stateMutability": "nonpayable",
      "type": "function"
    }
  ],
  "bytecode": "0x60c0604052600254600580546001600160a01b0319166001600160a01b0390921691909117905534801561003257600080fd5b50604051610e45380380610e45833981016040819052610051916101e2565b61005a336100a6565b600380546001600160a01b038087166001600160a01b0319928316179092556002805492861692909116919091179055608082905260a081905261009d326100f6565b50505050610225565b600080546001600160a01b038381166001600160a01b0319831681178455604051919092169283917f8be0079c531659141344cd1fd0a4f28419497f9722a3daafe3b4186f6b6457e09190a35050565b6000546001600160a01b031633146101555760405162461bcd60e51b815260206004820181905260248201527f4f776e61626c653a2063616c6c6572206973206e6f7420746865206f776e657260448201526064015b60405180910390fd5b6001600160a01b0381166101ba5760405162461bcd60e51b815260206004820152602660248201527f4f776e61626c653a206e6577206f776e657220697320746865207a65726f206160448201526564647265737360d01b606482015260840161014c565b6101c3816100a6565b50565b80516001600160a01b03811681146101dd57600080fd5b919050565b600080600080608085870312156101f857600080fd5b610201856101c6565b935061020f602086016101c6565b6040860151606090960151949790965092505050565b60805160a051610bf461025160003960006104560152600081816102c001526106790152610bf46000f3fe608060405234801561001057600080fd5b506004361061009e5760003560e01c8063715018a611610066578063715018a61461014f57806383991d0e146101575780638da5cb5b1461016a578063d777cc6d1461017b578063f2fde38b1461018e57600080fd5b80631042f2a0146100a35780632a4f4950146100db5780633070fbf8146101065780634585e33b146101195780636e04ff0d1461012e575b600080fd5b6100c66100b1366004610a51565b60046020526000908152604090205460ff1681565b60405190151581526020015b60405180910390f35b6002546100ee906001600160a01b031681565b6040516001600160a01b0390911681526020016100d2565b6001546100ee906001600160a01b031681565b61012c610127366004610a75565b6101a1565b005b61014161013c366004610a75565b6105dc565b6040516100d2929190610ae7565b61012c610825565b6003546100ee906001600160a01b031681565b6000546001600160a01b03166100ee565b61012c610189366004610a51565b61088b565b61012c61019c366004610a51565b610914565b6001546001600160a01b031633146102265760405162461bcd60e51b815260206004820152603b60248201527f54686973206164647265737320646f6573206e6f742068617665207065726d6960448201527f7373696f6e20746f2063616c6c20706572666f726d55706b656570000000000060648201526084015b60405180910390fd5b60005b600360009054906101000a90046001600160a01b03166001600160a01b0316634a60f6206040518163ffffffff1660e01b8152600401602060405180830381865afa15801561027c573d6000803e3d6000fd5b505050506040513d601f19601f820116820180604052508101906102a09190610b3f565b8110156105d7576003546040516351f6c98d60e11b8152600481018390527f0000000000000000000000000000000000000000000000000000000000000000916001600160a01b03169063a3ed931a90602401602060405180830381865afa158015610310573d6000803e3d6000fd5b505050506040513d601f19601f820116820180604052508101906103349190610b3f565b106105c5576005546003546040516351f6c98d60e11b8152600481018490526001600160a01b039283169263a9059cbb921690636352211e90829063a3ed931a90602401602060405180830381865afa158015610395573d6000803e3d6000fd5b505050506040513d601f19601f820116820180604052508101906103b99190610b3f565b6040518263ffffffff1660e01b81526004016103d791815260200190565b602060405180830381865afa1580156103f4573d6000803e3d6000fd5b505050506040513d601f19601f820116820180604052508101906104189190610b58565b6040517fffffffff0000000000000000000000000000000000000000000000000000000060e084901b1681526001600160a01b0390911660048201527f000000000000000000000000000000000000000000000000000000000000000060248201526044016020604051808303816000875af115801561049c573d6000803e3d6000fd5b505050506040513d601f19601f820116820180604052508101906104c09190610b75565b506003546040516351f6c98d60e11b8152600480820184905260019290916000916001600160a01b031690636352211e90829063a3ed931a90602401602060405180830381865afa158015610519573d6000803e3d6000fd5b505050506040513d601f19601f8201168201806040525081019061053d9190610b3f565b6040518263ffffffff1660e01b815260040161055b91815260200190565b602060405180830381865afa158015610578573d6000803e3d6000fd5b505050506040513d601f19601f8201168201806040525081019061059c9190610b58565b6001600160a01b031681526020810191909152604001600020805460ff19169115159190911790555b806105cf81610b97565b915050610229565b505050565b60006060815b600360009054906101000a90046001600160a01b03166001600160a01b0316634a60f6206040518163ffffffff1660e01b8152600401602060405180830381865afa158015610635573d6000803e3d6000fd5b505050506040513d601f19601f820116820180604052508101906106599190610b3f565b81101561080d576003546040516351f6c98d60e11b8152600481018390527f0000000000000000000000000000000000000000000000000000000000000000916001600160a01b03169063a3ed931a90602401602060405180830381865afa1580156106c9573d6000803e3d6000fd5b505050506040513d601f19601f820116820180604052508101906106ed9190610b3f565b106107fb576003546040516351f6c98d60e11b81526004808201849052916000916001600160a01b0390911690636352211e90829063a3ed931a90602401602060405180830381865afa158015610748573d6000803e3d6000fd5b505050506040513d601f19601f8201168201806040525081019061076c9190610b3f565b6040518263ffffffff1660e01b815260040161078a91815260200190565b602060405180830381865afa1580156107a7573d6000803e3d6000fd5b505050506040513d601f19601f820116820180604052508101906107cb9190610b58565b6001600160a01b0316815260208101919091526040016000205460ff16156107f657600092506107fb565b600192505b8061080581610b97565b9150506105e2565b50506040805160208101909152600081529250929050565b6000546001600160a01b0316331461087f5760405162461bcd60e51b815260206004820181905260248201527f4f776e61626c653a2063616c6c6572206973206e6f7420746865206f776e6572604482015260640161021d565b61088960006109df565b565b6000546001600160a01b031633146108e55760405162461bcd60e51b815260206004820181905260248201527f4f776e61626c653a2063616c6c6572206973206e6f7420746865206f776e6572604482015260640161021d565b6001805473ffffffffffffffffffffffffffffffffffffffff19166001600160a01b0392909216919091179055565b6000546001600160a01b0316331461096e5760405162461bcd60e51b815260206004820181905260248201527f4f776e61626c653a2063616c6c6572206973206e6f7420746865206f776e6572604482015260640161021d565b6001600160a01b0381166109d35760405162461bcd60e51b815260206004820152602660248201527f4f776e61626c653a206e6577206f776e657220697320746865207a65726f206160448201526564647265737360d01b606482015260840161021d565b6109dc816109df565b50565b600080546001600160a01b0383811673ffffffffffffffffffffffffffffffffffffffff19831681178455604051919092169283917f8be0079c531659141344cd1fd0a4f28419497f9722a3daafe3b4186f6b6457e09190a35050565b6001600160a01b03811681146109dc57600080fd5b600060208284031215610a6357600080fd5b8135610a6e81610a3c565b9392505050565b60008060208385031215610a8857600080fd5b823567ffffffffffffffff80821115610aa057600080fd5b818501915085601f830112610ab457600080fd5b813581811115610ac357600080fd5b866020828501011115610ad557600080fd5b60209290920196919550909350505050565b821515815260006020604081840152835180604085015260005b81811015610b1d57858101830151858201606001528201610b01565b506000606082860101526060601f19601f830116850101925050509392505050565b600060208284031215610b5157600080fd5b5051919050565b600060208284031215610b6a57600080fd5b8151610a6e81610a3c565b600060208284031215610b8757600080fd5b81518015158114610a6e57600080fd5b600060018201610bb757634e487b7160e01b600052601160045260246000fd5b506001019056fea2646970667358221220136d359011b41833ca312664efcd4ae4f0d83592d89d9a1234b9472bb41fe35c64736f6c63430008130033",
  "linkReferences": {},
  "deployedLinkReferences": {}
}