{
  "_format": "hh-sol-artifact-1",
  "contractName": "PremiumNFT",
  "sourceName": "contracts/PremiumNFT.sol",
  "abi": [
    {
      "inputs": [
        {
          "internalType": "string",
          "name": "token_uri",
          "type": "string"
        },
        {
          "internalType": "uint256[]",
          "name": "subscriptionPrice",
          "type": "uint256[]"
        }
      ],
      "stateMutability": "nonpayable",
      "type": "constructor"
    },
    {
      "anonymous": false,
      "inputs": [
        {
          "indexed": true,
          "internalType": "address",
          "name": "owner",
          "type": "address"
        },
        {
          "indexed": true,
          "internalType": "address",
          "name": "approved",
          "type": "address"
        },
        {
          "indexed": true,
          "internalType": "uint256",
          "name": "tokenId",
          "type": "uint256"
        }
      ],
      "name": "Approval",
      "type": "event"
    },
    {
      "anonymous": false,
      "inputs": [
        {
          "indexed": true,
          "internalType": "address",
          "name": "owner",
          "type": "address"
        },
        {
          "indexed": true,
          "internalType": "address",
          "name": "operator",
          "type": "address"
        },
        {
          "indexed": false,
          "internalType": "bool",
          "name": "approved",
          "type": "bool"
        }
      ],
      "name": "ApprovalForAll",
      "type": "event"
    },
    {
      "anonymous": false,
      "inputs": [
        {
          "indexed": true,
          "internalType": "address",
          "name": "previousOwner",
          "type": "address"
        },
        {
          "indexed": true,
          "internalType": "address",
          "name": "newOwner",
          "type": "address"
        }
      ],
      "name": "OwnershipTransferred",
      "type": "event"
    },
    {
      "anonymous": false,
      "inputs": [
        {
          "indexed": true,
          "internalType": "address",
          "name": "from",
          "type": "address"
        },
        {
          "indexed": true,
          "internalType": "address",
          "name": "to",
          "type": "address"
        },
        {
          "indexed": true,
          "internalType": "uint256",
          "name": "tokenId",
          "type": "uint256"
        }
      ],
      "name": "Transfer",
      "type": "event"
    },
    {
      "inputs": [],
      "name": "TOKEN_URI",
      "outputs": [
        {
          "internalType": "string",
          "name": "",
          "type": "string"
        }
      ],
      "stateMutability": "view",
      "type": "function"
    },
    {
      "inputs": [
        {
          "internalType": "address",
          "name": "to",
          "type": "address"
        },
        {
          "internalType": "uint256",
          "name": "tokenId",
          "type": "uint256"
        }
      ],
      "name": "approve",
      "outputs": [],
      "stateMutability": "nonpayable",
      "type": "function"
    },
    {
      "inputs": [
        {
          "internalType": "address",
          "name": "owner",
          "type": "address"
        }
      ],
      "name": "balanceOf",
      "outputs": [
        {
          "internalType": "uint256",
          "name": "",
          "type": "uint256"
        }
      ],
      "stateMutability": "view",
      "type": "function"
    },
    {
      "inputs": [
        {
          "internalType": "uint256",
          "name": "tokenId",
          "type": "uint256"
        }
      ],
      "name": "getApproved",
      "outputs": [
        {
          "internalType": "address",
          "name": "",
          "type": "address"
        }
      ],
      "stateMutability": "view",
      "type": "function"
    },
    {
      "inputs": [
        {
          "internalType": "uint256",
          "name": "_tokenId",
          "type": "uint256"
        }
      ],
      "name": "getPremiumState",
      "outputs": [
        {
          "internalType": "uint256",
          "name": "",
          "type": "uint256"
        }
      ],
      "stateMutability": "view",
      "type": "function"
    },
    {
      "inputs": [
        {
          "internalType": "enum PremiumNFT.SUBSCRIPTION_PLAN",
          "name": "subscriptionPlan",
          "type": "uint8"
        }
      ],
      "name": "getSubscriptionPlan",
      "outputs": [
        {
          "internalType": "uint256",
          "name": "",
          "type": "uint256"
        }
      ],
      "stateMutability": "view",
      "type": "function"
    },
    {
      "inputs": [
        {
          "internalType": "address",
          "name": "owner",
          "type": "address"
        },
        {
          "internalType": "address",
          "name": "operator",
          "type": "address"
        }
      ],
      "name": "isApprovedForAll",
      "outputs": [
        {
          "internalType": "bool",
          "name": "",
          "type": "bool"
        }
      ],
      "stateMutability": "view",
      "type": "function"
    },
    {
      "inputs": [],
      "name": "name",
      "outputs": [
        {
          "internalType": "string",
          "name": "",
          "type": "string"
        }
      ],
      "stateMutability": "view",
      "type": "function"
    },
    {
      "inputs": [],
      "name": "owner",
      "outputs": [
        {
          "internalType": "address",
          "name": "",
          "type": "address"
        }
      ],
      "stateMutability": "view",
      "type": "function"
    },
    {
      "inputs": [
        {
          "internalType": "uint256",
          "name": "tokenId",
          "type": "uint256"
        }
      ],
      "name": "ownerOf",
      "outputs": [
        {
          "internalType": "address",
          "name": "",
          "type": "address"
        }
      ],
      "stateMutability": "view",
      "type": "function"
    },
    {
      "inputs": [],
      "name": "renounceOwnership",
      "outputs": [],
      "stateMutability": "nonpayable",
      "type": "function"
    },
    {
      "inputs": [
        {
          "internalType": "address",
          "name": "from",
          "type": "address"
        },
        {
          "internalType": "address",
          "name": "to",
          "type": "address"
        },
        {
          "internalType": "uint256",
          "name": "tokenId",
          "type": "uint256"
        }
      ],
      "name": "safeTransferFrom",
      "outputs": [],
      "stateMutability": "nonpayable",
      "type": "function"
    },
    {
      "inputs": [
        {
          "internalType": "address",
          "name": "from",
          "type": "address"
        },
        {
          "internalType": "address",
          "name": "to",
          "type": "address"
        },
        {
          "internalType": "uint256",
          "name": "tokenId",
          "type": "uint256"
        },
        {
          "internalType": "bytes",
          "name": "_data",
          "type": "bytes"
        }
      ],
      "name": "safeTransferFrom",
      "outputs": [],
      "stateMutability": "nonpayable",
      "type": "function"
    },
    {
      "inputs": [
        {
          "internalType": "address",
          "name": "operator",
          "type": "address"
        },
        {
          "internalType": "bool",
          "name": "approved",
          "type": "bool"
        }
      ],
      "name": "setApprovalForAll",
      "outputs": [],
      "stateMutability": "nonpayable",
      "type": "function"
    },
    {
      "inputs": [
        {
          "internalType": "enum PremiumNFT.SUBSCRIPTION_PLAN",
          "name": "subscriptionPlan",
          "type": "uint8"
        }
      ],
      "name": "subscribe",
      "outputs": [],
      "stateMutability": "payable",
      "type": "function"
    },
    {
      "inputs": [
        {
          "internalType": "bytes4",
          "name": "interfaceId",
          "type": "bytes4"
        }
      ],
      "name": "supportsInterface",
      "outputs": [
        {
          "internalType": "bool",
          "name": "",
          "type": "bool"
        }
      ],
      "stateMutability": "view",
      "type": "function"
    },
    {
      "inputs": [],
      "name": "symbol",
      "outputs": [
        {
          "internalType": "string",
          "name": "",
          "type": "string"
        }
      ],
      "stateMutability": "view",
      "type": "function"
    },
    {
      "inputs": [
        {
          "internalType": "uint256",
          "name": "tokenId",
          "type": "uint256"
        }
      ],
      "name": "tokenURI",
      "outputs": [
        {
          "internalType": "string",
          "name": "",
          "type": "string"
        }
      ],
      "stateMutability": "view",
      "type": "function"
    },
    {
      "inputs": [
        {
          "internalType": "address",
          "name": "from",
          "type": "address"
        },
        {
          "internalType": "address",
          "name": "to",
          "type": "address"
        },
        {
          "internalType": "uint256",
          "name": "tokenId",
          "type": "uint256"
        }
      ],
      "name": "transferFrom",
      "outputs": [],
      "stateMutability": "nonpayable",
      "type": "function"
    },
    {
      "inputs": [
        {
          "internalType": "address",
          "name": "newOwner",
          "type": "address"
        }
      ],
      "name": "transferOwnership",
      "outputs": [],
      "stateMutability": "nonpayable",
      "type": "function"
    }
  ],
  "bytecode": "0x60806040523480156200001157600080fd5b5060405162004169380380620041698339818101604052810190620000379190620005a3565b6040518060400160405280600a81526020017f5072656d69756d4e4654000000000000000000000000000000000000000000008152506040518060400160405280600381526020017f50534300000000000000000000000000000000000000000000000000000000008152508160009081620000b4919062000869565b508060019081620000c6919062000869565b5050506001600781905550620000f1620000e56200022c60201b60201c565b6200023460201b60201c565b816009908162000102919062000869565b50806000815181106200011a576200011962000950565b5b6020026020010151600c60008060028111156200013c576200013b6200097f565b5b60028111156200015157620001506200097f565b5b815260200190815260200160002081905550806001815181106200017a576200017962000950565b5b6020026020010151600c6000600160028111156200019d576200019c6200097f565b5b6002811115620001b257620001b16200097f565b5b81526020019081526020016000208190555080600281518110620001db57620001da62000950565b5b6020026020010151600c6000600280811115620001fd57620001fc6200097f565b5b60028111156200021257620002116200097f565b5b8152602001908152602001600020819055505050620009ae565b600033905090565b6000600860009054906101000a900473ffffffffffffffffffffffffffffffffffffffff16905081600860006101000a81548173ffffffffffffffffffffffffffffffffffffffff021916908373ffffffffffffffffffffffffffffffffffffffff1602179055508173ffffffffffffffffffffffffffffffffffffffff168173ffffffffffffffffffffffffffffffffffffffff167f8be0079c531659141344cd1fd0a4f28419497f9722a3daafe3b4186f6b6457e060405160405180910390a35050565b6000604051905090565b600080fd5b600080fd5b600080fd5b600080fd5b6000601f19601f8301169050919050565b7f4e487b7100000000000000000000000000000000000000000000000000000000600052604160045260246000fd5b620003638262000318565b810181811067ffffffffffffffff8211171562000385576200038462000329565b5b80604052505050565b60006200039a620002fa565b9050620003a8828262000358565b919050565b600067ffffffffffffffff821115620003cb57620003ca62000329565b5b620003d68262000318565b9050602081019050919050565b60005b8381101562000403578082015181840152602081019050620003e6565b60008484015250505050565b6000620004266200042084620003ad565b6200038e565b90508281526020810184848401111562000445576200044462000313565b5b62000452848285620003e3565b509392505050565b600082601f8301126200047257620004716200030e565b5b8151620004848482602086016200040f565b91505092915050565b600067ffffffffffffffff821115620004ab57620004aa62000329565b5b602082029050602081019050919050565b600080fd5b6000819050919050565b620004d681620004c1565b8114620004e257600080fd5b50565b600081519050620004f681620004cb565b92915050565b6000620005136200050d846200048d565b6200038e565b90508083825260208201905060208402830185811115620005395762000538620004bc565b5b835b81811015620005665780620005518882620004e5565b8452602084019350506020810190506200053b565b5050509392505050565b600082601f8301126200058857620005876200030e565b5b81516200059a848260208601620004fc565b91505092915050565b60008060408385031215620005bd57620005bc62000304565b5b600083015167ffffffffffffffff811115620005de57620005dd62000309565b5b620005ec858286016200045a565b925050602083015167ffffffffffffffff81111562000610576200060f62000309565b5b6200061e8582860162000570565b9150509250929050565b600081519050919050565b7f4e487b7100000000000000000000000000000000000000000000000000000000600052602260045260246000fd5b600060028204905060018216806200067b57607f821691505b60208210810362000691576200069062000633565b5b50919050565b60008190508160005260206000209050919050565b60006020601f8301049050919050565b600082821b905092915050565b600060088302620006fb7fffffffffffffffffffffffffffffffffffffffffffffffffffffffffffffffff82620006bc565b620007078683620006bc565b95508019841693508086168417925050509392505050565b6000819050919050565b60006200074a620007446200073e84620004c1565b6200071f565b620004c1565b9050919050565b6000819050919050565b620007668362000729565b6200077e620007758262000751565b848454620006c9565b825550505050565b600090565b6200079562000786565b620007a28184846200075b565b505050565b5b81811015620007ca57620007be6000826200078b565b600181019050620007a8565b5050565b601f8211156200081957620007e38162000697565b620007ee84620006ac565b81016020851015620007fe578190505b620008166200080d85620006ac565b830182620007a7565b50505b505050565b600082821c905092915050565b60006200083e600019846008026200081e565b1980831691505092915050565b60006200085983836200082b565b9150826002028217905092915050565b620008748262000628565b67ffffffffffffffff81111562000890576200088f62000329565b5b6200089c825462000662565b620008a9828285620007ce565b600060209050601f831160018114620008e15760008415620008cc578287015190505b620008d885826200084b565b86555062000948565b601f198416620008f18662000697565b60005b828110156200091b57848901518255600182019150602085019450602081019050620008f4565b868310156200093b578489015162000937601f8916826200082b565b8355505b6001600288020188555050505b505050505050565b7f4e487b7100000000000000000000000000000000000000000000000000000000600052603260045260246000fd5b7f4e487b7100000000000000000000000000000000000000000000000000000000600052602160045260246000fd5b6137ab80620009be6000396000f3fe60806040526004361061011f5760003560e01c8063715018a6116100a0578063a22cb46511610064578063a22cb465146103ec578063b88d4fde14610415578063c87b56dd1461043e578063e985e9c51461047b578063f2fde38b146104b85761011f565b8063715018a61461031757806378ce90351461032e5780637c514240146103595780638da5cb5b1461039657806395d89b41146103c15761011f565b806323b872dd116100e757806323b872dd1461022f57806342842e0e1461025857806349c7e639146102815780636352211e1461029d57806370a08231146102da5761011f565b806301ffc9a71461012457806305d58d4a1461016157806306fdde031461019e578063081812fc146101c9578063095ea7b314610206575b600080fd5b34801561013057600080fd5b5061014b600480360381019061014691906120b0565b6104e1565b60405161015891906120f8565b60405180910390f35b34801561016d57600080fd5b5061018860048036038101906101839190612138565b6105c3565b604051610195919061217e565b60405180910390f35b3480156101aa57600080fd5b506101b3610604565b6040516101c09190612229565b60405180910390f35b3480156101d557600080fd5b506101f060048036038101906101eb9190612277565b610696565b6040516101fd91906122e5565b60405180910390f35b34801561021257600080fd5b5061022d6004803603810190610228919061232c565b61071b565b005b34801561023b57600080fd5b506102566004803603810190610251919061236c565b610832565b005b34801561026457600080fd5b5061027f600480360381019061027a919061236c565b610892565b005b61029b60048036038101906102969190612138565b6108b2565b005b3480156102a957600080fd5b506102c460048036038101906102bf9190612277565b610bcd565b6040516102d191906122e5565b60405180910390f35b3480156102e657600080fd5b5061030160048036038101906102fc91906123bf565b610c7e565b60405161030e919061217e565b60405180910390f35b34801561032357600080fd5b5061032c610d35565b005b34801561033a57600080fd5b50610343610dbd565b6040516103509190612229565b60405180910390f35b34801561036557600080fd5b50610380600480360381019061037b9190612277565b610e4b565b60405161038d919061217e565b60405180910390f35b3480156103a257600080fd5b506103ab610e68565b6040516103b891906122e5565b60405180910390f35b3480156103cd57600080fd5b506103d6610e92565b6040516103e39190612229565b60405180910390f35b3480156103f857600080fd5b50610413600480360381019061040e9190612418565b610f24565b005b34801561042157600080fd5b5061043c6004803603810190610437919061258d565b6110a4565b005b34801561044a57600080fd5b5061046560048036038101906104609190612277565b611106565b6040516104729190612229565b60405180910390f35b34801561048757600080fd5b506104a2600480360381019061049d9190612610565b611257565b6040516104af91906120f8565b60405180910390f35b3480156104c457600080fd5b506104df60048036038101906104da91906123bf565b6112eb565b005b60007f80ac58cd000000000000000000000000000000000000000000000000000000007bffffffffffffffffffffffffffffffffffffffffffffffffffffffff1916827bffffffffffffffffffffffffffffffffffffffffffffffffffffffff191614806105ac57507f5b5e139f000000000000000000000000000000000000000000000000000000007bffffffffffffffffffffffffffffffffffffffffffffffffffffffff1916827bffffffffffffffffffffffffffffffffffffffffffffffffffffffff1916145b806105bc57506105bb826113e2565b5b9050919050565b6000600c60008360028111156105dc576105db612650565b5b60028111156105ee576105ed612650565b5b8152602001908152602001600020549050919050565b606060008054610613906126ae565b80601f016020809104026020016040519081016040528092919081815260200182805461063f906126ae565b801561068c5780601f106106615761010080835404028352916020019161068c565b820191906000526020600020905b81548152906001019060200180831161066f57829003601f168201915b5050505050905090565b60006106a18261144c565b6106e0576040517f08c379a00000000000000000000000000000000000000000000000000000000081526004016106d790612751565b60405180910390fd5b6004600083815260200190815260200160002060009054906101000a900473ffffffffffffffffffffffffffffffffffffffff169050919050565b600061072682610bcd565b90508073ffffffffffffffffffffffffffffffffffffffff168373ffffffffffffffffffffffffffffffffffffffff1603610796576040517f08c379a000000000000000000000000000000000000000000000000000000000815260040161078d906127e3565b60405180910390fd5b8073ffffffffffffffffffffffffffffffffffffffff166107b56114b8565b73ffffffffffffffffffffffffffffffffffffffff1614806107e457506107e3816107de6114b8565b611257565b5b610823576040517f08c379a000000000000000000000000000000000000000000000000000000000815260040161081a90612875565b60405180910390fd5b61082d83836114c0565b505050565b61084361083d6114b8565b82611579565b610882576040517f08c379a000000000000000000000000000000000000000000000000000000000815260040161087990612907565b60405180910390fd5b61088d838383611657565b505050565b6108ad838383604051806020016040528060008152506110a4565b505050565b6002600754036108f7576040517f08c379a00000000000000000000000000000000000000000000000000000000081526004016108ee90612973565b60405180910390fd5b60026007819055506000600c600083600281111561091857610917612650565b5b600281111561092a57610929612650565b5b815260200190815260200160002054905080341461097d576040517f08c379a0000000000000000000000000000000000000000000000000000000008152600401610974906129df565b60405180910390fd5b6000610987610e68565b73ffffffffffffffffffffffffffffffffffffffff16826040516109aa90612a30565b60006040518083038185875af1925050503d80600081146109e7576040519150601f19603f3d011682016040523d82523d6000602084013e6109ec565b606091505b5050905080610a30576040517f08c379a0000000000000000000000000000000000000000000000000000000008152600401610a2790612a91565b60405180910390fd5b610a3c33600a546118b2565b610ad2600a5460098054610a4f906126ae565b80601f0160208091040260200160405190810160405280929190818152602001828054610a7b906126ae565b8015610ac85780601f10610a9d57610100808354040283529160200191610ac8565b820191906000526020600020905b815481529060010190602001808311610aab57829003601f168201915b50505050506118d0565b60006002811115610ae657610ae5612650565b5b836002811115610af957610af8612650565b5b03610b2b5762093a8042610b0d9190612ae0565b600b6000600a54815260200190815260200160002081905550610bae565b60016002811115610b3f57610b3e612650565b5b836002811115610b5257610b51612650565b5b03610b84576224ea0042610b669190612ae0565b600b6000600a54815260200190815260200160002081905550610bad565b62eff10042610b939190612ae0565b600b6000600a548152602001908152602001600020819055505b5b600a600081548092919060010191905055505050600160078190555050565b6000806002600084815260200190815260200160002060009054906101000a900473ffffffffffffffffffffffffffffffffffffffff169050600073ffffffffffffffffffffffffffffffffffffffff168173ffffffffffffffffffffffffffffffffffffffff1603610c75576040517f08c379a0000000000000000000000000000000000000000000000000000000008152600401610c6c90612b86565b60405180910390fd5b80915050919050565b60008073ffffffffffffffffffffffffffffffffffffffff168273ffffffffffffffffffffffffffffffffffffffff1603610cee576040517f08c379a0000000000000000000000000000000000000000000000000000000008152600401610ce590612c18565b60405180910390fd5b600360008373ffffffffffffffffffffffffffffffffffffffff1673ffffffffffffffffffffffffffffffffffffffff168152602001908152602001600020549050919050565b610d3d6114b8565b73ffffffffffffffffffffffffffffffffffffffff16610d5b610e68565b73ffffffffffffffffffffffffffffffffffffffff1614610db1576040517f08c379a0000000000000000000000000000000000000000000000000000000008152600401610da890612c84565b60405180910390fd5b610dbb600061193d565b565b60098054610dca906126ae565b80601f0160208091040260200160405190810160405280929190818152602001828054610df6906126ae565b8015610e435780601f10610e1857610100808354040283529160200191610e43565b820191906000526020600020905b815481529060010190602001808311610e2657829003601f168201915b505050505081565b6000600b6000838152602001908152602001600020549050919050565b6000600860009054906101000a900473ffffffffffffffffffffffffffffffffffffffff16905090565b606060018054610ea1906126ae565b80601f0160208091040260200160405190810160405280929190818152602001828054610ecd906126ae565b8015610f1a5780601f10610eef57610100808354040283529160200191610f1a565b820191906000526020600020905b815481529060010190602001808311610efd57829003601f168201915b5050505050905090565b610f2c6114b8565b73ffffffffffffffffffffffffffffffffffffffff168273ffffffffffffffffffffffffffffffffffffffff1603610f99576040517f08c379a0000000000000000000000000000000000000000000000000000000008152600401610f9090612cf0565b60405180910390fd5b8060056000610fa66114b8565b73ffffffffffffffffffffffffffffffffffffffff1673ffffffffffffffffffffffffffffffffffffffff16815260200190815260200160002060008473ffffffffffffffffffffffffffffffffffffffff1673ffffffffffffffffffffffffffffffffffffffff16815260200190815260200160002060006101000a81548160ff0219169083151502179055508173ffffffffffffffffffffffffffffffffffffffff166110536114b8565b73ffffffffffffffffffffffffffffffffffffffff167f17307eab39ab6107e8899845ad3d59bd9653f200f220920489ca2b5937696c318360405161109891906120f8565b60405180910390a35050565b6110b56110af6114b8565b83611579565b6110f4576040517f08c379a00000000000000000000000000000000000000000000000000000000081526004016110eb90612907565b60405180910390fd5b61110084848484611a03565b50505050565b60606111118261144c565b611150576040517f08c379a000000000000000000000000000000000000000000000000000000000815260040161114790612d82565b60405180910390fd5b6000600660008481526020019081526020016000208054611170906126ae565b80601f016020809104026020016040519081016040528092919081815260200182805461119c906126ae565b80156111e95780601f106111be576101008083540402835291602001916111e9565b820191906000526020600020905b8154815290600101906020018083116111cc57829003601f168201915b5050505050905060006111fa611a5f565b9050600081510361120f578192505050611252565b60008251111561124457808260405160200161122c929190612dde565b60405160208183030381529060405292505050611252565b61124d84611a76565b925050505b919050565b6000600560008473ffffffffffffffffffffffffffffffffffffffff1673ffffffffffffffffffffffffffffffffffffffff16815260200190815260200160002060008373ffffffffffffffffffffffffffffffffffffffff1673ffffffffffffffffffffffffffffffffffffffff16815260200190815260200160002060009054906101000a900460ff16905092915050565b6112f36114b8565b73ffffffffffffffffffffffffffffffffffffffff16611311610e68565b73ffffffffffffffffffffffffffffffffffffffff1614611367576040517f08c379a000000000000000000000000000000000000000000000000000000000815260040161135e90612c84565b60405180910390fd5b600073ffffffffffffffffffffffffffffffffffffffff168173ffffffffffffffffffffffffffffffffffffffff16036113d6576040517f08c379a00000000000000000000000000000000000000000000000000000000081526004016113cd90612e74565b60405180910390fd5b6113df8161193d565b50565b60007f01ffc9a7000000000000000000000000000000000000000000000000000000007bffffffffffffffffffffffffffffffffffffffffffffffffffffffff1916827bffffffffffffffffffffffffffffffffffffffffffffffffffffffff1916149050919050565b60008073ffffffffffffffffffffffffffffffffffffffff166002600084815260200190815260200160002060009054906101000a900473ffffffffffffffffffffffffffffffffffffffff1673ffffffffffffffffffffffffffffffffffffffff1614159050919050565b600033905090565b816004600083815260200190815260200160002060006101000a81548173ffffffffffffffffffffffffffffffffffffffff021916908373ffffffffffffffffffffffffffffffffffffffff160217905550808273ffffffffffffffffffffffffffffffffffffffff1661153383610bcd565b73ffffffffffffffffffffffffffffffffffffffff167f8c5be1e5ebec7d5bd14f71427d1e84f3dd0314c0f7b2291e5b200ac8c7c3b92560405160405180910390a45050565b60006115848261144c565b6115c3576040517f08c379a00000000000000000000000000000000000000000000000000000000081526004016115ba90612f06565b60405180910390fd5b60006115ce83610bcd565b90508073ffffffffffffffffffffffffffffffffffffffff168473ffffffffffffffffffffffffffffffffffffffff16148061163d57508373ffffffffffffffffffffffffffffffffffffffff1661162584610696565b73ffffffffffffffffffffffffffffffffffffffff16145b8061164e575061164d8185611257565b5b91505092915050565b8273ffffffffffffffffffffffffffffffffffffffff1661167782610bcd565b73ffffffffffffffffffffffffffffffffffffffff16146116cd576040517f08c379a00000000000000000000000000000000000000000000000000000000081526004016116c490612f98565b60405180910390fd5b600073ffffffffffffffffffffffffffffffffffffffff168273ffffffffffffffffffffffffffffffffffffffff160361173c576040517f08c379a00000000000000000000000000000000000000000000000000000000081526004016117339061302a565b60405180910390fd5b611747838383611b1d565b6117526000826114c0565b6001600360008573ffffffffffffffffffffffffffffffffffffffff1673ffffffffffffffffffffffffffffffffffffffff16815260200190815260200160002060008282546117a2919061304a565b925050819055506001600360008473ffffffffffffffffffffffffffffffffffffffff1673ffffffffffffffffffffffffffffffffffffffff16815260200190815260200160002060008282546117f99190612ae0565b92505081905550816002600083815260200190815260200160002060006101000a81548173ffffffffffffffffffffffffffffffffffffffff021916908373ffffffffffffffffffffffffffffffffffffffff160217905550808273ffffffffffffffffffffffffffffffffffffffff168473ffffffffffffffffffffffffffffffffffffffff167fddf252ad1be2c89b69c2b068fc378daa952ba7f163c4a11628f55a4df523b3ef60405160405180910390a4505050565b6118cc828260405180602001604052806000815250611b22565b5050565b6118d98261144c565b611918576040517f08c379a000000000000000000000000000000000000000000000000000000000815260040161190f906130f0565b60405180910390fd5b8060066000848152602001908152602001600020908161193891906132bc565b505050565b6000600860009054906101000a900473ffffffffffffffffffffffffffffffffffffffff16905081600860006101000a81548173ffffffffffffffffffffffffffffffffffffffff021916908373ffffffffffffffffffffffffffffffffffffffff1602179055508173ffffffffffffffffffffffffffffffffffffffff168173ffffffffffffffffffffffffffffffffffffffff167f8be0079c531659141344cd1fd0a4f28419497f9722a3daafe3b4186f6b6457e060405160405180910390a35050565b611a0e848484611657565b611a1a84848484611b7d565b611a59576040517f08c379a0000000000000000000000000000000000000000000000000000000008152600401611a5090613400565b60405180910390fd5b50505050565b606060405180602001604052806000815250905090565b6060611a818261144c565b611ac0576040517f08c379a0000000000000000000000000000000000000000000000000000000008152600401611ab790613492565b60405180910390fd5b6000611aca611a5f565b90506000815111611aea5760405180602001604052806000815250611b15565b80611af484611d04565b604051602001611b05929190612dde565b6040516020818303038152906040525b915050919050565b505050565b611b2c8383611e64565b611b396000848484611b7d565b611b78576040517f08c379a0000000000000000000000000000000000000000000000000000000008152600401611b6f90613400565b60405180910390fd5b505050565b6000611b9e8473ffffffffffffffffffffffffffffffffffffffff16612031565b15611cf7578373ffffffffffffffffffffffffffffffffffffffff1663150b7a02611bc76114b8565b8786866040518563ffffffff1660e01b8152600401611be99493929190613507565b6020604051808303816000875af1925050508015611c2557506040513d601f19601f82011682018060405250810190611c229190613568565b60015b611ca7573d8060008114611c55576040519150601f19603f3d011682016040523d82523d6000602084013e611c5a565b606091505b506000815103611c9f576040517f08c379a0000000000000000000000000000000000000000000000000000000008152600401611c9690613400565b60405180910390fd5b805181602001fd5b63150b7a0260e01b7bffffffffffffffffffffffffffffffffffffffffffffffffffffffff1916817bffffffffffffffffffffffffffffffffffffffffffffffffffffffff191614915050611cfc565b600190505b949350505050565b606060008203611d4b576040518060400160405280600181526020017f30000000000000000000000000000000000000000000000000000000000000008152509050611e5f565b600082905060005b60008214611d7d578080611d6690613595565b915050600a82611d76919061360c565b9150611d53565b60008167ffffffffffffffff811115611d9957611d98612462565b5b6040519080825280601f01601f191660200182016040528015611dcb5781602001600182028036833780820191505090505b5090505b60008514611e5857600182611de4919061304a565b9150600a85611df3919061363d565b6030611dff9190612ae0565b60f81b818381518110611e1557611e1461366e565b5b60200101907effffffffffffffffffffffffffffffffffffffffffffffffffffffffffffff1916908160001a905350600a85611e51919061360c565b9450611dcf565b8093505050505b919050565b600073ffffffffffffffffffffffffffffffffffffffff168273ffffffffffffffffffffffffffffffffffffffff1603611ed3576040517f08c379a0000000000000000000000000000000000000000000000000000000008152600401611eca906136e9565b60405180910390fd5b611edc8161144c565b15611f1c576040517f08c379a0000000000000000000000000000000000000000000000000000000008152600401611f1390613755565b60405180910390fd5b611f2860008383611b1d565b6001600360008473ffffffffffffffffffffffffffffffffffffffff1673ffffffffffffffffffffffffffffffffffffffff1681526020019081526020016000206000828254611f789190612ae0565b92505081905550816002600083815260200190815260200160002060006101000a81548173ffffffffffffffffffffffffffffffffffffffff021916908373ffffffffffffffffffffffffffffffffffffffff160217905550808273ffffffffffffffffffffffffffffffffffffffff16600073ffffffffffffffffffffffffffffffffffffffff167fddf252ad1be2c89b69c2b068fc378daa952ba7f163c4a11628f55a4df523b3ef60405160405180910390a45050565b600080823b905060008111915050919050565b6000604051905090565b600080fd5b600080fd5b60007fffffffff0000000000000000000000000000000000000000000000000000000082169050919050565b61208d81612058565b811461209857600080fd5b50565b6000813590506120aa81612084565b92915050565b6000602082840312156120c6576120c561204e565b5b60006120d48482850161209b565b91505092915050565b60008115159050919050565b6120f2816120dd565b82525050565b600060208201905061210d60008301846120e9565b92915050565b6003811061212057600080fd5b50565b60008135905061213281612113565b92915050565b60006020828403121561214e5761214d61204e565b5b600061215c84828501612123565b91505092915050565b6000819050919050565b61217881612165565b82525050565b6000602082019050612193600083018461216f565b92915050565b600081519050919050565b600082825260208201905092915050565b60005b838110156121d35780820151818401526020810190506121b8565b60008484015250505050565b6000601f19601f8301169050919050565b60006121fb82612199565b61220581856121a4565b93506122158185602086016121b5565b61221e816121df565b840191505092915050565b6000602082019050818103600083015261224381846121f0565b905092915050565b61225481612165565b811461225f57600080fd5b50565b6000813590506122718161224b565b92915050565b60006020828403121561228d5761228c61204e565b5b600061229b84828501612262565b91505092915050565b600073ffffffffffffffffffffffffffffffffffffffff82169050919050565b60006122cf826122a4565b9050919050565b6122df816122c4565b82525050565b60006020820190506122fa60008301846122d6565b92915050565b612309816122c4565b811461231457600080fd5b50565b60008135905061232681612300565b92915050565b600080604083850312156123435761234261204e565b5b600061235185828601612317565b925050602061236285828601612262565b9150509250929050565b6000806000606084860312156123855761238461204e565b5b600061239386828701612317565b93505060206123a486828701612317565b92505060406123b586828701612262565b9150509250925092565b6000602082840312156123d5576123d461204e565b5b60006123e384828501612317565b91505092915050565b6123f5816120dd565b811461240057600080fd5b50565b600081359050612412816123ec565b92915050565b6000806040838503121561242f5761242e61204e565b5b600061243d85828601612317565b925050602061244e85828601612403565b9150509250929050565b600080fd5b600080fd5b7f4e487b7100000000000000000000000000000000000000000000000000000000600052604160045260246000fd5b61249a826121df565b810181811067ffffffffffffffff821117156124b9576124b8612462565b5b80604052505050565b60006124cc612044565b90506124d88282612491565b919050565b600067ffffffffffffffff8211156124f8576124f7612462565b5b612501826121df565b9050602081019050919050565b82818337600083830152505050565b600061253061252b846124dd565b6124c2565b90508281526020810184848401111561254c5761254b61245d565b5b61255784828561250e565b509392505050565b600082601f83011261257457612573612458565b5b813561258484826020860161251d565b91505092915050565b600080600080608085870312156125a7576125a661204e565b5b60006125b587828801612317565b94505060206125c687828801612317565b93505060406125d787828801612262565b925050606085013567ffffffffffffffff8111156125f8576125f7612053565b5b6126048782880161255f565b91505092959194509250565b600080604083850312156126275761262661204e565b5b600061263585828601612317565b925050602061264685828601612317565b9150509250929050565b7f4e487b7100000000000000000000000000000000000000000000000000000000600052602160045260246000fd5b7f4e487b7100000000000000000000000000000000000000000000000000000000600052602260045260246000fd5b600060028204905060018216806126c657607f821691505b6020821081036126d9576126d861267f565b5b50919050565b7f4552433732313a20617070726f76656420717565727920666f72206e6f6e657860008201527f697374656e7420746f6b656e0000000000000000000000000000000000000000602082015250565b600061273b602c836121a4565b9150612746826126df565b604082019050919050565b6000602082019050818103600083015261276a8161272e565b9050919050565b7f4552433732313a20617070726f76616c20746f2063757272656e74206f776e6560008201527f7200000000000000000000000000000000000000000000000000000000000000602082015250565b60006127cd6021836121a4565b91506127d882612771565b604082019050919050565b600060208201905081810360008301526127fc816127c0565b9050919050565b7f4552433732313a20617070726f76652063616c6c6572206973206e6f74206f7760008201527f6e6572206e6f7220617070726f76656420666f7220616c6c0000000000000000602082015250565b600061285f6038836121a4565b915061286a82612803565b604082019050919050565b6000602082019050818103600083015261288e81612852565b9050919050565b7f4552433732313a207472616e736665722063616c6c6572206973206e6f74206f60008201527f776e6572206e6f7220617070726f766564000000000000000000000000000000602082015250565b60006128f16031836121a4565b91506128fc82612895565b604082019050919050565b60006020820190508181036000830152612920816128e4565b9050919050565b7f5265656e7472616e637947756172643a207265656e7472616e742063616c6c00600082015250565b600061295d601f836121a4565b915061296882612927565b602082019050919050565b6000602082019050818103600083015261298c81612950565b9050919050565b7f537562736372697074696f6e2046656520697320696e73756666696369656e74600082015250565b60006129c96020836121a4565b91506129d482612993565b602082019050919050565b600060208201905081810360008301526129f8816129bc565b9050919050565b600081905092915050565b50565b6000612a1a6000836129ff565b9150612a2582612a0a565b600082019050919050565b6000612a3b82612a0d565b9150819050919050565b7f5472616e73666572206661696c65640000000000000000000000000000000000600082015250565b6000612a7b600f836121a4565b9150612a8682612a45565b602082019050919050565b60006020820190508181036000830152612aaa81612a6e565b9050919050565b7f4e487b7100000000000000000000000000000000000000000000000000000000600052601160045260246000fd5b6000612aeb82612165565b9150612af683612165565b9250828201905080821115612b0e57612b0d612ab1565b5b92915050565b7f4552433732313a206f776e657220717565727920666f72206e6f6e657869737460008201527f656e7420746f6b656e0000000000000000000000000000000000000000000000602082015250565b6000612b706029836121a4565b9150612b7b82612b14565b604082019050919050565b60006020820190508181036000830152612b9f81612b63565b9050919050565b7f4552433732313a2062616c616e636520717565727920666f7220746865207a6560008201527f726f206164647265737300000000000000000000000000000000000000000000602082015250565b6000612c02602a836121a4565b9150612c0d82612ba6565b604082019050919050565b60006020820190508181036000830152612c3181612bf5565b9050919050565b7f4f776e61626c653a2063616c6c6572206973206e6f7420746865206f776e6572600082015250565b6000612c6e6020836121a4565b9150612c7982612c38565b602082019050919050565b60006020820190508181036000830152612c9d81612c61565b9050919050565b7f4552433732313a20617070726f766520746f2063616c6c657200000000000000600082015250565b6000612cda6019836121a4565b9150612ce582612ca4565b602082019050919050565b60006020820190508181036000830152612d0981612ccd565b9050919050565b7f45524337323155524953746f726167653a2055524920717565727920666f722060008201527f6e6f6e6578697374656e7420746f6b656e000000000000000000000000000000602082015250565b6000612d6c6031836121a4565b9150612d7782612d10565b604082019050919050565b60006020820190508181036000830152612d9b81612d5f565b9050919050565b600081905092915050565b6000612db882612199565b612dc28185612da2565b9350612dd28185602086016121b5565b80840191505092915050565b6000612dea8285612dad565b9150612df68284612dad565b91508190509392505050565b7f4f776e61626c653a206e6577206f776e657220697320746865207a65726f206160008201527f6464726573730000000000000000000000000000000000000000000000000000602082015250565b6000612e5e6026836121a4565b9150612e6982612e02565b604082019050919050565b60006020820190508181036000830152612e8d81612e51565b9050919050565b7f4552433732313a206f70657261746f7220717565727920666f72206e6f6e657860008201527f697374656e7420746f6b656e0000000000000000000000000000000000000000602082015250565b6000612ef0602c836121a4565b9150612efb82612e94565b604082019050919050565b60006020820190508181036000830152612f1f81612ee3565b9050919050565b7f4552433732313a207472616e73666572206f6620746f6b656e2074686174206960008201527f73206e6f74206f776e0000000000000000000000000000000000000000000000602082015250565b6000612f826029836121a4565b9150612f8d82612f26565b604082019050919050565b60006020820190508181036000830152612fb181612f75565b9050919050565b7f4552433732313a207472616e7366657220746f20746865207a65726f2061646460008201527f7265737300000000000000000000000000000000000000000000000000000000602082015250565b60006130146024836121a4565b915061301f82612fb8565b604082019050919050565b6000602082019050818103600083015261304381613007565b9050919050565b600061305582612165565b915061306083612165565b925082820390508181111561307857613077612ab1565b5b92915050565b7f45524337323155524953746f726167653a2055524920736574206f66206e6f6e60008201527f6578697374656e7420746f6b656e000000000000000000000000000000000000602082015250565b60006130da602e836121a4565b91506130e58261307e565b604082019050919050565b60006020820190508181036000830152613109816130cd565b9050919050565b60008190508160005260206000209050919050565b60006020601f8301049050919050565b600082821b905092915050565b6000600883026131727fffffffffffffffffffffffffffffffffffffffffffffffffffffffffffffffff82613135565b61317c8683613135565b95508019841693508086168417925050509392505050565b6000819050919050565b60006131b96131b46131af84612165565b613194565b612165565b9050919050565b6000819050919050565b6131d38361319e565b6131e76131df826131c0565b848454613142565b825550505050565b600090565b6131fc6131ef565b6132078184846131ca565b505050565b5b8181101561322b576132206000826131f4565b60018101905061320d565b5050565b601f8211156132705761324181613110565b61324a84613125565b81016020851015613259578190505b61326d61326585613125565b83018261320c565b50505b505050565b600082821c905092915050565b600061329360001984600802613275565b1980831691505092915050565b60006132ac8383613282565b9150826002028217905092915050565b6132c582612199565b67ffffffffffffffff8111156132de576132dd612462565b5b6132e882546126ae565b6132f382828561322f565b600060209050601f8311600181146133265760008415613314578287015190505b61331e85826132a0565b865550613386565b601f19841661333486613110565b60005b8281101561335c57848901518255600182019150602085019450602081019050613337565b868310156133795784890151613375601f891682613282565b8355505b6001600288020188555050505b505050505050565b7f4552433732313a207472616e7366657220746f206e6f6e20455243373231526560008201527f63656976657220696d706c656d656e7465720000000000000000000000000000602082015250565b60006133ea6032836121a4565b91506133f58261338e565b604082019050919050565b60006020820190508181036000830152613419816133dd565b9050919050565b7f4552433732314d657461646174613a2055524920717565727920666f72206e6f60008201527f6e6578697374656e7420746f6b656e0000000000000000000000000000000000602082015250565b600061347c602f836121a4565b915061348782613420565b604082019050919050565b600060208201905081810360008301526134ab8161346f565b9050919050565b600081519050919050565b600082825260208201905092915050565b60006134d9826134b2565b6134e381856134bd565b93506134f38185602086016121b5565b6134fc816121df565b840191505092915050565b600060808201905061351c60008301876122d6565b61352960208301866122d6565b613536604083018561216f565b818103606083015261354881846134ce565b905095945050505050565b60008151905061356281612084565b92915050565b60006020828403121561357e5761357d61204e565b5b600061358c84828501613553565b91505092915050565b60006135a082612165565b91507fffffffffffffffffffffffffffffffffffffffffffffffffffffffffffffffff82036135d2576135d1612ab1565b5b600182019050919050565b7f4e487b7100000000000000000000000000000000000000000000000000000000600052601260045260246000fd5b600061361782612165565b915061362283612165565b925082613632576136316135dd565b5b828204905092915050565b600061364882612165565b915061365383612165565b925082613663576136626135dd565b5b828206905092915050565b7f4e487b7100000000000000000000000000000000000000000000000000000000600052603260045260246000fd5b7f4552433732313a206d696e7420746f20746865207a65726f2061646472657373600082015250565b60006136d36020836121a4565b91506136de8261369d565b602082019050919050565b60006020820190508181036000830152613702816136c6565b9050919050565b7f4552433732313a20746f6b656e20616c7265616479206d696e74656400000000600082015250565b600061373f601c836121a4565b915061374a82613709565b602082019050919050565b6000602082019050818103600083015261376e81613732565b905091905056fea264697066735822122056050cd334e5ce05d5c9cbfdd9d7e640a704b00d2401052b42fa693ccc4fe70264736f6c63430008130033",
  "linkReferences": {},
  "deployedLinkReferences": {}
}