{
  "_format": "hh-sol-artifact-1",
  "contractName": "PremiumNFT",
  "sourceName": "contracts/PremiumNFT.sol",
  "abi": [
    {
      "inputs": [
        {
          "internalType": "string",
          "name": "token_uri",
          "type": "string"
        },
        {
          "internalType": "uint256[]",
          "name": "subscriptionPrice",
          "type": "uint256[]"
        }
      ],
      "stateMutability": "nonpayable",
      "type": "constructor"
    },
    {
      "anonymous": false,
      "inputs": [
        {
          "indexed": true,
          "internalType": "address",
          "name": "owner",
          "type": "address"
        },
        {
          "indexed": true,
          "internalType": "address",
          "name": "approved",
          "type": "address"
        },
        {
          "indexed": true,
          "internalType": "uint256",
          "name": "tokenId",
          "type": "uint256"
        }
      ],
      "name": "Approval",
      "type": "event"
    },
    {
      "anonymous": false,
      "inputs": [
        {
          "indexed": true,
          "internalType": "address",
          "name": "owner",
          "type": "address"
        },
        {
          "indexed": true,
          "internalType": "address",
          "name": "operator",
          "type": "address"
        },
        {
          "indexed": false,
          "internalType": "bool",
          "name": "approved",
          "type": "bool"
        }
      ],
      "name": "ApprovalForAll",
      "type": "event"
    },
    {
      "anonymous": false,
      "inputs": [
        {
          "indexed": true,
          "internalType": "address",
          "name": "previousOwner",
          "type": "address"
        },
        {
          "indexed": true,
          "internalType": "address",
          "name": "newOwner",
          "type": "address"
        }
      ],
      "name": "OwnershipTransferred",
      "type": "event"
    },
    {
      "anonymous": false,
      "inputs": [
        {
          "indexed": false,
          "internalType": "address",
          "name": "creator",
          "type": "address"
        },
        {
          "indexed": false,
          "internalType": "address",
          "name": "subscriber",
          "type": "address"
        }
      ],
      "name": "PremiumMemberSubscribed",
      "type": "event"
    },
    {
      "anonymous": false,
      "inputs": [
        {
          "indexed": true,
          "internalType": "address",
          "name": "from",
          "type": "address"
        },
        {
          "indexed": true,
          "internalType": "address",
          "name": "to",
          "type": "address"
        },
        {
          "indexed": true,
          "internalType": "uint256",
          "name": "tokenId",
          "type": "uint256"
        }
      ],
      "name": "Transfer",
      "type": "event"
    },
    {
      "inputs": [],
      "name": "TOKEN_URI",
      "outputs": [
        {
          "internalType": "string",
          "name": "",
          "type": "string"
        }
      ],
      "stateMutability": "view",
      "type": "function"
    },
    {
      "inputs": [
        {
          "internalType": "address",
          "name": "to",
          "type": "address"
        },
        {
          "internalType": "uint256",
          "name": "tokenId",
          "type": "uint256"
        }
      ],
      "name": "approve",
      "outputs": [],
      "stateMutability": "nonpayable",
      "type": "function"
    },
    {
      "inputs": [
        {
          "internalType": "address",
          "name": "owner",
          "type": "address"
        }
      ],
      "name": "balanceOf",
      "outputs": [
        {
          "internalType": "uint256",
          "name": "",
          "type": "uint256"
        }
      ],
      "stateMutability": "view",
      "type": "function"
    },
    {
      "inputs": [
        {
          "internalType": "uint256",
          "name": "tokenId",
          "type": "uint256"
        }
      ],
      "name": "getApproved",
      "outputs": [
        {
          "internalType": "address",
          "name": "",
          "type": "address"
        }
      ],
      "stateMutability": "view",
      "type": "function"
    },
    {
      "inputs": [
        {
          "internalType": "uint256",
          "name": "_tokenId",
          "type": "uint256"
        }
      ],
      "name": "getPremiumState",
      "outputs": [
        {
          "internalType": "uint256",
          "name": "",
          "type": "uint256"
        }
      ],
      "stateMutability": "view",
      "type": "function"
    },
    {
      "inputs": [
        {
          "internalType": "enum PremiumNFT.SUBSCRIPTION_PLAN",
          "name": "subscriptionPlan",
          "type": "uint8"
        }
      ],
      "name": "getSubscriptionPlan",
      "outputs": [
        {
          "internalType": "uint256",
          "name": "",
          "type": "uint256"
        }
      ],
      "stateMutability": "view",
      "type": "function"
    },
    {
      "inputs": [
        {
          "internalType": "address",
          "name": "owner",
          "type": "address"
        },
        {
          "internalType": "address",
          "name": "operator",
          "type": "address"
        }
      ],
      "name": "isApprovedForAll",
      "outputs": [
        {
          "internalType": "bool",
          "name": "",
          "type": "bool"
        }
      ],
      "stateMutability": "view",
      "type": "function"
    },
    {
      "inputs": [
        {
          "internalType": "uint256",
          "name": "_tokenId",
          "type": "uint256"
        }
      ],
      "name": "isExpired",
      "outputs": [
        {
          "internalType": "bool",
          "name": "",
          "type": "bool"
        }
      ],
      "stateMutability": "view",
      "type": "function"
    },
    {
      "inputs": [],
      "name": "name",
      "outputs": [
        {
          "internalType": "string",
          "name": "",
          "type": "string"
        }
      ],
      "stateMutability": "view",
      "type": "function"
    },
    {
      "inputs": [],
      "name": "owner",
      "outputs": [
        {
          "internalType": "address",
          "name": "",
          "type": "address"
        }
      ],
      "stateMutability": "view",
      "type": "function"
    },
    {
      "inputs": [
        {
          "internalType": "uint256",
          "name": "tokenId",
          "type": "uint256"
        }
      ],
      "name": "ownerOf",
      "outputs": [
        {
          "internalType": "address",
          "name": "",
          "type": "address"
        }
      ],
      "stateMutability": "view",
      "type": "function"
    },
    {
      "inputs": [],
      "name": "renounceOwnership",
      "outputs": [],
      "stateMutability": "nonpayable",
      "type": "function"
    },
    {
      "inputs": [
        {
          "internalType": "address",
          "name": "from",
          "type": "address"
        },
        {
          "internalType": "address",
          "name": "to",
          "type": "address"
        },
        {
          "internalType": "uint256",
          "name": "tokenId",
          "type": "uint256"
        }
      ],
      "name": "safeTransferFrom",
      "outputs": [],
      "stateMutability": "nonpayable",
      "type": "function"
    },
    {
      "inputs": [
        {
          "internalType": "address",
          "name": "from",
          "type": "address"
        },
        {
          "internalType": "address",
          "name": "to",
          "type": "address"
        },
        {
          "internalType": "uint256",
          "name": "tokenId",
          "type": "uint256"
        },
        {
          "internalType": "bytes",
          "name": "_data",
          "type": "bytes"
        }
      ],
      "name": "safeTransferFrom",
      "outputs": [],
      "stateMutability": "nonpayable",
      "type": "function"
    },
    {
      "inputs": [
        {
          "internalType": "address",
          "name": "operator",
          "type": "address"
        },
        {
          "internalType": "bool",
          "name": "approved",
          "type": "bool"
        }
      ],
      "name": "setApprovalForAll",
      "outputs": [],
      "stateMutability": "nonpayable",
      "type": "function"
    },
    {
      "inputs": [
        {
          "internalType": "enum PremiumNFT.SUBSCRIPTION_PLAN",
          "name": "subscriptionPlan",
          "type": "uint8"
        }
      ],
      "name": "subscribe",
      "outputs": [],
      "stateMutability": "payable",
      "type": "function"
    },
    {
      "inputs": [
        {
          "internalType": "bytes4",
          "name": "interfaceId",
          "type": "bytes4"
        }
      ],
      "name": "supportsInterface",
      "outputs": [
        {
          "internalType": "bool",
          "name": "",
          "type": "bool"
        }
      ],
      "stateMutability": "view",
      "type": "function"
    },
    {
      "inputs": [],
      "name": "symbol",
      "outputs": [
        {
          "internalType": "string",
          "name": "",
          "type": "string"
        }
      ],
      "stateMutability": "view",
      "type": "function"
    },
    {
      "inputs": [
        {
          "internalType": "uint256",
          "name": "tokenId",
          "type": "uint256"
        }
      ],
      "name": "tokenURI",
      "outputs": [
        {
          "internalType": "string",
          "name": "",
          "type": "string"
        }
      ],
      "stateMutability": "view",
      "type": "function"
    },
    {
      "inputs": [
        {
          "internalType": "address",
          "name": "from",
          "type": "address"
        },
        {
          "internalType": "address",
          "name": "to",
          "type": "address"
        },
        {
          "internalType": "uint256",
          "name": "tokenId",
          "type": "uint256"
        }
      ],
      "name": "transferFrom",
      "outputs": [],
      "stateMutability": "nonpayable",
      "type": "function"
    },
    {
      "inputs": [
        {
          "internalType": "address",
          "name": "newOwner",
          "type": "address"
        }
      ],
      "name": "transferOwnership",
      "outputs": [],
      "stateMutability": "nonpayable",
      "type": "function"
    }
  ],
  "bytecode": "0x60806040523480156200001157600080fd5b50604051620044b2380380620044b28339818101604052810190620000379190620006f3565b6040518060400160405280600a81526020017f5072656d69756d4e4654000000000000000000000000000000000000000000008152506040518060400160405280600381526020017f50534300000000000000000000000000000000000000000000000000000000008152508160009081620000b49190620009b9565b508060019081620000c69190620009b9565b5050506001600781905550620000f1620000e56200023d60201b60201c565b6200024560201b60201c565b8160099081620001029190620009b9565b50806000815181106200011a576200011962000aa0565b5b6020026020010151600c60008060028111156200013c576200013b62000acf565b5b600281111562000151576200015062000acf565b5b815260200190815260200160002081905550806001815181106200017a576200017962000aa0565b5b6020026020010151600c6000600160028111156200019d576200019c62000acf565b5b6002811115620001b257620001b162000acf565b5b81526020019081526020016000208190555080600281518110620001db57620001da62000aa0565b5b6020026020010151600c6000600280811115620001fd57620001fc62000acf565b5b600281111562000212576200021162000acf565b5b81526020019081526020016000208190555062000235326200030b60201b60201c565b505062000c19565b600033905090565b6000600860009054906101000a900473ffffffffffffffffffffffffffffffffffffffff16905081600860006101000a81548173ffffffffffffffffffffffffffffffffffffffff021916908373ffffffffffffffffffffffffffffffffffffffff1602179055508173ffffffffffffffffffffffffffffffffffffffff168173ffffffffffffffffffffffffffffffffffffffff167f8be0079c531659141344cd1fd0a4f28419497f9722a3daafe3b4186f6b6457e060405160405180910390a35050565b6200031b6200023d60201b60201c565b73ffffffffffffffffffffffffffffffffffffffff16620003416200042060201b60201c565b73ffffffffffffffffffffffffffffffffffffffff16146200039a576040517f08c379a0000000000000000000000000000000000000000000000000000000008152600401620003919062000b5f565b60405180910390fd5b600073ffffffffffffffffffffffffffffffffffffffff168173ffffffffffffffffffffffffffffffffffffffff16036200040c576040517f08c379a0000000000000000000000000000000000000000000000000000000008152600401620004039062000bf7565b60405180910390fd5b6200041d816200024560201b60201c565b50565b6000600860009054906101000a900473ffffffffffffffffffffffffffffffffffffffff16905090565b6000604051905090565b600080fd5b600080fd5b600080fd5b600080fd5b6000601f19601f8301169050919050565b7f4e487b7100000000000000000000000000000000000000000000000000000000600052604160045260246000fd5b620004b38262000468565b810181811067ffffffffffffffff82111715620004d557620004d462000479565b5b80604052505050565b6000620004ea6200044a565b9050620004f88282620004a8565b919050565b600067ffffffffffffffff8211156200051b576200051a62000479565b5b620005268262000468565b9050602081019050919050565b60005b838110156200055357808201518184015260208101905062000536565b60008484015250505050565b6000620005766200057084620004fd565b620004de565b90508281526020810184848401111562000595576200059462000463565b5b620005a284828562000533565b509392505050565b600082601f830112620005c257620005c16200045e565b5b8151620005d48482602086016200055f565b91505092915050565b600067ffffffffffffffff821115620005fb57620005fa62000479565b5b602082029050602081019050919050565b600080fd5b6000819050919050565b620006268162000611565b81146200063257600080fd5b50565b60008151905062000646816200061b565b92915050565b6000620006636200065d84620005dd565b620004de565b905080838252602082019050602084028301858111156200068957620006886200060c565b5b835b81811015620006b65780620006a1888262000635565b8452602084019350506020810190506200068b565b5050509392505050565b600082601f830112620006d857620006d76200045e565b5b8151620006ea8482602086016200064c565b91505092915050565b600080604083850312156200070d576200070c62000454565b5b600083015167ffffffffffffffff8111156200072e576200072d62000459565b5b6200073c85828601620005aa565b925050602083015167ffffffffffffffff81111562000760576200075f62000459565b5b6200076e85828601620006c0565b9150509250929050565b600081519050919050565b7f4e487b7100000000000000000000000000000000000000000000000000000000600052602260045260246000fd5b60006002820490506001821680620007cb57607f821691505b602082108103620007e157620007e062000783565b5b50919050565b60008190508160005260206000209050919050565b60006020601f8301049050919050565b600082821b905092915050565b6000600883026200084b7fffffffffffffffffffffffffffffffffffffffffffffffffffffffffffffffff826200080c565b6200085786836200080c565b95508019841693508086168417925050509392505050565b6000819050919050565b60006200089a620008946200088e8462000611565b6200086f565b62000611565b9050919050565b6000819050919050565b620008b68362000879565b620008ce620008c582620008a1565b84845462000819565b825550505050565b600090565b620008e5620008d6565b620008f2818484620008ab565b505050565b5b818110156200091a576200090e600082620008db565b600181019050620008f8565b5050565b601f82111562000969576200093381620007e7565b6200093e84620007fc565b810160208510156200094e578190505b620009666200095d85620007fc565b830182620008f7565b50505b505050565b600082821c905092915050565b60006200098e600019846008026200096e565b1980831691505092915050565b6000620009a983836200097b565b9150826002028217905092915050565b620009c48262000778565b67ffffffffffffffff811115620009e057620009df62000479565b5b620009ec8254620007b2565b620009f98282856200091e565b600060209050601f83116001811462000a31576000841562000a1c578287015190505b62000a2885826200099b565b86555062000a98565b601f19841662000a4186620007e7565b60005b8281101562000a6b5784890151825560018201915060208501945060208101905062000a44565b8683101562000a8b578489015162000a87601f8916826200097b565b8355505b6001600288020188555050505b505050505050565b7f4e487b7100000000000000000000000000000000000000000000000000000000600052603260045260246000fd5b7f4e487b7100000000000000000000000000000000000000000000000000000000600052602160045260246000fd5b600082825260208201905092915050565b7f4f776e61626c653a2063616c6c6572206973206e6f7420746865206f776e6572600082015250565b600062000b4760208362000afe565b915062000b548262000b0f565b602082019050919050565b6000602082019050818103600083015262000b7a8162000b38565b9050919050565b7f4f776e61626c653a206e6577206f776e657220697320746865207a65726f206160008201527f6464726573730000000000000000000000000000000000000000000000000000602082015250565b600062000bdf60268362000afe565b915062000bec8262000b81565b604082019050919050565b6000602082019050818103600083015262000c128162000bd0565b9050919050565b6138898062000c296000396000f3fe60806040526004361061012a5760003560e01c8063715018a6116100ab578063a22cb4651161006f578063a22cb465146103f7578063b88d4fde14610420578063c87b56dd14610449578063d9548e5314610486578063e985e9c5146104c3578063f2fde38b146105005761012a565b8063715018a61461032257806378ce9035146103395780637c514240146103645780638da5cb5b146103a157806395d89b41146103cc5761012a565b806323b872dd116100f257806323b872dd1461023a57806342842e0e1461026357806349c7e6391461028c5780636352211e146102a857806370a08231146102e55761012a565b806301ffc9a71461012f57806305d58d4a1461016c57806306fdde03146101a9578063081812fc146101d4578063095ea7b314610211575b600080fd5b34801561013b57600080fd5b5061015660048036038101906101519190612165565b610529565b60405161016391906121ad565b60405180910390f35b34801561017857600080fd5b50610193600480360381019061018e91906121ed565b61060b565b6040516101a09190612233565b60405180910390f35b3480156101b557600080fd5b506101be61064c565b6040516101cb91906122de565b60405180910390f35b3480156101e057600080fd5b506101fb60048036038101906101f6919061232c565b6106de565b604051610208919061239a565b60405180910390f35b34801561021d57600080fd5b50610238600480360381019061023391906123e1565b610763565b005b34801561024657600080fd5b50610261600480360381019061025c9190612421565b61087a565b005b34801561026f57600080fd5b5061028a60048036038101906102859190612421565b6108da565b005b6102a660048036038101906102a191906121ed565b6108fa565b005b3480156102b457600080fd5b506102cf60048036038101906102ca919061232c565b610c55565b6040516102dc919061239a565b60405180910390f35b3480156102f157600080fd5b5061030c60048036038101906103079190612474565b610d06565b6040516103199190612233565b60405180910390f35b34801561032e57600080fd5b50610337610dbd565b005b34801561034557600080fd5b5061034e610e45565b60405161035b91906122de565b60405180910390f35b34801561037057600080fd5b5061038b6004803603810190610386919061232c565b610ed3565b6040516103989190612233565b60405180910390f35b3480156103ad57600080fd5b506103b6610ef0565b6040516103c3919061239a565b60405180910390f35b3480156103d857600080fd5b506103e1610f1a565b6040516103ee91906122de565b60405180910390f35b34801561040357600080fd5b5061041e600480360381019061041991906124cd565b610fac565b005b34801561042c57600080fd5b5061044760048036038101906104429190612642565b61112c565b005b34801561045557600080fd5b50610470600480360381019061046b919061232c565b61118e565b60405161047d91906122de565b60405180910390f35b34801561049257600080fd5b506104ad60048036038101906104a8919061232c565b6112df565b6040516104ba91906121ad565b60405180910390f35b3480156104cf57600080fd5b506104ea60048036038101906104e591906126c5565b61130c565b6040516104f791906121ad565b60405180910390f35b34801561050c57600080fd5b5061052760048036038101906105229190612474565b6113a0565b005b60007f80ac58cd000000000000000000000000000000000000000000000000000000007bffffffffffffffffffffffffffffffffffffffffffffffffffffffff1916827bffffffffffffffffffffffffffffffffffffffffffffffffffffffff191614806105f457507f5b5e139f000000000000000000000000000000000000000000000000000000007bffffffffffffffffffffffffffffffffffffffffffffffffffffffff1916827bffffffffffffffffffffffffffffffffffffffffffffffffffffffff1916145b80610604575061060382611497565b5b9050919050565b6000600c600083600281111561062457610623612705565b5b600281111561063657610635612705565b5b8152602001908152602001600020549050919050565b60606000805461065b90612763565b80601f016020809104026020016040519081016040528092919081815260200182805461068790612763565b80156106d45780601f106106a9576101008083540402835291602001916106d4565b820191906000526020600020905b8154815290600101906020018083116106b757829003601f168201915b5050505050905090565b60006106e982611501565b610728576040517f08c379a000000000000000000000000000000000000000000000000000000000815260040161071f90612806565b60405180910390fd5b6004600083815260200190815260200160002060009054906101000a900473ffffffffffffffffffffffffffffffffffffffff169050919050565b600061076e82610c55565b90508073ffffffffffffffffffffffffffffffffffffffff168373ffffffffffffffffffffffffffffffffffffffff16036107de576040517f08c379a00000000000000000000000000000000000000000000000000000000081526004016107d590612898565b60405180910390fd5b8073ffffffffffffffffffffffffffffffffffffffff166107fd61156d565b73ffffffffffffffffffffffffffffffffffffffff16148061082c575061082b8161082661156d565b61130c565b5b61086b576040517f08c379a00000000000000000000000000000000000000000000000000000000081526004016108629061292a565b60405180910390fd5b6108758383611575565b505050565b61088b61088561156d565b8261162e565b6108ca576040517f08c379a00000000000000000000000000000000000000000000000000000000081526004016108c1906129bc565b60405180910390fd5b6108d583838361170c565b505050565b6108f58383836040518060200160405280600081525061112c565b505050565b60026007540361093f576040517f08c379a000000000000000000000000000000000000000000000000000000000815260040161093690612a28565b60405180910390fd5b60026007819055506000600c60008360028111156109605761095f612705565b5b600281111561097257610971612705565b5b81526020019081526020016000205490508034146109c5576040517f08c379a00000000000000000000000000000000000000000000000000000000081526004016109bc90612a94565b60405180910390fd5b60006109cf610ef0565b73ffffffffffffffffffffffffffffffffffffffff16826040516109f290612ae5565b60006040518083038185875af1925050503d8060008114610a2f576040519150601f19603f3d011682016040523d82523d6000602084013e610a34565b606091505b5050905080610a78576040517f08c379a0000000000000000000000000000000000000000000000000000000008152600401610a6f90612b46565b60405180910390fd5b610a8433600a54611967565b610b1a600a5460098054610a9790612763565b80601f0160208091040260200160405190810160405280929190818152602001828054610ac390612763565b8015610b105780601f10610ae557610100808354040283529160200191610b10565b820191906000526020600020905b815481529060010190602001808311610af357829003601f168201915b5050505050611985565b60006002811115610b2e57610b2d612705565b5b836002811115610b4157610b40612705565b5b03610b735762093a8042610b559190612b95565b600b6000600a54815260200190815260200160002081905550610bf6565b60016002811115610b8757610b86612705565b5b836002811115610b9a57610b99612705565b5b03610bcc576224ea0042610bae9190612b95565b600b6000600a54815260200190815260200160002081905550610bf5565b62eff10042610bdb9190612b95565b600b6000600a548152602001908152602001600020819055505b5b600a600081548092919060010191905055507fe595c3f23081c5772aa5f953ad2efbdf276c64ce3837d17a705bd79d1bc38972610c31610ef0565b33604051610c40929190612bc9565b60405180910390a15050600160078190555050565b6000806002600084815260200190815260200160002060009054906101000a900473ffffffffffffffffffffffffffffffffffffffff169050600073ffffffffffffffffffffffffffffffffffffffff168173ffffffffffffffffffffffffffffffffffffffff1603610cfd576040517f08c379a0000000000000000000000000000000000000000000000000000000008152600401610cf490612c64565b60405180910390fd5b80915050919050565b60008073ffffffffffffffffffffffffffffffffffffffff168273ffffffffffffffffffffffffffffffffffffffff1603610d76576040517f08c379a0000000000000000000000000000000000000000000000000000000008152600401610d6d90612cf6565b60405180910390fd5b600360008373ffffffffffffffffffffffffffffffffffffffff1673ffffffffffffffffffffffffffffffffffffffff168152602001908152602001600020549050919050565b610dc561156d565b73ffffffffffffffffffffffffffffffffffffffff16610de3610ef0565b73ffffffffffffffffffffffffffffffffffffffff1614610e39576040517f08c379a0000000000000000000000000000000000000000000000000000000008152600401610e3090612d62565b60405180910390fd5b610e4360006119f2565b565b60098054610e5290612763565b80601f0160208091040260200160405190810160405280929190818152602001828054610e7e90612763565b8015610ecb5780601f10610ea057610100808354040283529160200191610ecb565b820191906000526020600020905b815481529060010190602001808311610eae57829003601f168201915b505050505081565b6000600b6000838152602001908152602001600020549050919050565b6000600860009054906101000a900473ffffffffffffffffffffffffffffffffffffffff16905090565b606060018054610f2990612763565b80601f0160208091040260200160405190810160405280929190818152602001828054610f5590612763565b8015610fa25780601f10610f7757610100808354040283529160200191610fa2565b820191906000526020600020905b815481529060010190602001808311610f8557829003601f168201915b5050505050905090565b610fb461156d565b73ffffffffffffffffffffffffffffffffffffffff168273ffffffffffffffffffffffffffffffffffffffff1603611021576040517f08c379a000000000000000000000000000000000000000000000000000000000815260040161101890612dce565b60405180910390fd5b806005600061102e61156d565b73ffffffffffffffffffffffffffffffffffffffff1673ffffffffffffffffffffffffffffffffffffffff16815260200190815260200160002060008473ffffffffffffffffffffffffffffffffffffffff1673ffffffffffffffffffffffffffffffffffffffff16815260200190815260200160002060006101000a81548160ff0219169083151502179055508173ffffffffffffffffffffffffffffffffffffffff166110db61156d565b73ffffffffffffffffffffffffffffffffffffffff167f17307eab39ab6107e8899845ad3d59bd9653f200f220920489ca2b5937696c318360405161112091906121ad565b60405180910390a35050565b61113d61113761156d565b8361162e565b61117c576040517f08c379a0000000000000000000000000000000000000000000000000000000008152600401611173906129bc565b60405180910390fd5b61118884848484611ab8565b50505050565b606061119982611501565b6111d8576040517f08c379a00000000000000000000000000000000000000000000000000000000081526004016111cf90612e60565b60405180910390fd5b60006006600084815260200190815260200160002080546111f890612763565b80601f016020809104026020016040519081016040528092919081815260200182805461122490612763565b80156112715780601f1061124657610100808354040283529160200191611271565b820191906000526020600020905b81548152906001019060200180831161125457829003601f168201915b505050505090506000611282611b14565b905060008151036112975781925050506112da565b6000825111156112cc5780826040516020016112b4929190612ebc565b604051602081830303815290604052925050506112da565b6112d584611b2b565b925050505b919050565b6000600b6000838152602001908152602001600020544211611302576000611305565b60015b9050919050565b6000600560008473ffffffffffffffffffffffffffffffffffffffff1673ffffffffffffffffffffffffffffffffffffffff16815260200190815260200160002060008373ffffffffffffffffffffffffffffffffffffffff1673ffffffffffffffffffffffffffffffffffffffff16815260200190815260200160002060009054906101000a900460ff16905092915050565b6113a861156d565b73ffffffffffffffffffffffffffffffffffffffff166113c6610ef0565b73ffffffffffffffffffffffffffffffffffffffff161461141c576040517f08c379a000000000000000000000000000000000000000000000000000000000815260040161141390612d62565b60405180910390fd5b600073ffffffffffffffffffffffffffffffffffffffff168173ffffffffffffffffffffffffffffffffffffffff160361148b576040517f08c379a000000000000000000000000000000000000000000000000000000000815260040161148290612f52565b60405180910390fd5b611494816119f2565b50565b60007f01ffc9a7000000000000000000000000000000000000000000000000000000007bffffffffffffffffffffffffffffffffffffffffffffffffffffffff1916827bffffffffffffffffffffffffffffffffffffffffffffffffffffffff1916149050919050565b60008073ffffffffffffffffffffffffffffffffffffffff166002600084815260200190815260200160002060009054906101000a900473ffffffffffffffffffffffffffffffffffffffff1673ffffffffffffffffffffffffffffffffffffffff1614159050919050565b600033905090565b816004600083815260200190815260200160002060006101000a81548173ffffffffffffffffffffffffffffffffffffffff021916908373ffffffffffffffffffffffffffffffffffffffff160217905550808273ffffffffffffffffffffffffffffffffffffffff166115e883610c55565b73ffffffffffffffffffffffffffffffffffffffff167f8c5be1e5ebec7d5bd14f71427d1e84f3dd0314c0f7b2291e5b200ac8c7c3b92560405160405180910390a45050565b600061163982611501565b611678576040517f08c379a000000000000000000000000000000000000000000000000000000000815260040161166f90612fe4565b60405180910390fd5b600061168383610c55565b90508073ffffffffffffffffffffffffffffffffffffffff168473ffffffffffffffffffffffffffffffffffffffff1614806116f257508373ffffffffffffffffffffffffffffffffffffffff166116da846106de565b73ffffffffffffffffffffffffffffffffffffffff16145b806117035750611702818561130c565b5b91505092915050565b8273ffffffffffffffffffffffffffffffffffffffff1661172c82610c55565b73ffffffffffffffffffffffffffffffffffffffff1614611782576040517f08c379a000000000000000000000000000000000000000000000000000000000815260040161177990613076565b60405180910390fd5b600073ffffffffffffffffffffffffffffffffffffffff168273ffffffffffffffffffffffffffffffffffffffff16036117f1576040517f08c379a00000000000000000000000000000000000000000000000000000000081526004016117e890613108565b60405180910390fd5b6117fc838383611bd2565b611807600082611575565b6001600360008573ffffffffffffffffffffffffffffffffffffffff1673ffffffffffffffffffffffffffffffffffffffff16815260200190815260200160002060008282546118579190613128565b925050819055506001600360008473ffffffffffffffffffffffffffffffffffffffff1673ffffffffffffffffffffffffffffffffffffffff16815260200190815260200160002060008282546118ae9190612b95565b92505081905550816002600083815260200190815260200160002060006101000a81548173ffffffffffffffffffffffffffffffffffffffff021916908373ffffffffffffffffffffffffffffffffffffffff160217905550808273ffffffffffffffffffffffffffffffffffffffff168473ffffffffffffffffffffffffffffffffffffffff167fddf252ad1be2c89b69c2b068fc378daa952ba7f163c4a11628f55a4df523b3ef60405160405180910390a4505050565b611981828260405180602001604052806000815250611bd7565b5050565b61198e82611501565b6119cd576040517f08c379a00000000000000000000000000000000000000000000000000000000081526004016119c4906131ce565b60405180910390fd5b806006600084815260200190815260200160002090816119ed919061339a565b505050565b6000600860009054906101000a900473ffffffffffffffffffffffffffffffffffffffff16905081600860006101000a81548173ffffffffffffffffffffffffffffffffffffffff021916908373ffffffffffffffffffffffffffffffffffffffff1602179055508173ffffffffffffffffffffffffffffffffffffffff168173ffffffffffffffffffffffffffffffffffffffff167f8be0079c531659141344cd1fd0a4f28419497f9722a3daafe3b4186f6b6457e060405160405180910390a35050565b611ac384848461170c565b611acf84848484611c32565b611b0e576040517f08c379a0000000000000000000000000000000000000000000000000000000008152600401611b05906134de565b60405180910390fd5b50505050565b606060405180602001604052806000815250905090565b6060611b3682611501565b611b75576040517f08c379a0000000000000000000000000000000000000000000000000000000008152600401611b6c90613570565b60405180910390fd5b6000611b7f611b14565b90506000815111611b9f5760405180602001604052806000815250611bca565b80611ba984611db9565b604051602001611bba929190612ebc565b6040516020818303038152906040525b915050919050565b505050565b611be18383611f19565b611bee6000848484611c32565b611c2d576040517f08c379a0000000000000000000000000000000000000000000000000000000008152600401611c24906134de565b60405180910390fd5b505050565b6000611c538473ffffffffffffffffffffffffffffffffffffffff166120e6565b15611dac578373ffffffffffffffffffffffffffffffffffffffff1663150b7a02611c7c61156d565b8786866040518563ffffffff1660e01b8152600401611c9e94939291906135e5565b6020604051808303816000875af1925050508015611cda57506040513d601f19601f82011682018060405250810190611cd79190613646565b60015b611d5c573d8060008114611d0a576040519150601f19603f3d011682016040523d82523d6000602084013e611d0f565b606091505b506000815103611d54576040517f08c379a0000000000000000000000000000000000000000000000000000000008152600401611d4b906134de565b60405180910390fd5b805181602001fd5b63150b7a0260e01b7bffffffffffffffffffffffffffffffffffffffffffffffffffffffff1916817bffffffffffffffffffffffffffffffffffffffffffffffffffffffff191614915050611db1565b600190505b949350505050565b606060008203611e00576040518060400160405280600181526020017f30000000000000000000000000000000000000000000000000000000000000008152509050611f14565b600082905060005b60008214611e32578080611e1b90613673565b915050600a82611e2b91906136ea565b9150611e08565b60008167ffffffffffffffff811115611e4e57611e4d612517565b5b6040519080825280601f01601f191660200182016040528015611e805781602001600182028036833780820191505090505b5090505b60008514611f0d57600182611e999190613128565b9150600a85611ea8919061371b565b6030611eb49190612b95565b60f81b818381518110611eca57611ec961374c565b5b60200101907effffffffffffffffffffffffffffffffffffffffffffffffffffffffffffff1916908160001a905350600a85611f0691906136ea565b9450611e84565b8093505050505b919050565b600073ffffffffffffffffffffffffffffffffffffffff168273ffffffffffffffffffffffffffffffffffffffff1603611f88576040517f08c379a0000000000000000000000000000000000000000000000000000000008152600401611f7f906137c7565b60405180910390fd5b611f9181611501565b15611fd1576040517f08c379a0000000000000000000000000000000000000000000000000000000008152600401611fc890613833565b60405180910390fd5b611fdd60008383611bd2565b6001600360008473ffffffffffffffffffffffffffffffffffffffff1673ffffffffffffffffffffffffffffffffffffffff168152602001908152602001600020600082825461202d9190612b95565b92505081905550816002600083815260200190815260200160002060006101000a81548173ffffffffffffffffffffffffffffffffffffffff021916908373ffffffffffffffffffffffffffffffffffffffff160217905550808273ffffffffffffffffffffffffffffffffffffffff16600073ffffffffffffffffffffffffffffffffffffffff167fddf252ad1be2c89b69c2b068fc378daa952ba7f163c4a11628f55a4df523b3ef60405160405180910390a45050565b600080823b905060008111915050919050565b6000604051905090565b600080fd5b600080fd5b60007fffffffff0000000000000000000000000000000000000000000000000000000082169050919050565b6121428161210d565b811461214d57600080fd5b50565b60008135905061215f81612139565b92915050565b60006020828403121561217b5761217a612103565b5b600061218984828501612150565b91505092915050565b60008115159050919050565b6121a781612192565b82525050565b60006020820190506121c2600083018461219e565b92915050565b600381106121d557600080fd5b50565b6000813590506121e7816121c8565b92915050565b60006020828403121561220357612202612103565b5b6000612211848285016121d8565b91505092915050565b6000819050919050565b61222d8161221a565b82525050565b60006020820190506122486000830184612224565b92915050565b600081519050919050565b600082825260208201905092915050565b60005b8381101561228857808201518184015260208101905061226d565b60008484015250505050565b6000601f19601f8301169050919050565b60006122b08261224e565b6122ba8185612259565b93506122ca81856020860161226a565b6122d381612294565b840191505092915050565b600060208201905081810360008301526122f881846122a5565b905092915050565b6123098161221a565b811461231457600080fd5b50565b60008135905061232681612300565b92915050565b60006020828403121561234257612341612103565b5b600061235084828501612317565b91505092915050565b600073ffffffffffffffffffffffffffffffffffffffff82169050919050565b600061238482612359565b9050919050565b61239481612379565b82525050565b60006020820190506123af600083018461238b565b92915050565b6123be81612379565b81146123c957600080fd5b50565b6000813590506123db816123b5565b92915050565b600080604083850312156123f8576123f7612103565b5b6000612406858286016123cc565b925050602061241785828601612317565b9150509250929050565b60008060006060848603121561243a57612439612103565b5b6000612448868287016123cc565b9350506020612459868287016123cc565b925050604061246a86828701612317565b9150509250925092565b60006020828403121561248a57612489612103565b5b6000612498848285016123cc565b91505092915050565b6124aa81612192565b81146124b557600080fd5b50565b6000813590506124c7816124a1565b92915050565b600080604083850312156124e4576124e3612103565b5b60006124f2858286016123cc565b9250506020612503858286016124b8565b9150509250929050565b600080fd5b600080fd5b7f4e487b7100000000000000000000000000000000000000000000000000000000600052604160045260246000fd5b61254f82612294565b810181811067ffffffffffffffff8211171561256e5761256d612517565b5b80604052505050565b60006125816120f9565b905061258d8282612546565b919050565b600067ffffffffffffffff8211156125ad576125ac612517565b5b6125b682612294565b9050602081019050919050565b82818337600083830152505050565b60006125e56125e084612592565b612577565b90508281526020810184848401111561260157612600612512565b5b61260c8482856125c3565b509392505050565b600082601f8301126126295761262861250d565b5b81356126398482602086016125d2565b91505092915050565b6000806000806080858703121561265c5761265b612103565b5b600061266a878288016123cc565b945050602061267b878288016123cc565b935050604061268c87828801612317565b925050606085013567ffffffffffffffff8111156126ad576126ac612108565b5b6126b987828801612614565b91505092959194509250565b600080604083850312156126dc576126db612103565b5b60006126ea858286016123cc565b92505060206126fb858286016123cc565b9150509250929050565b7f4e487b7100000000000000000000000000000000000000000000000000000000600052602160045260246000fd5b7f4e487b7100000000000000000000000000000000000000000000000000000000600052602260045260246000fd5b6000600282049050600182168061277b57607f821691505b60208210810361278e5761278d612734565b5b50919050565b7f4552433732313a20617070726f76656420717565727920666f72206e6f6e657860008201527f697374656e7420746f6b656e0000000000000000000000000000000000000000602082015250565b60006127f0602c83612259565b91506127fb82612794565b604082019050919050565b6000602082019050818103600083015261281f816127e3565b9050919050565b7f4552433732313a20617070726f76616c20746f2063757272656e74206f776e6560008201527f7200000000000000000000000000000000000000000000000000000000000000602082015250565b6000612882602183612259565b915061288d82612826565b604082019050919050565b600060208201905081810360008301526128b181612875565b9050919050565b7f4552433732313a20617070726f76652063616c6c6572206973206e6f74206f7760008201527f6e6572206e6f7220617070726f76656420666f7220616c6c0000000000000000602082015250565b6000612914603883612259565b915061291f826128b8565b604082019050919050565b6000602082019050818103600083015261294381612907565b9050919050565b7f4552433732313a207472616e736665722063616c6c6572206973206e6f74206f60008201527f776e6572206e6f7220617070726f766564000000000000000000000000000000602082015250565b60006129a6603183612259565b91506129b18261294a565b604082019050919050565b600060208201905081810360008301526129d581612999565b9050919050565b7f5265656e7472616e637947756172643a207265656e7472616e742063616c6c00600082015250565b6000612a12601f83612259565b9150612a1d826129dc565b602082019050919050565b60006020820190508181036000830152612a4181612a05565b9050919050565b7f537562736372697074696f6e2046656520697320696e73756666696369656e74600082015250565b6000612a7e602083612259565b9150612a8982612a48565b602082019050919050565b60006020820190508181036000830152612aad81612a71565b9050919050565b600081905092915050565b50565b6000612acf600083612ab4565b9150612ada82612abf565b600082019050919050565b6000612af082612ac2565b9150819050919050565b7f5472616e73666572206661696c65640000000000000000000000000000000000600082015250565b6000612b30600f83612259565b9150612b3b82612afa565b602082019050919050565b60006020820190508181036000830152612b5f81612b23565b9050919050565b7f4e487b7100000000000000000000000000000000000000000000000000000000600052601160045260246000fd5b6000612ba08261221a565b9150612bab8361221a565b9250828201905080821115612bc357612bc2612b66565b5b92915050565b6000604082019050612bde600083018561238b565b612beb602083018461238b565b9392505050565b7f4552433732313a206f776e657220717565727920666f72206e6f6e657869737460008201527f656e7420746f6b656e0000000000000000000000000000000000000000000000602082015250565b6000612c4e602983612259565b9150612c5982612bf2565b604082019050919050565b60006020820190508181036000830152612c7d81612c41565b9050919050565b7f4552433732313a2062616c616e636520717565727920666f7220746865207a6560008201527f726f206164647265737300000000000000000000000000000000000000000000602082015250565b6000612ce0602a83612259565b9150612ceb82612c84565b604082019050919050565b60006020820190508181036000830152612d0f81612cd3565b9050919050565b7f4f776e61626c653a2063616c6c6572206973206e6f7420746865206f776e6572600082015250565b6000612d4c602083612259565b9150612d5782612d16565b602082019050919050565b60006020820190508181036000830152612d7b81612d3f565b9050919050565b7f4552433732313a20617070726f766520746f2063616c6c657200000000000000600082015250565b6000612db8601983612259565b9150612dc382612d82565b602082019050919050565b60006020820190508181036000830152612de781612dab565b9050919050565b7f45524337323155524953746f726167653a2055524920717565727920666f722060008201527f6e6f6e6578697374656e7420746f6b656e000000000000000000000000000000602082015250565b6000612e4a603183612259565b9150612e5582612dee565b604082019050919050565b60006020820190508181036000830152612e7981612e3d565b9050919050565b600081905092915050565b6000612e968261224e565b612ea08185612e80565b9350612eb081856020860161226a565b80840191505092915050565b6000612ec88285612e8b565b9150612ed48284612e8b565b91508190509392505050565b7f4f776e61626c653a206e6577206f776e657220697320746865207a65726f206160008201527f6464726573730000000000000000000000000000000000000000000000000000602082015250565b6000612f3c602683612259565b9150612f4782612ee0565b604082019050919050565b60006020820190508181036000830152612f6b81612f2f565b9050919050565b7f4552433732313a206f70657261746f7220717565727920666f72206e6f6e657860008201527f697374656e7420746f6b656e0000000000000000000000000000000000000000602082015250565b6000612fce602c83612259565b9150612fd982612f72565b604082019050919050565b60006020820190508181036000830152612ffd81612fc1565b9050919050565b7f4552433732313a207472616e73666572206f6620746f6b656e2074686174206960008201527f73206e6f74206f776e0000000000000000000000000000000000000000000000602082015250565b6000613060602983612259565b915061306b82613004565b604082019050919050565b6000602082019050818103600083015261308f81613053565b9050919050565b7f4552433732313a207472616e7366657220746f20746865207a65726f2061646460008201527f7265737300000000000000000000000000000000000000000000000000000000602082015250565b60006130f2602483612259565b91506130fd82613096565b604082019050919050565b60006020820190508181036000830152613121816130e5565b9050919050565b60006131338261221a565b915061313e8361221a565b925082820390508181111561315657613155612b66565b5b92915050565b7f45524337323155524953746f726167653a2055524920736574206f66206e6f6e60008201527f6578697374656e7420746f6b656e000000000000000000000000000000000000602082015250565b60006131b8602e83612259565b91506131c38261315c565b604082019050919050565b600060208201905081810360008301526131e7816131ab565b9050919050565b60008190508160005260206000209050919050565b60006020601f8301049050919050565b600082821b905092915050565b6000600883026132507fffffffffffffffffffffffffffffffffffffffffffffffffffffffffffffffff82613213565b61325a8683613213565b95508019841693508086168417925050509392505050565b6000819050919050565b600061329761329261328d8461221a565b613272565b61221a565b9050919050565b6000819050919050565b6132b18361327c565b6132c56132bd8261329e565b848454613220565b825550505050565b600090565b6132da6132cd565b6132e58184846132a8565b505050565b5b81811015613309576132fe6000826132d2565b6001810190506132eb565b5050565b601f82111561334e5761331f816131ee565b61332884613203565b81016020851015613337578190505b61334b61334385613203565b8301826132ea565b50505b505050565b600082821c905092915050565b600061337160001984600802613353565b1980831691505092915050565b600061338a8383613360565b9150826002028217905092915050565b6133a38261224e565b67ffffffffffffffff8111156133bc576133bb612517565b5b6133c68254612763565b6133d182828561330d565b600060209050601f83116001811461340457600084156133f2578287015190505b6133fc858261337e565b865550613464565b601f198416613412866131ee565b60005b8281101561343a57848901518255600182019150602085019450602081019050613415565b868310156134575784890151613453601f891682613360565b8355505b6001600288020188555050505b505050505050565b7f4552433732313a207472616e7366657220746f206e6f6e20455243373231526560008201527f63656976657220696d706c656d656e7465720000000000000000000000000000602082015250565b60006134c8603283612259565b91506134d38261346c565b604082019050919050565b600060208201905081810360008301526134f7816134bb565b9050919050565b7f4552433732314d657461646174613a2055524920717565727920666f72206e6f60008201527f6e6578697374656e7420746f6b656e0000000000000000000000000000000000602082015250565b600061355a602f83612259565b9150613565826134fe565b604082019050919050565b600060208201905081810360008301526135898161354d565b9050919050565b600081519050919050565b600082825260208201905092915050565b60006135b782613590565b6135c1818561359b565b93506135d181856020860161226a565b6135da81612294565b840191505092915050565b60006080820190506135fa600083018761238b565b613607602083018661238b565b6136146040830185612224565b818103606083015261362681846135ac565b905095945050505050565b60008151905061364081612139565b92915050565b60006020828403121561365c5761365b612103565b5b600061366a84828501613631565b91505092915050565b600061367e8261221a565b91507fffffffffffffffffffffffffffffffffffffffffffffffffffffffffffffffff82036136b0576136af612b66565b5b600182019050919050565b7f4e487b7100000000000000000000000000000000000000000000000000000000600052601260045260246000fd5b60006136f58261221a565b91506137008361221a565b9250826137105761370f6136bb565b5b828204905092915050565b60006137268261221a565b91506137318361221a565b925082613741576137406136bb565b5b828206905092915050565b7f4e487b7100000000000000000000000000000000000000000000000000000000600052603260045260246000fd5b7f4552433732313a206d696e7420746f20746865207a65726f2061646472657373600082015250565b60006137b1602083612259565b91506137bc8261377b565b602082019050919050565b600060208201905081810360008301526137e0816137a4565b9050919050565b7f4552433732313a20746f6b656e20616c7265616479206d696e74656400000000600082015250565b600061381d601c83612259565b9150613828826137e7565b602082019050919050565b6000602082019050818103600083015261384c81613810565b905091905056fea264697066735822122078f6aa63ca2a12aa420571aa905274485434146a6b1aec4ed5870e812390606464736f6c63430008130033",
  "linkReferences": {},
  "deployedLinkReferences": {}
}