{
  "_format": "hh-sol-artifact-1",
  "contractName": "PremiumNFT",
  "sourceName": "contracts/PremiumNFT.sol",
  "abi": [
    {
      "inputs": [
        {
          "internalType": "string",
          "name": "token_uri",
          "type": "string"
        },
        {
          "internalType": "uint256[]",
          "name": "subscriptionPrice",
          "type": "uint256[]"
        }
      ],
      "stateMutability": "nonpayable",
      "type": "constructor"
    },
    {
      "anonymous": false,
      "inputs": [
        {
          "indexed": true,
          "internalType": "address",
          "name": "owner",
          "type": "address"
        },
        {
          "indexed": true,
          "internalType": "address",
          "name": "approved",
          "type": "address"
        },
        {
          "indexed": true,
          "internalType": "uint256",
          "name": "tokenId",
          "type": "uint256"
        }
      ],
      "name": "Approval",
      "type": "event"
    },
    {
      "anonymous": false,
      "inputs": [
        {
          "indexed": true,
          "internalType": "address",
          "name": "owner",
          "type": "address"
        },
        {
          "indexed": true,
          "internalType": "address",
          "name": "operator",
          "type": "address"
        },
        {
          "indexed": false,
          "internalType": "bool",
          "name": "approved",
          "type": "bool"
        }
      ],
      "name": "ApprovalForAll",
      "type": "event"
    },
    {
      "anonymous": false,
      "inputs": [
        {
          "indexed": true,
          "internalType": "address",
          "name": "previousOwner",
          "type": "address"
        },
        {
          "indexed": true,
          "internalType": "address",
          "name": "newOwner",
          "type": "address"
        }
      ],
      "name": "OwnershipTransferred",
      "type": "event"
    },
    {
      "anonymous": false,
      "inputs": [
        {
          "indexed": false,
          "internalType": "address",
          "name": "",
          "type": "address"
        }
      ],
      "name": "PremiumMemberSubscribed",
      "type": "event"
    },
    {
      "anonymous": false,
      "inputs": [
        {
          "indexed": true,
          "internalType": "address",
          "name": "from",
          "type": "address"
        },
        {
          "indexed": true,
          "internalType": "address",
          "name": "to",
          "type": "address"
        },
        {
          "indexed": true,
          "internalType": "uint256",
          "name": "tokenId",
          "type": "uint256"
        }
      ],
      "name": "Transfer",
      "type": "event"
    },
    {
      "inputs": [],
      "name": "TOKEN_URI",
      "outputs": [
        {
          "internalType": "string",
          "name": "",
          "type": "string"
        }
      ],
      "stateMutability": "view",
      "type": "function"
    },
    {
      "inputs": [
        {
          "internalType": "address",
          "name": "to",
          "type": "address"
        },
        {
          "internalType": "uint256",
          "name": "tokenId",
          "type": "uint256"
        }
      ],
      "name": "approve",
      "outputs": [],
      "stateMutability": "nonpayable",
      "type": "function"
    },
    {
      "inputs": [
        {
          "internalType": "address",
          "name": "owner",
          "type": "address"
        }
      ],
      "name": "balanceOf",
      "outputs": [
        {
          "internalType": "uint256",
          "name": "",
          "type": "uint256"
        }
      ],
      "stateMutability": "view",
      "type": "function"
    },
    {
      "inputs": [
        {
          "internalType": "uint256",
          "name": "tokenId",
          "type": "uint256"
        }
      ],
      "name": "getApproved",
      "outputs": [
        {
          "internalType": "address",
          "name": "",
          "type": "address"
        }
      ],
      "stateMutability": "view",
      "type": "function"
    },
    {
      "inputs": [
        {
          "internalType": "uint256",
          "name": "_tokenId",
          "type": "uint256"
        }
      ],
      "name": "getPremiumState",
      "outputs": [
        {
          "internalType": "uint256",
          "name": "",
          "type": "uint256"
        }
      ],
      "stateMutability": "view",
      "type": "function"
    },
    {
      "inputs": [
        {
          "internalType": "enum PremiumNFT.SUBSCRIPTION_PLAN",
          "name": "subscriptionPlan",
          "type": "uint8"
        }
      ],
      "name": "getSubscriptionPlan",
      "outputs": [
        {
          "internalType": "uint256",
          "name": "",
          "type": "uint256"
        }
      ],
      "stateMutability": "view",
      "type": "function"
    },
    {
      "inputs": [
        {
          "internalType": "address",
          "name": "owner",
          "type": "address"
        },
        {
          "internalType": "address",
          "name": "operator",
          "type": "address"
        }
      ],
      "name": "isApprovedForAll",
      "outputs": [
        {
          "internalType": "bool",
          "name": "",
          "type": "bool"
        }
      ],
      "stateMutability": "view",
      "type": "function"
    },
    {
      "inputs": [
        {
          "internalType": "uint256",
          "name": "_tokenId",
          "type": "uint256"
        }
      ],
      "name": "isExpired",
      "outputs": [
        {
          "internalType": "bool",
          "name": "",
          "type": "bool"
        }
      ],
      "stateMutability": "view",
      "type": "function"
    },
    {
      "inputs": [],
      "name": "name",
      "outputs": [
        {
          "internalType": "string",
          "name": "",
          "type": "string"
        }
      ],
      "stateMutability": "view",
      "type": "function"
    },
    {
      "inputs": [],
      "name": "owner",
      "outputs": [
        {
          "internalType": "address",
          "name": "",
          "type": "address"
        }
      ],
      "stateMutability": "view",
      "type": "function"
    },
    {
      "inputs": [
        {
          "internalType": "uint256",
          "name": "tokenId",
          "type": "uint256"
        }
      ],
      "name": "ownerOf",
      "outputs": [
        {
          "internalType": "address",
          "name": "",
          "type": "address"
        }
      ],
      "stateMutability": "view",
      "type": "function"
    },
    {
      "inputs": [],
      "name": "renounceOwnership",
      "outputs": [],
      "stateMutability": "nonpayable",
      "type": "function"
    },
    {
      "inputs": [
        {
          "internalType": "address",
          "name": "from",
          "type": "address"
        },
        {
          "internalType": "address",
          "name": "to",
          "type": "address"
        },
        {
          "internalType": "uint256",
          "name": "tokenId",
          "type": "uint256"
        }
      ],
      "name": "safeTransferFrom",
      "outputs": [],
      "stateMutability": "nonpayable",
      "type": "function"
    },
    {
      "inputs": [
        {
          "internalType": "address",
          "name": "from",
          "type": "address"
        },
        {
          "internalType": "address",
          "name": "to",
          "type": "address"
        },
        {
          "internalType": "uint256",
          "name": "tokenId",
          "type": "uint256"
        },
        {
          "internalType": "bytes",
          "name": "_data",
          "type": "bytes"
        }
      ],
      "name": "safeTransferFrom",
      "outputs": [],
      "stateMutability": "nonpayable",
      "type": "function"
    },
    {
      "inputs": [
        {
          "internalType": "address",
          "name": "operator",
          "type": "address"
        },
        {
          "internalType": "bool",
          "name": "approved",
          "type": "bool"
        }
      ],
      "name": "setApprovalForAll",
      "outputs": [],
      "stateMutability": "nonpayable",
      "type": "function"
    },
    {
      "inputs": [
        {
          "internalType": "enum PremiumNFT.SUBSCRIPTION_PLAN",
          "name": "subscriptionPlan",
          "type": "uint8"
        }
      ],
      "name": "subscribe",
      "outputs": [],
      "stateMutability": "payable",
      "type": "function"
    },
    {
      "inputs": [
        {
          "internalType": "bytes4",
          "name": "interfaceId",
          "type": "bytes4"
        }
      ],
      "name": "supportsInterface",
      "outputs": [
        {
          "internalType": "bool",
          "name": "",
          "type": "bool"
        }
      ],
      "stateMutability": "view",
      "type": "function"
    },
    {
      "inputs": [],
      "name": "symbol",
      "outputs": [
        {
          "internalType": "string",
          "name": "",
          "type": "string"
        }
      ],
      "stateMutability": "view",
      "type": "function"
    },
    {
      "inputs": [
        {
          "internalType": "uint256",
          "name": "tokenId",
          "type": "uint256"
        }
      ],
      "name": "tokenURI",
      "outputs": [
        {
          "internalType": "string",
          "name": "",
          "type": "string"
        }
      ],
      "stateMutability": "view",
      "type": "function"
    },
    {
      "inputs": [
        {
          "internalType": "address",
          "name": "from",
          "type": "address"
        },
        {
          "internalType": "address",
          "name": "to",
          "type": "address"
        },
        {
          "internalType": "uint256",
          "name": "tokenId",
          "type": "uint256"
        }
      ],
      "name": "transferFrom",
      "outputs": [],
      "stateMutability": "nonpayable",
      "type": "function"
    },
    {
      "inputs": [
        {
          "internalType": "address",
          "name": "newOwner",
          "type": "address"
        }
      ],
      "name": "transferOwnership",
      "outputs": [],
      "stateMutability": "nonpayable",
      "type": "function"
    }
  ],
  "bytecode": "0x60806040523480156200001157600080fd5b5060405162004480380380620044808339818101604052810190620000379190620006f3565b6040518060400160405280600a81526020017f5072656d69756d4e4654000000000000000000000000000000000000000000008152506040518060400160405280600381526020017f50534300000000000000000000000000000000000000000000000000000000008152508160009081620000b49190620009b9565b508060019081620000c69190620009b9565b5050506001600781905550620000f1620000e56200023d60201b60201c565b6200024560201b60201c565b8160099081620001029190620009b9565b50806000815181106200011a576200011962000aa0565b5b6020026020010151600c60008060028111156200013c576200013b62000acf565b5b600281111562000151576200015062000acf565b5b815260200190815260200160002081905550806001815181106200017a576200017962000aa0565b5b6020026020010151600c6000600160028111156200019d576200019c62000acf565b5b6002811115620001b257620001b162000acf565b5b81526020019081526020016000208190555080600281518110620001db57620001da62000aa0565b5b6020026020010151600c6000600280811115620001fd57620001fc62000acf565b5b600281111562000212576200021162000acf565b5b81526020019081526020016000208190555062000235326200030b60201b60201c565b505062000c19565b600033905090565b6000600860009054906101000a900473ffffffffffffffffffffffffffffffffffffffff16905081600860006101000a81548173ffffffffffffffffffffffffffffffffffffffff021916908373ffffffffffffffffffffffffffffffffffffffff1602179055508173ffffffffffffffffffffffffffffffffffffffff168173ffffffffffffffffffffffffffffffffffffffff167f8be0079c531659141344cd1fd0a4f28419497f9722a3daafe3b4186f6b6457e060405160405180910390a35050565b6200031b6200023d60201b60201c565b73ffffffffffffffffffffffffffffffffffffffff16620003416200042060201b60201c565b73ffffffffffffffffffffffffffffffffffffffff16146200039a576040517f08c379a0000000000000000000000000000000000000000000000000000000008152600401620003919062000b5f565b60405180910390fd5b600073ffffffffffffffffffffffffffffffffffffffff168173ffffffffffffffffffffffffffffffffffffffff16036200040c576040517f08c379a0000000000000000000000000000000000000000000000000000000008152600401620004039062000bf7565b60405180910390fd5b6200041d816200024560201b60201c565b50565b6000600860009054906101000a900473ffffffffffffffffffffffffffffffffffffffff16905090565b6000604051905090565b600080fd5b600080fd5b600080fd5b600080fd5b6000601f19601f8301169050919050565b7f4e487b7100000000000000000000000000000000000000000000000000000000600052604160045260246000fd5b620004b38262000468565b810181811067ffffffffffffffff82111715620004d557620004d462000479565b5b80604052505050565b6000620004ea6200044a565b9050620004f88282620004a8565b919050565b600067ffffffffffffffff8211156200051b576200051a62000479565b5b620005268262000468565b9050602081019050919050565b60005b838110156200055357808201518184015260208101905062000536565b60008484015250505050565b6000620005766200057084620004fd565b620004de565b90508281526020810184848401111562000595576200059462000463565b5b620005a284828562000533565b509392505050565b600082601f830112620005c257620005c16200045e565b5b8151620005d48482602086016200055f565b91505092915050565b600067ffffffffffffffff821115620005fb57620005fa62000479565b5b602082029050602081019050919050565b600080fd5b6000819050919050565b620006268162000611565b81146200063257600080fd5b50565b60008151905062000646816200061b565b92915050565b6000620006636200065d84620005dd565b620004de565b905080838252602082019050602084028301858111156200068957620006886200060c565b5b835b81811015620006b65780620006a1888262000635565b8452602084019350506020810190506200068b565b5050509392505050565b600082601f830112620006d857620006d76200045e565b5b8151620006ea8482602086016200064c565b91505092915050565b600080604083850312156200070d576200070c62000454565b5b600083015167ffffffffffffffff8111156200072e576200072d62000459565b5b6200073c85828601620005aa565b925050602083015167ffffffffffffffff81111562000760576200075f62000459565b5b6200076e85828601620006c0565b9150509250929050565b600081519050919050565b7f4e487b7100000000000000000000000000000000000000000000000000000000600052602260045260246000fd5b60006002820490506001821680620007cb57607f821691505b602082108103620007e157620007e062000783565b5b50919050565b60008190508160005260206000209050919050565b60006020601f8301049050919050565b600082821b905092915050565b6000600883026200084b7fffffffffffffffffffffffffffffffffffffffffffffffffffffffffffffffff826200080c565b6200085786836200080c565b95508019841693508086168417925050509392505050565b6000819050919050565b60006200089a620008946200088e8462000611565b6200086f565b62000611565b9050919050565b6000819050919050565b620008b68362000879565b620008ce620008c582620008a1565b84845462000819565b825550505050565b600090565b620008e5620008d6565b620008f2818484620008ab565b505050565b5b818110156200091a576200090e600082620008db565b600181019050620008f8565b5050565b601f82111562000969576200093381620007e7565b6200093e84620007fc565b810160208510156200094e578190505b620009666200095d85620007fc565b830182620008f7565b50505b505050565b600082821c905092915050565b60006200098e600019846008026200096e565b1980831691505092915050565b6000620009a983836200097b565b9150826002028217905092915050565b620009c48262000778565b67ffffffffffffffff811115620009e057620009df62000479565b5b620009ec8254620007b2565b620009f98282856200091e565b600060209050601f83116001811462000a31576000841562000a1c578287015190505b62000a2885826200099b565b86555062000a98565b601f19841662000a4186620007e7565b60005b8281101562000a6b5784890151825560018201915060208501945060208101905062000a44565b8683101562000a8b578489015162000a87601f8916826200097b565b8355505b6001600288020188555050505b505050505050565b7f4e487b7100000000000000000000000000000000000000000000000000000000600052603260045260246000fd5b7f4e487b7100000000000000000000000000000000000000000000000000000000600052602160045260246000fd5b600082825260208201905092915050565b7f4f776e61626c653a2063616c6c6572206973206e6f7420746865206f776e6572600082015250565b600062000b4760208362000afe565b915062000b548262000b0f565b602082019050919050565b6000602082019050818103600083015262000b7a8162000b38565b9050919050565b7f4f776e61626c653a206e6577206f776e657220697320746865207a65726f206160008201527f6464726573730000000000000000000000000000000000000000000000000000602082015250565b600062000bdf60268362000afe565b915062000bec8262000b81565b604082019050919050565b6000602082019050818103600083015262000c128162000bd0565b9050919050565b6138578062000c296000396000f3fe60806040526004361061012a5760003560e01c8063715018a6116100ab578063a22cb4651161006f578063a22cb465146103f7578063b88d4fde14610420578063c87b56dd14610449578063d9548e5314610486578063e985e9c5146104c3578063f2fde38b146105005761012a565b8063715018a61461032257806378ce9035146103395780637c514240146103645780638da5cb5b146103a157806395d89b41146103cc5761012a565b806323b872dd116100f257806323b872dd1461023a57806342842e0e1461026357806349c7e6391461028c5780636352211e146102a857806370a08231146102e55761012a565b806301ffc9a71461012f57806305d58d4a1461016c57806306fdde03146101a9578063081812fc146101d4578063095ea7b314610211575b600080fd5b34801561013b57600080fd5b506101566004803603810190610151919061215c565b610529565b60405161016391906121a4565b60405180910390f35b34801561017857600080fd5b50610193600480360381019061018e91906121e4565b61060b565b6040516101a0919061222a565b60405180910390f35b3480156101b557600080fd5b506101be61064c565b6040516101cb91906122d5565b60405180910390f35b3480156101e057600080fd5b506101fb60048036038101906101f69190612323565b6106de565b6040516102089190612391565b60405180910390f35b34801561021d57600080fd5b50610238600480360381019061023391906123d8565b610763565b005b34801561024657600080fd5b50610261600480360381019061025c9190612418565b61087a565b005b34801561026f57600080fd5b5061028a60048036038101906102859190612418565b6108da565b005b6102a660048036038101906102a191906121e4565b6108fa565b005b3480156102b457600080fd5b506102cf60048036038101906102ca9190612323565b610c4c565b6040516102dc9190612391565b60405180910390f35b3480156102f157600080fd5b5061030c6004803603810190610307919061246b565b610cfd565b604051610319919061222a565b60405180910390f35b34801561032e57600080fd5b50610337610db4565b005b34801561034557600080fd5b5061034e610e3c565b60405161035b91906122d5565b60405180910390f35b34801561037057600080fd5b5061038b60048036038101906103869190612323565b610eca565b604051610398919061222a565b60405180910390f35b3480156103ad57600080fd5b506103b6610ee7565b6040516103c39190612391565b60405180910390f35b3480156103d857600080fd5b506103e1610f11565b6040516103ee91906122d5565b60405180910390f35b34801561040357600080fd5b5061041e600480360381019061041991906124c4565b610fa3565b005b34801561042c57600080fd5b5061044760048036038101906104429190612639565b611123565b005b34801561045557600080fd5b50610470600480360381019061046b9190612323565b611185565b60405161047d91906122d5565b60405180910390f35b34801561049257600080fd5b506104ad60048036038101906104a89190612323565b6112d6565b6040516104ba91906121a4565b60405180910390f35b3480156104cf57600080fd5b506104ea60048036038101906104e591906126bc565b611303565b6040516104f791906121a4565b60405180910390f35b34801561050c57600080fd5b506105276004803603810190610522919061246b565b611397565b005b60007f80ac58cd000000000000000000000000000000000000000000000000000000007bffffffffffffffffffffffffffffffffffffffffffffffffffffffff1916827bffffffffffffffffffffffffffffffffffffffffffffffffffffffff191614806105f457507f5b5e139f000000000000000000000000000000000000000000000000000000007bffffffffffffffffffffffffffffffffffffffffffffffffffffffff1916827bffffffffffffffffffffffffffffffffffffffffffffffffffffffff1916145b8061060457506106038261148e565b5b9050919050565b6000600c6000836002811115610624576106236126fc565b5b6002811115610636576106356126fc565b5b8152602001908152602001600020549050919050565b60606000805461065b9061275a565b80601f01602080910402602001604051908101604052809291908181526020018280546106879061275a565b80156106d45780601f106106a9576101008083540402835291602001916106d4565b820191906000526020600020905b8154815290600101906020018083116106b757829003601f168201915b5050505050905090565b60006106e9826114f8565b610728576040517f08c379a000000000000000000000000000000000000000000000000000000000815260040161071f906127fd565b60405180910390fd5b6004600083815260200190815260200160002060009054906101000a900473ffffffffffffffffffffffffffffffffffffffff169050919050565b600061076e82610c4c565b90508073ffffffffffffffffffffffffffffffffffffffff168373ffffffffffffffffffffffffffffffffffffffff16036107de576040517f08c379a00000000000000000000000000000000000000000000000000000000081526004016107d59061288f565b60405180910390fd5b8073ffffffffffffffffffffffffffffffffffffffff166107fd611564565b73ffffffffffffffffffffffffffffffffffffffff16148061082c575061082b81610826611564565b611303565b5b61086b576040517f08c379a000000000000000000000000000000000000000000000000000000000815260040161086290612921565b60405180910390fd5b610875838361156c565b505050565b61088b610885611564565b82611625565b6108ca576040517f08c379a00000000000000000000000000000000000000000000000000000000081526004016108c1906129b3565b60405180910390fd5b6108d5838383611703565b505050565b6108f583838360405180602001604052806000815250611123565b505050565b60026007540361093f576040517f08c379a000000000000000000000000000000000000000000000000000000000815260040161093690612a1f565b60405180910390fd5b60026007819055506000600c60008360028111156109605761095f6126fc565b5b6002811115610972576109716126fc565b5b81526020019081526020016000205490508034146109c5576040517f08c379a00000000000000000000000000000000000000000000000000000000081526004016109bc90612a8b565b60405180910390fd5b60006109cf610ee7565b73ffffffffffffffffffffffffffffffffffffffff16826040516109f290612adc565b60006040518083038185875af1925050503d8060008114610a2f576040519150601f19603f3d011682016040523d82523d6000602084013e610a34565b606091505b5050905080610a78576040517f08c379a0000000000000000000000000000000000000000000000000000000008152600401610a6f90612b3d565b60405180910390fd5b610a8433600a5461195e565b610b1a600a5460098054610a979061275a565b80601f0160208091040260200160405190810160405280929190818152602001828054610ac39061275a565b8015610b105780601f10610ae557610100808354040283529160200191610b10565b820191906000526020600020905b815481529060010190602001808311610af357829003601f168201915b505050505061197c565b60006002811115610b2e57610b2d6126fc565b5b836002811115610b4157610b406126fc565b5b03610b735762093a8042610b559190612b8c565b600b6000600a54815260200190815260200160002081905550610bf6565b60016002811115610b8757610b866126fc565b5b836002811115610b9a57610b996126fc565b5b03610bcc576224ea0042610bae9190612b8c565b600b6000600a54815260200190815260200160002081905550610bf5565b62eff10042610bdb9190612b8c565b600b6000600a548152602001908152602001600020819055505b5b600a600081548092919060010191905055507f0115e57b7618f969c5d53c37e3bb0dc8e1251e449b84bd9e3ee800594fc4771333604051610c379190612391565b60405180910390a15050600160078190555050565b6000806002600084815260200190815260200160002060009054906101000a900473ffffffffffffffffffffffffffffffffffffffff169050600073ffffffffffffffffffffffffffffffffffffffff168173ffffffffffffffffffffffffffffffffffffffff1603610cf4576040517f08c379a0000000000000000000000000000000000000000000000000000000008152600401610ceb90612c32565b60405180910390fd5b80915050919050565b60008073ffffffffffffffffffffffffffffffffffffffff168273ffffffffffffffffffffffffffffffffffffffff1603610d6d576040517f08c379a0000000000000000000000000000000000000000000000000000000008152600401610d6490612cc4565b60405180910390fd5b600360008373ffffffffffffffffffffffffffffffffffffffff1673ffffffffffffffffffffffffffffffffffffffff168152602001908152602001600020549050919050565b610dbc611564565b73ffffffffffffffffffffffffffffffffffffffff16610dda610ee7565b73ffffffffffffffffffffffffffffffffffffffff1614610e30576040517f08c379a0000000000000000000000000000000000000000000000000000000008152600401610e2790612d30565b60405180910390fd5b610e3a60006119e9565b565b60098054610e499061275a565b80601f0160208091040260200160405190810160405280929190818152602001828054610e759061275a565b8015610ec25780601f10610e9757610100808354040283529160200191610ec2565b820191906000526020600020905b815481529060010190602001808311610ea557829003601f168201915b505050505081565b6000600b6000838152602001908152602001600020549050919050565b6000600860009054906101000a900473ffffffffffffffffffffffffffffffffffffffff16905090565b606060018054610f209061275a565b80601f0160208091040260200160405190810160405280929190818152602001828054610f4c9061275a565b8015610f995780601f10610f6e57610100808354040283529160200191610f99565b820191906000526020600020905b815481529060010190602001808311610f7c57829003601f168201915b5050505050905090565b610fab611564565b73ffffffffffffffffffffffffffffffffffffffff168273ffffffffffffffffffffffffffffffffffffffff1603611018576040517f08c379a000000000000000000000000000000000000000000000000000000000815260040161100f90612d9c565b60405180910390fd5b8060056000611025611564565b73ffffffffffffffffffffffffffffffffffffffff1673ffffffffffffffffffffffffffffffffffffffff16815260200190815260200160002060008473ffffffffffffffffffffffffffffffffffffffff1673ffffffffffffffffffffffffffffffffffffffff16815260200190815260200160002060006101000a81548160ff0219169083151502179055508173ffffffffffffffffffffffffffffffffffffffff166110d2611564565b73ffffffffffffffffffffffffffffffffffffffff167f17307eab39ab6107e8899845ad3d59bd9653f200f220920489ca2b5937696c318360405161111791906121a4565b60405180910390a35050565b61113461112e611564565b83611625565b611173576040517f08c379a000000000000000000000000000000000000000000000000000000000815260040161116a906129b3565b60405180910390fd5b61117f84848484611aaf565b50505050565b6060611190826114f8565b6111cf576040517f08c379a00000000000000000000000000000000000000000000000000000000081526004016111c690612e2e565b60405180910390fd5b60006006600084815260200190815260200160002080546111ef9061275a565b80601f016020809104026020016040519081016040528092919081815260200182805461121b9061275a565b80156112685780601f1061123d57610100808354040283529160200191611268565b820191906000526020600020905b81548152906001019060200180831161124b57829003601f168201915b505050505090506000611279611b0b565b9050600081510361128e5781925050506112d1565b6000825111156112c35780826040516020016112ab929190612e8a565b604051602081830303815290604052925050506112d1565b6112cc84611b22565b925050505b919050565b6000600b60008381526020019081526020016000205442116112f95760006112fc565b60015b9050919050565b6000600560008473ffffffffffffffffffffffffffffffffffffffff1673ffffffffffffffffffffffffffffffffffffffff16815260200190815260200160002060008373ffffffffffffffffffffffffffffffffffffffff1673ffffffffffffffffffffffffffffffffffffffff16815260200190815260200160002060009054906101000a900460ff16905092915050565b61139f611564565b73ffffffffffffffffffffffffffffffffffffffff166113bd610ee7565b73ffffffffffffffffffffffffffffffffffffffff1614611413576040517f08c379a000000000000000000000000000000000000000000000000000000000815260040161140a90612d30565b60405180910390fd5b600073ffffffffffffffffffffffffffffffffffffffff168173ffffffffffffffffffffffffffffffffffffffff1603611482576040517f08c379a000000000000000000000000000000000000000000000000000000000815260040161147990612f20565b60405180910390fd5b61148b816119e9565b50565b60007f01ffc9a7000000000000000000000000000000000000000000000000000000007bffffffffffffffffffffffffffffffffffffffffffffffffffffffff1916827bffffffffffffffffffffffffffffffffffffffffffffffffffffffff1916149050919050565b60008073ffffffffffffffffffffffffffffffffffffffff166002600084815260200190815260200160002060009054906101000a900473ffffffffffffffffffffffffffffffffffffffff1673ffffffffffffffffffffffffffffffffffffffff1614159050919050565b600033905090565b816004600083815260200190815260200160002060006101000a81548173ffffffffffffffffffffffffffffffffffffffff021916908373ffffffffffffffffffffffffffffffffffffffff160217905550808273ffffffffffffffffffffffffffffffffffffffff166115df83610c4c565b73ffffffffffffffffffffffffffffffffffffffff167f8c5be1e5ebec7d5bd14f71427d1e84f3dd0314c0f7b2291e5b200ac8c7c3b92560405160405180910390a45050565b6000611630826114f8565b61166f576040517f08c379a000000000000000000000000000000000000000000000000000000000815260040161166690612fb2565b60405180910390fd5b600061167a83610c4c565b90508073ffffffffffffffffffffffffffffffffffffffff168473ffffffffffffffffffffffffffffffffffffffff1614806116e957508373ffffffffffffffffffffffffffffffffffffffff166116d1846106de565b73ffffffffffffffffffffffffffffffffffffffff16145b806116fa57506116f98185611303565b5b91505092915050565b8273ffffffffffffffffffffffffffffffffffffffff1661172382610c4c565b73ffffffffffffffffffffffffffffffffffffffff1614611779576040517f08c379a000000000000000000000000000000000000000000000000000000000815260040161177090613044565b60405180910390fd5b600073ffffffffffffffffffffffffffffffffffffffff168273ffffffffffffffffffffffffffffffffffffffff16036117e8576040517f08c379a00000000000000000000000000000000000000000000000000000000081526004016117df906130d6565b60405180910390fd5b6117f3838383611bc9565b6117fe60008261156c565b6001600360008573ffffffffffffffffffffffffffffffffffffffff1673ffffffffffffffffffffffffffffffffffffffff168152602001908152602001600020600082825461184e91906130f6565b925050819055506001600360008473ffffffffffffffffffffffffffffffffffffffff1673ffffffffffffffffffffffffffffffffffffffff16815260200190815260200160002060008282546118a59190612b8c565b92505081905550816002600083815260200190815260200160002060006101000a81548173ffffffffffffffffffffffffffffffffffffffff021916908373ffffffffffffffffffffffffffffffffffffffff160217905550808273ffffffffffffffffffffffffffffffffffffffff168473ffffffffffffffffffffffffffffffffffffffff167fddf252ad1be2c89b69c2b068fc378daa952ba7f163c4a11628f55a4df523b3ef60405160405180910390a4505050565b611978828260405180602001604052806000815250611bce565b5050565b611985826114f8565b6119c4576040517f08c379a00000000000000000000000000000000000000000000000000000000081526004016119bb9061319c565b60405180910390fd5b806006600084815260200190815260200160002090816119e49190613368565b505050565b6000600860009054906101000a900473ffffffffffffffffffffffffffffffffffffffff16905081600860006101000a81548173ffffffffffffffffffffffffffffffffffffffff021916908373ffffffffffffffffffffffffffffffffffffffff1602179055508173ffffffffffffffffffffffffffffffffffffffff168173ffffffffffffffffffffffffffffffffffffffff167f8be0079c531659141344cd1fd0a4f28419497f9722a3daafe3b4186f6b6457e060405160405180910390a35050565b611aba848484611703565b611ac684848484611c29565b611b05576040517f08c379a0000000000000000000000000000000000000000000000000000000008152600401611afc906134ac565b60405180910390fd5b50505050565b606060405180602001604052806000815250905090565b6060611b2d826114f8565b611b6c576040517f08c379a0000000000000000000000000000000000000000000000000000000008152600401611b639061353e565b60405180910390fd5b6000611b76611b0b565b90506000815111611b965760405180602001604052806000815250611bc1565b80611ba084611db0565b604051602001611bb1929190612e8a565b6040516020818303038152906040525b915050919050565b505050565b611bd88383611f10565b611be56000848484611c29565b611c24576040517f08c379a0000000000000000000000000000000000000000000000000000000008152600401611c1b906134ac565b60405180910390fd5b505050565b6000611c4a8473ffffffffffffffffffffffffffffffffffffffff166120dd565b15611da3578373ffffffffffffffffffffffffffffffffffffffff1663150b7a02611c73611564565b8786866040518563ffffffff1660e01b8152600401611c9594939291906135b3565b6020604051808303816000875af1925050508015611cd157506040513d601f19601f82011682018060405250810190611cce9190613614565b60015b611d53573d8060008114611d01576040519150601f19603f3d011682016040523d82523d6000602084013e611d06565b606091505b506000815103611d4b576040517f08c379a0000000000000000000000000000000000000000000000000000000008152600401611d42906134ac565b60405180910390fd5b805181602001fd5b63150b7a0260e01b7bffffffffffffffffffffffffffffffffffffffffffffffffffffffff1916817bffffffffffffffffffffffffffffffffffffffffffffffffffffffff191614915050611da8565b600190505b949350505050565b606060008203611df7576040518060400160405280600181526020017f30000000000000000000000000000000000000000000000000000000000000008152509050611f0b565b600082905060005b60008214611e29578080611e1290613641565b915050600a82611e2291906136b8565b9150611dff565b60008167ffffffffffffffff811115611e4557611e4461250e565b5b6040519080825280601f01601f191660200182016040528015611e775781602001600182028036833780820191505090505b5090505b60008514611f0457600182611e9091906130f6565b9150600a85611e9f91906136e9565b6030611eab9190612b8c565b60f81b818381518110611ec157611ec061371a565b5b60200101907effffffffffffffffffffffffffffffffffffffffffffffffffffffffffffff1916908160001a905350600a85611efd91906136b8565b9450611e7b565b8093505050505b919050565b600073ffffffffffffffffffffffffffffffffffffffff168273ffffffffffffffffffffffffffffffffffffffff1603611f7f576040517f08c379a0000000000000000000000000000000000000000000000000000000008152600401611f7690613795565b60405180910390fd5b611f88816114f8565b15611fc8576040517f08c379a0000000000000000000000000000000000000000000000000000000008152600401611fbf90613801565b60405180910390fd5b611fd460008383611bc9565b6001600360008473ffffffffffffffffffffffffffffffffffffffff1673ffffffffffffffffffffffffffffffffffffffff16815260200190815260200160002060008282546120249190612b8c565b92505081905550816002600083815260200190815260200160002060006101000a81548173ffffffffffffffffffffffffffffffffffffffff021916908373ffffffffffffffffffffffffffffffffffffffff160217905550808273ffffffffffffffffffffffffffffffffffffffff16600073ffffffffffffffffffffffffffffffffffffffff167fddf252ad1be2c89b69c2b068fc378daa952ba7f163c4a11628f55a4df523b3ef60405160405180910390a45050565b600080823b905060008111915050919050565b6000604051905090565b600080fd5b600080fd5b60007fffffffff0000000000000000000000000000000000000000000000000000000082169050919050565b61213981612104565b811461214457600080fd5b50565b60008135905061215681612130565b92915050565b600060208284031215612172576121716120fa565b5b600061218084828501612147565b91505092915050565b60008115159050919050565b61219e81612189565b82525050565b60006020820190506121b96000830184612195565b92915050565b600381106121cc57600080fd5b50565b6000813590506121de816121bf565b92915050565b6000602082840312156121fa576121f96120fa565b5b6000612208848285016121cf565b91505092915050565b6000819050919050565b61222481612211565b82525050565b600060208201905061223f600083018461221b565b92915050565b600081519050919050565b600082825260208201905092915050565b60005b8381101561227f578082015181840152602081019050612264565b60008484015250505050565b6000601f19601f8301169050919050565b60006122a782612245565b6122b18185612250565b93506122c1818560208601612261565b6122ca8161228b565b840191505092915050565b600060208201905081810360008301526122ef818461229c565b905092915050565b61230081612211565b811461230b57600080fd5b50565b60008135905061231d816122f7565b92915050565b600060208284031215612339576123386120fa565b5b60006123478482850161230e565b91505092915050565b600073ffffffffffffffffffffffffffffffffffffffff82169050919050565b600061237b82612350565b9050919050565b61238b81612370565b82525050565b60006020820190506123a66000830184612382565b92915050565b6123b581612370565b81146123c057600080fd5b50565b6000813590506123d2816123ac565b92915050565b600080604083850312156123ef576123ee6120fa565b5b60006123fd858286016123c3565b925050602061240e8582860161230e565b9150509250929050565b600080600060608486031215612431576124306120fa565b5b600061243f868287016123c3565b9350506020612450868287016123c3565b92505060406124618682870161230e565b9150509250925092565b600060208284031215612481576124806120fa565b5b600061248f848285016123c3565b91505092915050565b6124a181612189565b81146124ac57600080fd5b50565b6000813590506124be81612498565b92915050565b600080604083850312156124db576124da6120fa565b5b60006124e9858286016123c3565b92505060206124fa858286016124af565b9150509250929050565b600080fd5b600080fd5b7f4e487b7100000000000000000000000000000000000000000000000000000000600052604160045260246000fd5b6125468261228b565b810181811067ffffffffffffffff821117156125655761256461250e565b5b80604052505050565b60006125786120f0565b9050612584828261253d565b919050565b600067ffffffffffffffff8211156125a4576125a361250e565b5b6125ad8261228b565b9050602081019050919050565b82818337600083830152505050565b60006125dc6125d784612589565b61256e565b9050828152602081018484840111156125f8576125f7612509565b5b6126038482856125ba565b509392505050565b600082601f8301126126205761261f612504565b5b81356126308482602086016125c9565b91505092915050565b60008060008060808587031215612653576126526120fa565b5b6000612661878288016123c3565b9450506020612672878288016123c3565b93505060406126838782880161230e565b925050606085013567ffffffffffffffff8111156126a4576126a36120ff565b5b6126b08782880161260b565b91505092959194509250565b600080604083850312156126d3576126d26120fa565b5b60006126e1858286016123c3565b92505060206126f2858286016123c3565b9150509250929050565b7f4e487b7100000000000000000000000000000000000000000000000000000000600052602160045260246000fd5b7f4e487b7100000000000000000000000000000000000000000000000000000000600052602260045260246000fd5b6000600282049050600182168061277257607f821691505b6020821081036127855761278461272b565b5b50919050565b7f4552433732313a20617070726f76656420717565727920666f72206e6f6e657860008201527f697374656e7420746f6b656e0000000000000000000000000000000000000000602082015250565b60006127e7602c83612250565b91506127f28261278b565b604082019050919050565b60006020820190508181036000830152612816816127da565b9050919050565b7f4552433732313a20617070726f76616c20746f2063757272656e74206f776e6560008201527f7200000000000000000000000000000000000000000000000000000000000000602082015250565b6000612879602183612250565b91506128848261281d565b604082019050919050565b600060208201905081810360008301526128a88161286c565b9050919050565b7f4552433732313a20617070726f76652063616c6c6572206973206e6f74206f7760008201527f6e6572206e6f7220617070726f76656420666f7220616c6c0000000000000000602082015250565b600061290b603883612250565b9150612916826128af565b604082019050919050565b6000602082019050818103600083015261293a816128fe565b9050919050565b7f4552433732313a207472616e736665722063616c6c6572206973206e6f74206f60008201527f776e6572206e6f7220617070726f766564000000000000000000000000000000602082015250565b600061299d603183612250565b91506129a882612941565b604082019050919050565b600060208201905081810360008301526129cc81612990565b9050919050565b7f5265656e7472616e637947756172643a207265656e7472616e742063616c6c00600082015250565b6000612a09601f83612250565b9150612a14826129d3565b602082019050919050565b60006020820190508181036000830152612a38816129fc565b9050919050565b7f537562736372697074696f6e2046656520697320696e73756666696369656e74600082015250565b6000612a75602083612250565b9150612a8082612a3f565b602082019050919050565b60006020820190508181036000830152612aa481612a68565b9050919050565b600081905092915050565b50565b6000612ac6600083612aab565b9150612ad182612ab6565b600082019050919050565b6000612ae782612ab9565b9150819050919050565b7f5472616e73666572206661696c65640000000000000000000000000000000000600082015250565b6000612b27600f83612250565b9150612b3282612af1565b602082019050919050565b60006020820190508181036000830152612b5681612b1a565b9050919050565b7f4e487b7100000000000000000000000000000000000000000000000000000000600052601160045260246000fd5b6000612b9782612211565b9150612ba283612211565b9250828201905080821115612bba57612bb9612b5d565b5b92915050565b7f4552433732313a206f776e657220717565727920666f72206e6f6e657869737460008201527f656e7420746f6b656e0000000000000000000000000000000000000000000000602082015250565b6000612c1c602983612250565b9150612c2782612bc0565b604082019050919050565b60006020820190508181036000830152612c4b81612c0f565b9050919050565b7f4552433732313a2062616c616e636520717565727920666f7220746865207a6560008201527f726f206164647265737300000000000000000000000000000000000000000000602082015250565b6000612cae602a83612250565b9150612cb982612c52565b604082019050919050565b60006020820190508181036000830152612cdd81612ca1565b9050919050565b7f4f776e61626c653a2063616c6c6572206973206e6f7420746865206f776e6572600082015250565b6000612d1a602083612250565b9150612d2582612ce4565b602082019050919050565b60006020820190508181036000830152612d4981612d0d565b9050919050565b7f4552433732313a20617070726f766520746f2063616c6c657200000000000000600082015250565b6000612d86601983612250565b9150612d9182612d50565b602082019050919050565b60006020820190508181036000830152612db581612d79565b9050919050565b7f45524337323155524953746f726167653a2055524920717565727920666f722060008201527f6e6f6e6578697374656e7420746f6b656e000000000000000000000000000000602082015250565b6000612e18603183612250565b9150612e2382612dbc565b604082019050919050565b60006020820190508181036000830152612e4781612e0b565b9050919050565b600081905092915050565b6000612e6482612245565b612e6e8185612e4e565b9350612e7e818560208601612261565b80840191505092915050565b6000612e968285612e59565b9150612ea28284612e59565b91508190509392505050565b7f4f776e61626c653a206e6577206f776e657220697320746865207a65726f206160008201527f6464726573730000000000000000000000000000000000000000000000000000602082015250565b6000612f0a602683612250565b9150612f1582612eae565b604082019050919050565b60006020820190508181036000830152612f3981612efd565b9050919050565b7f4552433732313a206f70657261746f7220717565727920666f72206e6f6e657860008201527f697374656e7420746f6b656e0000000000000000000000000000000000000000602082015250565b6000612f9c602c83612250565b9150612fa782612f40565b604082019050919050565b60006020820190508181036000830152612fcb81612f8f565b9050919050565b7f4552433732313a207472616e73666572206f6620746f6b656e2074686174206960008201527f73206e6f74206f776e0000000000000000000000000000000000000000000000602082015250565b600061302e602983612250565b915061303982612fd2565b604082019050919050565b6000602082019050818103600083015261305d81613021565b9050919050565b7f4552433732313a207472616e7366657220746f20746865207a65726f2061646460008201527f7265737300000000000000000000000000000000000000000000000000000000602082015250565b60006130c0602483612250565b91506130cb82613064565b604082019050919050565b600060208201905081810360008301526130ef816130b3565b9050919050565b600061310182612211565b915061310c83612211565b925082820390508181111561312457613123612b5d565b5b92915050565b7f45524337323155524953746f726167653a2055524920736574206f66206e6f6e60008201527f6578697374656e7420746f6b656e000000000000000000000000000000000000602082015250565b6000613186602e83612250565b91506131918261312a565b604082019050919050565b600060208201905081810360008301526131b581613179565b9050919050565b60008190508160005260206000209050919050565b60006020601f8301049050919050565b600082821b905092915050565b60006008830261321e7fffffffffffffffffffffffffffffffffffffffffffffffffffffffffffffffff826131e1565b61322886836131e1565b95508019841693508086168417925050509392505050565b6000819050919050565b600061326561326061325b84612211565b613240565b612211565b9050919050565b6000819050919050565b61327f8361324a565b61329361328b8261326c565b8484546131ee565b825550505050565b600090565b6132a861329b565b6132b3818484613276565b505050565b5b818110156132d7576132cc6000826132a0565b6001810190506132b9565b5050565b601f82111561331c576132ed816131bc565b6132f6846131d1565b81016020851015613305578190505b613319613311856131d1565b8301826132b8565b50505b505050565b600082821c905092915050565b600061333f60001984600802613321565b1980831691505092915050565b6000613358838361332e565b9150826002028217905092915050565b61337182612245565b67ffffffffffffffff81111561338a5761338961250e565b5b613394825461275a565b61339f8282856132db565b600060209050601f8311600181146133d257600084156133c0578287015190505b6133ca858261334c565b865550613432565b601f1984166133e0866131bc565b60005b82811015613408578489015182556001820191506020850194506020810190506133e3565b868310156134255784890151613421601f89168261332e565b8355505b6001600288020188555050505b505050505050565b7f4552433732313a207472616e7366657220746f206e6f6e20455243373231526560008201527f63656976657220696d706c656d656e7465720000000000000000000000000000602082015250565b6000613496603283612250565b91506134a18261343a565b604082019050919050565b600060208201905081810360008301526134c581613489565b9050919050565b7f4552433732314d657461646174613a2055524920717565727920666f72206e6f60008201527f6e6578697374656e7420746f6b656e0000000000000000000000000000000000602082015250565b6000613528602f83612250565b9150613533826134cc565b604082019050919050565b600060208201905081810360008301526135578161351b565b9050919050565b600081519050919050565b600082825260208201905092915050565b60006135858261355e565b61358f8185613569565b935061359f818560208601612261565b6135a88161228b565b840191505092915050565b60006080820190506135c86000830187612382565b6135d56020830186612382565b6135e2604083018561221b565b81810360608301526135f4818461357a565b905095945050505050565b60008151905061360e81612130565b92915050565b60006020828403121561362a576136296120fa565b5b6000613638848285016135ff565b91505092915050565b600061364c82612211565b91507fffffffffffffffffffffffffffffffffffffffffffffffffffffffffffffffff820361367e5761367d612b5d565b5b600182019050919050565b7f4e487b7100000000000000000000000000000000000000000000000000000000600052601260045260246000fd5b60006136c382612211565b91506136ce83612211565b9250826136de576136dd613689565b5b828204905092915050565b60006136f482612211565b91506136ff83612211565b92508261370f5761370e613689565b5b828206905092915050565b7f4e487b7100000000000000000000000000000000000000000000000000000000600052603260045260246000fd5b7f4552433732313a206d696e7420746f20746865207a65726f2061646472657373600082015250565b600061377f602083612250565b915061378a82613749565b602082019050919050565b600060208201905081810360008301526137ae81613772565b9050919050565b7f4552433732313a20746f6b656e20616c7265616479206d696e74656400000000600082015250565b60006137eb601c83612250565b91506137f6826137b5565b602082019050919050565b6000602082019050818103600083015261381a816137de565b905091905056fea2646970667358221220c7701c93a19e2357cdaea531ec4339cd2a5bdca181a04fb8c3f8b1b80a608cab64736f6c63430008130033",
  "linkReferences": {},
  "deployedLinkReferences": {}
}