{
  "_format": "hh-sol-artifact-1",
  "contractName": "MysteryBox",
  "sourceName": "contracts/MysteryBox.sol",
  "abi": [
    {
      "inputs": [
        {
          "internalType": "string",
          "name": "name",
          "type": "string"
        },
        {
          "internalType": "string",
          "name": "symbol",
          "type": "string"
        },
        {
          "internalType": "string",
          "name": "unrevealedURI",
          "type": "string"
        },
        {
          "internalType": "uint256",
          "name": "maxSupply",
          "type": "uint256"
        },
        {
          "internalType": "uint256",
          "name": "maxMintPerUser",
          "type": "uint256"
        },
        {
          "internalType": "uint256",
          "name": "fee",
          "type": "uint256"
        },
        {
          "internalType": "bytes32",
          "name": "whitelistRoot",
          "type": "bytes32"
        },
        {
          "internalType": "uint64",
          "name": "vrfSubscriptionId",
          "type": "uint64"
        }
      ],
      "stateMutability": "nonpayable",
      "type": "constructor"
    },
    {
      "inputs": [],
      "name": "FailedToWithdrawFunds",
      "type": "error"
    },
    {
      "inputs": [],
      "name": "InsufficientValue",
      "type": "error"
    },
    {
      "inputs": [],
      "name": "LimitPerUserExceeded",
      "type": "error"
    },
    {
      "inputs": [],
      "name": "NotAllowed",
      "type": "error"
    },
    {
      "inputs": [],
      "name": "NotEligible",
      "type": "error"
    },
    {
      "inputs": [
        {
          "internalType": "address",
          "name": "have",
          "type": "address"
        },
        {
          "internalType": "address",
          "name": "want",
          "type": "address"
        }
      ],
      "name": "OnlyCoordinatorCanFulfill",
      "type": "error"
    },
    {
      "inputs": [],
      "name": "ZeroAmount",
      "type": "error"
    },
    {
      "anonymous": false,
      "inputs": [
        {
          "indexed": true,
          "internalType": "address",
          "name": "owner",
          "type": "address"
        },
        {
          "indexed": true,
          "internalType": "address",
          "name": "approved",
          "type": "address"
        },
        {
          "indexed": true,
          "internalType": "uint256",
          "name": "tokenId",
          "type": "uint256"
        }
      ],
      "name": "Approval",
      "type": "event"
    },
    {
      "anonymous": false,
      "inputs": [
        {
          "indexed": true,
          "internalType": "address",
          "name": "owner",
          "type": "address"
        },
        {
          "indexed": true,
          "internalType": "address",
          "name": "operator",
          "type": "address"
        },
        {
          "indexed": false,
          "internalType": "bool",
          "name": "approved",
          "type": "bool"
        }
      ],
      "name": "ApprovalForAll",
      "type": "event"
    },
    {
      "anonymous": false,
      "inputs": [
        {
          "indexed": true,
          "internalType": "address",
          "name": "previousOwner",
          "type": "address"
        },
        {
          "indexed": true,
          "internalType": "address",
          "name": "newOwner",
          "type": "address"
        }
      ],
      "name": "OwnershipTransferred",
      "type": "event"
    },
    {
      "anonymous": false,
      "inputs": [
        {
          "indexed": false,
          "internalType": "uint256",
          "name": "requestId",
          "type": "uint256"
        }
      ],
      "name": "RandomnessRequest",
      "type": "event"
    },
    {
      "anonymous": false,
      "inputs": [
        {
          "indexed": true,
          "internalType": "address",
          "name": "from",
          "type": "address"
        },
        {
          "indexed": true,
          "internalType": "address",
          "name": "to",
          "type": "address"
        },
        {
          "indexed": true,
          "internalType": "uint256",
          "name": "tokenId",
          "type": "uint256"
        }
      ],
      "name": "Transfer",
      "type": "event"
    },
    {
      "inputs": [
        {
          "internalType": "address",
          "name": "to",
          "type": "address"
        },
        {
          "internalType": "uint256",
          "name": "tokenId",
          "type": "uint256"
        }
      ],
      "name": "approve",
      "outputs": [],
      "stateMutability": "nonpayable",
      "type": "function"
    },
    {
      "inputs": [],
      "name": "automation",
      "outputs": [
        {
          "internalType": "address",
          "name": "",
          "type": "address"
        }
      ],
      "stateMutability": "view",
      "type": "function"
    },
    {
      "inputs": [
        {
          "internalType": "address",
          "name": "owner",
          "type": "address"
        }
      ],
      "name": "balanceOf",
      "outputs": [
        {
          "internalType": "uint256",
          "name": "",
          "type": "uint256"
        }
      ],
      "stateMutability": "view",
      "type": "function"
    },
    {
      "inputs": [
        {
          "internalType": "uint256",
          "name": "tokenId",
          "type": "uint256"
        }
      ],
      "name": "getApproved",
      "outputs": [
        {
          "internalType": "address",
          "name": "",
          "type": "address"
        }
      ],
      "stateMutability": "view",
      "type": "function"
    },
    {
      "inputs": [],
      "name": "getBaseURI",
      "outputs": [
        {
          "internalType": "string",
          "name": "",
          "type": "string"
        }
      ],
      "stateMutability": "view",
      "type": "function"
    },
    {
      "inputs": [],
      "name": "getFee",
      "outputs": [
        {
          "internalType": "uint256",
          "name": "",
          "type": "uint256"
        }
      ],
      "stateMutability": "view",
      "type": "function"
    },
    {
      "inputs": [],
      "name": "getProvenanceHash",
      "outputs": [
        {
          "internalType": "string",
          "name": "",
          "type": "string"
        }
      ],
      "stateMutability": "view",
      "type": "function"
    },
    {
      "inputs": [],
      "name": "getWhitelistRoot",
      "outputs": [
        {
          "internalType": "bytes32",
          "name": "",
          "type": "bytes32"
        }
      ],
      "stateMutability": "view",
      "type": "function"
    },
    {
      "inputs": [],
      "name": "i_maxMintPerUser",
      "outputs": [
        {
          "internalType": "uint256",
          "name": "",
          "type": "uint256"
        }
      ],
      "stateMutability": "view",
      "type": "function"
    },
    {
      "inputs": [],
      "name": "i_maxSupply",
      "outputs": [
        {
          "internalType": "uint256",
          "name": "",
          "type": "uint256"
        }
      ],
      "stateMutability": "view",
      "type": "function"
    },
    {
      "inputs": [],
      "name": "i_vrfSubscriptionId",
      "outputs": [
        {
          "internalType": "uint64",
          "name": "",
          "type": "uint64"
        }
      ],
      "stateMutability": "view",
      "type": "function"
    },
    {
      "inputs": [
        {
          "internalType": "address",
          "name": "owner",
          "type": "address"
        },
        {
          "internalType": "address",
          "name": "operator",
          "type": "address"
        }
      ],
      "name": "isApprovedForAll",
      "outputs": [
        {
          "internalType": "bool",
          "name": "",
          "type": "bool"
        }
      ],
      "stateMutability": "view",
      "type": "function"
    },
    {
      "inputs": [],
      "name": "name",
      "outputs": [
        {
          "internalType": "string",
          "name": "",
          "type": "string"
        }
      ],
      "stateMutability": "view",
      "type": "function"
    },
    {
      "inputs": [],
      "name": "owner",
      "outputs": [
        {
          "internalType": "address",
          "name": "",
          "type": "address"
        }
      ],
      "stateMutability": "view",
      "type": "function"
    },
    {
      "inputs": [
        {
          "internalType": "uint256",
          "name": "tokenId",
          "type": "uint256"
        }
      ],
      "name": "ownerOf",
      "outputs": [
        {
          "internalType": "address",
          "name": "",
          "type": "address"
        }
      ],
      "stateMutability": "view",
      "type": "function"
    },
    {
      "inputs": [
        {
          "internalType": "uint256",
          "name": "amount",
          "type": "uint256"
        },
        {
          "internalType": "bytes32[]",
          "name": "proof",
          "type": "bytes32[]"
        }
      ],
      "name": "privateMint",
      "outputs": [],
      "stateMutability": "payable",
      "type": "function"
    },
    {
      "inputs": [
        {
          "internalType": "uint256",
          "name": "amount",
          "type": "uint256"
        }
      ],
      "name": "publicMint",
      "outputs": [],
      "stateMutability": "payable",
      "type": "function"
    },
    {
      "inputs": [
        {
          "internalType": "uint256",
          "name": "requestId",
          "type": "uint256"
        },
        {
          "internalType": "uint256[]",
          "name": "randomWords",
          "type": "uint256[]"
        }
      ],
      "name": "rawFulfillRandomWords",
      "outputs": [],
      "stateMutability": "nonpayable",
      "type": "function"
    },
    {
      "inputs": [],
      "name": "renounceOwnership",
      "outputs": [],
      "stateMutability": "nonpayable",
      "type": "function"
    },
    {
      "inputs": [],
      "name": "reveal",
      "outputs": [],
      "stateMutability": "nonpayable",
      "type": "function"
    },
    {
      "inputs": [],
      "name": "s_unrevealedURI",
      "outputs": [
        {
          "internalType": "string",
          "name": "",
          "type": "string"
        }
      ],
      "stateMutability": "view",
      "type": "function"
    },
    {
      "inputs": [
        {
          "internalType": "address",
          "name": "from",
          "type": "address"
        },
        {
          "internalType": "address",
          "name": "to",
          "type": "address"
        },
        {
          "internalType": "uint256",
          "name": "tokenId",
          "type": "uint256"
        }
      ],
      "name": "safeTransferFrom",
      "outputs": [],
      "stateMutability": "nonpayable",
      "type": "function"
    },
    {
      "inputs": [
        {
          "internalType": "address",
          "name": "from",
          "type": "address"
        },
        {
          "internalType": "address",
          "name": "to",
          "type": "address"
        },
        {
          "internalType": "uint256",
          "name": "tokenId",
          "type": "uint256"
        },
        {
          "internalType": "bytes",
          "name": "_data",
          "type": "bytes"
        }
      ],
      "name": "safeTransferFrom",
      "outputs": [],
      "stateMutability": "nonpayable",
      "type": "function"
    },
    {
      "inputs": [
        {
          "internalType": "address",
          "name": "operator",
          "type": "address"
        },
        {
          "internalType": "bool",
          "name": "approved",
          "type": "bool"
        }
      ],
      "name": "setApprovalForAll",
      "outputs": [],
      "stateMutability": "nonpayable",
      "type": "function"
    },
    {
      "inputs": [
        {
          "internalType": "address",
          "name": "_automation",
          "type": "address"
        }
      ],
      "name": "setAutomation",
      "outputs": [],
      "stateMutability": "nonpayable",
      "type": "function"
    },
    {
      "inputs": [
        {
          "internalType": "string",
          "name": "newBaseURI",
          "type": "string"
        }
      ],
      "name": "setBaseURI",
      "outputs": [],
      "stateMutability": "nonpayable",
      "type": "function"
    },
    {
      "inputs": [
        {
          "internalType": "uint256",
          "name": "fee",
          "type": "uint256"
        }
      ],
      "name": "setMintFee",
      "outputs": [],
      "stateMutability": "nonpayable",
      "type": "function"
    },
    {
      "inputs": [
        {
          "internalType": "string",
          "name": "provenanceHash",
          "type": "string"
        }
      ],
      "name": "setProvenanceHash",
      "outputs": [],
      "stateMutability": "nonpayable",
      "type": "function"
    },
    {
      "inputs": [
        {
          "internalType": "bool",
          "name": "publicMintEnabled",
          "type": "bool"
        }
      ],
      "name": "setPublicMint",
      "outputs": [],
      "stateMutability": "nonpayable",
      "type": "function"
    },
    {
      "inputs": [
        {
          "internalType": "bytes32",
          "name": "whiteListRoot",
          "type": "bytes32"
        }
      ],
      "name": "setWhitelistRoot",
      "outputs": [],
      "stateMutability": "nonpayable",
      "type": "function"
    },
    {
      "inputs": [
        {
          "internalType": "bytes4",
          "name": "interfaceId",
          "type": "bytes4"
        }
      ],
      "name": "supportsInterface",
      "outputs": [
        {
          "internalType": "bool",
          "name": "",
          "type": "bool"
        }
      ],
      "stateMutability": "view",
      "type": "function"
    },
    {
      "inputs": [],
      "name": "symbol",
      "outputs": [
        {
          "internalType": "string",
          "name": "",
          "type": "string"
        }
      ],
      "stateMutability": "view",
      "type": "function"
    },
    {
      "inputs": [
        {
          "internalType": "uint256",
          "name": "tokenId",
          "type": "uint256"
        }
      ],
      "name": "tokenURI",
      "outputs": [
        {
          "internalType": "string",
          "name": "",
          "type": "string"
        }
      ],
      "stateMutability": "view",
      "type": "function"
    },
    {
      "inputs": [
        {
          "internalType": "address",
          "name": "owner",
          "type": "address"
        }
      ],
      "name": "tokensOfOwner",
      "outputs": [
        {
          "internalType": "uint256[]",
          "name": "",
          "type": "uint256[]"
        }
      ],
      "stateMutability": "view",
      "type": "function"
    },
    {
      "inputs": [],
      "name": "totalSupply",
      "outputs": [
        {
          "internalType": "uint256",
          "name": "",
          "type": "uint256"
        }
      ],
      "stateMutability": "view",
      "type": "function"
    },
    {
      "inputs": [
        {
          "internalType": "address",
          "name": "from",
          "type": "address"
        },
        {
          "internalType": "address",
          "name": "to",
          "type": "address"
        },
        {
          "internalType": "uint256",
          "name": "tokenId",
          "type": "uint256"
        }
      ],
      "name": "transferFrom",
      "outputs": [],
      "stateMutability": "nonpayable",
      "type": "function"
    },
    {
      "inputs": [
        {
          "internalType": "address",
          "name": "newOwner",
          "type": "address"
        }
      ],
      "name": "transferOwnership",
      "outputs": [],
      "stateMutability": "nonpayable",
      "type": "function"
    },
    {
      "inputs": [],
      "name": "withdraw",
      "outputs": [],
      "stateMutability": "nonpayable",
      "type": "function"
    }
  ],
  "bytecode": "0x6101406040523480156200001257600080fd5b506040516200351838038062003518833981016040819052620000359162000313565b732ed832ba664535e5886b75d64c46eb9a228c26106080819052888860016200005f83826200046d565b5060026200006e82826200046d565b5050600060045550620000839050336200010a565b60a085905260c08490527f354d2f95da55398f44b7cff77da56283d9c6c829a4bdf1bbcaf2ad6a4d081f6160e052732ed832ba664535e5886b75d64c46eb9a228c2610610100526001600160401b038116610120526009839055600e829055600b620000f087826200046d565b50620000fc326200015c565b505050505050505062000539565b600880546001600160a01b038381166001600160a01b0319831681179093556040519116919082907f8be0079c531659141344cd1fd0a4f28419497f9722a3daafe3b4186f6b6457e090600090a35050565b6008546001600160a01b03163314620001bc5760405162461bcd60e51b815260206004820181905260248201527f4f776e61626c653a2063616c6c6572206973206e6f7420746865206f776e657260448201526064015b60405180910390fd5b6001600160a01b038116620002235760405162461bcd60e51b815260206004820152602660248201527f4f776e61626c653a206e6577206f776e657220697320746865207a65726f206160448201526564647265737360d01b6064820152608401620001b3565b6200022e816200010a565b50565b634e487b7160e01b600052604160045260246000fd5b600082601f8301126200025957600080fd5b81516001600160401b038082111562000276576200027662000231565b604051601f8301601f19908116603f01168101908282118183101715620002a157620002a162000231565b81604052838152602092508683858801011115620002be57600080fd5b600091505b83821015620002e25785820183015181830184015290820190620002c3565b600093810190920192909252949350505050565b80516001600160401b03811681146200030e57600080fd5b919050565b600080600080600080600080610100898b0312156200033157600080fd5b88516001600160401b03808211156200034957600080fd5b620003578c838d0162000247565b995060208b01519150808211156200036e57600080fd5b6200037c8c838d0162000247565b985060408b01519150808211156200039357600080fd5b50620003a28b828c0162000247565b965050606089015194506080890151935060a0890151925060c08901519150620003cf60e08a01620002f6565b90509295985092959890939650565b600181811c90821680620003f357607f821691505b6020821081036200041457634e487b7160e01b600052602260045260246000fd5b50919050565b601f8211156200046857600081815260208120601f850160051c81016020861015620004435750805b601f850160051c820191505b8181101562000464578281556001016200044f565b5050505b505050565b81516001600160401b0381111562000489576200048962000231565b620004a1816200049a8454620003de565b846200041a565b602080601f831160018114620004d95760008415620004c05750858301515b600019600386901b1c1916600185901b17855562000464565b600085815260208120601f198616915b828110156200050a57888601518255948401946001909101908401620004e9565b5085821015620005295787850151600019600388901b60f8161c191681555b5050505050600190811b01905550565b60805160a05160c05160e0516101005161012051612f6c620005ac600039600081816103c40152611be501526000611b9501526000611bc401526000818161030d01526119ec0152600081816104ce015281816113200152611fc6015260008181610a960152610ad80152612f6c6000f3fe6080604052600436106102255760003560e01c806370a0823111610123578063a475b5dd116100ab578063ced72f871161006f578063ced72f871461066c578063e985e9c514610681578063eddd0d9c146106ca578063f2fde38b146106ea578063f5aa406d1461070a57600080fd5b8063a475b5dd146105ef578063b742d9cb14610604578063b88d4fde14610619578063b977fe5514610639578063c87b56dd1461064c57600080fd5b80638462151c116100f25780638462151c1461055a5780638da5cb5b1461058757806394b3fbc2146105a557806395d89b41146105ba578063a22cb465146105cf57600080fd5b806370a08231146104f0578063714c539814610510578063715018a614610525578063730dcc8e1461053a57600080fd5b806323b872dd116101b157806349f961d61161017557806349f961d61461044757806355f804b3146104675780636352211e14610487578063635233fb146104a7578063646cfb6f146104bc57600080fd5b806323b872dd146103925780632a70ba2a146103b25780632db11544146103ff5780633ccfd60b1461041257806342842e0e1461042757600080fd5b80630e2d56cf116101f85780630e2d56cf146102db5780630ea6a528146102fb578063109695231461033d57806318160ddd1461035d5780631fe543e31461037257600080fd5b806301ffc9a71461022a57806306fdde031461025f578063081812fc14610281578063095ea7b3146102b9575b600080fd5b34801561023657600080fd5b5061024a6102453660046126c3565b61072a565b60405190151581526020015b60405180910390f35b34801561026b57600080fd5b5061027461073b565b6040516102569190612737565b34801561028d57600080fd5b506102a161029c36600461274a565b6107cd565b6040516001600160a01b039091168152602001610256565b3480156102c557600080fd5b506102d96102d436600461277f565b61085d565b005b3480156102e757600080fd5b506102d96102f63660046127b9565b610992565b34801561030757600080fd5b5061032f7f000000000000000000000000000000000000000000000000000000000000000081565b604051908152602001610256565b34801561034957600080fd5b506102d9610358366004612873565b610a24565b34801561036957600080fd5b5061032f610a7c565b34801561037e57600080fd5b506102d961038d3660046128bc565b610a8b565b34801561039e57600080fd5b506102d96103ad36600461296e565b610b0f565b3480156103be57600080fd5b506103e67f000000000000000000000000000000000000000000000000000000000000000081565b60405167ffffffffffffffff9091168152602001610256565b6102d961040d36600461274a565b610b8d565b34801561041e57600080fd5b506102d9610bbc565b34801561043357600080fd5b506102d961044236600461296e565b610c89565b34801561045357600080fd5b506010546102a1906001600160a01b031681565b34801561047357600080fd5b506102d9610482366004612873565b610ca4565b34801561049357600080fd5b506102a16104a236600461274a565b610cf8565b3480156104b357600080fd5b50610274610d0c565b3480156104c857600080fd5b5061032f7f000000000000000000000000000000000000000000000000000000000000000081565b3480156104fc57600080fd5b5061032f61050b3660046129aa565b610d9a565b34801561051c57600080fd5b50610274610e68565b34801561053157600080fd5b506102d9610e77565b34801561054657600080fd5b506102d96105553660046129aa565b610ecb565b34801561056657600080fd5b5061057a6105753660046129aa565b610f35565b60405161025691906129c5565b34801561059357600080fd5b506008546001600160a01b03166102a1565b3480156105b157600080fd5b50610274610ffc565b3480156105c657600080fd5b5061027461100b565b3480156105db57600080fd5b506102d96105ea366004612a09565b61101a565b3480156105fb57600080fd5b506102d96110de565b34801561061057600080fd5b50600e5461032f565b34801561062557600080fd5b506102d9610634366004612a3c565b611165565b6102d9610647366004612ab8565b6111ea565b34801561065857600080fd5b5061027461066736600461274a565b61128a565b34801561067857600080fd5b5060095461032f565b34801561068d57600080fd5b5061024a61069c366004612b37565b6001600160a01b03918216600090815260066020908152604080832093909416825291909152205460ff1690565b3480156106d657600080fd5b506102d96106e536600461274a565b6113b7565b3480156106f657600080fd5b506102d96107053660046129aa565b611404565b34801561071657600080fd5b506102d961072536600461274a565b6114ba565b600061073582611507565b92915050565b60606001805461074a90612b61565b80601f016020809104026020016040519081016040528092919081815260200182805461077690612b61565b80156107c35780601f10610798576101008083540402835291602001916107c3565b820191906000526020600020905b8154815290600101906020018083116107a657829003601f168201915b5050505050905090565b60006107d882611557565b6108415760405162461bcd60e51b815260206004820152602f60248201527f4552433732315073693a20617070726f76656420717565727920666f72206e6f60448201526e3732bc34b9ba32b73a103a37b5b2b760891b60648201526084015b60405180910390fd5b506000908152600560205260409020546001600160a01b031690565b600061086882610cf8565b9050806001600160a01b0316836001600160a01b0316036108d75760405162461bcd60e51b8152602060048201526024808201527f4552433732315073693a20617070726f76616c20746f2063757272656e74206f6044820152633bb732b960e11b6064820152608401610838565b336001600160a01b038216148061091157506001600160a01b038116600090815260066020908152604080832033845290915290205460ff165b6109835760405162461bcd60e51b815260206004820152603b60248201527f4552433732315073693a20617070726f76652063616c6c6572206973206e6f7460448201527f206f776e6572206e6f7220617070726f76656420666f7220616c6c00000000006064820152608401610838565b61098d8383611573565b505050565b6008546001600160a01b03163314806109b557506010546001600160a01b031633145b610a115760405162461bcd60e51b815260206004820152602760248201527f43616c6c6572277320616c6c6f77656420746f20706572666f726d20746869736044820152661030b1ba34b7b760c91b6064820152608401610838565b600d805460ff1916911515919091179055565b6008546001600160a01b03163314610a6c5760405162461bcd60e51b81526020600482018190526024820152600080516020612e178339815191526044820152606401610838565b600c610a788282612be1565b5050565b6000610a866115e1565b905090565b336001600160a01b037f00000000000000000000000000000000000000000000000000000000000000001614610b055760405163073e64fd60e21b81523360048201526001600160a01b037f0000000000000000000000000000000000000000000000000000000000000000166024820152604401610838565b610a7882826115f1565b610b193382611659565b610b825760405162461bcd60e51b815260206004820152603460248201527f4552433732315073693a207472616e736665722063616c6c6572206973206e6f6044820152731d081bdddb995c881b9bdc88185c1c1c9bdd995960621b6064820152608401610838565b61098d838383611742565b600d5460ff16610bb057604051631eb49d6d60e11b815260040160405180910390fd5b610bb98161196a565b50565b6008546001600160a01b03163314610c045760405162461bcd60e51b81526020600482018190526024820152600080516020612e178339815191526044820152606401610838565b6000610c186008546001600160a01b031690565b6001600160a01b03164760405160006040518083038185875af1925050503d8060008114610c62576040519150601f19603f3d011682016040523d82523d6000602084013e610c67565b606091505b5050905080610bb95760405163c4fd53a560e01b815260040160405180910390fd5b61098d83838360405180602001604052806000815250611165565b6008546001600160a01b03163314610cec5760405162461bcd60e51b81526020600482018190526024820152600080516020612e178339815191526044820152606401610838565b600a610a788282612be1565b600080610d0483611a65565b509392505050565b600b8054610d1990612b61565b80601f0160208091040260200160405190810160405280929190818152602001828054610d4590612b61565b8015610d925780601f10610d6757610100808354040283529160200191610d92565b820191906000526020600020905b815481529060010190602001808311610d7557829003601f168201915b505050505081565b60006001600160a01b038216610e085760405162461bcd60e51b815260206004820152602d60248201527f4552433732315073693a2062616c616e636520717565727920666f722074686560448201526c207a65726f206164647265737360981b6064820152608401610838565b6000805b600454811015610e6157610e1f81611557565b15610e5157610e2d81610cf8565b6001600160a01b0316846001600160a01b031603610e5157610e4e82612cb7565b91505b610e5a81612cb7565b9050610e0c565b5092915050565b6060600a805461074a90612b61565b6008546001600160a01b03163314610ebf5760405162461bcd60e51b81526020600482018190526024820152600080516020612e178339815191526044820152606401610838565b610ec96000611afc565b565b6008546001600160a01b03163314610f135760405162461bcd60e51b81526020600482018190526024820152600080516020612e178339815191526044820152606401610838565b601080546001600160a01b0319166001600160a01b0392909216919091179055565b6060600080610f4384610d9a565b905060008167ffffffffffffffff811115610f6057610f606127d4565b604051908082528060200260200182016040528015610f89578160200160208202803683370190505b50905060005b828414610ff357610f9f81611557565b15610feb57856001600160a01b0316610fb782610cf8565b6001600160a01b031603610feb5780828580600101965081518110610fde57610fde612cd0565b6020026020010181815250505b600101610f8f565b50949350505050565b6060600c805461074a90612b61565b60606002805461074a90612b61565b336001600160a01b038316036110725760405162461bcd60e51b815260206004820152601c60248201527f4552433732315073693a20617070726f766520746f2063616c6c6572000000006044820152606401610838565b3360008181526006602090815260408083206001600160a01b03871680855290835292819020805460ff191686151590811790915590519081529192917f17307eab39ab6107e8899845ad3d59bd9653f200f220920489ca2b5937696c31910160405180910390a35050565b6008546001600160a01b031633148061110157506010546001600160a01b031633145b61115d5760405162461bcd60e51b815260206004820152602760248201527f43616c6c6572277320616c6c6f77656420746f20706572666f726d20746869736044820152661030b1ba34b7b760c91b6064820152608401610838565b610ec9611b4e565b61116f3383611659565b6111d85760405162461bcd60e51b815260206004820152603460248201527f4552433732315073693a207472616e736665722063616c6c6572206973206e6f6044820152731d081bdddb995c881b9bdc88185c1c1c9bdd995960621b6064820152608401610838565b6111e484848484611cd0565b50505050565b6040516bffffffffffffffffffffffff193360601b16602082015260009060340160405160208183030381529060405280519060200120905061126483838080602002602001604051908101604052809392919081815260200183836020028082843760009201919091525050600e549150849050611d53565b61128157604051637c75aa6f60e11b815260040160405180910390fd5b6111e48461196a565b606061129582611557565b6112f45760405162461bcd60e51b815260206004820152602a60248201527f4552433732315073693a2055524920717565727920666f72206e6f6e657869736044820152693a32b73a103a37b5b2b760b11b6064820152608401610838565b60075460000361130657610735611e02565b6000611310610e68565b90506000611347846007546113427f000000000000000000000000000000000000000000000000000000000000000090565b611e11565b9050600082511161136757604051806020016040528060008152506113af565b8161137182611e9d565b604080518082019091526005815264173539b7b760d91b602082015260405160200161139f93929190612ce6565b6040516020818303038152906040525b949350505050565b6008546001600160a01b031633146113ff5760405162461bcd60e51b81526020600482018190526024820152600080516020612e178339815191526044820152606401610838565b600955565b6008546001600160a01b0316331461144c5760405162461bcd60e51b81526020600482018190526024820152600080516020612e178339815191526044820152606401610838565b6001600160a01b0381166114b15760405162461bcd60e51b815260206004820152602660248201527f4f776e61626c653a206e6577206f776e657220697320746865207a65726f206160448201526564647265737360d01b6064820152608401610838565b610bb981611afc565b6008546001600160a01b031633146115025760405162461bcd60e51b81526020600482018190526024820152600080516020612e178339815191526044820152606401610838565b600e55565b60006001600160e01b031982166380ac58cd60e01b148061153857506001600160e01b03198216635b5e139f60e01b145b8061073557506301ffc9a760e01b6001600160e01b0319831614610735565b600061156260045490565b821080156107355750600192915050565b600081815260056020526040902080546001600160a01b0319166001600160a01b03841690811790915581906115a882610cf8565b6001600160a01b03167f8c5be1e5ebec7d5bd14f71427d1e84f3dd0314c0f7b2291e5b200ac8c7c3b92560405160405180910390a45050565b600080600454610a869190612d29565b600754156116345760405162461bcd60e51b815260206004820152601060248201526f105b1c9958591e481c995d99585b195960821b6044820152606401610838565b8060008151811061164757611647612cd0565b60200260200101516007819055505050565b600061166482611557565b6116c85760405162461bcd60e51b815260206004820152602f60248201527f4552433732315073693a206f70657261746f7220717565727920666f72206e6f60448201526e3732bc34b9ba32b73a103a37b5b2b760891b6064820152608401610838565b60006116d383610cf8565b9050806001600160a01b0316846001600160a01b0316148061170e5750836001600160a01b0316611703846107cd565b6001600160a01b0316145b806113af57506001600160a01b0380821660009081526006602090815260408083209388168352929052205460ff166113af565b60008061174e83611a65565b91509150846001600160a01b0316826001600160a01b0316146117c85760405162461bcd60e51b815260206004820152602c60248201527f4552433732315073693a207472616e73666572206f6620746f6b656e2074686160448201526b3a1034b9903737ba1037bbb760a11b6064820152608401610838565b6001600160a01b03841661182e5760405162461bcd60e51b815260206004820152602760248201527f4552433732315073693a207472616e7366657220746f20746865207a65726f206044820152666164647265737360c81b6064820152608401610838565b61183b8585856001611fb6565b611846600084611573565b6000611853846001612d3c565b600881901c600090815260208190526040902054909150600160ff1b60ff83161c16158015611883575060045481105b156118cf57600081815260036020908152604080832080546001600160a01b0319166001600160a01b038b16179055600884901c83529082905290208054600160ff1b60ff84161c1790555b600084815260036020526040902080546001600160a01b0319166001600160a01b03871617905581841461192057600884901c60009081526020819052604090208054600160ff1b60ff87161c1790555b83856001600160a01b0316876001600160a01b03167fddf252ad1be2c89b69c2b068fc378daa952ba7f163c4a11628f55a4df523b3ef60405160405180910390a45b505050505050565b6007541561198b57604051631eb49d6d60e11b815260040160405180910390fd5b806000036119ac57604051631f2a200560e01b815260040160405180910390fd5b806009546119ba9190612d4f565b3410156119da5760405163044044a560e21b815260040160405180910390fd5b336000908152600f60205260409020547f000000000000000000000000000000000000000000000000000000000000000090611a17908390612d3c565b1115611a365760405163016d952560e31b815260040160405180910390fd5b336000908152600f602052604081208054839290611a55908490612d3c565b90915550610bb990503382612042565b600080611a7183611557565b611ad25760405162461bcd60e51b815260206004820152602c60248201527f4552433732315073693a206f776e657220717565727920666f72206e6f6e657860448201526b34b9ba32b73a103a37b5b2b760a11b6064820152608401610838565b611adb8361205c565b6000818152600360205260409020546001600160a01b031694909350915050565b600880546001600160a01b038381166001600160a01b0319831681179093556040519116919082907f8be0079c531659141344cd1fd0a4f28419497f9722a3daafe3b4186f6b6457e090600090a35050565b60075415611b915760405162461bcd60e51b815260206004820152601060248201526f105b1c9958591e481c995d99585b195960821b6044820152606401610838565b60007f00000000000000000000000000000000000000000000000000000000000000006001600160a01b0316635d3b1d307f00000000000000000000000000000000000000000000000000000000000000007f0000000000000000000000000000000000000000000000000000000000000000600a6040516001600160e01b031960e086901b168152600481019390935267ffffffffffffffff909116602483015261ffff16604482015262030d4060648201526001608482015260a4016020604051808303816000875af1158015611c6e573d6000803e3d6000fd5b505050506040513d601f19601f82011682018060405250810190611c929190612d66565b90507f76421cb080d40e8a03ba462b500012451ba59bdebc46694dc458807c1d754b6281604051611cc591815260200190565b60405180910390a150565b611cdb848484611742565b611ce9848484600185612068565b6111e45760405162461bcd60e51b815260206004820152603560248201527f4552433732315073693a207472616e7366657220746f206e6f6e20455243373260448201527418a932b1b2b4bb32b91034b6b83632b6b2b73a32b960591b6064820152608401610838565b600081815b8551811015611df7576000868281518110611d7557611d75612cd0565b60200260200101519050808311611db7576040805160208101859052908101829052606001604051602081830303815290604052805190602001209250611de4565b60408051602081018390529081018490526060016040516020818303038152906040528051906020012092505b5080611def81612cb7565b915050611d58565b509092149392505050565b6060600b805461074a90612b61565b60008184106040518060400160405280601e81526020017f696e707574206973206e6f742077697468696e2074686520646f6d61696e000081525090611e6a5760405162461bcd60e51b81526004016108389190612737565b506000611e76836121ed565b60010160ff1690505b611e8c8585600384612257565b9150828210610d0457819450611e7f565b606081600003611ec45750506040805180820190915260018152600360fc1b602082015290565b8160005b8115611eee5780611ed881612cb7565b9150611ee79050600a83612d95565b9150611ec8565b60008167ffffffffffffffff811115611f0957611f096127d4565b6040519080825280601f01601f191660200182016040528015611f33576020820181803683370190505b5090505b84156113af57611f48600183612d29565b9150611f55600a86612da9565b611f60906030612d3c565b60f81b818381518110611f7557611f75612cd0565b60200101907effffffffffffffffffffffffffffffffffffffffffffffffffffffffffffff1916908160001a905350611faf600a86612d95565b9450611f37565b6001600160a01b03841661203d577f0000000000000000000000000000000000000000000000000000000000000000611fef8284612d3c565b111561203d5760405162461bcd60e51b815260206004820152601660248201527f457863656564206d6178696d756d20737570706c7921000000000000000000006044820152606401610838565b6111e4565b610a78828260405180602001604052806000815250612350565b60006107358183612375565b60006001600160a01b0385163b156121e057506001835b6120898486612d3c565b8110156121da57604051630a85bd0160e11b81526001600160a01b0387169063150b7a02906120c29033908b9086908990600401612dbd565b6020604051808303816000875af19250505080156120fd575060408051601f3d908101601f191682019092526120fa91810190612df9565b60015b6121a8573d80801561212b576040519150601f19603f3d011682016040523d82523d6000602084013e612130565b606091505b5080516000036121a05760405162461bcd60e51b815260206004820152603560248201527f4552433732315073693a207472616e7366657220746f206e6f6e20455243373260448201527418a932b1b2b4bb32b91034b6b83632b6b2b73a32b960591b6064820152608401610838565b805181602001fd5b8280156121c557506001600160e01b03198116630a85bd0160e11b145b925050806121d281612cb7565b91505061207f565b506121e4565b5060015b95945050505050565b60006040518061012001604052806101008152602001612e37610100913960f87e818283848586878898a8b8c8d8e8f929395969799a9b9d9e9faaeb6bedeeff61223685612476565b02901c8151811061224957612249612cd0565b016020015160f81c92915050565b600060028204808303600180821b60001990810191841b0188841c8216898216865b89811015612324576040805160208082018e9052818301849052825180830384018152606090920190925280519101208260006001841681036122e857506040805160208082018790528183018590528251808303840181526060909201909252805191012087168518612316565b5060408051602080820187905281830185905282518083038401815260609092019092528051910120861685185b909450925050600101612279565b506002890660000361234057941b90931793506113af92505050565b931b90921793506113af92505050565b600061235b60045490565b905061236784846124bd565b611ce9600085838686612068565b600881901c60008181526020849052604081205490919060ff808516919082181c80156123b7576123a581612651565b60ff168203600884901b17935061246d565b6000831161242d5760405162461bcd60e51b815260206004820152603460248201527f4269744d6170733a205468652073657420626974206265666f7265207468652060448201527f696e64657820646f65736e27742065786973742e0000000000000000000000006064820152608401610838565b5060001990910160008181526020869052604090205490919080156124685761245581612651565b60ff0360ff16600884901b17935061246d565b6123b7565b50505092915050565b600080821161248457600080fd5b50608081901c17604081901c17602081901c17601081901c17600881901c17600481901c17600281901c17600181811c909117811c0190565b60006124c860045490565b9050600082116125285760405162461bcd60e51b815260206004820152602560248201527f4552433732315073693a207175616e74697479206d7573742062652067726561604482015264074657220360dc1b6064820152608401610838565b6001600160a01b03831661258a5760405162461bcd60e51b815260206004820152602360248201527f4552433732315073693a206d696e7420746f20746865207a65726f206164647260448201526265737360e81b6064820152608401610838565b6125976000848385611fb6565b81600460008282546125a99190612d3c565b9091555050600081815260036020908152604080832080546001600160a01b0319166001600160a01b038816179055600884901c83529082905290208054600160ff1b60ff84161c179055805b6126008383612d3c565b8110156111e45760405181906001600160a01b038616906000907fddf252ad1be2c89b69c2b068fc378daa952ba7f163c4a11628f55a4df523b3ef908290a48061264981612cb7565b9150506125f6565b60006040518061012001604052806101008152602001612e37610100913960f87e818283848586878898a8b8c8d8e8f929395969799a9b9d9e9faaeb6bedeeff6122368560008082116126a357600080fd5b5060008190031690565b6001600160e01b031981168114610bb957600080fd5b6000602082840312156126d557600080fd5b81356126e0816126ad565b9392505050565b60005b838110156127025781810151838201526020016126ea565b50506000910152565b600081518084526127238160208601602086016126e7565b601f01601f19169290920160200192915050565b6020815260006126e0602083018461270b565b60006020828403121561275c57600080fd5b5035919050565b80356001600160a01b038116811461277a57600080fd5b919050565b6000806040838503121561279257600080fd5b61279b83612763565b946020939093013593505050565b8035801515811461277a57600080fd5b6000602082840312156127cb57600080fd5b6126e0826127a9565b634e487b7160e01b600052604160045260246000fd5b604051601f8201601f1916810167ffffffffffffffff81118282101715612813576128136127d4565b604052919050565b600067ffffffffffffffff831115612835576128356127d4565b612848601f8401601f19166020016127ea565b905082815283838301111561285c57600080fd5b828260208301376000602084830101529392505050565b60006020828403121561288557600080fd5b813567ffffffffffffffff81111561289c57600080fd5b8201601f810184136128ad57600080fd5b6113af8482356020840161281b565b600080604083850312156128cf57600080fd5b8235915060208084013567ffffffffffffffff808211156128ef57600080fd5b818601915086601f83011261290357600080fd5b813581811115612915576129156127d4565b8060051b91506129268483016127ea565b818152918301840191848101908984111561294057600080fd5b938501935b8385101561295e57843582529385019390850190612945565b8096505050505050509250929050565b60008060006060848603121561298357600080fd5b61298c84612763565b925061299a60208501612763565b9150604084013590509250925092565b6000602082840312156129bc57600080fd5b6126e082612763565b6020808252825182820181905260009190848201906040850190845b818110156129fd578351835292840192918401916001016129e1565b50909695505050505050565b60008060408385031215612a1c57600080fd5b612a2583612763565b9150612a33602084016127a9565b90509250929050565b60008060008060808587031215612a5257600080fd5b612a5b85612763565b9350612a6960208601612763565b925060408501359150606085013567ffffffffffffffff811115612a8c57600080fd5b8501601f81018713612a9d57600080fd5b612aac8782356020840161281b565b91505092959194509250565b600080600060408486031215612acd57600080fd5b83359250602084013567ffffffffffffffff80821115612aec57600080fd5b818601915086601f830112612b0057600080fd5b813581811115612b0f57600080fd5b8760208260051b8501011115612b2457600080fd5b6020830194508093505050509250925092565b60008060408385031215612b4a57600080fd5b612b5383612763565b9150612a3360208401612763565b600181811c90821680612b7557607f821691505b602082108103612b9557634e487b7160e01b600052602260045260246000fd5b50919050565b601f82111561098d57600081815260208120601f850160051c81016020861015612bc25750805b601f850160051c820191505b8181101561196257828155600101612bce565b815167ffffffffffffffff811115612bfb57612bfb6127d4565b612c0f81612c098454612b61565b84612b9b565b602080601f831160018114612c445760008415612c2c5750858301515b600019600386901b1c1916600185901b178555611962565b600085815260208120601f198616915b82811015612c7357888601518255948401946001909101908401612c54565b5085821015612c915787850151600019600388901b60f8161c191681555b5050505050600190811b01905550565b634e487b7160e01b600052601160045260246000fd5b600060018201612cc957612cc9612ca1565b5060010190565b634e487b7160e01b600052603260045260246000fd5b60008451612cf88184602089016126e7565b845190830190612d0c8183602089016126e7565b8451910190612d1f8183602088016126e7565b0195945050505050565b8181038181111561073557610735612ca1565b8082018082111561073557610735612ca1565b808202811582820484141761073557610735612ca1565b600060208284031215612d7857600080fd5b5051919050565b634e487b7160e01b600052601260045260246000fd5b600082612da457612da4612d7f565b500490565b600082612db857612db8612d7f565b500690565b60006001600160a01b03808716835280861660208401525083604083015260806060830152612def608083018461270b565b9695505050505050565b600060208284031215612e0b57600080fd5b81516126e0816126ad56fe4f776e61626c653a2063616c6c6572206973206e6f7420746865206f776e65720001020903110a19042112290b311a3905412245134d2a550c5d32651b6d3a7506264262237d468514804e8d2b95569d0d495ea533a966b11c886eb93bc176c9071727374353637324837e9b47af86c7155181ad4fd18ed32c9096db57d59ee30e2e4a6a5f92a6be3498aae067ddb2eb1d5989b56fd7baf33ca0c2ee77e5caf7ff0810182028303840444c545c646c7425617c847f8c949c48a4a8b087b8c0c816365272829aaec650acd0d28fdad4e22d6991bd97dfdcea58b4d6f29fede4f6fe0f1f2f3f4b5b6b607b8b93a3a7b7bf357199c5abcfd9e168bcdee9b3f1ecf5fd1e3e5a7a8aa2b670c4ced8bbe8f0f4fc3d79a1c3cde7effb78cce6facbf9f8a2646970667358221220923ed45c0ca60bcc4cdc574387738969848fe5453c49bad42522c435e4ade9e664736f6c63430008130033",
  "linkReferences": {},
  "deployedLinkReferences": {}
}