{
  "_format": "hh-sol-artifact-1",
  "contractName": "MysteryBox",
  "sourceName": "contracts/MysteryBox.sol",
  "abi": [
    {
      "inputs": [
        {
          "internalType": "string",
          "name": "name",
          "type": "string"
        },
        {
          "internalType": "string",
          "name": "symbol",
          "type": "string"
        },
        {
          "internalType": "string",
          "name": "unrevealedURI",
          "type": "string"
        },
        {
          "internalType": "uint256",
          "name": "maxSupply",
          "type": "uint256"
        },
        {
          "internalType": "uint256",
          "name": "maxMintPerUser",
          "type": "uint256"
        },
        {
          "internalType": "uint256",
          "name": "fee",
          "type": "uint256"
        },
        {
          "internalType": "bytes32",
          "name": "whitelistRoot",
          "type": "bytes32"
        },
        {
          "internalType": "address",
          "name": "vrfCoordinatorV2",
          "type": "address"
        },
        {
          "internalType": "bytes32",
          "name": "vrfKeyhash",
          "type": "bytes32"
        },
        {
          "internalType": "uint64",
          "name": "vrfSubscriptionId",
          "type": "uint64"
        }
      ],
      "stateMutability": "nonpayable",
      "type": "constructor"
    },
    {
      "inputs": [],
      "name": "FailedToWithdrawFunds",
      "type": "error"
    },
    {
      "inputs": [],
      "name": "InsufficientValue",
      "type": "error"
    },
    {
      "inputs": [],
      "name": "LimitPerUserExceeded",
      "type": "error"
    },
    {
      "inputs": [],
      "name": "NotAllowed",
      "type": "error"
    },
    {
      "inputs": [],
      "name": "NotEligible",
      "type": "error"
    },
    {
      "inputs": [
        {
          "internalType": "address",
          "name": "have",
          "type": "address"
        },
        {
          "internalType": "address",
          "name": "want",
          "type": "address"
        }
      ],
      "name": "OnlyCoordinatorCanFulfill",
      "type": "error"
    },
    {
      "inputs": [],
      "name": "ZeroAmount",
      "type": "error"
    },
    {
      "anonymous": false,
      "inputs": [
        {
          "indexed": true,
          "internalType": "address",
          "name": "owner",
          "type": "address"
        },
        {
          "indexed": true,
          "internalType": "address",
          "name": "approved",
          "type": "address"
        },
        {
          "indexed": true,
          "internalType": "uint256",
          "name": "tokenId",
          "type": "uint256"
        }
      ],
      "name": "Approval",
      "type": "event"
    },
    {
      "anonymous": false,
      "inputs": [
        {
          "indexed": true,
          "internalType": "address",
          "name": "owner",
          "type": "address"
        },
        {
          "indexed": true,
          "internalType": "address",
          "name": "operator",
          "type": "address"
        },
        {
          "indexed": false,
          "internalType": "bool",
          "name": "approved",
          "type": "bool"
        }
      ],
      "name": "ApprovalForAll",
      "type": "event"
    },
    {
      "anonymous": false,
      "inputs": [
        {
          "indexed": true,
          "internalType": "address",
          "name": "previousOwner",
          "type": "address"
        },
        {
          "indexed": true,
          "internalType": "address",
          "name": "newOwner",
          "type": "address"
        }
      ],
      "name": "OwnershipTransferred",
      "type": "event"
    },
    {
      "anonymous": false,
      "inputs": [
        {
          "indexed": false,
          "internalType": "uint256",
          "name": "requestId",
          "type": "uint256"
        }
      ],
      "name": "RandomnessRequest",
      "type": "event"
    },
    {
      "anonymous": false,
      "inputs": [
        {
          "indexed": true,
          "internalType": "address",
          "name": "from",
          "type": "address"
        },
        {
          "indexed": true,
          "internalType": "address",
          "name": "to",
          "type": "address"
        },
        {
          "indexed": true,
          "internalType": "uint256",
          "name": "tokenId",
          "type": "uint256"
        }
      ],
      "name": "Transfer",
      "type": "event"
    },
    {
      "inputs": [
        {
          "internalType": "address",
          "name": "to",
          "type": "address"
        },
        {
          "internalType": "uint256",
          "name": "tokenId",
          "type": "uint256"
        }
      ],
      "name": "approve",
      "outputs": [],
      "stateMutability": "nonpayable",
      "type": "function"
    },
    {
      "inputs": [
        {
          "internalType": "address",
          "name": "owner",
          "type": "address"
        }
      ],
      "name": "balanceOf",
      "outputs": [
        {
          "internalType": "uint256",
          "name": "",
          "type": "uint256"
        }
      ],
      "stateMutability": "view",
      "type": "function"
    },
    {
      "inputs": [
        {
          "internalType": "uint256",
          "name": "tokenId",
          "type": "uint256"
        }
      ],
      "name": "getApproved",
      "outputs": [
        {
          "internalType": "address",
          "name": "",
          "type": "address"
        }
      ],
      "stateMutability": "view",
      "type": "function"
    },
    {
      "inputs": [],
      "name": "getBaseURI",
      "outputs": [
        {
          "internalType": "string",
          "name": "",
          "type": "string"
        }
      ],
      "stateMutability": "view",
      "type": "function"
    },
    {
      "inputs": [],
      "name": "getFee",
      "outputs": [
        {
          "internalType": "uint256",
          "name": "",
          "type": "uint256"
        }
      ],
      "stateMutability": "view",
      "type": "function"
    },
    {
      "inputs": [],
      "name": "getProvenanceHash",
      "outputs": [
        {
          "internalType": "string",
          "name": "",
          "type": "string"
        }
      ],
      "stateMutability": "view",
      "type": "function"
    },
    {
      "inputs": [],
      "name": "getWhitelistRoot",
      "outputs": [
        {
          "internalType": "bytes32",
          "name": "",
          "type": "bytes32"
        }
      ],
      "stateMutability": "view",
      "type": "function"
    },
    {
      "inputs": [
        {
          "internalType": "address",
          "name": "owner",
          "type": "address"
        },
        {
          "internalType": "address",
          "name": "operator",
          "type": "address"
        }
      ],
      "name": "isApprovedForAll",
      "outputs": [
        {
          "internalType": "bool",
          "name": "",
          "type": "bool"
        }
      ],
      "stateMutability": "view",
      "type": "function"
    },
    {
      "inputs": [],
      "name": "name",
      "outputs": [
        {
          "internalType": "string",
          "name": "",
          "type": "string"
        }
      ],
      "stateMutability": "view",
      "type": "function"
    },
    {
      "inputs": [],
      "name": "owner",
      "outputs": [
        {
          "internalType": "address",
          "name": "",
          "type": "address"
        }
      ],
      "stateMutability": "view",
      "type": "function"
    },
    {
      "inputs": [
        {
          "internalType": "uint256",
          "name": "tokenId",
          "type": "uint256"
        }
      ],
      "name": "ownerOf",
      "outputs": [
        {
          "internalType": "address",
          "name": "",
          "type": "address"
        }
      ],
      "stateMutability": "view",
      "type": "function"
    },
    {
      "inputs": [
        {
          "internalType": "uint256",
          "name": "amount",
          "type": "uint256"
        },
        {
          "internalType": "bytes32[]",
          "name": "proof",
          "type": "bytes32[]"
        }
      ],
      "name": "privateMint",
      "outputs": [],
      "stateMutability": "payable",
      "type": "function"
    },
    {
      "inputs": [
        {
          "internalType": "uint256",
          "name": "amount",
          "type": "uint256"
        }
      ],
      "name": "publicMint",
      "outputs": [],
      "stateMutability": "payable",
      "type": "function"
    },
    {
      "inputs": [
        {
          "internalType": "uint256",
          "name": "requestId",
          "type": "uint256"
        },
        {
          "internalType": "uint256[]",
          "name": "randomWords",
          "type": "uint256[]"
        }
      ],
      "name": "rawFulfillRandomWords",
      "outputs": [],
      "stateMutability": "nonpayable",
      "type": "function"
    },
    {
      "inputs": [],
      "name": "renounceOwnership",
      "outputs": [],
      "stateMutability": "nonpayable",
      "type": "function"
    },
    {
      "inputs": [],
      "name": "reveal",
      "outputs": [],
      "stateMutability": "nonpayable",
      "type": "function"
    },
    {
      "inputs": [
        {
          "internalType": "address",
          "name": "from",
          "type": "address"
        },
        {
          "internalType": "address",
          "name": "to",
          "type": "address"
        },
        {
          "internalType": "uint256",
          "name": "tokenId",
          "type": "uint256"
        }
      ],
      "name": "safeTransferFrom",
      "outputs": [],
      "stateMutability": "nonpayable",
      "type": "function"
    },
    {
      "inputs": [
        {
          "internalType": "address",
          "name": "from",
          "type": "address"
        },
        {
          "internalType": "address",
          "name": "to",
          "type": "address"
        },
        {
          "internalType": "uint256",
          "name": "tokenId",
          "type": "uint256"
        },
        {
          "internalType": "bytes",
          "name": "_data",
          "type": "bytes"
        }
      ],
      "name": "safeTransferFrom",
      "outputs": [],
      "stateMutability": "nonpayable",
      "type": "function"
    },
    {
      "inputs": [
        {
          "internalType": "address",
          "name": "operator",
          "type": "address"
        },
        {
          "internalType": "bool",
          "name": "approved",
          "type": "bool"
        }
      ],
      "name": "setApprovalForAll",
      "outputs": [],
      "stateMutability": "nonpayable",
      "type": "function"
    },
    {
      "inputs": [
        {
          "internalType": "string",
          "name": "newBaseURI",
          "type": "string"
        }
      ],
      "name": "setBaseURI",
      "outputs": [],
      "stateMutability": "nonpayable",
      "type": "function"
    },
    {
      "inputs": [
        {
          "internalType": "uint256",
          "name": "fee",
          "type": "uint256"
        }
      ],
      "name": "setMintFee",
      "outputs": [],
      "stateMutability": "nonpayable",
      "type": "function"
    },
    {
      "inputs": [
        {
          "internalType": "string",
          "name": "provenanceHash",
          "type": "string"
        }
      ],
      "name": "setProvenanceHash",
      "outputs": [],
      "stateMutability": "nonpayable",
      "type": "function"
    },
    {
      "inputs": [
        {
          "internalType": "bool",
          "name": "publicMintEnabled",
          "type": "bool"
        }
      ],
      "name": "setPublicMint",
      "outputs": [],
      "stateMutability": "nonpayable",
      "type": "function"
    },
    {
      "inputs": [
        {
          "internalType": "bytes32",
          "name": "whiteListRoot",
          "type": "bytes32"
        }
      ],
      "name": "setWhitelistRoot",
      "outputs": [],
      "stateMutability": "nonpayable",
      "type": "function"
    },
    {
      "inputs": [
        {
          "internalType": "bytes4",
          "name": "interfaceId",
          "type": "bytes4"
        }
      ],
      "name": "supportsInterface",
      "outputs": [
        {
          "internalType": "bool",
          "name": "",
          "type": "bool"
        }
      ],
      "stateMutability": "view",
      "type": "function"
    },
    {
      "inputs": [],
      "name": "symbol",
      "outputs": [
        {
          "internalType": "string",
          "name": "",
          "type": "string"
        }
      ],
      "stateMutability": "view",
      "type": "function"
    },
    {
      "inputs": [
        {
          "internalType": "uint256",
          "name": "tokenId",
          "type": "uint256"
        }
      ],
      "name": "tokenURI",
      "outputs": [
        {
          "internalType": "string",
          "name": "",
          "type": "string"
        }
      ],
      "stateMutability": "view",
      "type": "function"
    },
    {
      "inputs": [
        {
          "internalType": "address",
          "name": "owner",
          "type": "address"
        }
      ],
      "name": "tokensOfOwner",
      "outputs": [
        {
          "internalType": "uint256[]",
          "name": "",
          "type": "uint256[]"
        }
      ],
      "stateMutability": "view",
      "type": "function"
    },
    {
      "inputs": [],
      "name": "totalSupply",
      "outputs": [
        {
          "internalType": "uint256",
          "name": "",
          "type": "uint256"
        }
      ],
      "stateMutability": "view",
      "type": "function"
    },
    {
      "inputs": [
        {
          "internalType": "address",
          "name": "from",
          "type": "address"
        },
        {
          "internalType": "address",
          "name": "to",
          "type": "address"
        },
        {
          "internalType": "uint256",
          "name": "tokenId",
          "type": "uint256"
        }
      ],
      "name": "transferFrom",
      "outputs": [],
      "stateMutability": "nonpayable",
      "type": "function"
    },
    {
      "inputs": [
        {
          "internalType": "address",
          "name": "newOwner",
          "type": "address"
        }
      ],
      "name": "transferOwnership",
      "outputs": [],
      "stateMutability": "nonpayable",
      "type": "function"
    },
    {
      "inputs": [],
      "name": "withdraw",
      "outputs": [],
      "stateMutability": "nonpayable",
      "type": "function"
    }
  ],
  "bytecode": "0x6101406040523480156200001257600080fd5b5060405162005a5e38038062005a5e8339818101604052810190620000389190620004ee565b828a8a828073ffffffffffffffffffffffffffffffffffffffff1660808173ffffffffffffffffffffffffffffffffffffffff168152505050816001908162000082919062000882565b50806002908162000094919062000882565b50620000a56200016860201b60201c565b600481905550505050620000ce620000c26200016d60201b60201c565b6200017560201b60201c565b8660a081815250508560c081815250508160e081815250508273ffffffffffffffffffffffffffffffffffffffff166101008173ffffffffffffffffffffffffffffffffffffffff16815250508067ffffffffffffffff166101208167ffffffffffffffff16815250508460098190555083600e8190555087600b908162000157919062000882565b505050505050505050505062000969565b600090565b600033905090565b6000600860009054906101000a900473ffffffffffffffffffffffffffffffffffffffff16905081600860006101000a81548173ffffffffffffffffffffffffffffffffffffffff021916908373ffffffffffffffffffffffffffffffffffffffff1602179055508173ffffffffffffffffffffffffffffffffffffffff168173ffffffffffffffffffffffffffffffffffffffff167f8be0079c531659141344cd1fd0a4f28419497f9722a3daafe3b4186f6b6457e060405160405180910390a35050565b6000604051905090565b600080fd5b600080fd5b600080fd5b600080fd5b6000601f19601f8301169050919050565b7f4e487b7100000000000000000000000000000000000000000000000000000000600052604160045260246000fd5b620002a48262000259565b810181811067ffffffffffffffff82111715620002c657620002c56200026a565b5b80604052505050565b6000620002db6200023b565b9050620002e9828262000299565b919050565b600067ffffffffffffffff8211156200030c576200030b6200026a565b5b620003178262000259565b9050602081019050919050565b60005b838110156200034457808201518184015260208101905062000327565b60008484015250505050565b6000620003676200036184620002ee565b620002cf565b90508281526020810184848401111562000386576200038562000254565b5b6200039384828562000324565b509392505050565b600082601f830112620003b357620003b26200024f565b5b8151620003c584826020860162000350565b91505092915050565b6000819050919050565b620003e381620003ce565b8114620003ef57600080fd5b50565b6000815190506200040381620003d8565b92915050565b6000819050919050565b6200041e8162000409565b81146200042a57600080fd5b50565b6000815190506200043e8162000413565b92915050565b600073ffffffffffffffffffffffffffffffffffffffff82169050919050565b6000620004718262000444565b9050919050565b620004838162000464565b81146200048f57600080fd5b50565b600081519050620004a38162000478565b92915050565b600067ffffffffffffffff82169050919050565b620004c881620004a9565b8114620004d457600080fd5b50565b600081519050620004e881620004bd565b92915050565b6000806000806000806000806000806101408b8d03121562000515576200051462000245565b5b60008b015167ffffffffffffffff8111156200053657620005356200024a565b5b620005448d828e016200039b565b9a505060208b015167ffffffffffffffff8111156200056857620005676200024a565b5b620005768d828e016200039b565b99505060408b015167ffffffffffffffff8111156200059a57620005996200024a565b5b620005a88d828e016200039b565b9850506060620005bb8d828e01620003f2565b9750506080620005ce8d828e01620003f2565b96505060a0620005e18d828e01620003f2565b95505060c0620005f48d828e016200042d565b94505060e0620006078d828e0162000492565b9350506101006200061b8d828e016200042d565b9250506101206200062f8d828e01620004d7565b9150509295989b9194979a5092959850565b600081519050919050565b7f4e487b7100000000000000000000000000000000000000000000000000000000600052602260045260246000fd5b600060028204905060018216806200069457607f821691505b602082108103620006aa57620006a96200064c565b5b50919050565b60008190508160005260206000209050919050565b60006020601f8301049050919050565b600082821b905092915050565b600060088302620007147fffffffffffffffffffffffffffffffffffffffffffffffffffffffffffffffff82620006d5565b620007208683620006d5565b95508019841693508086168417925050509392505050565b6000819050919050565b6000620007636200075d6200075784620003ce565b62000738565b620003ce565b9050919050565b6000819050919050565b6200077f8362000742565b620007976200078e826200076a565b848454620006e2565b825550505050565b600090565b620007ae6200079f565b620007bb81848462000774565b505050565b5b81811015620007e357620007d7600082620007a4565b600181019050620007c1565b5050565b601f8211156200083257620007fc81620006b0565b6200080784620006c5565b8101602085101562000817578190505b6200082f6200082685620006c5565b830182620007c0565b50505b505050565b600082821c905092915050565b6000620008576000198460080262000837565b1980831691505092915050565b600062000872838362000844565b9150826002028217905092915050565b6200088d8262000641565b67ffffffffffffffff811115620008a957620008a86200026a565b5b620008b582546200067b565b620008c2828285620007e7565b600060209050601f831160018114620008fa5760008415620008e5578287015190505b620008f1858262000864565b86555062000961565b601f1984166200090a86620006b0565b60005b8281101562000934578489015182556001820191506020850194506020810190506200090d565b8683101562000954578489015162000950601f89168262000844565b8355505b6001600288020188555050505b505050505050565b60805160a05160c05160e051610100516101205161509e620009c06000396000612a7001526000612a2001526000612a4801526000611fb801526000612586015260008181610acd0152610b21015261509e6000f3fe6080604052600436106101e35760003560e01c8063715018a611610102578063b88d4fde11610095578063e985e9c511610064578063e985e9c51461069c578063eddd0d9c146106d9578063f2fde38b14610702578063f5aa406d1461072b576101e3565b8063b88d4fde146105ef578063b977fe5514610618578063c87b56dd14610634578063ced72f8714610671576101e3565b806395d89b41116100d157806395d89b4114610559578063a22cb46514610584578063a475b5dd146105ad578063b742d9cb146105c4576101e3565b8063715018a6146104af5780638462151c146104c65780638da5cb5b1461050357806394b3fbc21461052e576101e3565b806323b872dd1161017a57806355f804b31161014957806355f804b3146103e15780636352211e1461040a57806370a0823114610447578063714c539814610484576101e3565b806323b872dd1461035c5780632db11544146103855780633ccfd60b146103a157806342842e0e146103b8576101e3565b80630e2d56cf116101b65780630e2d56cf146102b657806310969523146102df57806318160ddd146103085780631fe543e314610333576101e3565b806301ffc9a7146101e857806306fdde0314610225578063081812fc14610250578063095ea7b31461028d575b600080fd5b3480156101f457600080fd5b5061020f600480360381019061020a91906132f3565b610754565b60405161021c919061333b565b60405180910390f35b34801561023157600080fd5b5061023a610766565b60405161024791906133e6565b60405180910390f35b34801561025c57600080fd5b506102776004803603810190610272919061343e565b6107f8565b60405161028491906134ac565b60405180910390f35b34801561029957600080fd5b506102b460048036038101906102af91906134f3565b61087d565b005b3480156102c257600080fd5b506102dd60048036038101906102d8919061355f565b610994565b005b3480156102eb57600080fd5b50610306600480360381019061030191906136c1565b610a2d565b005b34801561031457600080fd5b5061031d610abc565b60405161032a9190613719565b60405180910390f35b34801561033f57600080fd5b5061035a600480360381019061035591906137fc565b610acb565b005b34801561036857600080fd5b50610383600480360381019061037e9190613858565b610b8b565b005b61039f600480360381019061039a919061343e565b610beb565b005b3480156103ad57600080fd5b506103b6610c3d565b005b3480156103c457600080fd5b506103df60048036038101906103da9190613858565b610d66565b005b3480156103ed57600080fd5b50610408600480360381019061040391906136c1565b610d86565b005b34801561041657600080fd5b50610431600480360381019061042c919061343e565b610e15565b60405161043e91906134ac565b60405180910390f35b34801561045357600080fd5b5061046e600480360381019061046991906138ab565b610e2d565b60405161047b9190613719565b60405180910390f35b34801561049057600080fd5b50610499610f2c565b6040516104a691906133e6565b60405180910390f35b3480156104bb57600080fd5b506104c4610fbe565b005b3480156104d257600080fd5b506104ed60048036038101906104e891906138ab565b611046565b6040516104fa9190613996565b60405180910390f35b34801561050f57600080fd5b5061051861113f565b60405161052591906134ac565b60405180910390f35b34801561053a57600080fd5b50610543611169565b60405161055091906133e6565b60405180910390f35b34801561056557600080fd5b5061056e6111fb565b60405161057b91906133e6565b60405180910390f35b34801561059057600080fd5b506105ab60048036038101906105a691906139b8565b61128d565b005b3480156105b957600080fd5b506105c261140d565b005b3480156105d057600080fd5b506105d9611493565b6040516105e69190613a11565b60405180910390f35b3480156105fb57600080fd5b5061061660048036038101906106119190613acd565b61149d565b005b610632600480360381019061062d9190613bab565b6114ff565b005b34801561064057600080fd5b5061065b6004803603810190610656919061343e565b6115bd565b60405161066891906133e6565b60405180910390f35b34801561067d57600080fd5b506106866116a0565b6040516106939190613719565b60405180910390f35b3480156106a857600080fd5b506106c360048036038101906106be9190613c0b565b6116aa565b6040516106d0919061333b565b60405180910390f35b3480156106e557600080fd5b5061070060048036038101906106fb919061343e565b61173e565b005b34801561070e57600080fd5b50610729600480360381019061072491906138ab565b6117c4565b005b34801561073757600080fd5b50610752600480360381019061074d9190613c77565b6118bb565b005b600061075f82611941565b9050919050565b60606001805461077590613cd3565b80601f01602080910402602001604051908101604052809291908181526020018280546107a190613cd3565b80156107ee5780601f106107c3576101008083540402835291602001916107ee565b820191906000526020600020905b8154815290600101906020018083116107d157829003601f168201915b5050505050905090565b600061080382611a23565b610842576040517f08c379a000000000000000000000000000000000000000000000000000000000815260040161083990613d76565b60405180910390fd5b6005600083815260200190815260200160002060009054906101000a900473ffffffffffffffffffffffffffffffffffffffff169050919050565b600061088882610e15565b90508073ffffffffffffffffffffffffffffffffffffffff168373ffffffffffffffffffffffffffffffffffffffff16036108f8576040517f08c379a00000000000000000000000000000000000000000000000000000000081526004016108ef90613e08565b60405180910390fd5b8073ffffffffffffffffffffffffffffffffffffffff16610917611a49565b73ffffffffffffffffffffffffffffffffffffffff161480610946575061094581610940611a49565b6116aa565b5b610985576040517f08c379a000000000000000000000000000000000000000000000000000000000815260040161097c90613e9a565b60405180910390fd5b61098f8383611a51565b505050565b61099c611a49565b73ffffffffffffffffffffffffffffffffffffffff166109ba61113f565b73ffffffffffffffffffffffffffffffffffffffff1614610a10576040517f08c379a0000000000000000000000000000000000000000000000000000000008152600401610a0790613f06565b60405180910390fd5b80600d60006101000a81548160ff02191690831515021790555050565b610a35611a49565b73ffffffffffffffffffffffffffffffffffffffff16610a5361113f565b73ffffffffffffffffffffffffffffffffffffffff1614610aa9576040517f08c379a0000000000000000000000000000000000000000000000000000000008152600401610aa090613f06565b60405180910390fd5b80600c9081610ab891906140d2565b5050565b6000610ac6611b0a565b905090565b7f000000000000000000000000000000000000000000000000000000000000000073ffffffffffffffffffffffffffffffffffffffff163373ffffffffffffffffffffffffffffffffffffffff1614610b7d57337f00000000000000000000000000000000000000000000000000000000000000006040517f1cf993f4000000000000000000000000000000000000000000000000000000008152600401610b749291906141a4565b60405180910390fd5b610b878282611b26565b5050565b610b9c610b96611a49565b82611b91565b610bdb576040517f08c379a0000000000000000000000000000000000000000000000000000000008152600401610bd29061423f565b60405180910390fd5b610be6838383611c6f565b505050565b600d60009054906101000a900460ff16610c31576040517f3d693ada00000000000000000000000000000000000000000000000000000000815260040160405180910390fd5b610c3a81611ef6565b50565b610c45611a49565b73ffffffffffffffffffffffffffffffffffffffff16610c6361113f565b73ffffffffffffffffffffffffffffffffffffffff1614610cb9576040517f08c379a0000000000000000000000000000000000000000000000000000000008152600401610cb090613f06565b60405180910390fd5b6000610cc361113f565b73ffffffffffffffffffffffffffffffffffffffff1647604051610ce690614290565b60006040518083038185875af1925050503d8060008114610d23576040519150601f19603f3d011682016040523d82523d6000602084013e610d28565b606091505b5050905080610d63576040517fc4fd53a500000000000000000000000000000000000000000000000000000000815260040160405180910390fd5b50565b610d818383836040518060200160405280600081525061149d565b505050565b610d8e611a49565b73ffffffffffffffffffffffffffffffffffffffff16610dac61113f565b73ffffffffffffffffffffffffffffffffffffffff1614610e02576040517f08c379a0000000000000000000000000000000000000000000000000000000008152600401610df990613f06565b60405180910390fd5b80600a9081610e1191906140d2565b5050565b600080610e21836120bd565b50905080915050919050565b60008073ffffffffffffffffffffffffffffffffffffffff168273ffffffffffffffffffffffffffffffffffffffff1603610e9d576040517f08c379a0000000000000000000000000000000000000000000000000000000008152600401610e9490614317565b60405180910390fd5b600080610ea861214e565b90505b610eb3612153565b811015610f2257610ec381611a23565b15610f1157610ed181610e15565b73ffffffffffffffffffffffffffffffffffffffff168473ffffffffffffffffffffffffffffffffffffffff1603610f105781610f0d90614366565b91505b5b80610f1b90614366565b9050610eab565b5080915050919050565b6060600a8054610f3b90613cd3565b80601f0160208091040260200160405190810160405280929190818152602001828054610f6790613cd3565b8015610fb45780601f10610f8957610100808354040283529160200191610fb4565b820191906000526020600020905b815481529060010190602001808311610f9757829003601f168201915b5050505050905090565b610fc6611a49565b73ffffffffffffffffffffffffffffffffffffffff16610fe461113f565b73ffffffffffffffffffffffffffffffffffffffff161461103a576040517f08c379a000000000000000000000000000000000000000000000000000000000815260040161103190613f06565b60405180910390fd5b611044600061215d565b565b606060008061105484610e2d565b905060008167ffffffffffffffff81111561107257611071613596565b5b6040519080825280602002602001820160405280156110a05781602001602082028036833780820191505090505b50905060006110ad61214e565b90505b828414611133576110c081611a23565b15611128578573ffffffffffffffffffffffffffffffffffffffff166110e582610e15565b73ffffffffffffffffffffffffffffffffffffffff1603611127578082858060010196508151811061111a576111196143ae565b5b6020026020010181815250505b5b8060010190506110b0565b50809350505050919050565b6000600860009054906101000a900473ffffffffffffffffffffffffffffffffffffffff16905090565b6060600c805461117890613cd3565b80601f01602080910402602001604051908101604052809291908181526020018280546111a490613cd3565b80156111f15780601f106111c6576101008083540402835291602001916111f1565b820191906000526020600020905b8154815290600101906020018083116111d457829003601f168201915b5050505050905090565b60606002805461120a90613cd3565b80601f016020809104026020016040519081016040528092919081815260200182805461123690613cd3565b80156112835780601f1061125857610100808354040283529160200191611283565b820191906000526020600020905b81548152906001019060200180831161126657829003601f168201915b5050505050905090565b611295611a49565b73ffffffffffffffffffffffffffffffffffffffff168273ffffffffffffffffffffffffffffffffffffffff1603611302576040517f08c379a00000000000000000000000000000000000000000000000000000000081526004016112f990614429565b60405180910390fd5b806006600061130f611a49565b73ffffffffffffffffffffffffffffffffffffffff1673ffffffffffffffffffffffffffffffffffffffff16815260200190815260200160002060008473ffffffffffffffffffffffffffffffffffffffff1673ffffffffffffffffffffffffffffffffffffffff16815260200190815260200160002060006101000a81548160ff0219169083151502179055508173ffffffffffffffffffffffffffffffffffffffff166113bc611a49565b73ffffffffffffffffffffffffffffffffffffffff167f17307eab39ab6107e8899845ad3d59bd9653f200f220920489ca2b5937696c3183604051611401919061333b565b60405180910390a35050565b611415611a49565b73ffffffffffffffffffffffffffffffffffffffff1661143361113f565b73ffffffffffffffffffffffffffffffffffffffff1614611489576040517f08c379a000000000000000000000000000000000000000000000000000000000815260040161148090613f06565b60405180910390fd5b611491612223565b565b6000600e54905090565b6114ae6114a8611a49565b83611b91565b6114ed576040517f08c379a00000000000000000000000000000000000000000000000000000000081526004016114e49061423f565b60405180910390fd5b6114f98484848461234a565b50505050565b6000336040516020016115129190614491565b604051602081830303815290604052805190602001209050611578838380806020026020016040519081016040528093929190818152602001838360200280828437600081840152601f19601f82011690508083019250505050505050600e54836123a8565b6115ae576040517ff8eb54de00000000000000000000000000000000000000000000000000000000815260040160405180910390fd5b6115b784611ef6565b50505050565b60606115c882611a23565b611607576040517f08c379a00000000000000000000000000000000000000000000000000000000081526004016115fe9061451e565b60405180910390fd5b6000600754036116205761161961245e565b905061169b565b600061162a6124f0565b905060006116428460075461163d612582565b6125aa565b905060008251116116625760405180602001604052806000815250611696565b8161166c82612673565b6116746127d3565b6040516020016116869392919061457a565b6040516020818303038152906040525b925050505b919050565b6000600954905090565b6000600660008473ffffffffffffffffffffffffffffffffffffffff1673ffffffffffffffffffffffffffffffffffffffff16815260200190815260200160002060008373ffffffffffffffffffffffffffffffffffffffff1673ffffffffffffffffffffffffffffffffffffffff16815260200190815260200160002060009054906101000a900460ff16905092915050565b611746611a49565b73ffffffffffffffffffffffffffffffffffffffff1661176461113f565b73ffffffffffffffffffffffffffffffffffffffff16146117ba576040517f08c379a00000000000000000000000000000000000000000000000000000000081526004016117b190613f06565b60405180910390fd5b8060098190555050565b6117cc611a49565b73ffffffffffffffffffffffffffffffffffffffff166117ea61113f565b73ffffffffffffffffffffffffffffffffffffffff1614611840576040517f08c379a000000000000000000000000000000000000000000000000000000000815260040161183790613f06565b60405180910390fd5b600073ffffffffffffffffffffffffffffffffffffffff168173ffffffffffffffffffffffffffffffffffffffff16036118af576040517f08c379a00000000000000000000000000000000000000000000000000000000081526004016118a69061461d565b60405180910390fd5b6118b88161215d565b50565b6118c3611a49565b73ffffffffffffffffffffffffffffffffffffffff166118e161113f565b73ffffffffffffffffffffffffffffffffffffffff1614611937576040517f08c379a000000000000000000000000000000000000000000000000000000000815260040161192e90613f06565b60405180910390fd5b80600e8190555050565b60007f80ac58cd000000000000000000000000000000000000000000000000000000007bffffffffffffffffffffffffffffffffffffffffffffffffffffffff1916827bffffffffffffffffffffffffffffffffffffffffffffffffffffffff19161480611a0c57507f5b5e139f000000000000000000000000000000000000000000000000000000007bffffffffffffffffffffffffffffffffffffffffffffffffffffffff1916827bffffffffffffffffffffffffffffffffffffffffffffffffffffffff1916145b80611a1c5750611a1b82612810565b5b9050919050565b6000611a2d612153565b82108015611a42575081611a3f61214e565b11155b9050919050565b600033905090565b816005600083815260200190815260200160002060006101000a81548173ffffffffffffffffffffffffffffffffffffffff021916908373ffffffffffffffffffffffffffffffffffffffff160217905550808273ffffffffffffffffffffffffffffffffffffffff16611ac483610e15565b73ffffffffffffffffffffffffffffffffffffffff167f8c5be1e5ebec7d5bd14f71427d1e84f3dd0314c0f7b2291e5b200ac8c7c3b92560405160405180910390a45050565b6000611b1461214e565b600454611b21919061463d565b905090565b600060075414611b6b576040517f08c379a0000000000000000000000000000000000000000000000000000000008152600401611b62906146bd565b60405180910390fd5b80600081518110611b7f57611b7e6143ae565b5b60200260200101516007819055505050565b6000611b9c82611a23565b611bdb576040517f08c379a0000000000000000000000000000000000000000000000000000000008152600401611bd29061474f565b60405180910390fd5b6000611be683610e15565b90508073ffffffffffffffffffffffffffffffffffffffff168473ffffffffffffffffffffffffffffffffffffffff161480611c5557508373ffffffffffffffffffffffffffffffffffffffff16611c3d846107f8565b73ffffffffffffffffffffffffffffffffffffffff16145b80611c665750611c6581856116aa565b5b91505092915050565b600080611c7b836120bd565b915091508473ffffffffffffffffffffffffffffffffffffffff168273ffffffffffffffffffffffffffffffffffffffff1614611ced576040517f08c379a0000000000000000000000000000000000000000000000000000000008152600401611ce4906147e1565b60405180910390fd5b600073ffffffffffffffffffffffffffffffffffffffff168473ffffffffffffffffffffffffffffffffffffffff1603611d5c576040517f08c379a0000000000000000000000000000000000000000000000000000000008152600401611d5390614873565b60405180910390fd5b611d69858585600161287a565b611d74600084611a51565b6000600184611d839190614893565b9050611d9981600061291690919063ffffffff16565b158015611dac5750611da9612153565b81105b15611e1857856003600083815260200190815260200160002060006101000a81548173ffffffffffffffffffffffffffffffffffffffff021916908373ffffffffffffffffffffffffffffffffffffffff160217905550611e1781600061297190919063ffffffff16565b5b846003600086815260200190815260200160002060006101000a81548173ffffffffffffffffffffffffffffffffffffffff021916908373ffffffffffffffffffffffffffffffffffffffff160217905550818414611e8657611e8584600061297190919063ffffffff16565b5b838573ffffffffffffffffffffffffffffffffffffffff168773ffffffffffffffffffffffffffffffffffffffff167fddf252ad1be2c89b69c2b068fc378daa952ba7f163c4a11628f55a4df523b3ef60405160405180910390a4611eee86868660016129ce565b505050505050565b611efe6129d4565b15611f35576040517f3d693ada00000000000000000000000000000000000000000000000000000000815260040160405180910390fd5b60008103611f6f576040517f1f2a200500000000000000000000000000000000000000000000000000000000815260040160405180910390fd5b80600954611f7d91906148c7565b341015611fb6576040517f1101129400000000000000000000000000000000000000000000000000000000815260040160405180910390fd5b7f000000000000000000000000000000000000000000000000000000000000000081600f60003373ffffffffffffffffffffffffffffffffffffffff1673ffffffffffffffffffffffffffffffffffffffff168152602001908152602001600020546120229190614893565b111561205a576040517f0b6ca92800000000000000000000000000000000000000000000000000000000815260040160405180910390fd5b80600f60003373ffffffffffffffffffffffffffffffffffffffff1673ffffffffffffffffffffffffffffffffffffffff16815260200190815260200160002060008282546120a99190614893565b925050819055506120ba33826129e1565b50565b6000806120c983611a23565b612108576040517f08c379a00000000000000000000000000000000000000000000000000000000081526004016120ff9061497b565b60405180910390fd5b612111836129ff565b90506003600082815260200190815260200160002060009054906101000a900473ffffffffffffffffffffffffffffffffffffffff169150915091565b600090565b6000600454905090565b6000600860009054906101000a900473ffffffffffffffffffffffffffffffffffffffff16905081600860006101000a81548173ffffffffffffffffffffffffffffffffffffffff021916908373ffffffffffffffffffffffffffffffffffffffff1602179055508173ffffffffffffffffffffffffffffffffffffffff168173ffffffffffffffffffffffffffffffffffffffff167f8be0079c531659141344cd1fd0a4f28419497f9722a3daafe3b4186f6b6457e060405160405180910390a35050565b600060075414612268576040517f08c379a000000000000000000000000000000000000000000000000000000000815260040161225f906146bd565b60405180910390fd5b6000612272612a1c565b73ffffffffffffffffffffffffffffffffffffffff16635d3b1d30612295612a44565b61229d612a6c565b6122a5612a94565b62030d4060016040518663ffffffff1660e01b81526004016122cb959493929190614a35565b6020604051808303816000875af11580156122ea573d6000803e3d6000fd5b505050506040513d601f19601f8201168201806040525081019061230e9190614a9d565b90507f76421cb080d40e8a03ba462b500012451ba59bdebc46694dc458807c1d754b628160405161233f9190613719565b60405180910390a150565b612355848484611c6f565b612363848484600185612a9d565b6123a2576040517f08c379a000000000000000000000000000000000000000000000000000000000815260040161239990614b3c565b60405180910390fd5b50505050565b60008082905060005b85518110156124505760008682815181106123cf576123ce6143ae565b5b602002602001015190508083116124105782816040516020016123f3929190614b7d565b60405160208183030381529060405280519060200120925061243c565b8083604051602001612423929190614b7d565b6040516020818303038152906040528051906020012092505b50808061244890614366565b9150506123b1565b508381149150509392505050565b6060600b805461246d90613cd3565b80601f016020809104026020016040519081016040528092919081815260200182805461249990613cd3565b80156124e65780601f106124bb576101008083540402835291602001916124e6565b820191906000526020600020905b8154815290600101906020018083116124c957829003601f168201915b5050505050905090565b6060600a80546124ff90613cd3565b80601f016020809104026020016040519081016040528092919081815260200182805461252b90613cd3565b80156125785780601f1061254d57610100808354040283529160200191612578565b820191906000526020600020905b81548152906001019060200180831161255b57829003601f168201915b5050505050905090565b60007f0000000000000000000000000000000000000000000000000000000000000000905090565b60008184106040518060400160405280601e81526020017f696e707574206973206e6f742077697468696e2074686520646f6d61696e000081525090612626576040517f08c379a000000000000000000000000000000000000000000000000000000000815260040161261d91906133e6565b60405180910390fd5b506000600161263484612c5f565b0160ff1690505b60011561266b5761265a8460038388612cd1909392919063ffffffff16565b915082821061266b5781945061263b565b509392505050565b6060600082036126ba576040518060400160405280600181526020017f300000000000000000000000000000000000000000000000000000000000000081525090506127ce565b600082905060005b600082146126ec5780806126d590614366565b915050600a826126e59190614bd8565b91506126c2565b60008167ffffffffffffffff81111561270857612707613596565b5b6040519080825280601f01601f19166020018201604052801561273a5781602001600182028036833780820191505090505b5090505b600085146127c757600182612753919061463d565b9150600a856127629190614c09565b603061276e9190614893565b60f81b818381518110612784576127836143ae565b5b60200101907effffffffffffffffffffffffffffffffffffffffffffffffffffffffffffff1916908160001a905350600a856127c09190614bd8565b945061273e565b8093505050505b919050565b60606040518060400160405280600581526020017f2e6a736f6e000000000000000000000000000000000000000000000000000000815250905090565b60007f01ffc9a7000000000000000000000000000000000000000000000000000000007bffffffffffffffffffffffffffffffffffffffffffffffffffffffff1916827bffffffffffffffffffffffffffffffffffffffffffffffffffffffff1916149050919050565b600073ffffffffffffffffffffffffffffffffffffffff168473ffffffffffffffffffffffffffffffffffffffff1603612904576128b6612582565b81836128c29190614893565b1115612903576040517f08c379a00000000000000000000000000000000000000000000000000000000081526004016128fa90614c86565b60405180910390fd5b5b61291084848484612e36565b50505050565b600080600883901c9050600060ff84167f8000000000000000000000000000000000000000000000000000000000000000901c9050600081866000016000858152602001908152602001600020541614159250505092915050565b6000600882901c9050600060ff83167f8000000000000000000000000000000000000000000000000000000000000000901c9050808460000160008481526020019081526020016000206000828254179250508190555050505050565b50505050565b6000806007541415905090565b6129fb828260405180602001604052806000815250612e3c565b5050565b6000612a15826000612ea590919063ffffffff16565b9050919050565b60007f0000000000000000000000000000000000000000000000000000000000000000905090565b60007f0000000000000000000000000000000000000000000000000000000000000000905090565b60007f0000000000000000000000000000000000000000000000000000000000000000905090565b6000600a905090565b6000612abe8573ffffffffffffffffffffffffffffffffffffffff16612f9e565b15612c51576001905060008490505b8385612ad99190614893565b811015612c4b578573ffffffffffffffffffffffffffffffffffffffff1663150b7a02612b04611a49565b8984876040518563ffffffff1660e01b8152600401612b269493929190614cfb565b6020604051808303816000875af1925050508015612b6257506040513d601f19601f82011682018060405250810190612b5f9190614d5c565b60015b612be4573d8060008114612b92576040519150601f19603f3d011682016040523d82523d6000602084013e612b97565b606091505b506000815103612bdc576040517f08c379a0000000000000000000000000000000000000000000000000000000008152600401612bd390614b3c565b60405180910390fd5b805181602001fd5b828015612c35575063150b7a0260e01b7bffffffffffffffffffffffffffffffffffffffffffffffffffffffff1916817bffffffffffffffffffffffffffffffffffffffffffffffffffffffff1916145b9250508080612c4390614366565b915050612acd565b50612c56565b600190505b95945050505050565b60006040518061012001604052806101008152602001614f69610100913960f87e818283848586878898a8b8c8d8e8f929395969799a9b9d9e9faaeb6bedeeff612ca885612fb1565b02901c81518110612cbc57612cbb6143ae565b5b602001015160f81c60f81b60f81c9050919050565b60008060028381612ce557612ce4614ba9565b5b0490506000818403905060006001826001901b03905060006001846001901b039050600082858b901c1690506000828b16905060005b89811015612df25760008b82604051602001612d38929190614d89565b6040516020818303038152906040528051906020012060001c9050600083905060008060028581612d6c57612d6b614ba9565b5b0603612da9578483604051602001612d85929190614d89565b6040516020818303038152906040528051906020012060001c881686189050612ddc565b8483604051602001612dbc929190614d89565b6040516020818303038152906040528051906020012060001c8716861890505b8195508094505050508080600101915050612d1b565b50600060028a81612e0657612e05614ba9565b5b0603612e1f57808683901b179650505050505050612e2e565b808583901b1796505050505050505b949350505050565b50505050565b6000612e46612153565b9050612e528484613015565b612e60600085838686612a9d565b612e9f576040517f08c379a0000000000000000000000000000000000000000000000000000000008152600401612e9690614b3c565b60405180910390fd5b50505050565b600080600883901c9050600060ff8416905060008560000160008481526020019081526020016000205490508160ff1881901c90506000811115612efe57612eec816131fa565b60ff168203600884901b179350612f95565b5b600115612f945760008311612f49576040517f08c379a0000000000000000000000000000000000000000000000000000000008152600401612f4090614e24565b60405180910390fd5b8280600190039350508560000160008481526020019081526020016000205490506000811115612f8f57612f7c816131fa565b60ff0360ff16600884901b179350612f94565b612eff565b5b50505092915050565b600080823b905060008111915050919050565b6000808211612fbf57600080fd5b608082901c82179150604082901c82179150602082901c82179150601082901c82179150600882901c82179150600482901c82179150600282901c82179150600182901c8217915060018083901c019050919050565b600061301f612153565b905060008211613064576040517f08c379a000000000000000000000000000000000000000000000000000000000815260040161305b90614eb6565b60405180910390fd5b600073ffffffffffffffffffffffffffffffffffffffff168373ffffffffffffffffffffffffffffffffffffffff16036130d3576040517f08c379a00000000000000000000000000000000000000000000000000000000081526004016130ca90614f48565b60405180910390fd5b6130e0600084838561287a565b81600460008282546130f29190614893565b92505081905550826003600083815260200190815260200160002060006101000a81548173ffffffffffffffffffffffffffffffffffffffff021916908373ffffffffffffffffffffffffffffffffffffffff16021790555061315f81600061297190919063ffffffff16565b61316c60008483856129ce565b60008190505b828261317e9190614893565b8110156131f457808473ffffffffffffffffffffffffffffffffffffffff16600073ffffffffffffffffffffffffffffffffffffffff167fddf252ad1be2c89b69c2b068fc378daa952ba7f163c4a11628f55a4df523b3ef60405160405180910390a480806131ec90614366565b915050613172565b50505050565b60006040518061012001604052806101008152602001614f69610100913960f87e818283848586878898a8b8c8d8e8f929395969799a9b9d9e9faaeb6bedeeff6132438561326c565b02901c81518110613257576132566143ae565b5b602001015160f81c60f81b60f81c9050919050565b600080821161327a57600080fd5b8160000382169050919050565b6000604051905090565b600080fd5b600080fd5b60007fffffffff0000000000000000000000000000000000000000000000000000000082169050919050565b6132d08161329b565b81146132db57600080fd5b50565b6000813590506132ed816132c7565b92915050565b60006020828403121561330957613308613291565b5b6000613317848285016132de565b91505092915050565b60008115159050919050565b61333581613320565b82525050565b6000602082019050613350600083018461332c565b92915050565b600081519050919050565b600082825260208201905092915050565b60005b83811015613390578082015181840152602081019050613375565b60008484015250505050565b6000601f19601f8301169050919050565b60006133b882613356565b6133c28185613361565b93506133d2818560208601613372565b6133db8161339c565b840191505092915050565b6000602082019050818103600083015261340081846133ad565b905092915050565b6000819050919050565b61341b81613408565b811461342657600080fd5b50565b60008135905061343881613412565b92915050565b60006020828403121561345457613453613291565b5b600061346284828501613429565b91505092915050565b600073ffffffffffffffffffffffffffffffffffffffff82169050919050565b60006134968261346b565b9050919050565b6134a68161348b565b82525050565b60006020820190506134c1600083018461349d565b92915050565b6134d08161348b565b81146134db57600080fd5b50565b6000813590506134ed816134c7565b92915050565b6000806040838503121561350a57613509613291565b5b6000613518858286016134de565b925050602061352985828601613429565b9150509250929050565b61353c81613320565b811461354757600080fd5b50565b60008135905061355981613533565b92915050565b60006020828403121561357557613574613291565b5b60006135838482850161354a565b91505092915050565b600080fd5b600080fd5b7f4e487b7100000000000000000000000000000000000000000000000000000000600052604160045260246000fd5b6135ce8261339c565b810181811067ffffffffffffffff821117156135ed576135ec613596565b5b80604052505050565b6000613600613287565b905061360c82826135c5565b919050565b600067ffffffffffffffff82111561362c5761362b613596565b5b6136358261339c565b9050602081019050919050565b82818337600083830152505050565b600061366461365f84613611565b6135f6565b9050828152602081018484840111156136805761367f613591565b5b61368b848285613642565b509392505050565b600082601f8301126136a8576136a761358c565b5b81356136b8848260208601613651565b91505092915050565b6000602082840312156136d7576136d6613291565b5b600082013567ffffffffffffffff8111156136f5576136f4613296565b5b61370184828501613693565b91505092915050565b61371381613408565b82525050565b600060208201905061372e600083018461370a565b92915050565b600067ffffffffffffffff82111561374f5761374e613596565b5b602082029050602081019050919050565b600080fd5b600061377861377384613734565b6135f6565b9050808382526020820190506020840283018581111561379b5761379a613760565b5b835b818110156137c457806137b08882613429565b84526020840193505060208101905061379d565b5050509392505050565b600082601f8301126137e3576137e261358c565b5b81356137f3848260208601613765565b91505092915050565b6000806040838503121561381357613812613291565b5b600061382185828601613429565b925050602083013567ffffffffffffffff81111561384257613841613296565b5b61384e858286016137ce565b9150509250929050565b60008060006060848603121561387157613870613291565b5b600061387f868287016134de565b9350506020613890868287016134de565b92505060406138a186828701613429565b9150509250925092565b6000602082840312156138c1576138c0613291565b5b60006138cf848285016134de565b91505092915050565b600081519050919050565b600082825260208201905092915050565b6000819050602082019050919050565b61390d81613408565b82525050565b600061391f8383613904565b60208301905092915050565b6000602082019050919050565b6000613943826138d8565b61394d81856138e3565b9350613958836138f4565b8060005b838110156139895781516139708882613913565b975061397b8361392b565b92505060018101905061395c565b5085935050505092915050565b600060208201905081810360008301526139b08184613938565b905092915050565b600080604083850312156139cf576139ce613291565b5b60006139dd858286016134de565b92505060206139ee8582860161354a565b9150509250929050565b6000819050919050565b613a0b816139f8565b82525050565b6000602082019050613a266000830184613a02565b92915050565b600067ffffffffffffffff821115613a4757613a46613596565b5b613a508261339c565b9050602081019050919050565b6000613a70613a6b84613a2c565b6135f6565b905082815260208101848484011115613a8c57613a8b613591565b5b613a97848285613642565b509392505050565b600082601f830112613ab457613ab361358c565b5b8135613ac4848260208601613a5d565b91505092915050565b60008060008060808587031215613ae757613ae6613291565b5b6000613af5878288016134de565b9450506020613b06878288016134de565b9350506040613b1787828801613429565b925050606085013567ffffffffffffffff811115613b3857613b37613296565b5b613b4487828801613a9f565b91505092959194509250565b600080fd5b60008083601f840112613b6b57613b6a61358c565b5b8235905067ffffffffffffffff811115613b8857613b87613b50565b5b602083019150836020820283011115613ba457613ba3613760565b5b9250929050565b600080600060408486031215613bc457613bc3613291565b5b6000613bd286828701613429565b935050602084013567ffffffffffffffff811115613bf357613bf2613296565b5b613bff86828701613b55565b92509250509250925092565b60008060408385031215613c2257613c21613291565b5b6000613c30858286016134de565b9250506020613c41858286016134de565b9150509250929050565b613c54816139f8565b8114613c5f57600080fd5b50565b600081359050613c7181613c4b565b92915050565b600060208284031215613c8d57613c8c613291565b5b6000613c9b84828501613c62565b91505092915050565b7f4e487b7100000000000000000000000000000000000000000000000000000000600052602260045260246000fd5b60006002820490506001821680613ceb57607f821691505b602082108103613cfe57613cfd613ca4565b5b50919050565b7f4552433732315073693a20617070726f76656420717565727920666f72206e6f60008201527f6e6578697374656e7420746f6b656e0000000000000000000000000000000000602082015250565b6000613d60602f83613361565b9150613d6b82613d04565b604082019050919050565b60006020820190508181036000830152613d8f81613d53565b9050919050565b7f4552433732315073693a20617070726f76616c20746f2063757272656e74206f60008201527f776e657200000000000000000000000000000000000000000000000000000000602082015250565b6000613df2602483613361565b9150613dfd82613d96565b604082019050919050565b60006020820190508181036000830152613e2181613de5565b9050919050565b7f4552433732315073693a20617070726f76652063616c6c6572206973206e6f7460008201527f206f776e6572206e6f7220617070726f76656420666f7220616c6c0000000000602082015250565b6000613e84603b83613361565b9150613e8f82613e28565b604082019050919050565b60006020820190508181036000830152613eb381613e77565b9050919050565b7f4f776e61626c653a2063616c6c6572206973206e6f7420746865206f776e6572600082015250565b6000613ef0602083613361565b9150613efb82613eba565b602082019050919050565b60006020820190508181036000830152613f1f81613ee3565b9050919050565b60008190508160005260206000209050919050565b60006020601f8301049050919050565b600082821b905092915050565b600060088302613f887fffffffffffffffffffffffffffffffffffffffffffffffffffffffffffffffff82613f4b565b613f928683613f4b565b95508019841693508086168417925050509392505050565b6000819050919050565b6000613fcf613fca613fc584613408565b613faa565b613408565b9050919050565b6000819050919050565b613fe983613fb4565b613ffd613ff582613fd6565b848454613f58565b825550505050565b600090565b614012614005565b61401d818484613fe0565b505050565b5b818110156140415761403660008261400a565b600181019050614023565b5050565b601f8211156140865761405781613f26565b61406084613f3b565b8101602085101561406f578190505b61408361407b85613f3b565b830182614022565b50505b505050565b600082821c905092915050565b60006140a96000198460080261408b565b1980831691505092915050565b60006140c28383614098565b9150826002028217905092915050565b6140db82613356565b67ffffffffffffffff8111156140f4576140f3613596565b5b6140fe8254613cd3565b614109828285614045565b600060209050601f83116001811461413c576000841561412a578287015190505b61413485826140b6565b86555061419c565b601f19841661414a86613f26565b60005b828110156141725784890151825560018201915060208501945060208101905061414d565b8683101561418f578489015161418b601f891682614098565b8355505b6001600288020188555050505b505050505050565b60006040820190506141b9600083018561349d565b6141c6602083018461349d565b9392505050565b7f4552433732315073693a207472616e736665722063616c6c6572206973206e6f60008201527f74206f776e6572206e6f7220617070726f766564000000000000000000000000602082015250565b6000614229603483613361565b9150614234826141cd565b604082019050919050565b600060208201905081810360008301526142588161421c565b9050919050565b600081905092915050565b50565b600061427a60008361425f565b91506142858261426a565b600082019050919050565b600061429b8261426d565b9150819050919050565b7f4552433732315073693a2062616c616e636520717565727920666f722074686560008201527f207a65726f206164647265737300000000000000000000000000000000000000602082015250565b6000614301602d83613361565b915061430c826142a5565b604082019050919050565b60006020820190508181036000830152614330816142f4565b9050919050565b7f4e487b7100000000000000000000000000000000000000000000000000000000600052601160045260246000fd5b600061437182613408565b91507fffffffffffffffffffffffffffffffffffffffffffffffffffffffffffffffff82036143a3576143a2614337565b5b600182019050919050565b7f4e487b7100000000000000000000000000000000000000000000000000000000600052603260045260246000fd5b7f4552433732315073693a20617070726f766520746f2063616c6c657200000000600082015250565b6000614413601c83613361565b915061441e826143dd565b602082019050919050565b6000602082019050818103600083015261444281614406565b9050919050565b60008160601b9050919050565b600061446182614449565b9050919050565b600061447382614456565b9050919050565b61448b6144868261348b565b614468565b82525050565b600061449d828461447a565b60148201915081905092915050565b7f4552433732315073693a2055524920717565727920666f72206e6f6e6578697360008201527f74656e7420746f6b656e00000000000000000000000000000000000000000000602082015250565b6000614508602a83613361565b9150614513826144ac565b604082019050919050565b60006020820190508181036000830152614537816144fb565b9050919050565b600081905092915050565b600061455482613356565b61455e818561453e565b935061456e818560208601613372565b80840191505092915050565b60006145868286614549565b91506145928285614549565b915061459e8284614549565b9150819050949350505050565b7f4f776e61626c653a206e6577206f776e657220697320746865207a65726f206160008201527f6464726573730000000000000000000000000000000000000000000000000000602082015250565b6000614607602683613361565b9150614612826145ab565b604082019050919050565b60006020820190508181036000830152614636816145fa565b9050919050565b600061464882613408565b915061465383613408565b925082820390508181111561466b5761466a614337565b5b92915050565b7f416c72656164792072657665616c656400000000000000000000000000000000600082015250565b60006146a7601083613361565b91506146b282614671565b602082019050919050565b600060208201905081810360008301526146d68161469a565b9050919050565b7f4552433732315073693a206f70657261746f7220717565727920666f72206e6f60008201527f6e6578697374656e7420746f6b656e0000000000000000000000000000000000602082015250565b6000614739602f83613361565b9150614744826146dd565b604082019050919050565b600060208201905081810360008301526147688161472c565b9050919050565b7f4552433732315073693a207472616e73666572206f6620746f6b656e2074686160008201527f74206973206e6f74206f776e0000000000000000000000000000000000000000602082015250565b60006147cb602c83613361565b91506147d68261476f565b604082019050919050565b600060208201905081810360008301526147fa816147be565b9050919050565b7f4552433732315073693a207472616e7366657220746f20746865207a65726f2060008201527f6164647265737300000000000000000000000000000000000000000000000000602082015250565b600061485d602783613361565b915061486882614801565b604082019050919050565b6000602082019050818103600083015261488c81614850565b9050919050565b600061489e82613408565b91506148a983613408565b92508282019050808211156148c1576148c0614337565b5b92915050565b60006148d282613408565b91506148dd83613408565b92508282026148eb81613408565b9150828204841483151761490257614901614337565b5b5092915050565b7f4552433732315073693a206f776e657220717565727920666f72206e6f6e657860008201527f697374656e7420746f6b656e0000000000000000000000000000000000000000602082015250565b6000614965602c83613361565b915061497082614909565b604082019050919050565b6000602082019050818103600083015261499481614958565b9050919050565b600067ffffffffffffffff82169050919050565b6149b88161499b565b82525050565b600061ffff82169050919050565b6149d5816149be565b82525050565b600063ffffffff82169050919050565b6149f4816149db565b82525050565b6000819050919050565b6000614a1f614a1a614a15846149fa565b613faa565b6149db565b9050919050565b614a2f81614a04565b82525050565b600060a082019050614a4a6000830188613a02565b614a5760208301876149af565b614a6460408301866149cc565b614a7160608301856149eb565b614a7e6080830184614a26565b9695505050505050565b600081519050614a9781613412565b92915050565b600060208284031215614ab357614ab2613291565b5b6000614ac184828501614a88565b91505092915050565b7f4552433732315073693a207472616e7366657220746f206e6f6e20455243373260008201527f31526563656976657220696d706c656d656e7465720000000000000000000000602082015250565b6000614b26603583613361565b9150614b3182614aca565b604082019050919050565b60006020820190508181036000830152614b5581614b19565b9050919050565b6000819050919050565b614b77614b72826139f8565b614b5c565b82525050565b6000614b898285614b66565b602082019150614b998284614b66565b6020820191508190509392505050565b7f4e487b7100000000000000000000000000000000000000000000000000000000600052601260045260246000fd5b6000614be382613408565b9150614bee83613408565b925082614bfe57614bfd614ba9565b5b828204905092915050565b6000614c1482613408565b9150614c1f83613408565b925082614c2f57614c2e614ba9565b5b828206905092915050565b7f457863656564206d6178696d756d20737570706c792100000000000000000000600082015250565b6000614c70601683613361565b9150614c7b82614c3a565b602082019050919050565b60006020820190508181036000830152614c9f81614c63565b9050919050565b600081519050919050565b600082825260208201905092915050565b6000614ccd82614ca6565b614cd78185614cb1565b9350614ce7818560208601613372565b614cf08161339c565b840191505092915050565b6000608082019050614d10600083018761349d565b614d1d602083018661349d565b614d2a604083018561370a565b8181036060830152614d3c8184614cc2565b905095945050505050565b600081519050614d56816132c7565b92915050565b600060208284031215614d7257614d71613291565b5b6000614d8084828501614d47565b91505092915050565b6000604082019050614d9e600083018561370a565b614dab602083018461370a565b9392505050565b7f4269744d6170733a205468652073657420626974206265666f7265207468652060008201527f696e64657820646f65736e27742065786973742e000000000000000000000000602082015250565b6000614e0e603483613361565b9150614e1982614db2565b604082019050919050565b60006020820190508181036000830152614e3d81614e01565b9050919050565b7f4552433732315073693a207175616e74697479206d757374206265206772656160008201527f7465722030000000000000000000000000000000000000000000000000000000602082015250565b6000614ea0602583613361565b9150614eab82614e44565b604082019050919050565b60006020820190508181036000830152614ecf81614e93565b9050919050565b7f4552433732315073693a206d696e7420746f20746865207a65726f206164647260008201527f6573730000000000000000000000000000000000000000000000000000000000602082015250565b6000614f32602383613361565b9150614f3d82614ed6565b604082019050919050565b60006020820190508181036000830152614f6181614f25565b905091905056fe0001020903110a19042112290b311a3905412245134d2a550c5d32651b6d3a7506264262237d468514804e8d2b95569d0d495ea533a966b11c886eb93bc176c9071727374353637324837e9b47af86c7155181ad4fd18ed32c9096db57d59ee30e2e4a6a5f92a6be3498aae067ddb2eb1d5989b56fd7baf33ca0c2ee77e5caf7ff0810182028303840444c545c646c7425617c847f8c949c48a4a8b087b8c0c816365272829aaec650acd0d28fdad4e22d6991bd97dfdcea58b4d6f29fede4f6fe0f1f2f3f4b5b6b607b8b93a3a7b7bf357199c5abcfd9e168bcdee9b3f1ecf5fd1e3e5a7a8aa2b670c4ced8bbe8f0f4fc3d79a1c3cde7effb78cce6facbf9f8a26469706673582212200e69a8e739ba6b10a471ed935af9c6dad9c7ec7871877c3c66110b24a865e5c864736f6c63430008130033",
  "linkReferences": {},
  "deployedLinkReferences": {}
}