{
  "_format": "hh-sol-artifact-1",
  "contractName": "LuckyNFTFactory",
  "sourceName": "contracts/LuckyNFTFactory.sol",
  "abi": [
    {
      "anonymous": false,
      "inputs": [
        {
          "indexed": false,
          "internalType": "address",
          "name": "owner",
          "type": "address"
        },
        {
          "indexed": false,
          "internalType": "address",
          "name": "tokenAddress",
          "type": "address"
        }
      ],
      "name": "LuckyTokenCreated",
      "type": "event"
    },
    {
      "inputs": [
        {
          "internalType": "uint64",
          "name": "subscriptionId",
          "type": "uint64"
        },
        {
          "internalType": "string",
          "name": "baseURI",
          "type": "string"
        },
        {
          "internalType": "address",
          "name": "_premiumNFT",
          "type": "address"
        }
      ],
      "name": "deployLuckyToken",
      "outputs": [
        {
          "internalType": "address",
          "name": "",
          "type": "address"
        }
      ],
      "stateMutability": "nonpayable",
      "type": "function"
    },
    {
      "inputs": [],
      "name": "getTotalCollection",
      "outputs": [
        {
          "internalType": "uint256",
          "name": "amount",
          "type": "uint256"
        }
      ],
      "stateMutability": "view",
      "type": "function"
    },
    {
      "inputs": [
        {
          "internalType": "uint256",
          "name": "",
          "type": "uint256"
        }
      ],
      "name": "tokens",
      "outputs": [
        {
          "internalType": "contract LuckyNFT",
          "name": "",
          "type": "address"
        }
      ],
      "stateMutability": "view",
      "type": "function"
    }
  ],
  "bytecode": "0x608060405234801561001057600080fd5b50614a29806100206000396000f3fe60806040523480156200001157600080fd5b5060043610620000465760003560e01c8063459dcbc3146200004b5780634f64b2be146200006d578063fee6019614620000a3575b600080fd5b62000055620000d9565b60405162000064919062000239565b60405180910390f35b6200008b60048036038101906200008591906200029b565b620000e5565b6040516200009a919062000358565b60405180910390f35b620000c16004803603810190620000bb919062000561565b62000125565b604051620000d09190620005ed565b60405180910390f35b60008080549050905090565b60008181548110620000f657600080fd5b906000526020600020016000915054906101000a900473ffffffffffffffffffffffffffffffffffffffff1681565b600080848484604051620001399062000210565b6200014793929190620006a4565b604051809103906000f08015801562000164573d6000803e3d6000fd5b5090506000819080600181540180825580915050600190039060005260206000200160009091909190916101000a81548173ffffffffffffffffffffffffffffffffffffffff021916908373ffffffffffffffffffffffffffffffffffffffff1602179055507f08f8ddc58da0990451da09ad3f6e8dcf4b845ecb4a6f67e8c877af65db3b1cf53382604051620001fd929190620006e8565b60405180910390a1809150509392505050565b6142de806200071683390190565b6000819050919050565b62000233816200021e565b82525050565b600060208201905062000250600083018462000228565b92915050565b6000604051905090565b600080fd5b600080fd5b62000275816200021e565b81146200028157600080fd5b50565b60008135905062000295816200026a565b92915050565b600060208284031215620002b457620002b362000260565b5b6000620002c48482850162000284565b91505092915050565b600073ffffffffffffffffffffffffffffffffffffffff82169050919050565b6000819050919050565b600062000318620003126200030c84620002cd565b620002ed565b620002cd565b9050919050565b60006200032c82620002f7565b9050919050565b600062000340826200031f565b9050919050565b620003528162000333565b82525050565b60006020820190506200036f600083018462000347565b92915050565b600067ffffffffffffffff82169050919050565b620003948162000375565b8114620003a057600080fd5b50565b600081359050620003b48162000389565b92915050565b600080fd5b600080fd5b6000601f19601f8301169050919050565b7f4e487b7100000000000000000000000000000000000000000000000000000000600052604160045260246000fd5b6200040f82620003c4565b810181811067ffffffffffffffff82111715620004315762000430620003d5565b5b80604052505050565b60006200044662000256565b905062000454828262000404565b919050565b600067ffffffffffffffff821115620004775762000476620003d5565b5b6200048282620003c4565b9050602081019050919050565b82818337600083830152505050565b6000620004b5620004af8462000459565b6200043a565b905082815260208101848484011115620004d457620004d3620003bf565b5b620004e18482856200048f565b509392505050565b600082601f830112620005015762000500620003ba565b5b8135620005138482602086016200049e565b91505092915050565b60006200052982620002cd565b9050919050565b6200053b816200051c565b81146200054757600080fd5b50565b6000813590506200055b8162000530565b92915050565b6000806000606084860312156200057d576200057c62000260565b5b60006200058d86828701620003a3565b935050602084013567ffffffffffffffff811115620005b157620005b062000265565b5b620005bf86828701620004e9565b9250506040620005d2868287016200054a565b9150509250925092565b620005e7816200051c565b82525050565b6000602082019050620006046000830184620005dc565b92915050565b620006158162000375565b82525050565b600081519050919050565b600082825260208201905092915050565b60005b83811015620006575780820151818401526020810190506200063a565b60008484015250505050565b600062000670826200061b565b6200067c818562000626565b93506200068e81856020860162000637565b6200069981620003c4565b840191505092915050565b6000606082019050620006bb60008301866200060a565b8181036020830152620006cf818562000663565b9050620006e06040830184620005dc565b949350505050565b6000604082019050620006ff6000830185620005dc565b6200070e6020830184620005dc565b939250505056fe60e060405262061a80600a60006101000a81548163ffffffff021916908363ffffffff1602179055506003600a60046101000a81548161ffff021916908361ffff1602179055506001600a60066101000a81548163ffffffff021916908363ffffffff1602179055503480156200007557600080fd5b50604051620042de380380620042de83398181016040528101906200009b9190620004ed565b732ed832ba664535e5886b75d64c46eb9a228c26106040518060400160405280600881526020017f4c75636b794e46540000000000000000000000000000000000000000000000008152506040518060400160405280600381526020017f4c5443000000000000000000000000000000000000000000000000000000000081525081600090816200012d9190620007b3565b5080600190816200013f9190620007b3565b5050508073ffffffffffffffffffffffffffffffffffffffff1660808173ffffffffffffffffffffffffffffffffffffffff1681525050507f354d2f95da55398f44b7cff77da56283d9c6c829a4bdf1bbcaf2ad6a4d081f6160001b60a08181525050732ed832ba664535e5886b75d64c46eb9a228c2610600660006101000a81548173ffffffffffffffffffffffffffffffffffffffff021916908373ffffffffffffffffffffffffffffffffffffffff1602179055508267ffffffffffffffff1660c08167ffffffffffffffff168152505081600b9081620002249190620007b3565b5080601060006101000a81548173ffffffffffffffffffffffffffffffffffffffff021916908373ffffffffffffffffffffffffffffffffffffffff16021790555080601160006101000a81548173ffffffffffffffffffffffffffffffffffffffff021916908373ffffffffffffffffffffffffffffffffffffffff1602179055505050506200089a565b6000604051905090565b600080fd5b600080fd5b600067ffffffffffffffff82169050919050565b620002e381620002c4565b8114620002ef57600080fd5b50565b6000815190506200030381620002d8565b92915050565b600080fd5b600080fd5b6000601f19601f8301169050919050565b7f4e487b7100000000000000000000000000000000000000000000000000000000600052604160045260246000fd5b6200035e8262000313565b810181811067ffffffffffffffff8211171562000380576200037f62000324565b5b80604052505050565b600062000395620002b0565b9050620003a3828262000353565b919050565b600067ffffffffffffffff821115620003c657620003c562000324565b5b620003d18262000313565b9050602081019050919050565b60005b83811015620003fe578082015181840152602081019050620003e1565b60008484015250505050565b6000620004216200041b84620003a8565b62000389565b90508281526020810184848401111562000440576200043f6200030e565b5b6200044d848285620003de565b509392505050565b600082601f8301126200046d576200046c62000309565b5b81516200047f8482602086016200040a565b91505092915050565b600073ffffffffffffffffffffffffffffffffffffffff82169050919050565b6000620004b58262000488565b9050919050565b620004c781620004a8565b8114620004d357600080fd5b50565b600081519050620004e781620004bc565b92915050565b600080600060608486031215620005095762000508620002ba565b5b60006200051986828701620002f2565b935050602084015167ffffffffffffffff8111156200053d576200053c620002bf565b5b6200054b8682870162000455565b92505060406200055e86828701620004d6565b9150509250925092565b600081519050919050565b7f4e487b7100000000000000000000000000000000000000000000000000000000600052602260045260246000fd5b60006002820490506001821680620005bb57607f821691505b602082108103620005d157620005d062000573565b5b50919050565b60008190508160005260206000209050919050565b60006020601f8301049050919050565b600082821b905092915050565b6000600883026200063b7fffffffffffffffffffffffffffffffffffffffffffffffffffffffffffffffff82620005fc565b620006478683620005fc565b95508019841693508086168417925050509392505050565b6000819050919050565b6000819050919050565b6000620006946200068e62000688846200065f565b62000669565b6200065f565b9050919050565b6000819050919050565b620006b08362000673565b620006c8620006bf826200069b565b84845462000609565b825550505050565b600090565b620006df620006d0565b620006ec818484620006a5565b505050565b5b81811015620007145762000708600082620006d5565b600181019050620006f2565b5050565b601f82111562000763576200072d81620005d7565b6200073884620005ec565b8101602085101562000748578190505b620007606200075785620005ec565b830182620006f1565b50505b505050565b600082821c905092915050565b6000620007886000198460080262000768565b1980831691505092915050565b6000620007a3838362000775565b9150826002028217905092915050565b620007be8262000568565b67ffffffffffffffff811115620007da57620007d962000324565b5b620007e68254620005a2565b620007f382828562000718565b600060209050601f8311600181146200082b576000841562000816578287015190505b62000822858262000795565b86555062000892565b601f1984166200083b86620005d7565b60005b8281101562000865578489015182556001820191506020850194506020810190506200083e565b8683101562000885578489015162000881601f89168262000775565b8355505b6001600288020188555050505b505050505050565b60805160a05160c051613a0d620008d160003960006112d0015260006112af0152600081816108a301526108f70152613a0d6000f3fe608060405234801561001057600080fd5b506004361061018e5760003560e01c80638796ba8c116100de578063c4c97c4e11610097578063e262ca7c11610071578063e262ca7c146104e3578063e985e9c514610513578063edc183c614610543578063fc2a88c3146105735761018e565b8063c4c97c4e14610452578063c87b56dd14610482578063d8a4676f146104b25761018e565b80638796ba8c1461036b57806395d89b411461039b578063a168fa89146103b9578063a22cb465146103ea578063a3ed931a14610406578063b88d4fde146104365761018e565b806342842e0e1161014b5780636352211e116101255780636352211e146102bd57806365935e1b146102ed57806370a082311461030b578063843a36fe1461033b5761018e565b806342842e0e146102655780634a60f620146102815780635a6019851461029f5761018e565b806301ffc9a71461019357806306fdde03146101c3578063081812fc146101e1578063095ea7b3146102115780631fe543e31461022d57806323b872dd14610249575b600080fd5b6101ad60048036038101906101a89190612474565b610591565b6040516101ba91906124bc565b60405180910390f35b6101cb610673565b6040516101d89190612567565b60405180910390f35b6101fb60048036038101906101f691906125bf565b610705565b604051610208919061262d565b60405180910390f35b61022b60048036038101906102269190612674565b61078a565b005b610247600480360381019061024291906127fc565b6108a1565b005b610263600480360381019061025e9190612858565b610961565b005b61027f600480360381019061027a9190612858565b6109c1565b005b6102896109e1565b60405161029691906128ba565b60405180910390f35b6102a76109e7565b6040516102b4919061262d565b60405180910390f35b6102d760048036038101906102d291906125bf565b610a0d565b6040516102e4919061262d565b60405180910390f35b6102f5610abe565b6040516103029190612567565b60405180910390f35b610325600480360381019061032091906128d5565b610b4c565b60405161033291906128ba565b60405180910390f35b610355600480360381019061035091906125bf565b610c03565b604051610362919061262d565b60405180910390f35b610385600480360381019061038091906125bf565b610c36565b60405161039291906128ba565b60405180910390f35b6103a3610c5a565b6040516103b09190612567565b60405180910390f35b6103d360048036038101906103ce91906125bf565b610cec565b6040516103e1929190612902565b60405180910390f35b61040460048036038101906103ff9190612957565b610d2a565b005b610420600480360381019061041b91906125bf565b610eaa565b60405161042d91906128ba565b60405180910390f35b610450600480360381019061044b9190612a4c565b610ec2565b005b61046c600480360381019061046791906128d5565b610f24565b60405161047991906128ba565b60405180910390f35b61049c600480360381019061049791906125bf565b610f3c565b6040516104a99190612567565b60405180910390f35b6104cc60048036038101906104c791906125bf565b610fe3565b6040516104da929190612b8d565b60405180910390f35b6104fd60048036038101906104f891906128d5565b61110e565b60405161050a91906128ba565b60405180910390f35b61052d60048036038101906105289190612bbd565b61156d565b60405161053a91906124bc565b60405180910390f35b61055d600480360381019061055891906128d5565b611601565b60405161056a91906128ba565b60405180910390f35b61057b6116a6565b60405161058891906128ba565b60405180910390f35b60007f80ac58cd000000000000000000000000000000000000000000000000000000007bffffffffffffffffffffffffffffffffffffffffffffffffffffffff1916827bffffffffffffffffffffffffffffffffffffffffffffffffffffffff1916148061065c57507f5b5e139f000000000000000000000000000000000000000000000000000000007bffffffffffffffffffffffffffffffffffffffffffffffffffffffff1916827bffffffffffffffffffffffffffffffffffffffffffffffffffffffff1916145b8061066c575061066b826116ac565b5b9050919050565b60606000805461068290612c2c565b80601f01602080910402602001604051908101604052809291908181526020018280546106ae90612c2c565b80156106fb5780601f106106d0576101008083540402835291602001916106fb565b820191906000526020600020905b8154815290600101906020018083116106de57829003601f168201915b5050505050905090565b600061071082611716565b61074f576040517f08c379a000000000000000000000000000000000000000000000000000000000815260040161074690612ccf565b60405180910390fd5b6004600083815260200190815260200160002060009054906101000a900473ffffffffffffffffffffffffffffffffffffffff169050919050565b600061079582610a0d565b90508073ffffffffffffffffffffffffffffffffffffffff168373ffffffffffffffffffffffffffffffffffffffff1603610805576040517f08c379a00000000000000000000000000000000000000000000000000000000081526004016107fc90612d61565b60405180910390fd5b8073ffffffffffffffffffffffffffffffffffffffff16610824611782565b73ffffffffffffffffffffffffffffffffffffffff16148061085357506108528161084d611782565b61156d565b5b610892576040517f08c379a000000000000000000000000000000000000000000000000000000000815260040161088990612df3565b60405180910390fd5b61089c838361178a565b505050565b7f000000000000000000000000000000000000000000000000000000000000000073ffffffffffffffffffffffffffffffffffffffff163373ffffffffffffffffffffffffffffffffffffffff161461095357337f00000000000000000000000000000000000000000000000000000000000000006040517f1cf993f400000000000000000000000000000000000000000000000000000000815260040161094a929190612e13565b60405180910390fd5b61095d8282611843565b5050565b61097261096c611782565b82611a32565b6109b1576040517f08c379a00000000000000000000000000000000000000000000000000000000081526004016109a890612eae565b60405180910390fd5b6109bc838383611b10565b505050565b6109dc83838360405180602001604052806000815250610ec2565b505050565b600c5481565b601060009054906101000a900473ffffffffffffffffffffffffffffffffffffffff1681565b6000806002600084815260200190815260200160002060009054906101000a900473ffffffffffffffffffffffffffffffffffffffff169050600073ffffffffffffffffffffffffffffffffffffffff168173ffffffffffffffffffffffffffffffffffffffff1603610ab5576040517f08c379a0000000000000000000000000000000000000000000000000000000008152600401610aac90612f40565b60405180910390fd5b80915050919050565b600b8054610acb90612c2c565b80601f0160208091040260200160405190810160405280929190818152602001828054610af790612c2c565b8015610b445780601f10610b1957610100808354040283529160200191610b44565b820191906000526020600020905b815481529060010190602001808311610b2757829003601f168201915b505050505081565b60008073ffffffffffffffffffffffffffffffffffffffff168273ffffffffffffffffffffffffffffffffffffffff1603610bbc576040517f08c379a0000000000000000000000000000000000000000000000000000000008152600401610bb390612fd2565b60405180910390fd5b600360008373ffffffffffffffffffffffffffffffffffffffff1673ffffffffffffffffffffffffffffffffffffffff168152602001908152602001600020549050919050565b600e6020528060005260406000206000915054906101000a900473ffffffffffffffffffffffffffffffffffffffff1681565b60088181548110610c4657600080fd5b906000526020600020016000915090505481565b606060018054610c6990612c2c565b80601f0160208091040260200160405190810160405280929190818152602001828054610c9590612c2c565b8015610ce25780601f10610cb757610100808354040283529160200191610ce2565b820191906000526020600020905b815481529060010190602001808311610cc557829003601f168201915b5050505050905090565b60076020528060005260406000206000915090508060000160009054906101000a900460ff16908060000160019054906101000a900460ff16905082565b610d32611782565b73ffffffffffffffffffffffffffffffffffffffff168273ffffffffffffffffffffffffffffffffffffffff1603610d9f576040517f08c379a0000000000000000000000000000000000000000000000000000000008152600401610d969061303e565b60405180910390fd5b8060056000610dac611782565b73ffffffffffffffffffffffffffffffffffffffff1673ffffffffffffffffffffffffffffffffffffffff16815260200190815260200160002060008473ffffffffffffffffffffffffffffffffffffffff1673ffffffffffffffffffffffffffffffffffffffff16815260200190815260200160002060006101000a81548160ff0219169083151502179055508173ffffffffffffffffffffffffffffffffffffffff16610e59611782565b73ffffffffffffffffffffffffffffffffffffffff167f17307eab39ab6107e8899845ad3d59bd9653f200f220920489ca2b5937696c3183604051610e9e91906124bc565b60405180910390a35050565b600d6020528060005260406000206000915090505481565b610ed3610ecd611782565b83611a32565b610f12576040517f08c379a0000000000000000000000000000000000000000000000000000000008152600401610f0990612eae565b60405180910390fd5b610f1e84848484611d6b565b50505050565b600f6020528060005260406000206000915090505481565b6060610f4782611716565b610f86576040517f08c379a0000000000000000000000000000000000000000000000000000000008152600401610f7d906130d0565b60405180910390fd5b6000610f90611dc7565b90506000815111610fb05760405180602001604052806000815250610fdb565b80610fba84611e59565b604051602001610fcb92919061312c565b6040516020818303038152906040525b915050919050565b600060606007600084815260200190815260200160002060000160019054906101000a900460ff1661104a576040517f08c379a00000000000000000000000000000000000000000000000000000000081526004016110419061319c565b60405180910390fd5b6000600760008581526020019081526020016000206040518060600160405290816000820160009054906101000a900460ff161515151581526020016000820160019054906101000a900460ff16151515158152602001600182018054806020026020016040519081016040528092919081815260200182805480156110ef57602002820191906000526020600020905b8154815260200190600101908083116110db575b5050505050815250509050806000015181604001519250925050915091565b600080600f60008473ffffffffffffffffffffffffffffffffffffffff1673ffffffffffffffffffffffffffffffffffffffff1681526020019081526020016000205414611191576040517f08c379a000000000000000000000000000000000000000000000000000000000815260040161118890613208565b60405180910390fd5b6000601160009054906101000a900473ffffffffffffffffffffffffffffffffffffffff1673ffffffffffffffffffffffffffffffffffffffff166370a08231846040518263ffffffff1660e01b81526004016111ee919061262d565b602060405180830381865afa15801561120b573d6000803e3d6000fd5b505050506040513d601f19601f8201168201806040525081019061122f919061323d565b1161126f576040517f08c379a0000000000000000000000000000000000000000000000000000000008152600401611266906132dc565b60405180910390fd5b600660009054906101000a900473ffffffffffffffffffffffffffffffffffffffff1673ffffffffffffffffffffffffffffffffffffffff16635d3b1d307f00000000000000000000000000000000000000000000000000000000000000007f0000000000000000000000000000000000000000000000000000000000000000600a60049054906101000a900461ffff16600a60009054906101000a900463ffffffff16600a60069054906101000a900463ffffffff166040518663ffffffff1660e01b8152600401611346959493929190613374565b6020604051808303816000875af1158015611365573d6000803e3d6000fd5b505050506040513d601f19601f82011682018060405250810190611389919061323d565b90506040518060600160405280600015158152602001600115158152602001600067ffffffffffffffff8111156113c3576113c26126b9565b5b6040519080825280602002602001820160405280156113f15781602001602082028036833780820191505090505b508152506007600083815260200190815260200160002060008201518160000160006101000a81548160ff02191690831515021790555060208201518160000160016101000a81548160ff021916908315150217905550604082015181600101908051906020019061146492919061239e565b5090505060088190806001815401808255809150506001900390600052602060002001600090919091909150558060098190555081600e600083815260200190815260200160002060006101000a81548173ffffffffffffffffffffffffffffffffffffffff021916908373ffffffffffffffffffffffffffffffffffffffff1602179055506065600f60008473ffffffffffffffffffffffffffffffffffffffff1673ffffffffffffffffffffffffffffffffffffffff168152602001908152602001600020819055507f03ac09620be00cc6aad517b68f64df0f781078cbb29ef5bbb4940efd168b5ce781836040516115609291906133c7565b60405180910390a1919050565b6000600560008473ffffffffffffffffffffffffffffffffffffffff1673ffffffffffffffffffffffffffffffffffffffff16815260200190815260200160002060008373ffffffffffffffffffffffffffffffffffffffff1673ffffffffffffffffffffffffffffffffffffffff16815260200190815260200160002060009054906101000a900460ff16905092915050565b6000601160009054906101000a900473ffffffffffffffffffffffffffffffffffffffff1673ffffffffffffffffffffffffffffffffffffffff166370a08231836040518263ffffffff1660e01b815260040161165e919061262d565b602060405180830381865afa15801561167b573d6000803e3d6000fd5b505050506040513d601f19601f8201168201806040525081019061169f919061323d565b9050919050565b60095481565b60007f01ffc9a7000000000000000000000000000000000000000000000000000000007bffffffffffffffffffffffffffffffffffffffffffffffffffffffff1916827bffffffffffffffffffffffffffffffffffffffffffffffffffffffff1916149050919050565b60008073ffffffffffffffffffffffffffffffffffffffff166002600084815260200190815260200160002060009054906101000a900473ffffffffffffffffffffffffffffffffffffffff1673ffffffffffffffffffffffffffffffffffffffff1614159050919050565b600033905090565b816004600083815260200190815260200160002060006101000a81548173ffffffffffffffffffffffffffffffffffffffff021916908373ffffffffffffffffffffffffffffffffffffffff160217905550808273ffffffffffffffffffffffffffffffffffffffff166117fd83610a0d565b73ffffffffffffffffffffffffffffffffffffffff167f8c5be1e5ebec7d5bd14f71427d1e84f3dd0314c0f7b2291e5b200ac8c7c3b92560405160405180910390a45050565b6000600160648360008151811061185d5761185c6133f0565b5b602002602001015161186f919061344e565b61187991906134ae565b905060016007600085815260200190815260200160002060000160006101000a81548160ff021916908315150217905550816007600085815260200190815260200160002060010190805190602001906118d492919061239e565b506000600c60008154809291906118ea906134e2565b91905055905081600f6000600e600088815260200190815260200160002060009054906101000a900473ffffffffffffffffffffffffffffffffffffffff1673ffffffffffffffffffffffffffffffffffffffff1673ffffffffffffffffffffffffffffffffffffffff168152602001908152602001600020819055506119a4600e600086815260200190815260200160002060009054906101000a900473ffffffffffffffffffffffffffffffffffffffff1682611fb9565b81600d6000838152602001908152602001600020819055507fbcc124cbe97b4b5f5704c871869ca70bfe02849ea9719ee83411238aeb6feed784600e600087815260200190815260200160002060009054906101000a900473ffffffffffffffffffffffffffffffffffffffff168385604051611a24949392919061352a565b60405180910390a150505050565b6000611a3d82611716565b611a7c576040517f08c379a0000000000000000000000000000000000000000000000000000000008152600401611a73906135e1565b60405180910390fd5b6000611a8783610a0d565b90508073ffffffffffffffffffffffffffffffffffffffff168473ffffffffffffffffffffffffffffffffffffffff161480611af657508373ffffffffffffffffffffffffffffffffffffffff16611ade84610705565b73ffffffffffffffffffffffffffffffffffffffff16145b80611b075750611b06818561156d565b5b91505092915050565b8273ffffffffffffffffffffffffffffffffffffffff16611b3082610a0d565b73ffffffffffffffffffffffffffffffffffffffff1614611b86576040517f08c379a0000000000000000000000000000000000000000000000000000000008152600401611b7d90613673565b60405180910390fd5b600073ffffffffffffffffffffffffffffffffffffffff168273ffffffffffffffffffffffffffffffffffffffff1603611bf5576040517f08c379a0000000000000000000000000000000000000000000000000000000008152600401611bec90613705565b60405180910390fd5b611c00838383611fd7565b611c0b60008261178a565b6001600360008573ffffffffffffffffffffffffffffffffffffffff1673ffffffffffffffffffffffffffffffffffffffff1681526020019081526020016000206000828254611c5b9190613725565b925050819055506001600360008473ffffffffffffffffffffffffffffffffffffffff1673ffffffffffffffffffffffffffffffffffffffff1681526020019081526020016000206000828254611cb291906134ae565b92505081905550816002600083815260200190815260200160002060006101000a81548173ffffffffffffffffffffffffffffffffffffffff021916908373ffffffffffffffffffffffffffffffffffffffff160217905550808273ffffffffffffffffffffffffffffffffffffffff168473ffffffffffffffffffffffffffffffffffffffff167fddf252ad1be2c89b69c2b068fc378daa952ba7f163c4a11628f55a4df523b3ef60405160405180910390a4505050565b611d76848484611b10565b611d8284848484611fdc565b611dc1576040517f08c379a0000000000000000000000000000000000000000000000000000000008152600401611db8906137cb565b60405180910390fd5b50505050565b6060600b8054611dd690612c2c565b80601f0160208091040260200160405190810160405280929190818152602001828054611e0290612c2c565b8015611e4f5780601f10611e2457610100808354040283529160200191611e4f565b820191906000526020600020905b815481529060010190602001808311611e3257829003601f168201915b5050505050905090565b606060008203611ea0576040518060400160405280600181526020017f30000000000000000000000000000000000000000000000000000000000000008152509050611fb4565b600082905060005b60008214611ed2578080611ebb906134e2565b915050600a82611ecb91906137eb565b9150611ea8565b60008167ffffffffffffffff811115611eee57611eed6126b9565b5b6040519080825280601f01601f191660200182016040528015611f205781602001600182028036833780820191505090505b5090505b60008514611fad57600182611f399190613725565b9150600a85611f48919061344e565b6030611f5491906134ae565b60f81b818381518110611f6a57611f696133f0565b5b60200101907effffffffffffffffffffffffffffffffffffffffffffffffffffffffffffff1916908160001a905350600a85611fa691906137eb565b9450611f24565b8093505050505b919050565b611fd3828260405180602001604052806000815250612163565b5050565b505050565b6000611ffd8473ffffffffffffffffffffffffffffffffffffffff166121be565b15612156578373ffffffffffffffffffffffffffffffffffffffff1663150b7a02612026611782565b8786866040518563ffffffff1660e01b81526004016120489493929190613871565b6020604051808303816000875af192505050801561208457506040513d601f19601f8201168201806040525081019061208191906138d2565b60015b612106573d80600081146120b4576040519150601f19603f3d011682016040523d82523d6000602084013e6120b9565b606091505b5060008151036120fe576040517f08c379a00000000000000000000000000000000000000000000000000000000081526004016120f5906137cb565b60405180910390fd5b805181602001fd5b63150b7a0260e01b7bffffffffffffffffffffffffffffffffffffffffffffffffffffffff1916817bffffffffffffffffffffffffffffffffffffffffffffffffffffffff19161491505061215b565b600190505b949350505050565b61216d83836121d1565b61217a6000848484611fdc565b6121b9576040517f08c379a00000000000000000000000000000000000000000000000000000000081526004016121b0906137cb565b60405180910390fd5b505050565b600080823b905060008111915050919050565b600073ffffffffffffffffffffffffffffffffffffffff168273ffffffffffffffffffffffffffffffffffffffff1603612240576040517f08c379a00000000000000000000000000000000000000000000000000000000081526004016122379061394b565b60405180910390fd5b61224981611716565b15612289576040517f08c379a0000000000000000000000000000000000000000000000000000000008152600401612280906139b7565b60405180910390fd5b61229560008383611fd7565b6001600360008473ffffffffffffffffffffffffffffffffffffffff1673ffffffffffffffffffffffffffffffffffffffff16815260200190815260200160002060008282546122e591906134ae565b92505081905550816002600083815260200190815260200160002060006101000a81548173ffffffffffffffffffffffffffffffffffffffff021916908373ffffffffffffffffffffffffffffffffffffffff160217905550808273ffffffffffffffffffffffffffffffffffffffff16600073ffffffffffffffffffffffffffffffffffffffff167fddf252ad1be2c89b69c2b068fc378daa952ba7f163c4a11628f55a4df523b3ef60405160405180910390a45050565b8280548282559060005260206000209081019282156123da579160200282015b828111156123d95782518255916020019190600101906123be565b5b5090506123e791906123eb565b5090565b5b808211156124045760008160009055506001016123ec565b5090565b6000604051905090565b600080fd5b600080fd5b60007fffffffff0000000000000000000000000000000000000000000000000000000082169050919050565b6124518161241c565b811461245c57600080fd5b50565b60008135905061246e81612448565b92915050565b60006020828403121561248a57612489612412565b5b60006124988482850161245f565b91505092915050565b60008115159050919050565b6124b6816124a1565b82525050565b60006020820190506124d160008301846124ad565b92915050565b600081519050919050565b600082825260208201905092915050565b60005b838110156125115780820151818401526020810190506124f6565b60008484015250505050565b6000601f19601f8301169050919050565b6000612539826124d7565b61254381856124e2565b93506125538185602086016124f3565b61255c8161251d565b840191505092915050565b60006020820190508181036000830152612581818461252e565b905092915050565b6000819050919050565b61259c81612589565b81146125a757600080fd5b50565b6000813590506125b981612593565b92915050565b6000602082840312156125d5576125d4612412565b5b60006125e3848285016125aa565b91505092915050565b600073ffffffffffffffffffffffffffffffffffffffff82169050919050565b6000612617826125ec565b9050919050565b6126278161260c565b82525050565b6000602082019050612642600083018461261e565b92915050565b6126518161260c565b811461265c57600080fd5b50565b60008135905061266e81612648565b92915050565b6000806040838503121561268b5761268a612412565b5b60006126998582860161265f565b92505060206126aa858286016125aa565b9150509250929050565b600080fd5b7f4e487b7100000000000000000000000000000000000000000000000000000000600052604160045260246000fd5b6126f18261251d565b810181811067ffffffffffffffff821117156127105761270f6126b9565b5b80604052505050565b6000612723612408565b905061272f82826126e8565b919050565b600067ffffffffffffffff82111561274f5761274e6126b9565b5b602082029050602081019050919050565b600080fd5b600061277861277384612734565b612719565b9050808382526020820190506020840283018581111561279b5761279a612760565b5b835b818110156127c457806127b088826125aa565b84526020840193505060208101905061279d565b5050509392505050565b600082601f8301126127e3576127e26126b4565b5b81356127f3848260208601612765565b91505092915050565b6000806040838503121561281357612812612412565b5b6000612821858286016125aa565b925050602083013567ffffffffffffffff81111561284257612841612417565b5b61284e858286016127ce565b9150509250929050565b60008060006060848603121561287157612870612412565b5b600061287f8682870161265f565b93505060206128908682870161265f565b92505060406128a1868287016125aa565b9150509250925092565b6128b481612589565b82525050565b60006020820190506128cf60008301846128ab565b92915050565b6000602082840312156128eb576128ea612412565b5b60006128f98482850161265f565b91505092915050565b600060408201905061291760008301856124ad565b61292460208301846124ad565b9392505050565b612934816124a1565b811461293f57600080fd5b50565b6000813590506129518161292b565b92915050565b6000806040838503121561296e5761296d612412565b5b600061297c8582860161265f565b925050602061298d85828601612942565b9150509250929050565b600080fd5b600067ffffffffffffffff8211156129b7576129b66126b9565b5b6129c08261251d565b9050602081019050919050565b82818337600083830152505050565b60006129ef6129ea8461299c565b612719565b905082815260208101848484011115612a0b57612a0a612997565b5b612a168482856129cd565b509392505050565b600082601f830112612a3357612a326126b4565b5b8135612a438482602086016129dc565b91505092915050565b60008060008060808587031215612a6657612a65612412565b5b6000612a748782880161265f565b9450506020612a858782880161265f565b9350506040612a96878288016125aa565b925050606085013567ffffffffffffffff811115612ab757612ab6612417565b5b612ac387828801612a1e565b91505092959194509250565b600081519050919050565b600082825260208201905092915050565b6000819050602082019050919050565b612b0481612589565b82525050565b6000612b168383612afb565b60208301905092915050565b6000602082019050919050565b6000612b3a82612acf565b612b448185612ada565b9350612b4f83612aeb565b8060005b83811015612b80578151612b678882612b0a565b9750612b7283612b22565b925050600181019050612b53565b5085935050505092915050565b6000604082019050612ba260008301856124ad565b8181036020830152612bb48184612b2f565b90509392505050565b60008060408385031215612bd457612bd3612412565b5b6000612be28582860161265f565b9250506020612bf38582860161265f565b9150509250929050565b7f4e487b7100000000000000000000000000000000000000000000000000000000600052602260045260246000fd5b60006002820490506001821680612c4457607f821691505b602082108103612c5757612c56612bfd565b5b50919050565b7f4552433732313a20617070726f76656420717565727920666f72206e6f6e657860008201527f697374656e7420746f6b656e0000000000000000000000000000000000000000602082015250565b6000612cb9602c836124e2565b9150612cc482612c5d565b604082019050919050565b60006020820190508181036000830152612ce881612cac565b9050919050565b7f4552433732313a20617070726f76616c20746f2063757272656e74206f776e6560008201527f7200000000000000000000000000000000000000000000000000000000000000602082015250565b6000612d4b6021836124e2565b9150612d5682612cef565b604082019050919050565b60006020820190508181036000830152612d7a81612d3e565b9050919050565b7f4552433732313a20617070726f76652063616c6c6572206973206e6f74206f7760008201527f6e6572206e6f7220617070726f76656420666f7220616c6c0000000000000000602082015250565b6000612ddd6038836124e2565b9150612de882612d81565b604082019050919050565b60006020820190508181036000830152612e0c81612dd0565b9050919050565b6000604082019050612e28600083018561261e565b612e35602083018461261e565b9392505050565b7f4552433732313a207472616e736665722063616c6c6572206973206e6f74206f60008201527f776e6572206e6f7220617070726f766564000000000000000000000000000000602082015250565b6000612e986031836124e2565b9150612ea382612e3c565b604082019050919050565b60006020820190508181036000830152612ec781612e8b565b9050919050565b7f4552433732313a206f776e657220717565727920666f72206e6f6e657869737460008201527f656e7420746f6b656e0000000000000000000000000000000000000000000000602082015250565b6000612f2a6029836124e2565b9150612f3582612ece565b604082019050919050565b60006020820190508181036000830152612f5981612f1d565b9050919050565b7f4552433732313a2062616c616e636520717565727920666f7220746865207a6560008201527f726f206164647265737300000000000000000000000000000000000000000000602082015250565b6000612fbc602a836124e2565b9150612fc782612f60565b604082019050919050565b60006020820190508181036000830152612feb81612faf565b9050919050565b7f4552433732313a20617070726f766520746f2063616c6c657200000000000000600082015250565b60006130286019836124e2565b915061303382612ff2565b602082019050919050565b600060208201905081810360008301526130578161301b565b9050919050565b7f4552433732314d657461646174613a2055524920717565727920666f72206e6f60008201527f6e6578697374656e7420746f6b656e0000000000000000000000000000000000602082015250565b60006130ba602f836124e2565b91506130c58261305e565b604082019050919050565b600060208201905081810360008301526130e9816130ad565b9050919050565b600081905092915050565b6000613106826124d7565b61311081856130f0565b93506131208185602086016124f3565b80840191505092915050565b600061313882856130fb565b915061314482846130fb565b91508190509392505050565b7f72657175657374206e6f7420666f756e64000000000000000000000000000000600082015250565b60006131866011836124e2565b915061319182613150565b602082019050919050565b600060208201905081810360008301526131b581613179565b9050919050565b7f416c726561647920647261776564000000000000000000000000000000000000600082015250565b60006131f2600e836124e2565b91506131fd826131bc565b602082019050919050565b60006020820190508181036000830152613221816131e5565b9050919050565b60008151905061323781612593565b92915050565b60006020828403121561325357613252612412565b5b600061326184828501613228565b91505092915050565b7f53656e64657220686176656e2774207375627363726962656420746f2063726560008201527f61746f7200000000000000000000000000000000000000000000000000000000602082015250565b60006132c66024836124e2565b91506132d18261326a565b604082019050919050565b600060208201905081810360008301526132f5816132b9565b9050919050565b6000819050919050565b61330f816132fc565b82525050565b600067ffffffffffffffff82169050919050565b61333281613315565b82525050565b600061ffff82169050919050565b61334f81613338565b82525050565b600063ffffffff82169050919050565b61336e81613355565b82525050565b600060a0820190506133896000830188613306565b6133966020830187613329565b6133a36040830186613346565b6133b06060830185613365565b6133bd6080830184613365565b9695505050505050565b60006040820190506133dc60008301856128ab565b6133e9602083018461261e565b9392505050565b7f4e487b7100000000000000000000000000000000000000000000000000000000600052603260045260246000fd5b7f4e487b7100000000000000000000000000000000000000000000000000000000600052601260045260246000fd5b600061345982612589565b915061346483612589565b9250826134745761347361341f565b5b828206905092915050565b7f4e487b7100000000000000000000000000000000000000000000000000000000600052601160045260246000fd5b60006134b982612589565b91506134c483612589565b92508282019050808211156134dc576134db61347f565b5b92915050565b60006134ed82612589565b91507fffffffffffffffffffffffffffffffffffffffffffffffffffffffffffffffff820361351f5761351e61347f565b5b600182019050919050565b600060808201905061353f60008301876128ab565b61354c602083018661261e565b61355960408301856128ab565b61356660608301846128ab565b95945050505050565b7f4552433732313a206f70657261746f7220717565727920666f72206e6f6e657860008201527f697374656e7420746f6b656e0000000000000000000000000000000000000000602082015250565b60006135cb602c836124e2565b91506135d68261356f565b604082019050919050565b600060208201905081810360008301526135fa816135be565b9050919050565b7f4552433732313a207472616e73666572206f6620746f6b656e2074686174206960008201527f73206e6f74206f776e0000000000000000000000000000000000000000000000602082015250565b600061365d6029836124e2565b915061366882613601565b604082019050919050565b6000602082019050818103600083015261368c81613650565b9050919050565b7f4552433732313a207472616e7366657220746f20746865207a65726f2061646460008201527f7265737300000000000000000000000000000000000000000000000000000000602082015250565b60006136ef6024836124e2565b91506136fa82613693565b604082019050919050565b6000602082019050818103600083015261371e816136e2565b9050919050565b600061373082612589565b915061373b83612589565b92508282039050818111156137535761375261347f565b5b92915050565b7f4552433732313a207472616e7366657220746f206e6f6e20455243373231526560008201527f63656976657220696d706c656d656e7465720000000000000000000000000000602082015250565b60006137b56032836124e2565b91506137c082613759565b604082019050919050565b600060208201905081810360008301526137e4816137a8565b9050919050565b60006137f682612589565b915061380183612589565b9250826138115761381061341f565b5b828204905092915050565b600081519050919050565b600082825260208201905092915050565b60006138438261381c565b61384d8185613827565b935061385d8185602086016124f3565b6138668161251d565b840191505092915050565b6000608082019050613886600083018761261e565b613893602083018661261e565b6138a060408301856128ab565b81810360608301526138b28184613838565b905095945050505050565b6000815190506138cc81612448565b92915050565b6000602082840312156138e8576138e7612412565b5b60006138f6848285016138bd565b91505092915050565b7f4552433732313a206d696e7420746f20746865207a65726f2061646472657373600082015250565b60006139356020836124e2565b9150613940826138ff565b602082019050919050565b6000602082019050818103600083015261396481613928565b9050919050565b7f4552433732313a20746f6b656e20616c7265616479206d696e74656400000000600082015250565b60006139a1601c836124e2565b91506139ac8261396b565b602082019050919050565b600060208201905081810360008301526139d081613994565b905091905056fea2646970667358221220661127bb0903411867c627a5c06dcbaa05a6ed6a11431ed409e960f25f4221f764736f6c63430008130033a264697066735822122089bb9e67fc8e2c73127f698bd2f46735883beed00deadfa929b472e31a2a2d7d64736f6c63430008130033",
  "linkReferences": {},
  "deployedLinkReferences": {}
}