{
  "_format": "hh-sol-artifact-1",
  "contractName": "LuckyNFTFactory",
  "sourceName": "contracts/LuckyNFTFactory.sol",
  "abi": [
    {
      "anonymous": false,
      "inputs": [
        {
          "indexed": false,
          "internalType": "address",
          "name": "owner",
          "type": "address"
        },
        {
          "indexed": false,
          "internalType": "address",
          "name": "tokenAddress",
          "type": "address"
        }
      ],
      "name": "LuckyTokenCreated",
      "type": "event"
    },
    {
      "inputs": [
        {
          "internalType": "uint64",
          "name": "subscriptionId",
          "type": "uint64"
        },
        {
          "internalType": "string",
          "name": "baseURI",
          "type": "string"
        },
        {
          "internalType": "address",
          "name": "_premiumNFT",
          "type": "address"
        }
      ],
      "name": "deployLuckyToken",
      "outputs": [
        {
          "internalType": "address",
          "name": "",
          "type": "address"
        }
      ],
      "stateMutability": "nonpayable",
      "type": "function"
    },
    {
      "inputs": [],
      "name": "getTotalCollection",
      "outputs": [
        {
          "internalType": "uint256",
          "name": "amount",
          "type": "uint256"
        }
      ],
      "stateMutability": "view",
      "type": "function"
    },
    {
      "inputs": [
        {
          "internalType": "uint256",
          "name": "",
          "type": "uint256"
        }
      ],
      "name": "tokens",
      "outputs": [
        {
          "internalType": "contract LuckyNFT",
          "name": "",
          "type": "address"
        }
      ],
      "stateMutability": "view",
      "type": "function"
    }
  ],
  "bytecode": "0x608060405234801561001057600080fd5b506128f6806100206000396000f3fe608060405234801561001057600080fd5b50600436106100415760003560e01c8063459dcbc3146100465780634f64b2be1461005c578063fee6019614610087575b600080fd5b6000546040519081526020015b60405180910390f35b61006f61006a36600461019c565b61009a565b6040516001600160a01b039091168152602001610053565b61006f6100953660046101e7565b6100c4565b600081815481106100aa57600080fd5b6000918252602090912001546001600160a01b0316905081565b6000808484846040516100d69061018f565b6100e2939291906102c2565b604051809103906000f0801580156100fe573d6000803e3d6000fd5b50600080546001810182559080527f290decd9548b62a8d60345a988386fc84ba6bc95484008f6362f93160ef3e5630180546001600160a01b0319166001600160a01b0383169081179091556040805133815260208101929092529192507f08f8ddc58da0990451da09ad3f6e8dcf4b845ecb4a6f67e8c877af65db3b1cf5910160405180910390a1949350505050565b61258b8061033683390190565b6000602082840312156101ae57600080fd5b5035919050565b634e487b7160e01b600052604160045260246000fd5b80356001600160a01b03811681146101e257600080fd5b919050565b6000806000606084860312156101fc57600080fd5b833567ffffffffffffffff808216821461021557600080fd5b9093506020850135908082111561022b57600080fd5b818601915086601f83011261023f57600080fd5b813581811115610251576102516101b5565b604051601f8201601f19908116603f01168101908382118183101715610279576102796101b5565b8160405282815289602084870101111561029257600080fd5b8260208601602083013760006020848301015280965050505050506102b9604085016101cb565b90509250925092565b67ffffffffffffffff8416815260006020606081840152845180606085015260005b81811015610300578681018301518582016080015282016102e4565b5060008482016080908101919091526001600160a01b03959095166040850152601f01601f191690920190920194935050505056fe60e0604052600b80546001600160501b0319166601000300061a801790553480156200002a57600080fd5b506040516200258b3803806200258b8339810160408190526200004d91620002d8565b732ed832ba664535e5886b75d64c46eb9a228c261060405180604001604052806008815260200167131d58dade53919560c21b815250604051806040016040528060038152602001624c544360e81b8152508160009081620000b0919062000465565b506001620000bf828262000465565b5050506001600160a01b0316608052620000d9336200017e565b7f354d2f95da55398f44b7cff77da56283d9c6c829a4bdf1bbcaf2ad6a4d081f6160a052600780546001600160a01b031916732ed832ba664535e5886b75d64c46eb9a228c26101790556001600160401b03831660c052600c6200013e838262000465565b50601180546001600160a01b0383166001600160a01b031991821681179092556012805490911690911790556200017532620001d0565b50505062000531565b600680546001600160a01b038381166001600160a01b0319831681179093556040519116919082907f8be0079c531659141344cd1fd0a4f28419497f9722a3daafe3b4186f6b6457e090600090a35050565b6006546001600160a01b03163314620002305760405162461bcd60e51b815260206004820181905260248201527f4f776e61626c653a2063616c6c6572206973206e6f7420746865206f776e657260448201526064015b60405180910390fd5b6001600160a01b038116620002975760405162461bcd60e51b815260206004820152602660248201527f4f776e61626c653a206e6577206f776e657220697320746865207a65726f206160448201526564647265737360d01b606482015260840162000227565b620002a2816200017e565b50565b634e487b7160e01b600052604160045260246000fd5b80516001600160a01b0381168114620002d357600080fd5b919050565b600080600060608486031215620002ee57600080fd5b83516001600160401b0380821682146200030757600080fd5b60208681015192955091818111156200031f57600080fd5b8601601f810188136200033157600080fd5b805182811115620003465762000346620002a5565b604051601f8201601f19908116603f01168101908482118183101715620003715762000371620002a5565b816040528281528a868486010111156200038a57600080fd5b600094505b82851015620003ae57838501860151818601870152938501936200038f565b6000868483010152809750505050505050620003cd60408501620002bb565b90509250925092565b600181811c90821680620003eb57607f821691505b6020821081036200040c57634e487b7160e01b600052602260045260246000fd5b50919050565b601f8211156200046057600081815260208120601f850160051c810160208610156200043b5750805b601f850160051c820191505b818110156200045c5782815560010162000447565b5050505b505050565b81516001600160401b03811115620004815762000481620002a5565b6200049981620004928454620003d6565b8462000412565b602080601f831160018114620004d15760008415620004b85750858301515b600019600386901b1c1916600185901b1785556200045c565b600085815260208120601f198616915b828110156200050257888601518255948401946001909101908401620004e1565b5085821015620005215787850151600019600388901b60f8161c191681555b5050505050600190811b01905550565b60805160a05160c051612023620005686000396000610e2801526000610df901526000818161070f015261075101526120236000f3fe608060405234801561001057600080fd5b50600436106101cf5760003560e01c80638796ba8c11610104578063c4c97c4e116100a2578063e985e9c511610071578063e985e9c51461042f578063edc183c614610442578063f2fde38b14610455578063fc2a88c31461046857600080fd5b8063c4c97c4e146103c8578063c87b56dd146103e8578063d8a4676f146103fb578063e262ca7c1461041c57600080fd5b8063a168fa89116100de578063a168fa891461033f578063a22cb46514610382578063a3ed931a14610395578063b88d4fde146103b557600080fd5b80638796ba8c146103135780638da5cb5b1461032657806395d89b411461033757600080fd5b80634a60f6201161017157806365935e1b1161014b57806365935e1b146102c757806370a08231146102cf578063715018a6146102e2578063843a36fe146102ea57600080fd5b80634a60f6201461028a5780635a601985146102a15780636352211e146102b457600080fd5b8063095ea7b3116101ad578063095ea7b31461023c5780631fe543e31461025157806323b872dd1461026457806342842e0e1461027757600080fd5b806301ffc9a7146101d457806306fdde03146101fc578063081812fc14610211575b600080fd5b6101e76101e2366004611a17565b610471565b60405190151581526020015b60405180910390f35b6102046104c3565b6040516101f39190611a84565b61022461021f366004611a97565b610555565b6040516001600160a01b0390911681526020016101f3565b61024f61024a366004611acc565b6105ef565b005b61024f61025f366004611b3d565b610704565b61024f610272366004611bef565b61078c565b61024f610285366004611bef565b6107bd565b610293600d5481565b6040519081526020016101f3565b601154610224906001600160a01b031681565b6102246102c2366004611a97565b6107d8565b61020461084f565b6102936102dd366004611c2b565b6108dd565b61024f610964565b6102246102f8366004611a97565b600f602052600090815260409020546001600160a01b031681565b610293610321366004611a97565b6109ca565b6006546001600160a01b0316610224565b6102046109eb565b61036b61034d366004611a97565b60086020526000908152604090205460ff8082169161010090041682565b6040805192151583529015156020830152016101f3565b61024f610390366004611c46565b6109fa565b6102936103a3366004611a97565b600e6020526000908152604090205481565b61024f6103c3366004611c82565b610abe565b6102936103d6366004611c2b565b60106020526000908152604090205481565b6102046103f6366004611a97565b610af6565b61040e610409366004611a97565b610bd1565b6040516101f3929190611d42565b61029361042a366004611c2b565b610cc5565b6101e761043d366004611d92565b610ffb565b610293610450366004611c2b565b611029565b61024f610463366004611c2b565b611098565b610293600a5481565b60006001600160e01b031982166380ac58cd60e01b14806104a257506001600160e01b03198216635b5e139f60e01b145b806104bd57506301ffc9a760e01b6001600160e01b03198316145b92915050565b6060600080546104d290611dc5565b80601f01602080910402602001604051908101604052809291908181526020018280546104fe90611dc5565b801561054b5780601f106105205761010080835404028352916020019161054b565b820191906000526020600020905b81548152906001019060200180831161052e57829003601f168201915b5050505050905090565b6000818152600260205260408120546001600160a01b03166105d35760405162461bcd60e51b815260206004820152602c60248201527f4552433732313a20617070726f76656420717565727920666f72206e6f6e657860448201526b34b9ba32b73a103a37b5b2b760a11b60648201526084015b60405180910390fd5b506000908152600460205260409020546001600160a01b031690565b60006105fa826107d8565b9050806001600160a01b0316836001600160a01b0316036106675760405162461bcd60e51b815260206004820152602160248201527f4552433732313a20617070726f76616c20746f2063757272656e74206f776e656044820152603960f91b60648201526084016105ca565b336001600160a01b038216148061068357506106838133610ffb565b6106f55760405162461bcd60e51b815260206004820152603860248201527f4552433732313a20617070726f76652063616c6c6572206973206e6f74206f7760448201527f6e6572206e6f7220617070726f76656420666f7220616c6c000000000000000060648201526084016105ca565b6106ff8383611163565b505050565b336001600160a01b037f0000000000000000000000000000000000000000000000000000000000000000161461077e5760405163073e64fd60e21b81523360048201526001600160a01b037f00000000000000000000000000000000000000000000000000000000000000001660248201526044016105ca565b61078882826111d1565b5050565b6107963382611305565b6107b25760405162461bcd60e51b81526004016105ca90611dff565b6106ff8383836113dc565b6106ff83838360405180602001604052806000815250610abe565b6000818152600260205260408120546001600160a01b0316806104bd5760405162461bcd60e51b815260206004820152602960248201527f4552433732313a206f776e657220717565727920666f72206e6f6e657869737460448201526832b73a103a37b5b2b760b91b60648201526084016105ca565b600c805461085c90611dc5565b80601f016020809104026020016040519081016040528092919081815260200182805461088890611dc5565b80156108d55780601f106108aa576101008083540402835291602001916108d5565b820191906000526020600020905b8154815290600101906020018083116108b857829003601f168201915b505050505081565b60006001600160a01b0382166109485760405162461bcd60e51b815260206004820152602a60248201527f4552433732313a2062616c616e636520717565727920666f7220746865207a65604482015269726f206164647265737360b01b60648201526084016105ca565b506001600160a01b031660009081526003602052604090205490565b6006546001600160a01b031633146109be5760405162461bcd60e51b815260206004820181905260248201527f4f776e61626c653a2063616c6c6572206973206e6f7420746865206f776e657260448201526064016105ca565b6109c8600061157c565b565b600981815481106109da57600080fd5b600091825260209091200154905081565b6060600180546104d290611dc5565b336001600160a01b03831603610a525760405162461bcd60e51b815260206004820152601960248201527f4552433732313a20617070726f766520746f2063616c6c65720000000000000060448201526064016105ca565b3360008181526005602090815260408083206001600160a01b03871680855290835292819020805460ff191686151590811790915590519081529192917f17307eab39ab6107e8899845ad3d59bd9653f200f220920489ca2b5937696c31910160405180910390a35050565b610ac83383611305565b610ae45760405162461bcd60e51b81526004016105ca90611dff565b610af0848484846115ce565b50505050565b6000818152600260205260409020546060906001600160a01b0316610b755760405162461bcd60e51b815260206004820152602f60248201527f4552433732314d657461646174613a2055524920717565727920666f72206e6f60448201526e3732bc34b9ba32b73a103a37b5b2b760891b60648201526084016105ca565b6000610b7f611601565b90506000815111610b9f5760405180602001604052806000815250610bca565b80610ba984611610565b604051602001610bba929190611e50565b6040516020818303038152906040525b9392505050565b600081815260086020526040812054606090610100900460ff16610c2b5760405162461bcd60e51b81526020600482015260116024820152701c995c5d595cdd081b9bdd08199bdd5b99607a1b60448201526064016105ca565b60008381526008602090815260408083208151606081018352815460ff8082161515835261010090910416151581850152600182018054845181870281018701865281815292959394860193830182828015610ca657602002820191906000526020600020905b815481526020019060010190808311610c92575b5050505050815250509050806000015181604001519250925050915091565b6001600160a01b03811660009081526010602052604081205415610d1c5760405162461bcd60e51b815260206004820152600e60248201526d105b1c9958591e48191c985dd95960921b60448201526064016105ca565b6012546040516370a0823160e01b81526001600160a01b03848116600483015260009216906370a0823190602401602060405180830381865afa158015610d67573d6000803e3d6000fd5b505050506040513d601f19601f82011682018060405250810190610d8b9190611e7f565b11610de45760405162461bcd60e51b8152602060048201526024808201527f53656e64657220686176656e2774207375627363726962656420746f2063726560448201526330ba37b960e11b60648201526084016105ca565b600754600b546040516305d3b1d360e41b81527f0000000000000000000000000000000000000000000000000000000000000000600482015267ffffffffffffffff7f0000000000000000000000000000000000000000000000000000000000000000166024820152640100000000820461ffff16604482015263ffffffff8083166064830152660100000000000090920490911660848201526001600160a01b0390911690635d3b1d309060a4016020604051808303816000875af1158015610eb2573d6000803e3d6000fd5b505050506040513d601f19601f82011682018060405250810190610ed69190611e7f565b6040805160608101825260008082526001602080840182815285518481528083018752858701908152878552600883529590932084518154945161ffff1990951690151561ff00191617610100941515949094029390931783559351805195965092949193610f4b93918501929101906119a1565b505060098054600181019091557f6e1540171b6c0c960b71a7020d9f60077f6af931a8bbf590da0223dacf75c7af0182905550600a8190556000818152600f6020908152604080832080546001600160a01b0319166001600160a01b0387169081179091558084526010835292819020606590558051848152918201929092527f03ac09620be00cc6aad517b68f64df0f781078cbb29ef5bbb4940efd168b5ce7910160405180910390a1919050565b6001600160a01b03918216600090815260056020908152604080832093909416825291909152205460ff1690565b6012546040516370a0823160e01b81526001600160a01b03838116600483015260009216906370a0823190602401602060405180830381865afa158015611074573d6000803e3d6000fd5b505050506040513d601f19601f820116820180604052508101906104bd9190611e7f565b6006546001600160a01b031633146110f25760405162461bcd60e51b815260206004820181905260248201527f4f776e61626c653a2063616c6c6572206973206e6f7420746865206f776e657260448201526064016105ca565b6001600160a01b0381166111575760405162461bcd60e51b815260206004820152602660248201527f4f776e61626c653a206e6577206f776e657220697320746865207a65726f206160448201526564647265737360d01b60648201526084016105ca565b6111608161157c565b50565b600081815260046020526040902080546001600160a01b0319166001600160a01b0384169081179091558190611198826107d8565b6001600160a01b03167f8c5be1e5ebec7d5bd14f71427d1e84f3dd0314c0f7b2291e5b200ac8c7c3b92560405160405180910390a45050565b60006064826000815181106111e8576111e8611e98565b60200260200101516111fa9190611ec4565b611205906001611eee565b6000848152600860209081526040909120805460ff1916600190811782558551939450611237939101918501906119a1565b50600d80546000918261124983611f01565b909155506000858152600f6020818152604080842080546001600160a01b0390811686526010845291852088905593899052919052905491925061128e911682611711565b6000818152600e60209081526040808320859055868352600f8252918290205482518781526001600160a01b0390911691810191909152908101829052606081018390527fbcc124cbe97b4b5f5704c871869ca70bfe02849ea9719ee83411238aeb6feed79060800160405180910390a150505050565b6000818152600260205260408120546001600160a01b031661137e5760405162461bcd60e51b815260206004820152602c60248201527f4552433732313a206f70657261746f7220717565727920666f72206e6f6e657860448201526b34b9ba32b73a103a37b5b2b760a11b60648201526084016105ca565b6000611389836107d8565b9050806001600160a01b0316846001600160a01b031614806113c45750836001600160a01b03166113b984610555565b6001600160a01b0316145b806113d457506113d48185610ffb565b949350505050565b826001600160a01b03166113ef826107d8565b6001600160a01b0316146114575760405162461bcd60e51b815260206004820152602960248201527f4552433732313a207472616e73666572206f6620746f6b656e2074686174206960448201526839903737ba1037bbb760b91b60648201526084016105ca565b6001600160a01b0382166114b95760405162461bcd60e51b8152602060048201526024808201527f4552433732313a207472616e7366657220746f20746865207a65726f206164646044820152637265737360e01b60648201526084016105ca565b6114c4600082611163565b6001600160a01b03831660009081526003602052604081208054600192906114ed908490611f1a565b90915550506001600160a01b038216600090815260036020526040812080546001929061151b908490611eee565b909155505060008181526002602052604080822080546001600160a01b0319166001600160a01b0386811691821790925591518493918716917fddf252ad1be2c89b69c2b068fc378daa952ba7f163c4a11628f55a4df523b3ef91a4505050565b600680546001600160a01b038381166001600160a01b0319831681179093556040519116919082907f8be0079c531659141344cd1fd0a4f28419497f9722a3daafe3b4186f6b6457e090600090a35050565b6115d98484846113dc565b6115e58484848461172b565b610af05760405162461bcd60e51b81526004016105ca90611f2d565b6060600c80546104d290611dc5565b6060816000036116375750506040805180820190915260018152600360fc1b602082015290565b8160005b8115611661578061164b81611f01565b915061165a9050600a83611f7f565b915061163b565b60008167ffffffffffffffff81111561167c5761167c611af6565b6040519080825280601f01601f1916602001820160405280156116a6576020820181803683370190505b5090505b84156113d4576116bb600183611f1a565b91506116c8600a86611ec4565b6116d3906030611eee565b60f81b8183815181106116e8576116e8611e98565b60200101906001600160f81b031916908160001a90535061170a600a86611f7f565b94506116aa565b61078882826040518060200160405280600081525061182c565b60006001600160a01b0384163b1561182157604051630a85bd0160e11b81526001600160a01b0385169063150b7a029061176f903390899088908890600401611f93565b6020604051808303816000875af19250505080156117aa575060408051601f3d908101601f191682019092526117a791810190611fd0565b60015b611807573d8080156117d8576040519150601f19603f3d011682016040523d82523d6000602084013e6117dd565b606091505b5080516000036117ff5760405162461bcd60e51b81526004016105ca90611f2d565b805181602001fd5b6001600160e01b031916630a85bd0160e11b1490506113d4565b506001949350505050565b611836838361185f565b611843600084848461172b565b6106ff5760405162461bcd60e51b81526004016105ca90611f2d565b6001600160a01b0382166118b55760405162461bcd60e51b815260206004820181905260248201527f4552433732313a206d696e7420746f20746865207a65726f206164647265737360448201526064016105ca565b6000818152600260205260409020546001600160a01b03161561191a5760405162461bcd60e51b815260206004820152601c60248201527f4552433732313a20746f6b656e20616c7265616479206d696e7465640000000060448201526064016105ca565b6001600160a01b0382166000908152600360205260408120805460019290611943908490611eee565b909155505060008181526002602052604080822080546001600160a01b0319166001600160a01b03861690811790915590518392907fddf252ad1be2c89b69c2b068fc378daa952ba7f163c4a11628f55a4df523b3ef908290a45050565b8280548282559060005260206000209081019282156119dc579160200282015b828111156119dc5782518255916020019190600101906119c1565b506119e89291506119ec565b5090565b5b808211156119e857600081556001016119ed565b6001600160e01b03198116811461116057600080fd5b600060208284031215611a2957600080fd5b8135610bca81611a01565b60005b83811015611a4f578181015183820152602001611a37565b50506000910152565b60008151808452611a70816020860160208601611a34565b601f01601f19169290920160200192915050565b602081526000610bca6020830184611a58565b600060208284031215611aa957600080fd5b5035919050565b80356001600160a01b0381168114611ac757600080fd5b919050565b60008060408385031215611adf57600080fd5b611ae883611ab0565b946020939093013593505050565b634e487b7160e01b600052604160045260246000fd5b604051601f8201601f1916810167ffffffffffffffff81118282101715611b3557611b35611af6565b604052919050565b60008060408385031215611b5057600080fd5b8235915060208084013567ffffffffffffffff80821115611b7057600080fd5b818601915086601f830112611b8457600080fd5b813581811115611b9657611b96611af6565b8060051b9150611ba7848301611b0c565b8181529183018401918481019089841115611bc157600080fd5b938501935b83851015611bdf57843582529385019390850190611bc6565b8096505050505050509250929050565b600080600060608486031215611c0457600080fd5b611c0d84611ab0565b9250611c1b60208501611ab0565b9150604084013590509250925092565b600060208284031215611c3d57600080fd5b610bca82611ab0565b60008060408385031215611c5957600080fd5b611c6283611ab0565b915060208301358015158114611c7757600080fd5b809150509250929050565b60008060008060808587031215611c9857600080fd5b611ca185611ab0565b93506020611cb0818701611ab0565b935060408601359250606086013567ffffffffffffffff80821115611cd457600080fd5b818801915088601f830112611ce857600080fd5b813581811115611cfa57611cfa611af6565b611d0c601f8201601f19168501611b0c565b91508082528984828501011115611d2257600080fd5b808484018584013760008482840101525080935050505092959194509250565b60006040820184151583526020604081850152818551808452606086019150828701935060005b81811015611d8557845183529383019391830191600101611d69565b5090979650505050505050565b60008060408385031215611da557600080fd5b611dae83611ab0565b9150611dbc60208401611ab0565b90509250929050565b600181811c90821680611dd957607f821691505b602082108103611df957634e487b7160e01b600052602260045260246000fd5b50919050565b60208082526031908201527f4552433732313a207472616e736665722063616c6c6572206973206e6f74206f6040820152701ddb995c881b9bdc88185c1c1c9bdd9959607a1b606082015260800190565b60008351611e62818460208801611a34565b835190830190611e76818360208801611a34565b01949350505050565b600060208284031215611e9157600080fd5b5051919050565b634e487b7160e01b600052603260045260246000fd5b634e487b7160e01b600052601260045260246000fd5b600082611ed357611ed3611eae565b500690565b634e487b7160e01b600052601160045260246000fd5b808201808211156104bd576104bd611ed8565b600060018201611f1357611f13611ed8565b5060010190565b818103818111156104bd576104bd611ed8565b60208082526032908201527f4552433732313a207472616e7366657220746f206e6f6e20455243373231526560408201527131b2b4bb32b91034b6b83632b6b2b73a32b960711b606082015260800190565b600082611f8e57611f8e611eae565b500490565b6001600160a01b0385811682528416602082015260408101839052608060608201819052600090611fc690830184611a58565b9695505050505050565b600060208284031215611fe257600080fd5b8151610bca81611a0156fea264697066735822122041a06052c42ff333110d6b40f216803cdef09564ab8c59047d870efef48f4e7764736f6c63430008130033a2646970667358221220703fff303bc86a01a549e2c4cda30db3f56da073b4cfa2c80149b5dafbc7795a64736f6c63430008130033",
  "linkReferences": {},
  "deployedLinkReferences": {}
}