{
  "_format": "hh-sol-artifact-1",
  "contractName": "GenerativeNFTFactory",
  "sourceName": "contracts/GenerativeNFTFactory.sol",
  "abi": [
    {
      "anonymous": false,
      "inputs": [
        {
          "indexed": false,
          "internalType": "address",
          "name": "owner",
          "type": "address"
        },
        {
          "indexed": false,
          "internalType": "address",
          "name": "tokenAddress",
          "type": "address"
        }
      ],
      "name": "ERC721TokenCreated",
      "type": "event"
    },
    {
      "inputs": [
        {
          "internalType": "string",
          "name": "name",
          "type": "string"
        },
        {
          "internalType": "string",
          "name": "symbol",
          "type": "string"
        }
      ],
      "name": "deployGenerativeToken",
      "outputs": [
        {
          "internalType": "address",
          "name": "",
          "type": "address"
        }
      ],
      "stateMutability": "nonpayable",
      "type": "function"
    },
    {
      "inputs": [],
      "name": "getTotalCollection",
      "outputs": [
        {
          "internalType": "uint256",
          "name": "amount",
          "type": "uint256"
        }
      ],
      "stateMutability": "view",
      "type": "function"
    },
    {
      "inputs": [
        {
          "internalType": "uint256",
          "name": "",
          "type": "uint256"
        }
      ],
      "name": "indexToContract",
      "outputs": [
        {
          "internalType": "address",
          "name": "",
          "type": "address"
        }
      ],
      "stateMutability": "view",
      "type": "function"
    },
    {
      "inputs": [
        {
          "internalType": "uint256",
          "name": "",
          "type": "uint256"
        }
      ],
      "name": "indexToOwner",
      "outputs": [
        {
          "internalType": "address",
          "name": "",
          "type": "address"
        }
      ],
      "stateMutability": "view",
      "type": "function"
    },
    {
      "inputs": [
        {
          "internalType": "uint256",
          "name": "",
          "type": "uint256"
        }
      ],
      "name": "tokens",
      "outputs": [
        {
          "internalType": "contract GenerativeNFT",
          "name": "",
          "type": "address"
        }
      ],
      "stateMutability": "view",
      "type": "function"
    }
  ],
  "bytecode": "0x608060405234801561001057600080fd5b5061414c806100206000396000f3fe60806040523480156200001157600080fd5b50600436106200005e5760003560e01c806327e19d951462000063578063459dcbc314620000995780634f64b2be14620000bb578063ba535b8e14620000f1578063cd78aefb1462000127575b600080fd5b6200008160048036038101906200007b919062000545565b6200015d565b6040516200009091906200060f565b60405180910390f35b620000a36200030f565b604051620000b2919062000647565b60405180910390f35b620000d96004803603810190620000d3919062000695565b6200031b565b604051620000e8919062000732565b60405180910390f35b6200010f600480360381019062000109919062000695565b6200035b565b6040516200011e91906200060f565b60405180910390f35b6200014560048036038101906200013f919062000695565b6200038e565b6040516200015491906200060f565b60405180910390f35b60008083836040516200017090620003c1565b6200017d929190620007d8565b604051809103906000f0801580156200019a573d6000803e3d6000fd5b5090506000819080600181540180825580915050600190039060005260206000200160009091909190916101000a81548173ffffffffffffffffffffffffffffffffffffffff021916908373ffffffffffffffffffffffffffffffffffffffff1602179055508060016000600160008054905062000219919062000842565b815260200190815260200160002060006101000a81548173ffffffffffffffffffffffffffffffffffffffff021916908373ffffffffffffffffffffffffffffffffffffffff160217905550326002600060016000805490506200027e919062000842565b815260200190815260200160002060006101000a81548173ffffffffffffffffffffffffffffffffffffffff021916908373ffffffffffffffffffffffffffffffffffffffff1602179055507faa19c94b56abf04a93a1f32d59067d3918d378afd32b2d1bea847773b7d08f393382604051620002fd9291906200087d565b60405180910390a18091505092915050565b60008080549050905090565b600081815481106200032c57600080fd5b906000526020600020016000915054906101000a900473ffffffffffffffffffffffffffffffffffffffff1681565b60016020528060005260406000206000915054906101000a900473ffffffffffffffffffffffffffffffffffffffff1681565b60026020528060005260406000206000915054906101000a900473ffffffffffffffffffffffffffffffffffffffff1681565b61386c80620008ab83390190565b6000604051905090565b600080fd5b600080fd5b600080fd5b600080fd5b6000601f19601f8301169050919050565b7f4e487b7100000000000000000000000000000000000000000000000000000000600052604160045260246000fd5b6200043882620003ed565b810181811067ffffffffffffffff821117156200045a5762000459620003fe565b5b80604052505050565b60006200046f620003cf565b90506200047d82826200042d565b919050565b600067ffffffffffffffff821115620004a0576200049f620003fe565b5b620004ab82620003ed565b9050602081019050919050565b82818337600083830152505050565b6000620004de620004d88462000482565b62000463565b905082815260208101848484011115620004fd57620004fc620003e8565b5b6200050a848285620004b8565b509392505050565b600082601f8301126200052a5762000529620003e3565b5b81356200053c848260208601620004c7565b91505092915050565b600080604083850312156200055f576200055e620003d9565b5b600083013567ffffffffffffffff81111562000580576200057f620003de565b5b6200058e8582860162000512565b925050602083013567ffffffffffffffff811115620005b257620005b1620003de565b5b620005c08582860162000512565b9150509250929050565b600073ffffffffffffffffffffffffffffffffffffffff82169050919050565b6000620005f782620005ca565b9050919050565b6200060981620005ea565b82525050565b6000602082019050620006266000830184620005fe565b92915050565b6000819050919050565b62000641816200062c565b82525050565b60006020820190506200065e600083018462000636565b92915050565b6200066f816200062c565b81146200067b57600080fd5b50565b6000813590506200068f8162000664565b92915050565b600060208284031215620006ae57620006ad620003d9565b5b6000620006be848285016200067e565b91505092915050565b6000819050919050565b6000620006f2620006ec620006e684620005ca565b620006c7565b620005ca565b9050919050565b60006200070682620006d1565b9050919050565b60006200071a82620006f9565b9050919050565b6200072c816200070d565b82525050565b600060208201905062000749600083018462000721565b92915050565b600081519050919050565b600082825260208201905092915050565b60005b838110156200078b5780820151818401526020810190506200076e565b60008484015250505050565b6000620007a4826200074f565b620007b081856200075a565b9350620007c28185602086016200076b565b620007cd81620003ed565b840191505092915050565b60006040820190508181036000830152620007f4818562000797565b905081810360208301526200080a818462000797565b90509392505050565b7f4e487b7100000000000000000000000000000000000000000000000000000000600052601160045260246000fd5b60006200084f826200062c565b91506200085c836200062c565b925082820390508181111562000877576200087662000813565b5b92915050565b6000604082019050620008946000830185620005fe565b620008a36020830184620005fe565b939250505056fe60806040523480156200001157600080fd5b506040516200386c3803806200386c8339818101604052810190620000379190620002e8565b818181600090816200004a9190620005b8565b5080600190816200005c9190620005b8565b5050506200007f620000736200008760201b60201c565b6200008f60201b60201c565b50506200069f565b600033905090565b6000600760009054906101000a900473ffffffffffffffffffffffffffffffffffffffff16905081600760006101000a81548173ffffffffffffffffffffffffffffffffffffffff021916908373ffffffffffffffffffffffffffffffffffffffff1602179055508173ffffffffffffffffffffffffffffffffffffffff168173ffffffffffffffffffffffffffffffffffffffff167f8be0079c531659141344cd1fd0a4f28419497f9722a3daafe3b4186f6b6457e060405160405180910390a35050565b6000604051905090565b600080fd5b600080fd5b600080fd5b600080fd5b6000601f19601f8301169050919050565b7f4e487b7100000000000000000000000000000000000000000000000000000000600052604160045260246000fd5b620001be8262000173565b810181811067ffffffffffffffff82111715620001e057620001df62000184565b5b80604052505050565b6000620001f562000155565b9050620002038282620001b3565b919050565b600067ffffffffffffffff82111562000226576200022562000184565b5b620002318262000173565b9050602081019050919050565b60005b838110156200025e57808201518184015260208101905062000241565b60008484015250505050565b6000620002816200027b8462000208565b620001e9565b905082815260208101848484011115620002a0576200029f6200016e565b5b620002ad8482856200023e565b509392505050565b600082601f830112620002cd57620002cc62000169565b5b8151620002df8482602086016200026a565b91505092915050565b600080604083850312156200030257620003016200015f565b5b600083015167ffffffffffffffff81111562000323576200032262000164565b5b6200033185828601620002b5565b925050602083015167ffffffffffffffff81111562000355576200035462000164565b5b6200036385828601620002b5565b9150509250929050565b600081519050919050565b7f4e487b7100000000000000000000000000000000000000000000000000000000600052602260045260246000fd5b60006002820490506001821680620003c057607f821691505b602082108103620003d657620003d562000378565b5b50919050565b60008190508160005260206000209050919050565b60006020601f8301049050919050565b600082821b905092915050565b600060088302620004407fffffffffffffffffffffffffffffffffffffffffffffffffffffffffffffffff8262000401565b6200044c868362000401565b95508019841693508086168417925050509392505050565b6000819050919050565b6000819050919050565b600062000499620004936200048d8462000464565b6200046e565b62000464565b9050919050565b6000819050919050565b620004b58362000478565b620004cd620004c482620004a0565b8484546200040e565b825550505050565b600090565b620004e4620004d5565b620004f1818484620004aa565b505050565b5b8181101562000519576200050d600082620004da565b600181019050620004f7565b5050565b601f82111562000568576200053281620003dc565b6200053d84620003f1565b810160208510156200054d578190505b620005656200055c85620003f1565b830182620004f6565b50505b505050565b600082821c905092915050565b60006200058d600019846008026200056d565b1980831691505092915050565b6000620005a883836200057a565b9150826002028217905092915050565b620005c3826200036d565b67ffffffffffffffff811115620005df57620005de62000184565b5b620005eb8254620003a7565b620005f88282856200051d565b600060209050601f8311600181146200063057600084156200061b578287015190505b6200062785826200059a565b86555062000697565b601f1984166200064086620003dc565b60005b828110156200066a5784890151825560018201915060208501945060208101905062000643565b868310156200068a578489015162000686601f8916826200057a565b8355505b6001600288020188555050505b505050505050565b6131bd80620006af6000396000f3fe608060405234801561001057600080fd5b506004361061010b5760003560e01c8063715018a6116100a2578063b88d4fde11610071578063b88d4fde146102a4578063c87b56dd146102c0578063d204c45e146102f0578063e985e9c51461030c578063f2fde38b1461033c5761010b565b8063715018a6146102425780638da5cb5b1461024c57806395d89b411461026a578063a22cb465146102885761010b565b806323b872dd116100de57806323b872dd146101aa57806342842e0e146101c65780636352211e146101e257806370a08231146102125761010b565b806301ffc9a71461011057806306fdde0314610140578063081812fc1461015e578063095ea7b31461018e575b600080fd5b61012a60048036038101906101259190611bd0565b610358565b6040516101379190611c18565b60405180910390f35b61014861043a565b6040516101559190611cc3565b60405180910390f35b61017860048036038101906101739190611d1b565b6104cc565b6040516101859190611d89565b60405180910390f35b6101a860048036038101906101a39190611dd0565b610551565b005b6101c460048036038101906101bf9190611e10565b610668565b005b6101e060048036038101906101db9190611e10565b6106c8565b005b6101fc60048036038101906101f79190611d1b565b6106e8565b6040516102099190611d89565b60405180910390f35b61022c60048036038101906102279190611e63565b610799565b6040516102399190611e9f565b60405180910390f35b61024a610850565b005b6102546108d8565b6040516102619190611d89565b60405180910390f35b610272610902565b60405161027f9190611cc3565b60405180910390f35b6102a2600480360381019061029d9190611ee6565b610994565b005b6102be60048036038101906102b9919061205b565b610b14565b005b6102da60048036038101906102d59190611d1b565b610b76565b6040516102e79190611cc3565b60405180910390f35b61030a6004803603810190610305919061217f565b610cc7565b005b610326600480360381019061032191906121db565b610d77565b6040516103339190611c18565b60405180910390f35b61035660048036038101906103519190611e63565b610e0b565b005b60007f80ac58cd000000000000000000000000000000000000000000000000000000007bffffffffffffffffffffffffffffffffffffffffffffffffffffffff1916827bffffffffffffffffffffffffffffffffffffffffffffffffffffffff1916148061042357507f5b5e139f000000000000000000000000000000000000000000000000000000007bffffffffffffffffffffffffffffffffffffffffffffffffffffffff1916827bffffffffffffffffffffffffffffffffffffffffffffffffffffffff1916145b80610433575061043282610f02565b5b9050919050565b6060600080546104499061224a565b80601f01602080910402602001604051908101604052809291908181526020018280546104759061224a565b80156104c25780601f10610497576101008083540402835291602001916104c2565b820191906000526020600020905b8154815290600101906020018083116104a557829003601f168201915b5050505050905090565b60006104d782610f6c565b610516576040517f08c379a000000000000000000000000000000000000000000000000000000000815260040161050d906122ed565b60405180910390fd5b6004600083815260200190815260200160002060009054906101000a900473ffffffffffffffffffffffffffffffffffffffff169050919050565b600061055c826106e8565b90508073ffffffffffffffffffffffffffffffffffffffff168373ffffffffffffffffffffffffffffffffffffffff16036105cc576040517f08c379a00000000000000000000000000000000000000000000000000000000081526004016105c39061237f565b60405180910390fd5b8073ffffffffffffffffffffffffffffffffffffffff166105eb610fd8565b73ffffffffffffffffffffffffffffffffffffffff16148061061a575061061981610614610fd8565b610d77565b5b610659576040517f08c379a000000000000000000000000000000000000000000000000000000000815260040161065090612411565b60405180910390fd5b6106638383610fe0565b505050565b610679610673610fd8565b82611099565b6106b8576040517f08c379a00000000000000000000000000000000000000000000000000000000081526004016106af906124a3565b60405180910390fd5b6106c3838383611177565b505050565b6106e383838360405180602001604052806000815250610b14565b505050565b6000806002600084815260200190815260200160002060009054906101000a900473ffffffffffffffffffffffffffffffffffffffff169050600073ffffffffffffffffffffffffffffffffffffffff168173ffffffffffffffffffffffffffffffffffffffff1603610790576040517f08c379a000000000000000000000000000000000000000000000000000000000815260040161078790612535565b60405180910390fd5b80915050919050565b60008073ffffffffffffffffffffffffffffffffffffffff168273ffffffffffffffffffffffffffffffffffffffff1603610809576040517f08c379a0000000000000000000000000000000000000000000000000000000008152600401610800906125c7565b60405180910390fd5b600360008373ffffffffffffffffffffffffffffffffffffffff1673ffffffffffffffffffffffffffffffffffffffff168152602001908152602001600020549050919050565b610858610fd8565b73ffffffffffffffffffffffffffffffffffffffff166108766108d8565b73ffffffffffffffffffffffffffffffffffffffff16146108cc576040517f08c379a00000000000000000000000000000000000000000000000000000000081526004016108c390612633565b60405180910390fd5b6108d660006113d2565b565b6000600760009054906101000a900473ffffffffffffffffffffffffffffffffffffffff16905090565b6060600180546109119061224a565b80601f016020809104026020016040519081016040528092919081815260200182805461093d9061224a565b801561098a5780601f1061095f5761010080835404028352916020019161098a565b820191906000526020600020905b81548152906001019060200180831161096d57829003601f168201915b5050505050905090565b61099c610fd8565b73ffffffffffffffffffffffffffffffffffffffff168273ffffffffffffffffffffffffffffffffffffffff1603610a09576040517f08c379a0000000000000000000000000000000000000000000000000000000008152600401610a009061269f565b60405180910390fd5b8060056000610a16610fd8565b73ffffffffffffffffffffffffffffffffffffffff1673ffffffffffffffffffffffffffffffffffffffff16815260200190815260200160002060008473ffffffffffffffffffffffffffffffffffffffff1673ffffffffffffffffffffffffffffffffffffffff16815260200190815260200160002060006101000a81548160ff0219169083151502179055508173ffffffffffffffffffffffffffffffffffffffff16610ac3610fd8565b73ffffffffffffffffffffffffffffffffffffffff167f17307eab39ab6107e8899845ad3d59bd9653f200f220920489ca2b5937696c3183604051610b089190611c18565b60405180910390a35050565b610b25610b1f610fd8565b83611099565b610b64576040517f08c379a0000000000000000000000000000000000000000000000000000000008152600401610b5b906124a3565b60405180910390fd5b610b7084848484611498565b50505050565b6060610b8182610f6c565b610bc0576040517f08c379a0000000000000000000000000000000000000000000000000000000008152600401610bb790612731565b60405180910390fd5b6000600660008481526020019081526020016000208054610be09061224a565b80601f0160208091040260200160405190810160405280929190818152602001828054610c0c9061224a565b8015610c595780601f10610c2e57610100808354040283529160200191610c59565b820191906000526020600020905b815481529060010190602001808311610c3c57829003601f168201915b505050505090506000610c6a6114f4565b90506000815103610c7f578192505050610cc2565b600082511115610cb4578082604051602001610c9c92919061278d565b60405160208183030381529060405292505050610cc2565b610cbd8461150b565b925050505b919050565b610ccf610fd8565b73ffffffffffffffffffffffffffffffffffffffff16610ced6108d8565b73ffffffffffffffffffffffffffffffffffffffff1614610d43576040517f08c379a0000000000000000000000000000000000000000000000000000000008152600401610d3a90612633565b60405180910390fd5b600060086000815480929190610d58906127e0565b919050559050610d6883826115b2565b610d7281836115d0565b505050565b6000600560008473ffffffffffffffffffffffffffffffffffffffff1673ffffffffffffffffffffffffffffffffffffffff16815260200190815260200160002060008373ffffffffffffffffffffffffffffffffffffffff1673ffffffffffffffffffffffffffffffffffffffff16815260200190815260200160002060009054906101000a900460ff16905092915050565b610e13610fd8565b73ffffffffffffffffffffffffffffffffffffffff16610e316108d8565b73ffffffffffffffffffffffffffffffffffffffff1614610e87576040517f08c379a0000000000000000000000000000000000000000000000000000000008152600401610e7e90612633565b60405180910390fd5b600073ffffffffffffffffffffffffffffffffffffffff168173ffffffffffffffffffffffffffffffffffffffff1603610ef6576040517f08c379a0000000000000000000000000000000000000000000000000000000008152600401610eed9061289a565b60405180910390fd5b610eff816113d2565b50565b60007f01ffc9a7000000000000000000000000000000000000000000000000000000007bffffffffffffffffffffffffffffffffffffffffffffffffffffffff1916827bffffffffffffffffffffffffffffffffffffffffffffffffffffffff1916149050919050565b60008073ffffffffffffffffffffffffffffffffffffffff166002600084815260200190815260200160002060009054906101000a900473ffffffffffffffffffffffffffffffffffffffff1673ffffffffffffffffffffffffffffffffffffffff1614159050919050565b600033905090565b816004600083815260200190815260200160002060006101000a81548173ffffffffffffffffffffffffffffffffffffffff021916908373ffffffffffffffffffffffffffffffffffffffff160217905550808273ffffffffffffffffffffffffffffffffffffffff16611053836106e8565b73ffffffffffffffffffffffffffffffffffffffff167f8c5be1e5ebec7d5bd14f71427d1e84f3dd0314c0f7b2291e5b200ac8c7c3b92560405160405180910390a45050565b60006110a482610f6c565b6110e3576040517f08c379a00000000000000000000000000000000000000000000000000000000081526004016110da9061292c565b60405180910390fd5b60006110ee836106e8565b90508073ffffffffffffffffffffffffffffffffffffffff168473ffffffffffffffffffffffffffffffffffffffff16148061115d57508373ffffffffffffffffffffffffffffffffffffffff16611145846104cc565b73ffffffffffffffffffffffffffffffffffffffff16145b8061116e575061116d8185610d77565b5b91505092915050565b8273ffffffffffffffffffffffffffffffffffffffff16611197826106e8565b73ffffffffffffffffffffffffffffffffffffffff16146111ed576040517f08c379a00000000000000000000000000000000000000000000000000000000081526004016111e4906129be565b60405180910390fd5b600073ffffffffffffffffffffffffffffffffffffffff168273ffffffffffffffffffffffffffffffffffffffff160361125c576040517f08c379a000000000000000000000000000000000000000000000000000000000815260040161125390612a50565b60405180910390fd5b61126783838361163d565b611272600082610fe0565b6001600360008573ffffffffffffffffffffffffffffffffffffffff1673ffffffffffffffffffffffffffffffffffffffff16815260200190815260200160002060008282546112c29190612a70565b925050819055506001600360008473ffffffffffffffffffffffffffffffffffffffff1673ffffffffffffffffffffffffffffffffffffffff16815260200190815260200160002060008282546113199190612aa4565b92505081905550816002600083815260200190815260200160002060006101000a81548173ffffffffffffffffffffffffffffffffffffffff021916908373ffffffffffffffffffffffffffffffffffffffff160217905550808273ffffffffffffffffffffffffffffffffffffffff168473ffffffffffffffffffffffffffffffffffffffff167fddf252ad1be2c89b69c2b068fc378daa952ba7f163c4a11628f55a4df523b3ef60405160405180910390a4505050565b6000600760009054906101000a900473ffffffffffffffffffffffffffffffffffffffff16905081600760006101000a81548173ffffffffffffffffffffffffffffffffffffffff021916908373ffffffffffffffffffffffffffffffffffffffff1602179055508173ffffffffffffffffffffffffffffffffffffffff168173ffffffffffffffffffffffffffffffffffffffff167f8be0079c531659141344cd1fd0a4f28419497f9722a3daafe3b4186f6b6457e060405160405180910390a35050565b6114a3848484611177565b6114af84848484611642565b6114ee576040517f08c379a00000000000000000000000000000000000000000000000000000000081526004016114e590612b4a565b60405180910390fd5b50505050565b606060405180602001604052806000815250905090565b606061151682610f6c565b611555576040517f08c379a000000000000000000000000000000000000000000000000000000000815260040161154c90612bdc565b60405180910390fd5b600061155f6114f4565b9050600081511161157f57604051806020016040528060008152506115aa565b80611589846117c9565b60405160200161159a92919061278d565b6040516020818303038152906040525b915050919050565b6115cc828260405180602001604052806000815250611929565b5050565b6115d982610f6c565b611618576040517f08c379a000000000000000000000000000000000000000000000000000000000815260040161160f90612c6e565b60405180910390fd5b806006600084815260200190815260200160002090816116389190612e3a565b505050565b505050565b60006116638473ffffffffffffffffffffffffffffffffffffffff16611984565b156117bc578373ffffffffffffffffffffffffffffffffffffffff1663150b7a0261168c610fd8565b8786866040518563ffffffff1660e01b81526004016116ae9493929190612f61565b6020604051808303816000875af19250505080156116ea57506040513d601f19601f820116820180604052508101906116e79190612fc2565b60015b61176c573d806000811461171a576040519150601f19603f3d011682016040523d82523d6000602084013e61171f565b606091505b506000815103611764576040517f08c379a000000000000000000000000000000000000000000000000000000000815260040161175b90612b4a565b60405180910390fd5b805181602001fd5b63150b7a0260e01b7bffffffffffffffffffffffffffffffffffffffffffffffffffffffff1916817bffffffffffffffffffffffffffffffffffffffffffffffffffffffff1916149150506117c1565b600190505b949350505050565b606060008203611810576040518060400160405280600181526020017f30000000000000000000000000000000000000000000000000000000000000008152509050611924565b600082905060005b6000821461184257808061182b906127e0565b915050600a8261183b919061301e565b9150611818565b60008167ffffffffffffffff81111561185e5761185d611f30565b5b6040519080825280601f01601f1916602001820160405280156118905781602001600182028036833780820191505090505b5090505b6000851461191d576001826118a99190612a70565b9150600a856118b8919061304f565b60306118c49190612aa4565b60f81b8183815181106118da576118d9613080565b5b60200101907effffffffffffffffffffffffffffffffffffffffffffffffffffffffffffff1916908160001a905350600a85611916919061301e565b9450611894565b8093505050505b919050565b6119338383611997565b6119406000848484611642565b61197f576040517f08c379a000000000000000000000000000000000000000000000000000000000815260040161197690612b4a565b60405180910390fd5b505050565b600080823b905060008111915050919050565b600073ffffffffffffffffffffffffffffffffffffffff168273ffffffffffffffffffffffffffffffffffffffff1603611a06576040517f08c379a00000000000000000000000000000000000000000000000000000000081526004016119fd906130fb565b60405180910390fd5b611a0f81610f6c565b15611a4f576040517f08c379a0000000000000000000000000000000000000000000000000000000008152600401611a4690613167565b60405180910390fd5b611a5b6000838361163d565b6001600360008473ffffffffffffffffffffffffffffffffffffffff1673ffffffffffffffffffffffffffffffffffffffff1681526020019081526020016000206000828254611aab9190612aa4565b92505081905550816002600083815260200190815260200160002060006101000a81548173ffffffffffffffffffffffffffffffffffffffff021916908373ffffffffffffffffffffffffffffffffffffffff160217905550808273ffffffffffffffffffffffffffffffffffffffff16600073ffffffffffffffffffffffffffffffffffffffff167fddf252ad1be2c89b69c2b068fc378daa952ba7f163c4a11628f55a4df523b3ef60405160405180910390a45050565b6000604051905090565b600080fd5b600080fd5b60007fffffffff0000000000000000000000000000000000000000000000000000000082169050919050565b611bad81611b78565b8114611bb857600080fd5b50565b600081359050611bca81611ba4565b92915050565b600060208284031215611be657611be5611b6e565b5b6000611bf484828501611bbb565b91505092915050565b60008115159050919050565b611c1281611bfd565b82525050565b6000602082019050611c2d6000830184611c09565b92915050565b600081519050919050565b600082825260208201905092915050565b60005b83811015611c6d578082015181840152602081019050611c52565b60008484015250505050565b6000601f19601f8301169050919050565b6000611c9582611c33565b611c9f8185611c3e565b9350611caf818560208601611c4f565b611cb881611c79565b840191505092915050565b60006020820190508181036000830152611cdd8184611c8a565b905092915050565b6000819050919050565b611cf881611ce5565b8114611d0357600080fd5b50565b600081359050611d1581611cef565b92915050565b600060208284031215611d3157611d30611b6e565b5b6000611d3f84828501611d06565b91505092915050565b600073ffffffffffffffffffffffffffffffffffffffff82169050919050565b6000611d7382611d48565b9050919050565b611d8381611d68565b82525050565b6000602082019050611d9e6000830184611d7a565b92915050565b611dad81611d68565b8114611db857600080fd5b50565b600081359050611dca81611da4565b92915050565b60008060408385031215611de757611de6611b6e565b5b6000611df585828601611dbb565b9250506020611e0685828601611d06565b9150509250929050565b600080600060608486031215611e2957611e28611b6e565b5b6000611e3786828701611dbb565b9350506020611e4886828701611dbb565b9250506040611e5986828701611d06565b9150509250925092565b600060208284031215611e7957611e78611b6e565b5b6000611e8784828501611dbb565b91505092915050565b611e9981611ce5565b82525050565b6000602082019050611eb46000830184611e90565b92915050565b611ec381611bfd565b8114611ece57600080fd5b50565b600081359050611ee081611eba565b92915050565b60008060408385031215611efd57611efc611b6e565b5b6000611f0b85828601611dbb565b9250506020611f1c85828601611ed1565b9150509250929050565b600080fd5b600080fd5b7f4e487b7100000000000000000000000000000000000000000000000000000000600052604160045260246000fd5b611f6882611c79565b810181811067ffffffffffffffff82111715611f8757611f86611f30565b5b80604052505050565b6000611f9a611b64565b9050611fa68282611f5f565b919050565b600067ffffffffffffffff821115611fc657611fc5611f30565b5b611fcf82611c79565b9050602081019050919050565b82818337600083830152505050565b6000611ffe611ff984611fab565b611f90565b90508281526020810184848401111561201a57612019611f2b565b5b612025848285611fdc565b509392505050565b600082601f83011261204257612041611f26565b5b8135612052848260208601611feb565b91505092915050565b6000806000806080858703121561207557612074611b6e565b5b600061208387828801611dbb565b945050602061209487828801611dbb565b93505060406120a587828801611d06565b925050606085013567ffffffffffffffff8111156120c6576120c5611b73565b5b6120d28782880161202d565b91505092959194509250565b600067ffffffffffffffff8211156120f9576120f8611f30565b5b61210282611c79565b9050602081019050919050565b600061212261211d846120de565b611f90565b90508281526020810184848401111561213e5761213d611f2b565b5b612149848285611fdc565b509392505050565b600082601f83011261216657612165611f26565b5b813561217684826020860161210f565b91505092915050565b6000806040838503121561219657612195611b6e565b5b60006121a485828601611dbb565b925050602083013567ffffffffffffffff8111156121c5576121c4611b73565b5b6121d185828601612151565b9150509250929050565b600080604083850312156121f2576121f1611b6e565b5b600061220085828601611dbb565b925050602061221185828601611dbb565b9150509250929050565b7f4e487b7100000000000000000000000000000000000000000000000000000000600052602260045260246000fd5b6000600282049050600182168061226257607f821691505b6020821081036122755761227461221b565b5b50919050565b7f4552433732313a20617070726f76656420717565727920666f72206e6f6e657860008201527f697374656e7420746f6b656e0000000000000000000000000000000000000000602082015250565b60006122d7602c83611c3e565b91506122e28261227b565b604082019050919050565b60006020820190508181036000830152612306816122ca565b9050919050565b7f4552433732313a20617070726f76616c20746f2063757272656e74206f776e6560008201527f7200000000000000000000000000000000000000000000000000000000000000602082015250565b6000612369602183611c3e565b91506123748261230d565b604082019050919050565b600060208201905081810360008301526123988161235c565b9050919050565b7f4552433732313a20617070726f76652063616c6c6572206973206e6f74206f7760008201527f6e6572206e6f7220617070726f76656420666f7220616c6c0000000000000000602082015250565b60006123fb603883611c3e565b91506124068261239f565b604082019050919050565b6000602082019050818103600083015261242a816123ee565b9050919050565b7f4552433732313a207472616e736665722063616c6c6572206973206e6f74206f60008201527f776e6572206e6f7220617070726f766564000000000000000000000000000000602082015250565b600061248d603183611c3e565b915061249882612431565b604082019050919050565b600060208201905081810360008301526124bc81612480565b9050919050565b7f4552433732313a206f776e657220717565727920666f72206e6f6e657869737460008201527f656e7420746f6b656e0000000000000000000000000000000000000000000000602082015250565b600061251f602983611c3e565b915061252a826124c3565b604082019050919050565b6000602082019050818103600083015261254e81612512565b9050919050565b7f4552433732313a2062616c616e636520717565727920666f7220746865207a6560008201527f726f206164647265737300000000000000000000000000000000000000000000602082015250565b60006125b1602a83611c3e565b91506125bc82612555565b604082019050919050565b600060208201905081810360008301526125e0816125a4565b9050919050565b7f4f776e61626c653a2063616c6c6572206973206e6f7420746865206f776e6572600082015250565b600061261d602083611c3e565b9150612628826125e7565b602082019050919050565b6000602082019050818103600083015261264c81612610565b9050919050565b7f4552433732313a20617070726f766520746f2063616c6c657200000000000000600082015250565b6000612689601983611c3e565b915061269482612653565b602082019050919050565b600060208201905081810360008301526126b88161267c565b9050919050565b7f45524337323155524953746f726167653a2055524920717565727920666f722060008201527f6e6f6e6578697374656e7420746f6b656e000000000000000000000000000000602082015250565b600061271b603183611c3e565b9150612726826126bf565b604082019050919050565b6000602082019050818103600083015261274a8161270e565b9050919050565b600081905092915050565b600061276782611c33565b6127718185612751565b9350612781818560208601611c4f565b80840191505092915050565b6000612799828561275c565b91506127a5828461275c565b91508190509392505050565b7f4e487b7100000000000000000000000000000000000000000000000000000000600052601160045260246000fd5b60006127eb82611ce5565b91507fffffffffffffffffffffffffffffffffffffffffffffffffffffffffffffffff820361281d5761281c6127b1565b5b600182019050919050565b7f4f776e61626c653a206e6577206f776e657220697320746865207a65726f206160008201527f6464726573730000000000000000000000000000000000000000000000000000602082015250565b6000612884602683611c3e565b915061288f82612828565b604082019050919050565b600060208201905081810360008301526128b381612877565b9050919050565b7f4552433732313a206f70657261746f7220717565727920666f72206e6f6e657860008201527f697374656e7420746f6b656e0000000000000000000000000000000000000000602082015250565b6000612916602c83611c3e565b9150612921826128ba565b604082019050919050565b6000602082019050818103600083015261294581612909565b9050919050565b7f4552433732313a207472616e73666572206f6620746f6b656e2074686174206960008201527f73206e6f74206f776e0000000000000000000000000000000000000000000000602082015250565b60006129a8602983611c3e565b91506129b38261294c565b604082019050919050565b600060208201905081810360008301526129d78161299b565b9050919050565b7f4552433732313a207472616e7366657220746f20746865207a65726f2061646460008201527f7265737300000000000000000000000000000000000000000000000000000000602082015250565b6000612a3a602483611c3e565b9150612a45826129de565b604082019050919050565b60006020820190508181036000830152612a6981612a2d565b9050919050565b6000612a7b82611ce5565b9150612a8683611ce5565b9250828203905081811115612a9e57612a9d6127b1565b5b92915050565b6000612aaf82611ce5565b9150612aba83611ce5565b9250828201905080821115612ad257612ad16127b1565b5b92915050565b7f4552433732313a207472616e7366657220746f206e6f6e20455243373231526560008201527f63656976657220696d706c656d656e7465720000000000000000000000000000602082015250565b6000612b34603283611c3e565b9150612b3f82612ad8565b604082019050919050565b60006020820190508181036000830152612b6381612b27565b9050919050565b7f4552433732314d657461646174613a2055524920717565727920666f72206e6f60008201527f6e6578697374656e7420746f6b656e0000000000000000000000000000000000602082015250565b6000612bc6602f83611c3e565b9150612bd182612b6a565b604082019050919050565b60006020820190508181036000830152612bf581612bb9565b9050919050565b7f45524337323155524953746f726167653a2055524920736574206f66206e6f6e60008201527f6578697374656e7420746f6b656e000000000000000000000000000000000000602082015250565b6000612c58602e83611c3e565b9150612c6382612bfc565b604082019050919050565b60006020820190508181036000830152612c8781612c4b565b9050919050565b60008190508160005260206000209050919050565b60006020601f8301049050919050565b600082821b905092915050565b600060088302612cf07fffffffffffffffffffffffffffffffffffffffffffffffffffffffffffffffff82612cb3565b612cfa8683612cb3565b95508019841693508086168417925050509392505050565b6000819050919050565b6000612d37612d32612d2d84611ce5565b612d12565b611ce5565b9050919050565b6000819050919050565b612d5183612d1c565b612d65612d5d82612d3e565b848454612cc0565b825550505050565b600090565b612d7a612d6d565b612d85818484612d48565b505050565b5b81811015612da957612d9e600082612d72565b600181019050612d8b565b5050565b601f821115612dee57612dbf81612c8e565b612dc884612ca3565b81016020851015612dd7578190505b612deb612de385612ca3565b830182612d8a565b50505b505050565b600082821c905092915050565b6000612e1160001984600802612df3565b1980831691505092915050565b6000612e2a8383612e00565b9150826002028217905092915050565b612e4382611c33565b67ffffffffffffffff811115612e5c57612e5b611f30565b5b612e66825461224a565b612e71828285612dad565b600060209050601f831160018114612ea45760008415612e92578287015190505b612e9c8582612e1e565b865550612f04565b601f198416612eb286612c8e565b60005b82811015612eda57848901518255600182019150602085019450602081019050612eb5565b86831015612ef75784890151612ef3601f891682612e00565b8355505b6001600288020188555050505b505050505050565b600081519050919050565b600082825260208201905092915050565b6000612f3382612f0c565b612f3d8185612f17565b9350612f4d818560208601611c4f565b612f5681611c79565b840191505092915050565b6000608082019050612f766000830187611d7a565b612f836020830186611d7a565b612f906040830185611e90565b8181036060830152612fa28184612f28565b905095945050505050565b600081519050612fbc81611ba4565b92915050565b600060208284031215612fd857612fd7611b6e565b5b6000612fe684828501612fad565b91505092915050565b7f4e487b7100000000000000000000000000000000000000000000000000000000600052601260045260246000fd5b600061302982611ce5565b915061303483611ce5565b92508261304457613043612fef565b5b828204905092915050565b600061305a82611ce5565b915061306583611ce5565b92508261307557613074612fef565b5b828206905092915050565b7f4e487b7100000000000000000000000000000000000000000000000000000000600052603260045260246000fd5b7f4552433732313a206d696e7420746f20746865207a65726f2061646472657373600082015250565b60006130e5602083611c3e565b91506130f0826130af565b602082019050919050565b60006020820190508181036000830152613114816130d8565b9050919050565b7f4552433732313a20746f6b656e20616c7265616479206d696e74656400000000600082015250565b6000613151601c83611c3e565b915061315c8261311b565b602082019050919050565b6000602082019050818103600083015261318081613144565b905091905056fea26469706673582212207c1e83a675f8f6704285067afea3d3c33e24a137fbd29f10159b7382a541ed4564736f6c63430008130033a26469706673582212200cbda152f0cdfe7859d17246810fef24bfeb8072bde59425d505c1330a1cb5b864736f6c63430008130033",
  "linkReferences": {},
  "deployedLinkReferences": {}
}