{
  "_format": "hh-sol-artifact-1",
  "contractName": "GenerativeNFTFactory",
  "sourceName": "contracts/GenerativeNFTFactory.sol",
  "abi": [
    {
      "anonymous": false,
      "inputs": [
        {
          "indexed": false,
          "internalType": "address",
          "name": "owner",
          "type": "address"
        },
        {
          "indexed": false,
          "internalType": "address",
          "name": "tokenAddress",
          "type": "address"
        }
      ],
      "name": "ERC721TokenCreated",
      "type": "event"
    },
    {
      "inputs": [
        {
          "internalType": "string",
          "name": "name",
          "type": "string"
        },
        {
          "internalType": "string",
          "name": "symbol",
          "type": "string"
        }
      ],
      "name": "deployGenerativeToken",
      "outputs": [
        {
          "internalType": "address",
          "name": "",
          "type": "address"
        }
      ],
      "stateMutability": "nonpayable",
      "type": "function"
    },
    {
      "inputs": [],
      "name": "getTotalCollection",
      "outputs": [
        {
          "internalType": "uint256",
          "name": "amount",
          "type": "uint256"
        }
      ],
      "stateMutability": "view",
      "type": "function"
    },
    {
      "inputs": [
        {
          "internalType": "uint256",
          "name": "",
          "type": "uint256"
        }
      ],
      "name": "tokens",
      "outputs": [
        {
          "internalType": "contract GenerativeNFT",
          "name": "",
          "type": "address"
        }
      ],
      "stateMutability": "view",
      "type": "function"
    }
  ],
  "bytecode": "0x608060405234801561001057600080fd5b506141c8806100206000396000f3fe60806040523480156200001157600080fd5b5060043610620000465760003560e01c806327e19d95146200004b578063459dcbc314620000815780634f64b2be14620000a3575b600080fd5b62000069600480360381019062000063919062000391565b620000d9565b6040516200007891906200045b565b60405180910390f35b6200008b620001c1565b6040516200009a919062000493565b60405180910390f35b620000c16004803603810190620000bb9190620004e1565b620001cd565b604051620000d091906200057e565b60405180910390f35b6000808383604051620000ec906200020d565b620000f992919062000624565b604051809103906000f08015801562000116573d6000803e3d6000fd5b5090506000819080600181540180825580915050600190039060005260206000200160009091909190916101000a81548173ffffffffffffffffffffffffffffffffffffffff021916908373ffffffffffffffffffffffffffffffffffffffff1602179055507faa19c94b56abf04a93a1f32d59067d3918d378afd32b2d1bea847773b7d08f393382604051620001af9291906200065f565b60405180910390a18091505092915050565b60008080549050905090565b60008181548110620001de57600080fd5b906000526020600020016000915054906101000a900473ffffffffffffffffffffffffffffffffffffffff1681565b613b06806200068d83390190565b6000604051905090565b600080fd5b600080fd5b600080fd5b600080fd5b6000601f19601f8301169050919050565b7f4e487b7100000000000000000000000000000000000000000000000000000000600052604160045260246000fd5b620002848262000239565b810181811067ffffffffffffffff82111715620002a657620002a56200024a565b5b80604052505050565b6000620002bb6200021b565b9050620002c9828262000279565b919050565b600067ffffffffffffffff821115620002ec57620002eb6200024a565b5b620002f78262000239565b9050602081019050919050565b82818337600083830152505050565b60006200032a6200032484620002ce565b620002af565b90508281526020810184848401111562000349576200034862000234565b5b6200035684828562000304565b509392505050565b600082601f8301126200037657620003756200022f565b5b81356200038884826020860162000313565b91505092915050565b60008060408385031215620003ab57620003aa62000225565b5b600083013567ffffffffffffffff811115620003cc57620003cb6200022a565b5b620003da858286016200035e565b925050602083013567ffffffffffffffff811115620003fe57620003fd6200022a565b5b6200040c858286016200035e565b9150509250929050565b600073ffffffffffffffffffffffffffffffffffffffff82169050919050565b6000620004438262000416565b9050919050565b620004558162000436565b82525050565b60006020820190506200047260008301846200044a565b92915050565b6000819050919050565b6200048d8162000478565b82525050565b6000602082019050620004aa600083018462000482565b92915050565b620004bb8162000478565b8114620004c757600080fd5b50565b600081359050620004db81620004b0565b92915050565b600060208284031215620004fa57620004f962000225565b5b60006200050a84828501620004ca565b91505092915050565b6000819050919050565b60006200053e62000538620005328462000416565b62000513565b62000416565b9050919050565b600062000552826200051d565b9050919050565b6000620005668262000545565b9050919050565b620005788162000559565b82525050565b60006020820190506200059560008301846200056d565b92915050565b600081519050919050565b600082825260208201905092915050565b60005b83811015620005d7578082015181840152602081019050620005ba565b60008484015250505050565b6000620005f0826200059b565b620005fc8185620005a6565b93506200060e818560208601620005b7565b620006198162000239565b840191505092915050565b60006040820190508181036000830152620006408185620005e3565b90508181036020830152620006568184620005e3565b90509392505050565b60006040820190506200067660008301856200044a565b6200068560208301846200044a565b939250505056fe60806040523480156200001157600080fd5b5060405162003b0638038062003b06833981810160405281019062000037919062000438565b818181600090816200004a919062000708565b5080600190816200005c919062000708565b5050506200007f620000736200009860201b60201c565b620000a060201b60201c565b62000090326200016660201b60201c565b50506200090a565b600033905090565b6000600760009054906101000a900473ffffffffffffffffffffffffffffffffffffffff16905081600760006101000a81548173ffffffffffffffffffffffffffffffffffffffff021916908373ffffffffffffffffffffffffffffffffffffffff1602179055508173ffffffffffffffffffffffffffffffffffffffff168173ffffffffffffffffffffffffffffffffffffffff167f8be0079c531659141344cd1fd0a4f28419497f9722a3daafe3b4186f6b6457e060405160405180910390a35050565b620001766200009860201b60201c565b73ffffffffffffffffffffffffffffffffffffffff166200019c6200027b60201b60201c565b73ffffffffffffffffffffffffffffffffffffffff1614620001f5576040517f08c379a0000000000000000000000000000000000000000000000000000000008152600401620001ec9062000850565b60405180910390fd5b600073ffffffffffffffffffffffffffffffffffffffff168173ffffffffffffffffffffffffffffffffffffffff160362000267576040517f08c379a00000000000000000000000000000000000000000000000000000000081526004016200025e90620008e8565b60405180910390fd5b6200027881620000a060201b60201c565b50565b6000600760009054906101000a900473ffffffffffffffffffffffffffffffffffffffff16905090565b6000604051905090565b600080fd5b600080fd5b600080fd5b600080fd5b6000601f19601f8301169050919050565b7f4e487b7100000000000000000000000000000000000000000000000000000000600052604160045260246000fd5b6200030e82620002c3565b810181811067ffffffffffffffff8211171562000330576200032f620002d4565b5b80604052505050565b600062000345620002a5565b905062000353828262000303565b919050565b600067ffffffffffffffff821115620003765762000375620002d4565b5b6200038182620002c3565b9050602081019050919050565b60005b83811015620003ae57808201518184015260208101905062000391565b60008484015250505050565b6000620003d1620003cb8462000358565b62000339565b905082815260208101848484011115620003f057620003ef620002be565b5b620003fd8482856200038e565b509392505050565b600082601f8301126200041d576200041c620002b9565b5b81516200042f848260208601620003ba565b91505092915050565b60008060408385031215620004525762000451620002af565b5b600083015167ffffffffffffffff811115620004735762000472620002b4565b5b620004818582860162000405565b925050602083015167ffffffffffffffff811115620004a557620004a4620002b4565b5b620004b38582860162000405565b9150509250929050565b600081519050919050565b7f4e487b7100000000000000000000000000000000000000000000000000000000600052602260045260246000fd5b600060028204905060018216806200051057607f821691505b602082108103620005265762000525620004c8565b5b50919050565b60008190508160005260206000209050919050565b60006020601f8301049050919050565b600082821b905092915050565b600060088302620005907fffffffffffffffffffffffffffffffffffffffffffffffffffffffffffffffff8262000551565b6200059c868362000551565b95508019841693508086168417925050509392505050565b6000819050919050565b6000819050919050565b6000620005e9620005e3620005dd84620005b4565b620005be565b620005b4565b9050919050565b6000819050919050565b6200060583620005c8565b6200061d6200061482620005f0565b8484546200055e565b825550505050565b600090565b6200063462000625565b62000641818484620005fa565b505050565b5b8181101562000669576200065d6000826200062a565b60018101905062000647565b5050565b601f821115620006b85762000682816200052c565b6200068d8462000541565b810160208510156200069d578190505b620006b5620006ac8562000541565b83018262000646565b50505b505050565b600082821c905092915050565b6000620006dd60001984600802620006bd565b1980831691505092915050565b6000620006f88383620006ca565b9150826002028217905092915050565b6200071382620004bd565b67ffffffffffffffff8111156200072f576200072e620002d4565b5b6200073b8254620004f7565b620007488282856200066d565b600060209050601f8311600181146200078057600084156200076b578287015190505b620007778582620006ea565b865550620007e7565b601f19841662000790866200052c565b60005b82811015620007ba5784890151825560018201915060208501945060208101905062000793565b86831015620007da5784890151620007d6601f891682620006ca565b8355505b6001600288020188555050505b505050505050565b600082825260208201905092915050565b7f4f776e61626c653a2063616c6c6572206973206e6f7420746865206f776e6572600082015250565b600062000838602083620007ef565b9150620008458262000800565b602082019050919050565b600060208201905081810360008301526200086b8162000829565b9050919050565b7f4f776e61626c653a206e6577206f776e657220697320746865207a65726f206160008201527f6464726573730000000000000000000000000000000000000000000000000000602082015250565b6000620008d0602683620007ef565b9150620008dd8262000872565b604082019050919050565b600060208201905081810360008301526200090381620008c1565b9050919050565b6131ec806200091a6000396000f3fe608060405234801561001057600080fd5b50600436106101165760003560e01c8063715018a6116100a2578063b88d4fde11610071578063b88d4fde146102cd578063c87b56dd146102e9578063d204c45e14610319578063e985e9c514610335578063f2fde38b1461036557610116565b8063715018a61461026b5780638da5cb5b1461027557806395d89b4114610293578063a22cb465146102b157610116565b806323b872dd116100e957806323b872dd146101b557806342842e0e146101d15780634a60f620146101ed5780636352211e1461020b57806370a082311461023b57610116565b806301ffc9a71461011b57806306fdde031461014b578063081812fc14610169578063095ea7b314610199575b600080fd5b61013560048036038101906101309190611bff565b610381565b6040516101429190611c47565b60405180910390f35b610153610463565b6040516101609190611cf2565b60405180910390f35b610183600480360381019061017e9190611d4a565b6104f5565b6040516101909190611db8565b60405180910390f35b6101b360048036038101906101ae9190611dff565b61057a565b005b6101cf60048036038101906101ca9190611e3f565b610691565b005b6101eb60048036038101906101e69190611e3f565b6106f1565b005b6101f5610711565b6040516102029190611ea1565b60405180910390f35b61022560048036038101906102209190611d4a565b610717565b6040516102329190611db8565b60405180910390f35b61025560048036038101906102509190611ebc565b6107c8565b6040516102629190611ea1565b60405180910390f35b61027361087f565b005b61027d610907565b60405161028a9190611db8565b60405180910390f35b61029b610931565b6040516102a89190611cf2565b60405180910390f35b6102cb60048036038101906102c69190611f15565b6109c3565b005b6102e760048036038101906102e2919061208a565b610b43565b005b61030360048036038101906102fe9190611d4a565b610ba5565b6040516103109190611cf2565b60405180910390f35b610333600480360381019061032e91906121ae565b610cf6565b005b61034f600480360381019061034a919061220a565b610da6565b60405161035c9190611c47565b60405180910390f35b61037f600480360381019061037a9190611ebc565b610e3a565b005b60007f80ac58cd000000000000000000000000000000000000000000000000000000007bffffffffffffffffffffffffffffffffffffffffffffffffffffffff1916827bffffffffffffffffffffffffffffffffffffffffffffffffffffffff1916148061044c57507f5b5e139f000000000000000000000000000000000000000000000000000000007bffffffffffffffffffffffffffffffffffffffffffffffffffffffff1916827bffffffffffffffffffffffffffffffffffffffffffffffffffffffff1916145b8061045c575061045b82610f31565b5b9050919050565b60606000805461047290612279565b80601f016020809104026020016040519081016040528092919081815260200182805461049e90612279565b80156104eb5780601f106104c0576101008083540402835291602001916104eb565b820191906000526020600020905b8154815290600101906020018083116104ce57829003601f168201915b5050505050905090565b600061050082610f9b565b61053f576040517f08c379a00000000000000000000000000000000000000000000000000000000081526004016105369061231c565b60405180910390fd5b6004600083815260200190815260200160002060009054906101000a900473ffffffffffffffffffffffffffffffffffffffff169050919050565b600061058582610717565b90508073ffffffffffffffffffffffffffffffffffffffff168373ffffffffffffffffffffffffffffffffffffffff16036105f5576040517f08c379a00000000000000000000000000000000000000000000000000000000081526004016105ec906123ae565b60405180910390fd5b8073ffffffffffffffffffffffffffffffffffffffff16610614611007565b73ffffffffffffffffffffffffffffffffffffffff16148061064357506106428161063d611007565b610da6565b5b610682576040517f08c379a000000000000000000000000000000000000000000000000000000000815260040161067990612440565b60405180910390fd5b61068c838361100f565b505050565b6106a261069c611007565b826110c8565b6106e1576040517f08c379a00000000000000000000000000000000000000000000000000000000081526004016106d8906124d2565b60405180910390fd5b6106ec8383836111a6565b505050565b61070c83838360405180602001604052806000815250610b43565b505050565b60085481565b6000806002600084815260200190815260200160002060009054906101000a900473ffffffffffffffffffffffffffffffffffffffff169050600073ffffffffffffffffffffffffffffffffffffffff168173ffffffffffffffffffffffffffffffffffffffff16036107bf576040517f08c379a00000000000000000000000000000000000000000000000000000000081526004016107b690612564565b60405180910390fd5b80915050919050565b60008073ffffffffffffffffffffffffffffffffffffffff168273ffffffffffffffffffffffffffffffffffffffff1603610838576040517f08c379a000000000000000000000000000000000000000000000000000000000815260040161082f906125f6565b60405180910390fd5b600360008373ffffffffffffffffffffffffffffffffffffffff1673ffffffffffffffffffffffffffffffffffffffff168152602001908152602001600020549050919050565b610887611007565b73ffffffffffffffffffffffffffffffffffffffff166108a5610907565b73ffffffffffffffffffffffffffffffffffffffff16146108fb576040517f08c379a00000000000000000000000000000000000000000000000000000000081526004016108f290612662565b60405180910390fd5b6109056000611401565b565b6000600760009054906101000a900473ffffffffffffffffffffffffffffffffffffffff16905090565b60606001805461094090612279565b80601f016020809104026020016040519081016040528092919081815260200182805461096c90612279565b80156109b95780601f1061098e576101008083540402835291602001916109b9565b820191906000526020600020905b81548152906001019060200180831161099c57829003601f168201915b5050505050905090565b6109cb611007565b73ffffffffffffffffffffffffffffffffffffffff168273ffffffffffffffffffffffffffffffffffffffff1603610a38576040517f08c379a0000000000000000000000000000000000000000000000000000000008152600401610a2f906126ce565b60405180910390fd5b8060056000610a45611007565b73ffffffffffffffffffffffffffffffffffffffff1673ffffffffffffffffffffffffffffffffffffffff16815260200190815260200160002060008473ffffffffffffffffffffffffffffffffffffffff1673ffffffffffffffffffffffffffffffffffffffff16815260200190815260200160002060006101000a81548160ff0219169083151502179055508173ffffffffffffffffffffffffffffffffffffffff16610af2611007565b73ffffffffffffffffffffffffffffffffffffffff167f17307eab39ab6107e8899845ad3d59bd9653f200f220920489ca2b5937696c3183604051610b379190611c47565b60405180910390a35050565b610b54610b4e611007565b836110c8565b610b93576040517f08c379a0000000000000000000000000000000000000000000000000000000008152600401610b8a906124d2565b60405180910390fd5b610b9f848484846114c7565b50505050565b6060610bb082610f9b565b610bef576040517f08c379a0000000000000000000000000000000000000000000000000000000008152600401610be690612760565b60405180910390fd5b6000600660008481526020019081526020016000208054610c0f90612279565b80601f0160208091040260200160405190810160405280929190818152602001828054610c3b90612279565b8015610c885780601f10610c5d57610100808354040283529160200191610c88565b820191906000526020600020905b815481529060010190602001808311610c6b57829003601f168201915b505050505090506000610c99611523565b90506000815103610cae578192505050610cf1565b600082511115610ce3578082604051602001610ccb9291906127bc565b60405160208183030381529060405292505050610cf1565b610cec8461153a565b925050505b919050565b610cfe611007565b73ffffffffffffffffffffffffffffffffffffffff16610d1c610907565b73ffffffffffffffffffffffffffffffffffffffff1614610d72576040517f08c379a0000000000000000000000000000000000000000000000000000000008152600401610d6990612662565b60405180910390fd5b600060086000815480929190610d879061280f565b919050559050610d9783826115e1565b610da181836115ff565b505050565b6000600560008473ffffffffffffffffffffffffffffffffffffffff1673ffffffffffffffffffffffffffffffffffffffff16815260200190815260200160002060008373ffffffffffffffffffffffffffffffffffffffff1673ffffffffffffffffffffffffffffffffffffffff16815260200190815260200160002060009054906101000a900460ff16905092915050565b610e42611007565b73ffffffffffffffffffffffffffffffffffffffff16610e60610907565b73ffffffffffffffffffffffffffffffffffffffff1614610eb6576040517f08c379a0000000000000000000000000000000000000000000000000000000008152600401610ead90612662565b60405180910390fd5b600073ffffffffffffffffffffffffffffffffffffffff168173ffffffffffffffffffffffffffffffffffffffff1603610f25576040517f08c379a0000000000000000000000000000000000000000000000000000000008152600401610f1c906128c9565b60405180910390fd5b610f2e81611401565b50565b60007f01ffc9a7000000000000000000000000000000000000000000000000000000007bffffffffffffffffffffffffffffffffffffffffffffffffffffffff1916827bffffffffffffffffffffffffffffffffffffffffffffffffffffffff1916149050919050565b60008073ffffffffffffffffffffffffffffffffffffffff166002600084815260200190815260200160002060009054906101000a900473ffffffffffffffffffffffffffffffffffffffff1673ffffffffffffffffffffffffffffffffffffffff1614159050919050565b600033905090565b816004600083815260200190815260200160002060006101000a81548173ffffffffffffffffffffffffffffffffffffffff021916908373ffffffffffffffffffffffffffffffffffffffff160217905550808273ffffffffffffffffffffffffffffffffffffffff1661108283610717565b73ffffffffffffffffffffffffffffffffffffffff167f8c5be1e5ebec7d5bd14f71427d1e84f3dd0314c0f7b2291e5b200ac8c7c3b92560405160405180910390a45050565b60006110d382610f9b565b611112576040517f08c379a00000000000000000000000000000000000000000000000000000000081526004016111099061295b565b60405180910390fd5b600061111d83610717565b90508073ffffffffffffffffffffffffffffffffffffffff168473ffffffffffffffffffffffffffffffffffffffff16148061118c57508373ffffffffffffffffffffffffffffffffffffffff16611174846104f5565b73ffffffffffffffffffffffffffffffffffffffff16145b8061119d575061119c8185610da6565b5b91505092915050565b8273ffffffffffffffffffffffffffffffffffffffff166111c682610717565b73ffffffffffffffffffffffffffffffffffffffff161461121c576040517f08c379a0000000000000000000000000000000000000000000000000000000008152600401611213906129ed565b60405180910390fd5b600073ffffffffffffffffffffffffffffffffffffffff168273ffffffffffffffffffffffffffffffffffffffff160361128b576040517f08c379a000000000000000000000000000000000000000000000000000000000815260040161128290612a7f565b60405180910390fd5b61129683838361166c565b6112a160008261100f565b6001600360008573ffffffffffffffffffffffffffffffffffffffff1673ffffffffffffffffffffffffffffffffffffffff16815260200190815260200160002060008282546112f19190612a9f565b925050819055506001600360008473ffffffffffffffffffffffffffffffffffffffff1673ffffffffffffffffffffffffffffffffffffffff16815260200190815260200160002060008282546113489190612ad3565b92505081905550816002600083815260200190815260200160002060006101000a81548173ffffffffffffffffffffffffffffffffffffffff021916908373ffffffffffffffffffffffffffffffffffffffff160217905550808273ffffffffffffffffffffffffffffffffffffffff168473ffffffffffffffffffffffffffffffffffffffff167fddf252ad1be2c89b69c2b068fc378daa952ba7f163c4a11628f55a4df523b3ef60405160405180910390a4505050565b6000600760009054906101000a900473ffffffffffffffffffffffffffffffffffffffff16905081600760006101000a81548173ffffffffffffffffffffffffffffffffffffffff021916908373ffffffffffffffffffffffffffffffffffffffff1602179055508173ffffffffffffffffffffffffffffffffffffffff168173ffffffffffffffffffffffffffffffffffffffff167f8be0079c531659141344cd1fd0a4f28419497f9722a3daafe3b4186f6b6457e060405160405180910390a35050565b6114d28484846111a6565b6114de84848484611671565b61151d576040517f08c379a000000000000000000000000000000000000000000000000000000000815260040161151490612b79565b60405180910390fd5b50505050565b606060405180602001604052806000815250905090565b606061154582610f9b565b611584576040517f08c379a000000000000000000000000000000000000000000000000000000000815260040161157b90612c0b565b60405180910390fd5b600061158e611523565b905060008151116115ae57604051806020016040528060008152506115d9565b806115b8846117f8565b6040516020016115c99291906127bc565b6040516020818303038152906040525b915050919050565b6115fb828260405180602001604052806000815250611958565b5050565b61160882610f9b565b611647576040517f08c379a000000000000000000000000000000000000000000000000000000000815260040161163e90612c9d565b60405180910390fd5b806006600084815260200190815260200160002090816116679190612e69565b505050565b505050565b60006116928473ffffffffffffffffffffffffffffffffffffffff166119b3565b156117eb578373ffffffffffffffffffffffffffffffffffffffff1663150b7a026116bb611007565b8786866040518563ffffffff1660e01b81526004016116dd9493929190612f90565b6020604051808303816000875af192505050801561171957506040513d601f19601f820116820180604052508101906117169190612ff1565b60015b61179b573d8060008114611749576040519150601f19603f3d011682016040523d82523d6000602084013e61174e565b606091505b506000815103611793576040517f08c379a000000000000000000000000000000000000000000000000000000000815260040161178a90612b79565b60405180910390fd5b805181602001fd5b63150b7a0260e01b7bffffffffffffffffffffffffffffffffffffffffffffffffffffffff1916817bffffffffffffffffffffffffffffffffffffffffffffffffffffffff1916149150506117f0565b600190505b949350505050565b60606000820361183f576040518060400160405280600181526020017f30000000000000000000000000000000000000000000000000000000000000008152509050611953565b600082905060005b6000821461187157808061185a9061280f565b915050600a8261186a919061304d565b9150611847565b60008167ffffffffffffffff81111561188d5761188c611f5f565b5b6040519080825280601f01601f1916602001820160405280156118bf5781602001600182028036833780820191505090505b5090505b6000851461194c576001826118d89190612a9f565b9150600a856118e7919061307e565b60306118f39190612ad3565b60f81b818381518110611909576119086130af565b5b60200101907effffffffffffffffffffffffffffffffffffffffffffffffffffffffffffff1916908160001a905350600a85611945919061304d565b94506118c3565b8093505050505b919050565b61196283836119c6565b61196f6000848484611671565b6119ae576040517f08c379a00000000000000000000000000000000000000000000000000000000081526004016119a590612b79565b60405180910390fd5b505050565b600080823b905060008111915050919050565b600073ffffffffffffffffffffffffffffffffffffffff168273ffffffffffffffffffffffffffffffffffffffff1603611a35576040517f08c379a0000000000000000000000000000000000000000000000000000000008152600401611a2c9061312a565b60405180910390fd5b611a3e81610f9b565b15611a7e576040517f08c379a0000000000000000000000000000000000000000000000000000000008152600401611a7590613196565b60405180910390fd5b611a8a6000838361166c565b6001600360008473ffffffffffffffffffffffffffffffffffffffff1673ffffffffffffffffffffffffffffffffffffffff1681526020019081526020016000206000828254611ada9190612ad3565b92505081905550816002600083815260200190815260200160002060006101000a81548173ffffffffffffffffffffffffffffffffffffffff021916908373ffffffffffffffffffffffffffffffffffffffff160217905550808273ffffffffffffffffffffffffffffffffffffffff16600073ffffffffffffffffffffffffffffffffffffffff167fddf252ad1be2c89b69c2b068fc378daa952ba7f163c4a11628f55a4df523b3ef60405160405180910390a45050565b6000604051905090565b600080fd5b600080fd5b60007fffffffff0000000000000000000000000000000000000000000000000000000082169050919050565b611bdc81611ba7565b8114611be757600080fd5b50565b600081359050611bf981611bd3565b92915050565b600060208284031215611c1557611c14611b9d565b5b6000611c2384828501611bea565b91505092915050565b60008115159050919050565b611c4181611c2c565b82525050565b6000602082019050611c5c6000830184611c38565b92915050565b600081519050919050565b600082825260208201905092915050565b60005b83811015611c9c578082015181840152602081019050611c81565b60008484015250505050565b6000601f19601f8301169050919050565b6000611cc482611c62565b611cce8185611c6d565b9350611cde818560208601611c7e565b611ce781611ca8565b840191505092915050565b60006020820190508181036000830152611d0c8184611cb9565b905092915050565b6000819050919050565b611d2781611d14565b8114611d3257600080fd5b50565b600081359050611d4481611d1e565b92915050565b600060208284031215611d6057611d5f611b9d565b5b6000611d6e84828501611d35565b91505092915050565b600073ffffffffffffffffffffffffffffffffffffffff82169050919050565b6000611da282611d77565b9050919050565b611db281611d97565b82525050565b6000602082019050611dcd6000830184611da9565b92915050565b611ddc81611d97565b8114611de757600080fd5b50565b600081359050611df981611dd3565b92915050565b60008060408385031215611e1657611e15611b9d565b5b6000611e2485828601611dea565b9250506020611e3585828601611d35565b9150509250929050565b600080600060608486031215611e5857611e57611b9d565b5b6000611e6686828701611dea565b9350506020611e7786828701611dea565b9250506040611e8886828701611d35565b9150509250925092565b611e9b81611d14565b82525050565b6000602082019050611eb66000830184611e92565b92915050565b600060208284031215611ed257611ed1611b9d565b5b6000611ee084828501611dea565b91505092915050565b611ef281611c2c565b8114611efd57600080fd5b50565b600081359050611f0f81611ee9565b92915050565b60008060408385031215611f2c57611f2b611b9d565b5b6000611f3a85828601611dea565b9250506020611f4b85828601611f00565b9150509250929050565b600080fd5b600080fd5b7f4e487b7100000000000000000000000000000000000000000000000000000000600052604160045260246000fd5b611f9782611ca8565b810181811067ffffffffffffffff82111715611fb657611fb5611f5f565b5b80604052505050565b6000611fc9611b93565b9050611fd58282611f8e565b919050565b600067ffffffffffffffff821115611ff557611ff4611f5f565b5b611ffe82611ca8565b9050602081019050919050565b82818337600083830152505050565b600061202d61202884611fda565b611fbf565b90508281526020810184848401111561204957612048611f5a565b5b61205484828561200b565b509392505050565b600082601f83011261207157612070611f55565b5b813561208184826020860161201a565b91505092915050565b600080600080608085870312156120a4576120a3611b9d565b5b60006120b287828801611dea565b94505060206120c387828801611dea565b93505060406120d487828801611d35565b925050606085013567ffffffffffffffff8111156120f5576120f4611ba2565b5b6121018782880161205c565b91505092959194509250565b600067ffffffffffffffff82111561212857612127611f5f565b5b61213182611ca8565b9050602081019050919050565b600061215161214c8461210d565b611fbf565b90508281526020810184848401111561216d5761216c611f5a565b5b61217884828561200b565b509392505050565b600082601f83011261219557612194611f55565b5b81356121a584826020860161213e565b91505092915050565b600080604083850312156121c5576121c4611b9d565b5b60006121d385828601611dea565b925050602083013567ffffffffffffffff8111156121f4576121f3611ba2565b5b61220085828601612180565b9150509250929050565b6000806040838503121561222157612220611b9d565b5b600061222f85828601611dea565b925050602061224085828601611dea565b9150509250929050565b7f4e487b7100000000000000000000000000000000000000000000000000000000600052602260045260246000fd5b6000600282049050600182168061229157607f821691505b6020821081036122a4576122a361224a565b5b50919050565b7f4552433732313a20617070726f76656420717565727920666f72206e6f6e657860008201527f697374656e7420746f6b656e0000000000000000000000000000000000000000602082015250565b6000612306602c83611c6d565b9150612311826122aa565b604082019050919050565b60006020820190508181036000830152612335816122f9565b9050919050565b7f4552433732313a20617070726f76616c20746f2063757272656e74206f776e6560008201527f7200000000000000000000000000000000000000000000000000000000000000602082015250565b6000612398602183611c6d565b91506123a38261233c565b604082019050919050565b600060208201905081810360008301526123c78161238b565b9050919050565b7f4552433732313a20617070726f76652063616c6c6572206973206e6f74206f7760008201527f6e6572206e6f7220617070726f76656420666f7220616c6c0000000000000000602082015250565b600061242a603883611c6d565b9150612435826123ce565b604082019050919050565b600060208201905081810360008301526124598161241d565b9050919050565b7f4552433732313a207472616e736665722063616c6c6572206973206e6f74206f60008201527f776e6572206e6f7220617070726f766564000000000000000000000000000000602082015250565b60006124bc603183611c6d565b91506124c782612460565b604082019050919050565b600060208201905081810360008301526124eb816124af565b9050919050565b7f4552433732313a206f776e657220717565727920666f72206e6f6e657869737460008201527f656e7420746f6b656e0000000000000000000000000000000000000000000000602082015250565b600061254e602983611c6d565b9150612559826124f2565b604082019050919050565b6000602082019050818103600083015261257d81612541565b9050919050565b7f4552433732313a2062616c616e636520717565727920666f7220746865207a6560008201527f726f206164647265737300000000000000000000000000000000000000000000602082015250565b60006125e0602a83611c6d565b91506125eb82612584565b604082019050919050565b6000602082019050818103600083015261260f816125d3565b9050919050565b7f4f776e61626c653a2063616c6c6572206973206e6f7420746865206f776e6572600082015250565b600061264c602083611c6d565b915061265782612616565b602082019050919050565b6000602082019050818103600083015261267b8161263f565b9050919050565b7f4552433732313a20617070726f766520746f2063616c6c657200000000000000600082015250565b60006126b8601983611c6d565b91506126c382612682565b602082019050919050565b600060208201905081810360008301526126e7816126ab565b9050919050565b7f45524337323155524953746f726167653a2055524920717565727920666f722060008201527f6e6f6e6578697374656e7420746f6b656e000000000000000000000000000000602082015250565b600061274a603183611c6d565b9150612755826126ee565b604082019050919050565b600060208201905081810360008301526127798161273d565b9050919050565b600081905092915050565b600061279682611c62565b6127a08185612780565b93506127b0818560208601611c7e565b80840191505092915050565b60006127c8828561278b565b91506127d4828461278b565b91508190509392505050565b7f4e487b7100000000000000000000000000000000000000000000000000000000600052601160045260246000fd5b600061281a82611d14565b91507fffffffffffffffffffffffffffffffffffffffffffffffffffffffffffffffff820361284c5761284b6127e0565b5b600182019050919050565b7f4f776e61626c653a206e6577206f776e657220697320746865207a65726f206160008201527f6464726573730000000000000000000000000000000000000000000000000000602082015250565b60006128b3602683611c6d565b91506128be82612857565b604082019050919050565b600060208201905081810360008301526128e2816128a6565b9050919050565b7f4552433732313a206f70657261746f7220717565727920666f72206e6f6e657860008201527f697374656e7420746f6b656e0000000000000000000000000000000000000000602082015250565b6000612945602c83611c6d565b9150612950826128e9565b604082019050919050565b6000602082019050818103600083015261297481612938565b9050919050565b7f4552433732313a207472616e73666572206f6620746f6b656e2074686174206960008201527f73206e6f74206f776e0000000000000000000000000000000000000000000000602082015250565b60006129d7602983611c6d565b91506129e28261297b565b604082019050919050565b60006020820190508181036000830152612a06816129ca565b9050919050565b7f4552433732313a207472616e7366657220746f20746865207a65726f2061646460008201527f7265737300000000000000000000000000000000000000000000000000000000602082015250565b6000612a69602483611c6d565b9150612a7482612a0d565b604082019050919050565b60006020820190508181036000830152612a9881612a5c565b9050919050565b6000612aaa82611d14565b9150612ab583611d14565b9250828203905081811115612acd57612acc6127e0565b5b92915050565b6000612ade82611d14565b9150612ae983611d14565b9250828201905080821115612b0157612b006127e0565b5b92915050565b7f4552433732313a207472616e7366657220746f206e6f6e20455243373231526560008201527f63656976657220696d706c656d656e7465720000000000000000000000000000602082015250565b6000612b63603283611c6d565b9150612b6e82612b07565b604082019050919050565b60006020820190508181036000830152612b9281612b56565b9050919050565b7f4552433732314d657461646174613a2055524920717565727920666f72206e6f60008201527f6e6578697374656e7420746f6b656e0000000000000000000000000000000000602082015250565b6000612bf5602f83611c6d565b9150612c0082612b99565b604082019050919050565b60006020820190508181036000830152612c2481612be8565b9050919050565b7f45524337323155524953746f726167653a2055524920736574206f66206e6f6e60008201527f6578697374656e7420746f6b656e000000000000000000000000000000000000602082015250565b6000612c87602e83611c6d565b9150612c9282612c2b565b604082019050919050565b60006020820190508181036000830152612cb681612c7a565b9050919050565b60008190508160005260206000209050919050565b60006020601f8301049050919050565b600082821b905092915050565b600060088302612d1f7fffffffffffffffffffffffffffffffffffffffffffffffffffffffffffffffff82612ce2565b612d298683612ce2565b95508019841693508086168417925050509392505050565b6000819050919050565b6000612d66612d61612d5c84611d14565b612d41565b611d14565b9050919050565b6000819050919050565b612d8083612d4b565b612d94612d8c82612d6d565b848454612cef565b825550505050565b600090565b612da9612d9c565b612db4818484612d77565b505050565b5b81811015612dd857612dcd600082612da1565b600181019050612dba565b5050565b601f821115612e1d57612dee81612cbd565b612df784612cd2565b81016020851015612e06578190505b612e1a612e1285612cd2565b830182612db9565b50505b505050565b600082821c905092915050565b6000612e4060001984600802612e22565b1980831691505092915050565b6000612e598383612e2f565b9150826002028217905092915050565b612e7282611c62565b67ffffffffffffffff811115612e8b57612e8a611f5f565b5b612e958254612279565b612ea0828285612ddc565b600060209050601f831160018114612ed35760008415612ec1578287015190505b612ecb8582612e4d565b865550612f33565b601f198416612ee186612cbd565b60005b82811015612f0957848901518255600182019150602085019450602081019050612ee4565b86831015612f265784890151612f22601f891682612e2f565b8355505b6001600288020188555050505b505050505050565b600081519050919050565b600082825260208201905092915050565b6000612f6282612f3b565b612f6c8185612f46565b9350612f7c818560208601611c7e565b612f8581611ca8565b840191505092915050565b6000608082019050612fa56000830187611da9565b612fb26020830186611da9565b612fbf6040830185611e92565b8181036060830152612fd18184612f57565b905095945050505050565b600081519050612feb81611bd3565b92915050565b60006020828403121561300757613006611b9d565b5b600061301584828501612fdc565b91505092915050565b7f4e487b7100000000000000000000000000000000000000000000000000000000600052601260045260246000fd5b600061305882611d14565b915061306383611d14565b9250826130735761307261301e565b5b828204905092915050565b600061308982611d14565b915061309483611d14565b9250826130a4576130a361301e565b5b828206905092915050565b7f4e487b7100000000000000000000000000000000000000000000000000000000600052603260045260246000fd5b7f4552433732313a206d696e7420746f20746865207a65726f2061646472657373600082015250565b6000613114602083611c6d565b915061311f826130de565b602082019050919050565b6000602082019050818103600083015261314381613107565b9050919050565b7f4552433732313a20746f6b656e20616c7265616479206d696e74656400000000600082015250565b6000613180601c83611c6d565b915061318b8261314a565b602082019050919050565b600060208201905081810360008301526131af81613173565b905091905056fea26469706673582212202c217ad2653533c4e93748e50fd75ecee6b55cfabee012e0343b79431dbf725364736f6c63430008130033a2646970667358221220647275d3d49b90d5436358723528b37dbf9d1f6f052b76c5144208b10297ae8964736f6c63430008130033",
  "linkReferences": {},
  "deployedLinkReferences": {}
}