{
  "_format": "hh-sol-artifact-1",
  "contractName": "ExclusiveNFTFactory",
  "sourceName": "contracts/ExclusiveNFTFactory.sol",
  "abi": [
    {
      "anonymous": false,
      "inputs": [
        {
          "indexed": false,
          "internalType": "address",
          "name": "owner",
          "type": "address"
        },
        {
          "indexed": false,
          "internalType": "address",
          "name": "tokenAddress",
          "type": "address"
        },
        {
          "indexed": false,
          "internalType": "string",
          "name": "unrevealURI",
          "type": "string"
        },
        {
          "indexed": false,
          "internalType": "address",
          "name": "premiumNFT",
          "type": "address"
        }
      ],
      "name": "ExclusiveNFTCreated",
      "type": "event"
    },
    {
      "inputs": [
        {
          "internalType": "string",
          "name": "name",
          "type": "string"
        },
        {
          "internalType": "string",
          "name": "symbol",
          "type": "string"
        },
        {
          "internalType": "string",
          "name": "unrevealURI",
          "type": "string"
        },
        {
          "internalType": "address",
          "name": "premiumNFT",
          "type": "address"
        }
      ],
      "name": "deployExclusiveToken",
      "outputs": [
        {
          "internalType": "address",
          "name": "",
          "type": "address"
        }
      ],
      "stateMutability": "nonpayable",
      "type": "function"
    },
    {
      "inputs": [],
      "name": "getTotalCollection",
      "outputs": [
        {
          "internalType": "uint256",
          "name": "amount",
          "type": "uint256"
        }
      ],
      "stateMutability": "view",
      "type": "function"
    },
    {
      "inputs": [
        {
          "internalType": "uint256",
          "name": "",
          "type": "uint256"
        }
      ],
      "name": "tokens",
      "outputs": [
        {
          "internalType": "contract ExclusiveNFT",
          "name": "",
          "type": "address"
        }
      ],
      "stateMutability": "view",
      "type": "function"
    }
  ],
  "bytecode": "0x608060405234801561001057600080fd5b5061503d806100206000396000f3fe60806040523480156200001157600080fd5b5060043610620000465760003560e01c80633aba57b5146200004b578063459dcbc314620000815780634f64b2be14620000a3575b600080fd5b62000069600480360381019062000063919062000400565b620000d9565b604051620000789190620004e0565b60405180910390f35b6200008b620001cb565b6040516200009a919062000518565b60405180910390f35b620000c16004803603810190620000bb919062000566565b620001d7565b604051620000d0919062000603565b60405180910390f35b60008085858585604051620000ee9062000217565b620000fd9493929190620006a9565b604051809103906000f0801580156200011a573d6000803e3d6000fd5b5090506000819080600181540180825580915050600190039060005260206000200160009091909190916101000a81548173ffffffffffffffffffffffffffffffffffffffff021916908373ffffffffffffffffffffffffffffffffffffffff1602179055507fde228340d7ee0282004bb8fbc3b526914a5153971aec91abd6a927be641e968833828686604051620001b794939291906200070b565b60405180910390a180915050949350505050565b60008080549050905090565b60008181548110620001e857600080fd5b906000526020600020016000915054906101000a900473ffffffffffffffffffffffffffffffffffffffff1681565b6148a8806200076083390190565b6000604051905090565b600080fd5b600080fd5b600080fd5b600080fd5b6000601f19601f8301169050919050565b7f4e487b7100000000000000000000000000000000000000000000000000000000600052604160045260246000fd5b6200028e8262000243565b810181811067ffffffffffffffff82111715620002b057620002af62000254565b5b80604052505050565b6000620002c562000225565b9050620002d3828262000283565b919050565b600067ffffffffffffffff821115620002f657620002f562000254565b5b620003018262000243565b9050602081019050919050565b82818337600083830152505050565b6000620003346200032e84620002d8565b620002b9565b9050828152602081018484840111156200035357620003526200023e565b5b620003608482856200030e565b509392505050565b600082601f83011262000380576200037f62000239565b5b8135620003928482602086016200031d565b91505092915050565b600073ffffffffffffffffffffffffffffffffffffffff82169050919050565b6000620003c8826200039b565b9050919050565b620003da81620003bb565b8114620003e657600080fd5b50565b600081359050620003fa81620003cf565b92915050565b600080600080608085870312156200041d576200041c6200022f565b5b600085013567ffffffffffffffff8111156200043e576200043d62000234565b5b6200044c8782880162000368565b945050602085013567ffffffffffffffff81111562000470576200046f62000234565b5b6200047e8782880162000368565b935050604085013567ffffffffffffffff811115620004a257620004a162000234565b5b620004b08782880162000368565b9250506060620004c387828801620003e9565b91505092959194509250565b620004da81620003bb565b82525050565b6000602082019050620004f76000830184620004cf565b92915050565b6000819050919050565b6200051281620004fd565b82525050565b60006020820190506200052f600083018462000507565b92915050565b6200054081620004fd565b81146200054c57600080fd5b50565b600081359050620005608162000535565b92915050565b6000602082840312156200057f576200057e6200022f565b5b60006200058f848285016200054f565b91505092915050565b6000819050919050565b6000620005c3620005bd620005b7846200039b565b62000598565b6200039b565b9050919050565b6000620005d782620005a2565b9050919050565b6000620005eb82620005ca565b9050919050565b620005fd81620005de565b82525050565b60006020820190506200061a6000830184620005f2565b92915050565b600081519050919050565b600082825260208201905092915050565b60005b838110156200065c5780820151818401526020810190506200063f565b60008484015250505050565b6000620006758262000620565b6200068181856200062b565b9350620006938185602086016200063c565b6200069e8162000243565b840191505092915050565b60006080820190508181036000830152620006c5818762000668565b90508181036020830152620006db818662000668565b90508181036040830152620006f1818562000668565b9050620007026060830184620004cf565b95945050505050565b6000608082019050620007226000830187620004cf565b620007316020830186620004cf565b818103604083015262000745818562000668565b9050620007566060830184620004cf565b9594505050505056fe60806040523480156200001157600080fd5b50604051620048a8380380620048a88339818101604052810190620000379190620004f2565b838381600090816200004a91906200080c565b5080600190816200005c91906200080c565b5050506200007f62000073620000ed60201b60201c565b620000f560201b60201c565b6200009032620001bb60201b60201c565b81600e9081620000a191906200080c565b5080600a60006101000a81548173ffffffffffffffffffffffffffffffffffffffff021916908373ffffffffffffffffffffffffffffffffffffffff1602179055505050505062000a0e565b600033905090565b6000600760009054906101000a900473ffffffffffffffffffffffffffffffffffffffff16905081600760006101000a81548173ffffffffffffffffffffffffffffffffffffffff021916908373ffffffffffffffffffffffffffffffffffffffff1602179055508173ffffffffffffffffffffffffffffffffffffffff168173ffffffffffffffffffffffffffffffffffffffff167f8be0079c531659141344cd1fd0a4f28419497f9722a3daafe3b4186f6b6457e060405160405180910390a35050565b620001cb620000ed60201b60201c565b73ffffffffffffffffffffffffffffffffffffffff16620001f1620002d060201b60201c565b73ffffffffffffffffffffffffffffffffffffffff16146200024a576040517f08c379a0000000000000000000000000000000000000000000000000000000008152600401620002419062000954565b60405180910390fd5b600073ffffffffffffffffffffffffffffffffffffffff168173ffffffffffffffffffffffffffffffffffffffff1603620002bc576040517f08c379a0000000000000000000000000000000000000000000000000000000008152600401620002b390620009ec565b60405180910390fd5b620002cd81620000f560201b60201c565b50565b6000600760009054906101000a900473ffffffffffffffffffffffffffffffffffffffff16905090565b6000604051905090565b600080fd5b600080fd5b600080fd5b600080fd5b6000601f19601f8301169050919050565b7f4e487b7100000000000000000000000000000000000000000000000000000000600052604160045260246000fd5b620003638262000318565b810181811067ffffffffffffffff8211171562000385576200038462000329565b5b80604052505050565b60006200039a620002fa565b9050620003a8828262000358565b919050565b600067ffffffffffffffff821115620003cb57620003ca62000329565b5b620003d68262000318565b9050602081019050919050565b60005b8381101562000403578082015181840152602081019050620003e6565b60008484015250505050565b6000620004266200042084620003ad565b6200038e565b90508281526020810184848401111562000445576200044462000313565b5b62000452848285620003e3565b509392505050565b600082601f8301126200047257620004716200030e565b5b8151620004848482602086016200040f565b91505092915050565b600073ffffffffffffffffffffffffffffffffffffffff82169050919050565b6000620004ba826200048d565b9050919050565b620004cc81620004ad565b8114620004d857600080fd5b50565b600081519050620004ec81620004c1565b92915050565b600080600080608085870312156200050f576200050e62000304565b5b600085015167ffffffffffffffff81111562000530576200052f62000309565b5b6200053e878288016200045a565b945050602085015167ffffffffffffffff81111562000562576200056162000309565b5b62000570878288016200045a565b935050604085015167ffffffffffffffff81111562000594576200059362000309565b5b620005a2878288016200045a565b9250506060620005b587828801620004db565b91505092959194509250565b600081519050919050565b7f4e487b7100000000000000000000000000000000000000000000000000000000600052602260045260246000fd5b600060028204905060018216806200061457607f821691505b6020821081036200062a5762000629620005cc565b5b50919050565b60008190508160005260206000209050919050565b60006020601f8301049050919050565b600082821b905092915050565b600060088302620006947fffffffffffffffffffffffffffffffffffffffffffffffffffffffffffffffff8262000655565b620006a0868362000655565b95508019841693508086168417925050509392505050565b6000819050919050565b6000819050919050565b6000620006ed620006e7620006e184620006b8565b620006c2565b620006b8565b9050919050565b6000819050919050565b6200070983620006cc565b620007216200071882620006f4565b84845462000662565b825550505050565b600090565b6200073862000729565b62000745818484620006fe565b505050565b5b818110156200076d57620007616000826200072e565b6001810190506200074b565b5050565b601f821115620007bc57620007868162000630565b620007918462000645565b81016020851015620007a1578190505b620007b9620007b08562000645565b8301826200074a565b50505b505050565b600082821c905092915050565b6000620007e160001984600802620007c1565b1980831691505092915050565b6000620007fc8383620007ce565b9150826002028217905092915050565b6200081782620005c1565b67ffffffffffffffff81111562000833576200083262000329565b5b6200083f8254620005fb565b6200084c82828562000771565b600060209050601f8311600181146200088457600084156200086f578287015190505b6200087b8582620007ee565b865550620008eb565b601f198416620008948662000630565b60005b82811015620008be5784890151825560018201915060208501945060208101905062000897565b86831015620008de5784890151620008da601f891682620007ce565b8355505b6001600288020188555050505b505050505050565b600082825260208201905092915050565b7f4f776e61626c653a2063616c6c6572206973206e6f7420746865206f776e6572600082015250565b60006200093c602083620008f3565b9150620009498262000904565b602082019050919050565b600060208201905081810360008301526200096f816200092d565b9050919050565b7f4f776e61626c653a206e6577206f776e657220697320746865207a65726f206160008201527f6464726573730000000000000000000000000000000000000000000000000000602082015250565b6000620009d4602683620008f3565b9150620009e18262000976565b604082019050919050565b6000602082019050818103600083015262000a0781620009c5565b9050919050565b613e8a8062000a1e6000396000f3fe608060405234801561001057600080fd5b50600436106101a95760003560e01c80635a601985116100f9578063a22cb46511610097578063d204c45e11610071578063d204c45e146104e3578063d777cc6d146104ff578063e985e9c51461051b578063f2fde38b1461054b576101a9565b8063a22cb4651461047b578063b88d4fde14610497578063c87b56dd146104b3576101a9565b806370a08231116100d357806370a0823114610405578063715018a6146104355780638da5cb5b1461043f57806395d89b411461045d576101a9565b80635a601985146103865780636352211e146103a45780636e04ff0d146103d4576101a9565b806323b872dd1161016657806342842e0e1161014057806342842e0e146103005780634585e33b1461031c5780634a60f620146103385780634e1bcdbd14610356576101a9565b806323b872dd146102965780633070fbf8146102b25780633bb3a24d146102d0576101a9565b806301ffc9a7146101ae57806306fdde03146101de578063081812fc146101fc578063095ea7b31461022c5780630cb6aaf1146102485780632126ea8114610278575b600080fd5b6101c860048036038101906101c3919061264d565b610567565b6040516101d59190612695565b60405180910390f35b6101e6610649565b6040516101f39190612740565b60405180910390f35b61021660048036038101906102119190612798565b6106db565b6040516102239190612806565b60405180910390f35b6102466004803603810190610241919061284d565b610760565b005b610262600480360381019061025d9190612798565b610877565b60405161026f919061289c565b60405180910390f35b61028061089b565b60405161028d9190612740565b60405180910390f35b6102b060048036038101906102ab91906128b7565b610929565b005b6102ba610989565b6040516102c79190612806565b60405180910390f35b6102ea60048036038101906102e59190612798565b6109af565b6040516102f79190612740565b60405180910390f35b61031a600480360381019061031591906128b7565b610b92565b005b6103366004803603810190610331919061296f565b610c1e565b005b610340610e0d565b60405161034d919061289c565b60405180910390f35b610370600480360381019061036b9190612798565b610e13565b60405161037d9190612695565b60405180910390f35b61038e610e33565b60405161039b9190612a1b565b60405180910390f35b6103be60048036038101906103b99190612798565b610e59565b6040516103cb9190612806565b60405180910390f35b6103ee60048036038101906103e9919061296f565b610f0a565b6040516103fc929190612a8b565b60405180910390f35b61041f600480360381019061041a9190612abb565b610fa1565b60405161042c919061289c565b60405180910390f35b61043d611058565b005b6104476110e0565b6040516104549190612806565b60405180910390f35b61046561110a565b6040516104729190612740565b60405180910390f35b61049560048036038101906104909190612b14565b61119c565b005b6104b160048036038101906104ac9190612c84565b61131c565b005b6104cd60048036038101906104c89190612798565b61137e565b6040516104da9190612740565b60405180910390f35b6104fd60048036038101906104f89190612da8565b6114cf565b005b61051960048036038101906105149190612abb565b61167f565b005b61053560048036038101906105309190612e04565b61173f565b6040516105429190612695565b60405180910390f35b61056560048036038101906105609190612abb565b6117d3565b005b60007f80ac58cd000000000000000000000000000000000000000000000000000000007bffffffffffffffffffffffffffffffffffffffffffffffffffffffff1916827bffffffffffffffffffffffffffffffffffffffffffffffffffffffff1916148061063257507f5b5e139f000000000000000000000000000000000000000000000000000000007bffffffffffffffffffffffffffffffffffffffffffffffffffffffff1916827bffffffffffffffffffffffffffffffffffffffffffffffffffffffff1916145b806106425750610641826118ca565b5b9050919050565b60606000805461065890612e73565b80601f016020809104026020016040519081016040528092919081815260200182805461068490612e73565b80156106d15780601f106106a6576101008083540402835291602001916106d1565b820191906000526020600020905b8154815290600101906020018083116106b457829003601f168201915b5050505050905090565b60006106e682611934565b610725576040517f08c379a000000000000000000000000000000000000000000000000000000000815260040161071c90612f16565b60405180910390fd5b6004600083815260200190815260200160002060009054906101000a900473ffffffffffffffffffffffffffffffffffffffff169050919050565b600061076b82610e59565b90508073ffffffffffffffffffffffffffffffffffffffff168373ffffffffffffffffffffffffffffffffffffffff16036107db576040517f08c379a00000000000000000000000000000000000000000000000000000000081526004016107d290612fa8565b60405180910390fd5b8073ffffffffffffffffffffffffffffffffffffffff166107fa6119a0565b73ffffffffffffffffffffffffffffffffffffffff1614806108295750610828816108236119a0565b61173f565b5b610868576040517f08c379a000000000000000000000000000000000000000000000000000000000815260040161085f9061303a565b60405180910390fd5b61087283836119a8565b505050565b600d818154811061088757600080fd5b906000526020600020016000915090505481565b600e80546108a890612e73565b80601f01602080910402602001604051908101604052809291908181526020018280546108d490612e73565b80156109215780601f106108f657610100808354040283529160200191610921565b820191906000526020600020905b81548152906001019060200180831161090457829003601f168201915b505050505081565b61093a6109346119a0565b82611a61565b610979576040517f08c379a0000000000000000000000000000000000000000000000000000000008152600401610970906130cc565b60405180910390fd5b610984838383611b3f565b505050565b600960009054906101000a900473ffffffffffffffffffffffffffffffffffffffff1681565b606060003390506000600a60009054906101000a900473ffffffffffffffffffffffffffffffffffffffff1673ffffffffffffffffffffffffffffffffffffffff166370a08231836040518263ffffffff1660e01b8152600401610a139190612806565b602060405180830381865afa158015610a30573d6000803e3d6000fd5b505050506040513d601f19601f82011682018060405250810190610a549190613101565b1115610afe57600b60008481526020019081526020016000208054610a7890612e73565b80601f0160208091040260200160405190810160405280929190818152602001828054610aa490612e73565b8015610af15780601f10610ac657610100808354040283529160200191610af1565b820191906000526020600020905b815481529060010190602001808311610ad457829003601f168201915b5050505050915050610b8d565b600e8054610b0b90612e73565b80601f0160208091040260200160405190810160405280929190818152602001828054610b3790612e73565b8015610b845780601f10610b5957610100808354040283529160200191610b84565b820191906000526020600020905b815481529060010190602001808311610b6757829003601f168201915b50505050509150505b919050565b610ba3610b9d6119a0565b82611a61565b610be2576040517f08c379a0000000000000000000000000000000000000000000000000000000008152600401610bd9906130cc565b60405180910390fd5b610bed838383611b3f565b6001600c600083815260200190815260200160002060006101000a81548160ff021916908315150217905550505050565b600960009054906101000a900473ffffffffffffffffffffffffffffffffffffffff1673ffffffffffffffffffffffffffffffffffffffff163373ffffffffffffffffffffffffffffffffffffffff1614610cae576040517f08c379a0000000000000000000000000000000000000000000000000000000008152600401610ca5906131a0565b60405180910390fd5b60005b600d80549050811015610e085760011515600c6000600d8481548110610cda57610cd96131c0565b5b9060005260206000200154815260200190815260200160002060009054906101000a900460ff16151503610df557610de9600d8281548110610d1f57610d1e6131c0565b5b9060005260206000200154600b6000600d8581548110610d4257610d416131c0565b5b906000526020600020015481526020019081526020016000208054610d6690612e73565b80601f0160208091040260200160405190810160405280929190818152602001828054610d9290612e73565b8015610ddf5780601f10610db457610100808354040283529160200191610ddf565b820191906000526020600020905b815481529060010190602001808311610dc257829003601f168201915b5050505050611d9a565b610df4600d82611e07565b5b8080610e009061321e565b915050610cb1565b505050565b60085481565b600c6020528060005260406000206000915054906101000a900460ff1681565b600a60009054906101000a900473ffffffffffffffffffffffffffffffffffffffff1681565b6000806002600084815260200190815260200160002060009054906101000a900473ffffffffffffffffffffffffffffffffffffffff169050600073ffffffffffffffffffffffffffffffffffffffff168173ffffffffffffffffffffffffffffffffffffffff1603610f01576040517f08c379a0000000000000000000000000000000000000000000000000000000008152600401610ef8906132d8565b60405180910390fd5b80915050919050565b600060606000915060005b600d80549050811015610f845760011515600c6000600d8481548110610f3e57610f3d6131c0565b5b9060005260206000200154815260200190815260200160002060009054906101000a900460ff16151503610f7157600192505b8080610f7c9061321e565b915050610f15565b508160405180602001604052806000815250915091509250929050565b60008073ffffffffffffffffffffffffffffffffffffffff168273ffffffffffffffffffffffffffffffffffffffff1603611011576040517f08c379a00000000000000000000000000000000000000000000000000000000081526004016110089061336a565b60405180910390fd5b600360008373ffffffffffffffffffffffffffffffffffffffff1673ffffffffffffffffffffffffffffffffffffffff168152602001908152602001600020549050919050565b6110606119a0565b73ffffffffffffffffffffffffffffffffffffffff1661107e6110e0565b73ffffffffffffffffffffffffffffffffffffffff16146110d4576040517f08c379a00000000000000000000000000000000000000000000000000000000081526004016110cb906133d6565b60405180910390fd5b6110de6000611ebc565b565b6000600760009054906101000a900473ffffffffffffffffffffffffffffffffffffffff16905090565b60606001805461111990612e73565b80601f016020809104026020016040519081016040528092919081815260200182805461114590612e73565b80156111925780601f1061116757610100808354040283529160200191611192565b820191906000526020600020905b81548152906001019060200180831161117557829003601f168201915b5050505050905090565b6111a46119a0565b73ffffffffffffffffffffffffffffffffffffffff168273ffffffffffffffffffffffffffffffffffffffff1603611211576040517f08c379a000000000000000000000000000000000000000000000000000000000815260040161120890613442565b60405180910390fd5b806005600061121e6119a0565b73ffffffffffffffffffffffffffffffffffffffff1673ffffffffffffffffffffffffffffffffffffffff16815260200190815260200160002060008473ffffffffffffffffffffffffffffffffffffffff1673ffffffffffffffffffffffffffffffffffffffff16815260200190815260200160002060006101000a81548160ff0219169083151502179055508173ffffffffffffffffffffffffffffffffffffffff166112cb6119a0565b73ffffffffffffffffffffffffffffffffffffffff167f17307eab39ab6107e8899845ad3d59bd9653f200f220920489ca2b5937696c31836040516113109190612695565b60405180910390a35050565b61132d6113276119a0565b83611a61565b61136c576040517f08c379a0000000000000000000000000000000000000000000000000000000008152600401611363906130cc565b60405180910390fd5b61137884848484611f82565b50505050565b606061138982611934565b6113c8576040517f08c379a00000000000000000000000000000000000000000000000000000000081526004016113bf906134d4565b60405180910390fd5b60006006600084815260200190815260200160002080546113e890612e73565b80601f016020809104026020016040519081016040528092919081815260200182805461141490612e73565b80156114615780601f1061143657610100808354040283529160200191611461565b820191906000526020600020905b81548152906001019060200180831161144457829003601f168201915b505050505090506000611472611fde565b905060008151036114875781925050506114ca565b6000825111156114bc5780826040516020016114a4929190613530565b604051602081830303815290604052925050506114ca565b6114c584611ff5565b925050505b919050565b6114d76119a0565b73ffffffffffffffffffffffffffffffffffffffff166114f56110e0565b73ffffffffffffffffffffffffffffffffffffffff161461154b576040517f08c379a0000000000000000000000000000000000000000000000000000000008152600401611542906133d6565b60405180910390fd5b6000600860008154809291906115609061321e565b919050559050611570838261209c565b61160481600e805461158190612e73565b80601f01602080910402602001604051908101604052809291908181526020018280546115ad90612e73565b80156115fa5780601f106115cf576101008083540402835291602001916115fa565b820191906000526020600020905b8154815290600101906020018083116115dd57829003601f168201915b5050505050611d9a565b81600b6000838152602001908152602001600020908161162491906136f6565b506000600c600083815260200190815260200160002060006101000a81548160ff021916908315150217905550600d819080600181540180825580915050600190039060005260206000200160009091909190915055505050565b6116876119a0565b73ffffffffffffffffffffffffffffffffffffffff166116a56110e0565b73ffffffffffffffffffffffffffffffffffffffff16146116fb576040517f08c379a00000000000000000000000000000000000000000000000000000000081526004016116f2906133d6565b60405180910390fd5b80600960006101000a81548173ffffffffffffffffffffffffffffffffffffffff021916908373ffffffffffffffffffffffffffffffffffffffff16021790555050565b6000600560008473ffffffffffffffffffffffffffffffffffffffff1673ffffffffffffffffffffffffffffffffffffffff16815260200190815260200160002060008373ffffffffffffffffffffffffffffffffffffffff1673ffffffffffffffffffffffffffffffffffffffff16815260200190815260200160002060009054906101000a900460ff16905092915050565b6117db6119a0565b73ffffffffffffffffffffffffffffffffffffffff166117f96110e0565b73ffffffffffffffffffffffffffffffffffffffff161461184f576040517f08c379a0000000000000000000000000000000000000000000000000000000008152600401611846906133d6565b60405180910390fd5b600073ffffffffffffffffffffffffffffffffffffffff168173ffffffffffffffffffffffffffffffffffffffff16036118be576040517f08c379a00000000000000000000000000000000000000000000000000000000081526004016118b59061383a565b60405180910390fd5b6118c781611ebc565b50565b60007f01ffc9a7000000000000000000000000000000000000000000000000000000007bffffffffffffffffffffffffffffffffffffffffffffffffffffffff1916827bffffffffffffffffffffffffffffffffffffffffffffffffffffffff1916149050919050565b60008073ffffffffffffffffffffffffffffffffffffffff166002600084815260200190815260200160002060009054906101000a900473ffffffffffffffffffffffffffffffffffffffff1673ffffffffffffffffffffffffffffffffffffffff1614159050919050565b600033905090565b816004600083815260200190815260200160002060006101000a81548173ffffffffffffffffffffffffffffffffffffffff021916908373ffffffffffffffffffffffffffffffffffffffff160217905550808273ffffffffffffffffffffffffffffffffffffffff16611a1b83610e59565b73ffffffffffffffffffffffffffffffffffffffff167f8c5be1e5ebec7d5bd14f71427d1e84f3dd0314c0f7b2291e5b200ac8c7c3b92560405160405180910390a45050565b6000611a6c82611934565b611aab576040517f08c379a0000000000000000000000000000000000000000000000000000000008152600401611aa2906138cc565b60405180910390fd5b6000611ab683610e59565b90508073ffffffffffffffffffffffffffffffffffffffff168473ffffffffffffffffffffffffffffffffffffffff161480611b2557508373ffffffffffffffffffffffffffffffffffffffff16611b0d846106db565b73ffffffffffffffffffffffffffffffffffffffff16145b80611b365750611b35818561173f565b5b91505092915050565b8273ffffffffffffffffffffffffffffffffffffffff16611b5f82610e59565b73ffffffffffffffffffffffffffffffffffffffff1614611bb5576040517f08c379a0000000000000000000000000000000000000000000000000000000008152600401611bac9061395e565b60405180910390fd5b600073ffffffffffffffffffffffffffffffffffffffff168273ffffffffffffffffffffffffffffffffffffffff1603611c24576040517f08c379a0000000000000000000000000000000000000000000000000000000008152600401611c1b906139f0565b60405180910390fd5b611c2f8383836120ba565b611c3a6000826119a8565b6001600360008573ffffffffffffffffffffffffffffffffffffffff1673ffffffffffffffffffffffffffffffffffffffff1681526020019081526020016000206000828254611c8a9190613a10565b925050819055506001600360008473ffffffffffffffffffffffffffffffffffffffff1673ffffffffffffffffffffffffffffffffffffffff1681526020019081526020016000206000828254611ce19190613a44565b92505081905550816002600083815260200190815260200160002060006101000a81548173ffffffffffffffffffffffffffffffffffffffff021916908373ffffffffffffffffffffffffffffffffffffffff160217905550808273ffffffffffffffffffffffffffffffffffffffff168473ffffffffffffffffffffffffffffffffffffffff167fddf252ad1be2c89b69c2b068fc378daa952ba7f163c4a11628f55a4df523b3ef60405160405180910390a4505050565b611da382611934565b611de2576040517f08c379a0000000000000000000000000000000000000000000000000000000008152600401611dd990613aea565b60405180910390fd5b80600660008481526020019081526020016000209081611e0291906136f6565b505050565b8180549050811015611eb85760008190505b60018380549050611e2a9190613a10565b811015611e8f5782600182611e3f9190613a44565b81548110611e5057611e4f6131c0565b5b9060005260206000200154838281548110611e6e57611e6d6131c0565b5b90600052602060002001819055508080611e879061321e565b915050611e19565b5081805480611ea157611ea0613b0a565b5b600190038181906000526020600020016000905590555b5050565b6000600760009054906101000a900473ffffffffffffffffffffffffffffffffffffffff16905081600760006101000a81548173ffffffffffffffffffffffffffffffffffffffff021916908373ffffffffffffffffffffffffffffffffffffffff1602179055508173ffffffffffffffffffffffffffffffffffffffff168173ffffffffffffffffffffffffffffffffffffffff167f8be0079c531659141344cd1fd0a4f28419497f9722a3daafe3b4186f6b6457e060405160405180910390a35050565b611f8d848484611b3f565b611f99848484846120bf565b611fd8576040517f08c379a0000000000000000000000000000000000000000000000000000000008152600401611fcf90613bab565b60405180910390fd5b50505050565b606060405180602001604052806000815250905090565b606061200082611934565b61203f576040517f08c379a000000000000000000000000000000000000000000000000000000000815260040161203690613c3d565b60405180910390fd5b6000612049611fde565b905060008151116120695760405180602001604052806000815250612094565b8061207384612246565b604051602001612084929190613530565b6040516020818303038152906040525b915050919050565b6120b68282604051806020016040528060008152506123a6565b5050565b505050565b60006120e08473ffffffffffffffffffffffffffffffffffffffff16612401565b15612239578373ffffffffffffffffffffffffffffffffffffffff1663150b7a026121096119a0565b8786866040518563ffffffff1660e01b815260040161212b9493929190613c5d565b6020604051808303816000875af192505050801561216757506040513d601f19601f820116820180604052508101906121649190613cbe565b60015b6121e9573d8060008114612197576040519150601f19603f3d011682016040523d82523d6000602084013e61219c565b606091505b5060008151036121e1576040517f08c379a00000000000000000000000000000000000000000000000000000000081526004016121d890613bab565b60405180910390fd5b805181602001fd5b63150b7a0260e01b7bffffffffffffffffffffffffffffffffffffffffffffffffffffffff1916817bffffffffffffffffffffffffffffffffffffffffffffffffffffffff19161491505061223e565b600190505b949350505050565b60606000820361228d576040518060400160405280600181526020017f300000000000000000000000000000000000000000000000000000000000000081525090506123a1565b600082905060005b600082146122bf5780806122a89061321e565b915050600a826122b89190613d1a565b9150612295565b60008167ffffffffffffffff8111156122db576122da612b59565b5b6040519080825280601f01601f19166020018201604052801561230d5781602001600182028036833780820191505090505b5090505b6000851461239a576001826123269190613a10565b9150600a856123359190613d4b565b60306123419190613a44565b60f81b818381518110612357576123566131c0565b5b60200101907effffffffffffffffffffffffffffffffffffffffffffffffffffffffffffff1916908160001a905350600a856123939190613d1a565b9450612311565b8093505050505b919050565b6123b08383612414565b6123bd60008484846120bf565b6123fc576040517f08c379a00000000000000000000000000000000000000000000000000000000081526004016123f390613bab565b60405180910390fd5b505050565b600080823b905060008111915050919050565b600073ffffffffffffffffffffffffffffffffffffffff168273ffffffffffffffffffffffffffffffffffffffff1603612483576040517f08c379a000000000000000000000000000000000000000000000000000000000815260040161247a90613dc8565b60405180910390fd5b61248c81611934565b156124cc576040517f08c379a00000000000000000000000000000000000000000000000000000000081526004016124c390613e34565b60405180910390fd5b6124d8600083836120ba565b6001600360008473ffffffffffffffffffffffffffffffffffffffff1673ffffffffffffffffffffffffffffffffffffffff16815260200190815260200160002060008282546125289190613a44565b92505081905550816002600083815260200190815260200160002060006101000a81548173ffffffffffffffffffffffffffffffffffffffff021916908373ffffffffffffffffffffffffffffffffffffffff160217905550808273ffffffffffffffffffffffffffffffffffffffff16600073ffffffffffffffffffffffffffffffffffffffff167fddf252ad1be2c89b69c2b068fc378daa952ba7f163c4a11628f55a4df523b3ef60405160405180910390a45050565b6000604051905090565b600080fd5b600080fd5b60007fffffffff0000000000000000000000000000000000000000000000000000000082169050919050565b61262a816125f5565b811461263557600080fd5b50565b60008135905061264781612621565b92915050565b600060208284031215612663576126626125eb565b5b600061267184828501612638565b91505092915050565b60008115159050919050565b61268f8161267a565b82525050565b60006020820190506126aa6000830184612686565b92915050565b600081519050919050565b600082825260208201905092915050565b60005b838110156126ea5780820151818401526020810190506126cf565b60008484015250505050565b6000601f19601f8301169050919050565b6000612712826126b0565b61271c81856126bb565b935061272c8185602086016126cc565b612735816126f6565b840191505092915050565b6000602082019050818103600083015261275a8184612707565b905092915050565b6000819050919050565b61277581612762565b811461278057600080fd5b50565b6000813590506127928161276c565b92915050565b6000602082840312156127ae576127ad6125eb565b5b60006127bc84828501612783565b91505092915050565b600073ffffffffffffffffffffffffffffffffffffffff82169050919050565b60006127f0826127c5565b9050919050565b612800816127e5565b82525050565b600060208201905061281b60008301846127f7565b92915050565b61282a816127e5565b811461283557600080fd5b50565b60008135905061284781612821565b92915050565b60008060408385031215612864576128636125eb565b5b600061287285828601612838565b925050602061288385828601612783565b9150509250929050565b61289681612762565b82525050565b60006020820190506128b1600083018461288d565b92915050565b6000806000606084860312156128d0576128cf6125eb565b5b60006128de86828701612838565b93505060206128ef86828701612838565b925050604061290086828701612783565b9150509250925092565b600080fd5b600080fd5b600080fd5b60008083601f84011261292f5761292e61290a565b5b8235905067ffffffffffffffff81111561294c5761294b61290f565b5b60208301915083600182028301111561296857612967612914565b5b9250929050565b60008060208385031215612986576129856125eb565b5b600083013567ffffffffffffffff8111156129a4576129a36125f0565b5b6129b085828601612919565b92509250509250929050565b6000819050919050565b60006129e16129dc6129d7846127c5565b6129bc565b6127c5565b9050919050565b60006129f3826129c6565b9050919050565b6000612a05826129e8565b9050919050565b612a15816129fa565b82525050565b6000602082019050612a306000830184612a0c565b92915050565b600081519050919050565b600082825260208201905092915050565b6000612a5d82612a36565b612a678185612a41565b9350612a778185602086016126cc565b612a80816126f6565b840191505092915050565b6000604082019050612aa06000830185612686565b8181036020830152612ab28184612a52565b90509392505050565b600060208284031215612ad157612ad06125eb565b5b6000612adf84828501612838565b91505092915050565b612af18161267a565b8114612afc57600080fd5b50565b600081359050612b0e81612ae8565b92915050565b60008060408385031215612b2b57612b2a6125eb565b5b6000612b3985828601612838565b9250506020612b4a85828601612aff565b9150509250929050565b600080fd5b7f4e487b7100000000000000000000000000000000000000000000000000000000600052604160045260246000fd5b612b91826126f6565b810181811067ffffffffffffffff82111715612bb057612baf612b59565b5b80604052505050565b6000612bc36125e1565b9050612bcf8282612b88565b919050565b600067ffffffffffffffff821115612bef57612bee612b59565b5b612bf8826126f6565b9050602081019050919050565b82818337600083830152505050565b6000612c27612c2284612bd4565b612bb9565b905082815260208101848484011115612c4357612c42612b54565b5b612c4e848285612c05565b509392505050565b600082601f830112612c6b57612c6a61290a565b5b8135612c7b848260208601612c14565b91505092915050565b60008060008060808587031215612c9e57612c9d6125eb565b5b6000612cac87828801612838565b9450506020612cbd87828801612838565b9350506040612cce87828801612783565b925050606085013567ffffffffffffffff811115612cef57612cee6125f0565b5b612cfb87828801612c56565b91505092959194509250565b600067ffffffffffffffff821115612d2257612d21612b59565b5b612d2b826126f6565b9050602081019050919050565b6000612d4b612d4684612d07565b612bb9565b905082815260208101848484011115612d6757612d66612b54565b5b612d72848285612c05565b509392505050565b600082601f830112612d8f57612d8e61290a565b5b8135612d9f848260208601612d38565b91505092915050565b60008060408385031215612dbf57612dbe6125eb565b5b6000612dcd85828601612838565b925050602083013567ffffffffffffffff811115612dee57612ded6125f0565b5b612dfa85828601612d7a565b9150509250929050565b60008060408385031215612e1b57612e1a6125eb565b5b6000612e2985828601612838565b9250506020612e3a85828601612838565b9150509250929050565b7f4e487b7100000000000000000000000000000000000000000000000000000000600052602260045260246000fd5b60006002820490506001821680612e8b57607f821691505b602082108103612e9e57612e9d612e44565b5b50919050565b7f4552433732313a20617070726f76656420717565727920666f72206e6f6e657860008201527f697374656e7420746f6b656e0000000000000000000000000000000000000000602082015250565b6000612f00602c836126bb565b9150612f0b82612ea4565b604082019050919050565b60006020820190508181036000830152612f2f81612ef3565b9050919050565b7f4552433732313a20617070726f76616c20746f2063757272656e74206f776e6560008201527f7200000000000000000000000000000000000000000000000000000000000000602082015250565b6000612f926021836126bb565b9150612f9d82612f36565b604082019050919050565b60006020820190508181036000830152612fc181612f85565b9050919050565b7f4552433732313a20617070726f76652063616c6c6572206973206e6f74206f7760008201527f6e6572206e6f7220617070726f76656420666f7220616c6c0000000000000000602082015250565b60006130246038836126bb565b915061302f82612fc8565b604082019050919050565b6000602082019050818103600083015261305381613017565b9050919050565b7f4552433732313a207472616e736665722063616c6c6572206973206e6f74206f60008201527f776e6572206e6f7220617070726f766564000000000000000000000000000000602082015250565b60006130b66031836126bb565b91506130c18261305a565b604082019050919050565b600060208201905081810360008301526130e5816130a9565b9050919050565b6000815190506130fb8161276c565b92915050565b600060208284031215613117576131166125eb565b5b6000613125848285016130ec565b91505092915050565b7f54686973206164647265737320646f6573206e6f742068617665207065726d6960008201527f7373696f6e20746f2063616c6c20706572666f726d55706b6565700000000000602082015250565b600061318a603b836126bb565b91506131958261312e565b604082019050919050565b600060208201905081810360008301526131b98161317d565b9050919050565b7f4e487b7100000000000000000000000000000000000000000000000000000000600052603260045260246000fd5b7f4e487b7100000000000000000000000000000000000000000000000000000000600052601160045260246000fd5b600061322982612762565b91507fffffffffffffffffffffffffffffffffffffffffffffffffffffffffffffffff820361325b5761325a6131ef565b5b600182019050919050565b7f4552433732313a206f776e657220717565727920666f72206e6f6e657869737460008201527f656e7420746f6b656e0000000000000000000000000000000000000000000000602082015250565b60006132c26029836126bb565b91506132cd82613266565b604082019050919050565b600060208201905081810360008301526132f1816132b5565b9050919050565b7f4552433732313a2062616c616e636520717565727920666f7220746865207a6560008201527f726f206164647265737300000000000000000000000000000000000000000000602082015250565b6000613354602a836126bb565b915061335f826132f8565b604082019050919050565b6000602082019050818103600083015261338381613347565b9050919050565b7f4f776e61626c653a2063616c6c6572206973206e6f7420746865206f776e6572600082015250565b60006133c06020836126bb565b91506133cb8261338a565b602082019050919050565b600060208201905081810360008301526133ef816133b3565b9050919050565b7f4552433732313a20617070726f766520746f2063616c6c657200000000000000600082015250565b600061342c6019836126bb565b9150613437826133f6565b602082019050919050565b6000602082019050818103600083015261345b8161341f565b9050919050565b7f45524337323155524953746f726167653a2055524920717565727920666f722060008201527f6e6f6e6578697374656e7420746f6b656e000000000000000000000000000000602082015250565b60006134be6031836126bb565b91506134c982613462565b604082019050919050565b600060208201905081810360008301526134ed816134b1565b9050919050565b600081905092915050565b600061350a826126b0565b61351481856134f4565b93506135248185602086016126cc565b80840191505092915050565b600061353c82856134ff565b915061354882846134ff565b91508190509392505050565b60008190508160005260206000209050919050565b60006020601f8301049050919050565b600082821b905092915050565b6000600883026135b67fffffffffffffffffffffffffffffffffffffffffffffffffffffffffffffffff82613579565b6135c08683613579565b95508019841693508086168417925050509392505050565b60006135f36135ee6135e984612762565b6129bc565b612762565b9050919050565b6000819050919050565b61360d836135d8565b613621613619826135fa565b848454613586565b825550505050565b600090565b613636613629565b613641818484613604565b505050565b5b818110156136655761365a60008261362e565b600181019050613647565b5050565b601f8211156136aa5761367b81613554565b61368484613569565b81016020851015613693578190505b6136a761369f85613569565b830182613646565b50505b505050565b600082821c905092915050565b60006136cd600019846008026136af565b1980831691505092915050565b60006136e683836136bc565b9150826002028217905092915050565b6136ff826126b0565b67ffffffffffffffff81111561371857613717612b59565b5b6137228254612e73565b61372d828285613669565b600060209050601f831160018114613760576000841561374e578287015190505b61375885826136da565b8655506137c0565b601f19841661376e86613554565b60005b8281101561379657848901518255600182019150602085019450602081019050613771565b868310156137b357848901516137af601f8916826136bc565b8355505b6001600288020188555050505b505050505050565b7f4f776e61626c653a206e6577206f776e657220697320746865207a65726f206160008201527f6464726573730000000000000000000000000000000000000000000000000000602082015250565b60006138246026836126bb565b915061382f826137c8565b604082019050919050565b6000602082019050818103600083015261385381613817565b9050919050565b7f4552433732313a206f70657261746f7220717565727920666f72206e6f6e657860008201527f697374656e7420746f6b656e0000000000000000000000000000000000000000602082015250565b60006138b6602c836126bb565b91506138c18261385a565b604082019050919050565b600060208201905081810360008301526138e5816138a9565b9050919050565b7f4552433732313a207472616e73666572206f6620746f6b656e2074686174206960008201527f73206e6f74206f776e0000000000000000000000000000000000000000000000602082015250565b60006139486029836126bb565b9150613953826138ec565b604082019050919050565b600060208201905081810360008301526139778161393b565b9050919050565b7f4552433732313a207472616e7366657220746f20746865207a65726f2061646460008201527f7265737300000000000000000000000000000000000000000000000000000000602082015250565b60006139da6024836126bb565b91506139e58261397e565b604082019050919050565b60006020820190508181036000830152613a09816139cd565b9050919050565b6000613a1b82612762565b9150613a2683612762565b9250828203905081811115613a3e57613a3d6131ef565b5b92915050565b6000613a4f82612762565b9150613a5a83612762565b9250828201905080821115613a7257613a716131ef565b5b92915050565b7f45524337323155524953746f726167653a2055524920736574206f66206e6f6e60008201527f6578697374656e7420746f6b656e000000000000000000000000000000000000602082015250565b6000613ad4602e836126bb565b9150613adf82613a78565b604082019050919050565b60006020820190508181036000830152613b0381613ac7565b9050919050565b7f4e487b7100000000000000000000000000000000000000000000000000000000600052603160045260246000fd5b7f4552433732313a207472616e7366657220746f206e6f6e20455243373231526560008201527f63656976657220696d706c656d656e7465720000000000000000000000000000602082015250565b6000613b956032836126bb565b9150613ba082613b39565b604082019050919050565b60006020820190508181036000830152613bc481613b88565b9050919050565b7f4552433732314d657461646174613a2055524920717565727920666f72206e6f60008201527f6e6578697374656e7420746f6b656e0000000000000000000000000000000000602082015250565b6000613c27602f836126bb565b9150613c3282613bcb565b604082019050919050565b60006020820190508181036000830152613c5681613c1a565b9050919050565b6000608082019050613c7260008301876127f7565b613c7f60208301866127f7565b613c8c604083018561288d565b8181036060830152613c9e8184612a52565b905095945050505050565b600081519050613cb881612621565b92915050565b600060208284031215613cd457613cd36125eb565b5b6000613ce284828501613ca9565b91505092915050565b7f4e487b7100000000000000000000000000000000000000000000000000000000600052601260045260246000fd5b6000613d2582612762565b9150613d3083612762565b925082613d4057613d3f613ceb565b5b828204905092915050565b6000613d5682612762565b9150613d6183612762565b925082613d7157613d70613ceb565b5b828206905092915050565b7f4552433732313a206d696e7420746f20746865207a65726f2061646472657373600082015250565b6000613db26020836126bb565b9150613dbd82613d7c565b602082019050919050565b60006020820190508181036000830152613de181613da5565b9050919050565b7f4552433732313a20746f6b656e20616c7265616479206d696e74656400000000600082015250565b6000613e1e601c836126bb565b9150613e2982613de8565b602082019050919050565b60006020820190508181036000830152613e4d81613e11565b905091905056fea264697066735822122072e3e8b374b87a815e3c7e6709ef8a3ad35902c15660a91639f45eb8a3fb7a0664736f6c63430008130033a2646970667358221220839541ddfcb0b3a9ae7d2dbf7277a020d8ac54c6371e71a857a94d5ddc718b5a64736f6c63430008130033",
  "linkReferences": {},
  "deployedLinkReferences": {}
}