{
  "_format": "hh-sol-artifact-1",
  "contractName": "MysteryEventFactory",
  "sourceName": "contracts/MysteryEventFactory.sol",
  "abi": [
    {
      "anonymous": false,
      "inputs": [
        {
          "indexed": false,
          "internalType": "address",
          "name": "owner",
          "type": "address"
        },
        {
          "indexed": false,
          "internalType": "address",
          "name": "tokenAddress",
          "type": "address"
        }
      ],
      "name": "MysteryEventCreated",
      "type": "event"
    },
    {
      "inputs": [
        {
          "internalType": "string",
          "name": "name",
          "type": "string"
        },
        {
          "internalType": "string",
          "name": "symbol",
          "type": "string"
        },
        {
          "internalType": "string",
          "name": "unrevealedURI",
          "type": "string"
        },
        {
          "internalType": "address",
          "name": "premiumNFT",
          "type": "address"
        },
        {
          "internalType": "uint64",
          "name": "_nftPurchasedRequired",
          "type": "uint64"
        },
        {
          "internalType": "uint256",
          "name": "maxSupply",
          "type": "uint256"
        },
        {
          "internalType": "string",
          "name": "baseURI",
          "type": "string"
        },
        {
          "internalType": "uint64",
          "name": "clSubscriptionId",
          "type": "uint64"
        }
      ],
      "name": "deployMysteryEvent",
      "outputs": [
        {
          "internalType": "address",
          "name": "",
          "type": "address"
        }
      ],
      "stateMutability": "nonpayable",
      "type": "function"
    },
    {
      "inputs": [
        {
          "internalType": "uint256",
          "name": "",
          "type": "uint256"
        }
      ],
      "name": "events",
      "outputs": [
        {
          "internalType": "contract MysteryDropEvent",
          "name": "",
          "type": "address"
        }
      ],
      "stateMutability": "view",
      "type": "function"
    },
    {
      "inputs": [],
      "name": "getTotalEvents",
      "outputs": [
        {
          "internalType": "uint256",
          "name": "amount",
          "type": "uint256"
        }
      ],
      "stateMutability": "view",
      "type": "function"
    }
  ],
  "bytecode": "0x608060405234801561001057600080fd5b506145b5806100206000396000f3fe60806040523480156200001157600080fd5b5060043610620000465760003560e01c80630b791430146200004b57806361606940146200007f578063d469d1851462000091575b600080fd5b620000626200005c366004620001cd565b620000a8565b6040516001600160a01b0390911681526020015b60405180910390f35b60005460405190815260200162000076565b62000062620000a2366004620002c8565b620000d3565b60008181548110620000b957600080fd5b6000918252602090912001546001600160a01b0316905081565b6000808989898989898989604051620000ec90620001bf565b620000ff9897969594939291906200040c565b604051809103906000f0801580156200011c573d6000803e3d6000fd5b50600080546001810182559080527f290decd9548b62a8d60345a988386fc84ba6bc95484008f6362f93160ef3e56301805473ffffffffffffffffffffffffffffffffffffffff19166001600160a01b0383169081179091556040805133815260208101929092529192507fef685fee2c68d59cb3f6700e03f8ca447adaed9271e8a05571d6984b7c53c4bb910160405180910390a19998505050505050505050565b6140dc80620004a483390190565b600060208284031215620001e057600080fd5b5035919050565b634e487b7160e01b600052604160045260246000fd5b600082601f8301126200020f57600080fd5b813567ffffffffffffffff808211156200022d576200022d620001e7565b604051601f8301601f19908116603f01168101908282118183101715620002585762000258620001e7565b816040528381528660208588010111156200027257600080fd5b836020870160208301376000602085830101528094505050505092915050565b80356001600160a01b0381168114620002aa57600080fd5b919050565b803567ffffffffffffffff81168114620002aa57600080fd5b600080600080600080600080610100898b031215620002e657600080fd5b883567ffffffffffffffff80821115620002ff57600080fd5b6200030d8c838d01620001fd565b995060208b01359150808211156200032457600080fd5b620003328c838d01620001fd565b985060408b01359150808211156200034957600080fd5b620003578c838d01620001fd565b97506200036760608c0162000292565b96506200037760808c01620002af565b955060a08b0135945060c08b01359150808211156200039557600080fd5b50620003a48b828c01620001fd565b925050620003b560e08a01620002af565b90509295985092959890939650565b6000815180845260005b81811015620003ec57602081850181015186830182015201620003ce565b506000602082860101526020601f19601f83011685010191505092915050565b6000610100808352620004228184018c620003c4565b9050828103602084015262000438818b620003c4565b905082810360408401526200044e818a620003c4565b90506001600160a01b038816606084015267ffffffffffffffff80881660808501528660a085015283820360c08501526200048a8287620003c4565b925080851660e08501525050999850505050505050505056fe600c805463ffffffff1916620493e01790557f66756e2d6176616c616e6368652d66756a692d31000000000000000000000000600d556103606040526101cd6101608181529062003f0f610180396016906200005c908262000412565b503480156200006a57600080fd5b50604051620040dc380380620040dc8339810160408190526200008d91620005c2565b732ed832ba664535e5886b75d64c46eb9a228c2610608081905273a9d587a00a31a52ed70d6026794a8fc5e2f5dcb090339081906000908c8c6001620000d4838262000412565b506002620000e3828262000412565b5060006004555050506001600160a01b038216620001485760405162461bcd60e51b815260206004820152601860248201527f43616e6e6f7420736574206f776e657220746f207a65726f000000000000000060448201526064015b60405180910390fd5b600880546001600160a01b0319166001600160a01b03848116919091179091558116156200017b576200017b816200024b565b5050506001600160a01b031660a0526101408390527f354d2f95da55398f44b7cff77da56283d9c6c829a4bdf1bbcaf2ad6a4d081f6160e0526013620001c2878262000412565b506001600160401b0381811660c052732ed832ba664535e5886b75d64c46eb9a228c26106101005261032e61012052600f80546001600160401b031916918616919091179055600e62000216838262000412565b50601580546001600160a01b0319166001600160a01b0387161790556200023d32620002f7565b5050505050505050620006bd565b336001600160a01b03821603620002a55760405162461bcd60e51b815260206004820152601760248201527f43616e6e6f74207472616e7366657220746f2073656c6600000000000000000060448201526064016200013f565b600980546001600160a01b0319166001600160a01b03838116918217909255600854604051919216907fed8889f560326eb138920d842192f0eb3dd22b4f139c87a2c57538e05bae127890600090a350565b620003016200030f565b6200030c816200024b565b50565b6008546001600160a01b031633146200036b5760405162461bcd60e51b815260206004820152601660248201527f4f6e6c792063616c6c61626c65206279206f776e65720000000000000000000060448201526064016200013f565b565b634e487b7160e01b600052604160045260246000fd5b600181811c908216806200039857607f821691505b602082108103620003b957634e487b7160e01b600052602260045260246000fd5b50919050565b601f8211156200040d57600081815260208120601f850160051c81016020861015620003e85750805b601f850160051c820191505b818110156200040957828155600101620003f4565b5050505b505050565b81516001600160401b038111156200042e576200042e6200036d565b62000446816200043f845462000383565b84620003bf565b602080601f8311600181146200047e5760008415620004655750858301515b600019600386901b1c1916600185901b17855562000409565b600085815260208120601f198616915b82811015620004af578886015182559484019460019091019084016200048e565b5085821015620004ce5787850151600019600388901b60f8161c191681555b5050505050600190811b01905550565b600082601f830112620004f057600080fd5b81516001600160401b03808211156200050d576200050d6200036d565b604051601f8301601f19908116603f011681019082821181831017156200053857620005386200036d565b816040528381526020925086838588010111156200055557600080fd5b600091505b838210156200057957858201830151818301840152908201906200055a565b600093810190920192909252949350505050565b80516001600160a01b0381168114620005a557600080fd5b919050565b80516001600160401b0381168114620005a557600080fd5b600080600080600080600080610100898b031215620005e057600080fd5b88516001600160401b0380821115620005f857600080fd5b620006068c838d01620004de565b995060208b01519150808211156200061d57600080fd5b6200062b8c838d01620004de565b985060408b01519150808211156200064257600080fd5b620006508c838d01620004de565b97506200066060608c016200058d565b96506200067060808c01620005aa565b955060a08b0151945060c08b01519150808211156200068e57600080fd5b506200069d8b828c01620004de565b925050620006ae60e08a01620005aa565b90509295985092959890939650565b60805160a05160c05160e0516101005161012051610140516137e26200072d6000396000818161115401526120aa01526000611ca201526000611c5201526000611c8101526000610c340152600081816107ac0152611a4d01526000818161083f015261088101526137e26000f3fe608060405234801561001057600080fd5b50600436106101e55760003560e01c80636352211e1161010f57806395d89b41116100a2578063b88d4fde11610071578063b88d4fde14610428578063c87b56dd1461043b578063e985e9c51461044e578063f2fde38b1461048a57600080fd5b806395d89b41146103fc578063a22cb46514610404578063a475b5dd14610417578063b1e217491461041f57600080fd5b80638462151c116100de5780638462151c146103a35780638da5cb5b146103c35780638eb58bdd146103d457806394b3fbc2146103f457600080fd5b80636352211e1461036d57806370a0823114610380578063714c53981461039357806379ba50971461039b57600080fd5b80631fe543e31161018757806342842e0e1161015657806342842e0e1461031f5780634b0795a8146103325780634c8f60a31461033a57806351e3d93e1461034d57600080fd5b80631fe543e3146102a357806323b872dd146102b65780632510551a146102c9578063272af3d9146102f657600080fd5b8063081812fc116101c3578063081812fc14610248578063095ea7b3146102735780630ca761751461028857806318160ddd1461029b57600080fd5b806301ffc9a7146101ea57806302d06d051461021257806306fdde0314610233575b600080fd5b6101fd6101f8366004612cce565b61049d565b60405190151581526020015b60405180910390f35b610225610220366004612daa565b6104ef565b604051908152602001610209565b61023b61054f565b6040516102099190612e2f565b61025b610256366004612e42565b6105e1565b6040516001600160a01b039091168152602001610209565b610286610281366004612e77565b61066c565b005b610286610296366004612ea1565b6107a1565b610225610825565b6102866102b1366004612f32565b610834565b6102866102c4366004612fd4565b6108bc565b600f546102dd9067ffffffffffffffff1681565b60405167ffffffffffffffff9091168152602001610209565b61025b610304366004612e42565b6011602052600090815260409020546001600160a01b031681565b61028661032d366004612fd4565b61093a565b61023b610955565b610225610348366004613010565b6109e3565b61022561035b3660046130d6565b60126020526000908152604090205481565b61025b61037b366004612e42565b610cd8565b61022561038e3660046130d6565b610cec565b61023b610dba565b610286610dc9565b6103b66103b13660046130d6565b610e7e565b60405161020991906130f1565b6008546001600160a01b031661025b565b6102256103e23660046130d6565b60106020526000908152604090205481565b61023b610f45565b61023b610f54565b610286610412366004613135565b610f63565b610286611027565b610225600a5481565b610286610436366004613171565b611039565b61023b610449366004612e42565b6110be565b6101fd61045c3660046131d9565b6001600160a01b03918216600090815260066020908152604080832093909416825291909152205460ff1690565b6102866104983660046130d6565b6111eb565b60006001600160e01b031982166380ac58cd60e01b14806104ce57506001600160e01b03198216635b5e139f60e01b145b806104e957506301ffc9a760e01b6001600160e01b03198316145b92915050565b600081516020146105475760405162461bcd60e51b815260206004820152601360248201527f496e76616c69642064617461206c656e6774680000000000000000000000000060448201526064015b60405180910390fd5b506020015190565b60606001805461055e9061320c565b80601f016020809104026020016040519081016040528092919081815260200182805461058a9061320c565b80156105d75780601f106105ac576101008083540402835291602001916105d7565b820191906000526020600020905b8154815290600101906020018083116105ba57829003601f168201915b5050505050905090565b60006105ec826111ff565b6106505760405162461bcd60e51b815260206004820152602f60248201527f4552433732315073693a20617070726f76656420717565727920666f72206e6f60448201526e3732bc34b9ba32b73a103a37b5b2b760891b606482015260840161053e565b506000908152600560205260409020546001600160a01b031690565b600061067782610cd8565b9050806001600160a01b0316836001600160a01b0316036106e65760405162461bcd60e51b8152602060048201526024808201527f4552433732315073693a20617070726f76616c20746f2063757272656e74206f6044820152633bb732b960e11b606482015260840161053e565b336001600160a01b038216148061072057506001600160a01b038116600090815260066020908152604080832033845290915290205460ff165b6107925760405162461bcd60e51b815260206004820152603b60248201527f4552433732315073693a20617070726f76652063616c6c6572206973206e6f7460448201527f206f776e6572206e6f7220617070726f76656420666f7220616c6c0000000000606482015260840161053e565b61079c838361121b565b505050565b336001600160a01b037f000000000000000000000000000000000000000000000000000000000000000016146107ea5760405163c6829f8360e01b815260040160405180910390fd5b6107f5838383611289565b60405183907f85e1543bf2f84fe80c6badbce3648c8539ad1df4d2b3d822938ca0538be727e690600090a2505050565b600061082f6113a2565b905090565b336001600160a01b037f000000000000000000000000000000000000000000000000000000000000000016146108ae5760405163073e64fd60e21b81523360048201526001600160a01b037f000000000000000000000000000000000000000000000000000000000000000016602482015260440161053e565b6108b882826113b2565b5050565b6108c6338261141a565b61092f5760405162461bcd60e51b815260206004820152603460248201527f4552433732315073693a207472616e736665722063616c6c6572206973206e6f6044820152731d081bdddb995c881b9bdc88185c1c1c9bdd995960621b606482015260840161053e565b61079c838383611503565b61079c83838360405180602001604052806000815250611039565b600b80546109629061320c565b80601f016020809104026020016040519081016040528092919081815260200182805461098e9061320c565b80156109db5780601f106109b0576101008083540402835291602001916109db565b820191906000526020600020905b8154815290600101906020018083116109be57829003601f168201915b505050505081565b6015546040516370a0823160e01b815233600482015260009182916001600160a01b03909116906370a0823190602401602060405180830381865afa158015610a30573d6000803e3d6000fd5b505050506040513d601f19601f82011682018060405250810190610a549190613246565b11610aad5760405162461bcd60e51b8152602060048201526024808201527f53656e64657220686176656e2774207375627363726962656420746f2063726560448201526330ba37b960e11b606482015260840161053e565b336000908152601060205260408120549003610b315760405162461bcd60e51b815260206004820152603260248201527f5468652053756273637269626572277320616c7265616479207265717565737460448201527f6564204d797374657279206d696e74696e670000000000000000000000000000606482015260840161053e565b610b726040805160e0810190915280600081526020016000815260200160008152602001606081526020016060815260200160608152602001606081525090565b610c0f60168054610b829061320c565b80601f0160208091040260200160405190810160405280929190818152602001828054610bae9061320c565b8015610bfb5780601f10610bd057610100808354040283529160200191610bfb565b820191906000526020600020905b815481529060010190602001808311610bde57829003601f168201915b50505050508261172b90919063ffffffff16565b825115610c2057610c208184611738565b610c60610c2c82611762565b600c54600d547f00000000000000000000000000000000000000000000000000000000000000009163ffffffff1690611a48565b600a818155336000818152601060209081526040808320869055948252601181529084902080546001600160a01b0319168317905591548351918252918101919091527f8442575db7224b186ef7d856bd1822a9d6ed79327ef07330d8334e23c0e1379a910160405180910390a15050600a54919050565b600080610ce483611b1a565b509392505050565b60006001600160a01b038216610d5a5760405162461bcd60e51b815260206004820152602d60248201527f4552433732315073693a2062616c616e636520717565727920666f722074686560448201526c207a65726f206164647265737360981b606482015260840161053e565b6000805b600454811015610db357610d71816111ff565b15610da357610d7f81610cd8565b6001600160a01b0316846001600160a01b031603610da357610da082613275565b91505b610dac81613275565b9050610d5e565b5092915050565b6060600e805461055e9061320c565b6009546001600160a01b03163314610e235760405162461bcd60e51b815260206004820152601660248201527f4d7573742062652070726f706f736564206f776e657200000000000000000000604482015260640161053e565b600880546001600160a01b0319808216339081179093556009805490911690556040516001600160a01b03909116919082907f8be0079c531659141344cd1fd0a4f28419497f9722a3daafe3b4186f6b6457e090600090a350565b6060600080610e8c84610cec565b905060008167ffffffffffffffff811115610ea957610ea9612ceb565b604051908082528060200260200182016040528015610ed2578160200160208202803683370190505b50905060005b828414610f3c57610ee8816111ff565b15610f3457856001600160a01b0316610f0082610cd8565b6001600160a01b031603610f345780828580600101965081518110610f2757610f2761328e565b6020026020010181815250505b600101610ed8565b50949350505050565b60606014805461055e9061320c565b60606002805461055e9061320c565b336001600160a01b03831603610fbb5760405162461bcd60e51b815260206004820152601c60248201527f4552433732315073693a20617070726f766520746f2063616c6c657200000000604482015260640161053e565b3360008181526006602090815260408083206001600160a01b03871680855290835292819020805460ff191686151590811790915590519081529192917f17307eab39ab6107e8899845ad3d59bd9653f200f220920489ca2b5937696c31910160405180910390a35050565b61102f611bb1565b611037611c0b565b565b611043338361141a565b6110ac5760405162461bcd60e51b815260206004820152603460248201527f4552433732315073693a207472616e736665722063616c6c6572206973206e6f6044820152731d081bdddb995c881b9bdc88185c1c1c9bdd995960621b606482015260840161053e565b6110b884848484611d8d565b50505050565b60606110c9826111ff565b6111285760405162461bcd60e51b815260206004820152602a60248201527f4552433732315073693a2055524920717565727920666f72206e6f6e657869736044820152693a32b73a103a37b5b2b760b11b606482015260840161053e565b60075460000361113a576104e9611e10565b6000611144610dba565b9050600061117b846007546111767f000000000000000000000000000000000000000000000000000000000000000090565b611e1f565b9050600082511161119b57604051806020016040528060008152506111e3565b816111a582611eab565b604080518082019091526005815264173539b7b760d91b60208201526040516020016111d3939291906132a4565b6040516020818303038152906040525b949350505050565b6111f3611bb1565b6111fc81611fc4565b50565b600061120a60045490565b821080156104e95750600192915050565b600081815260056020526040902080546001600160a01b0319166001600160a01b038416908117909155819061125082610cd8565b6001600160a01b03167f8c5be1e5ebec7d5bd14f71427d1e84f3dd0314c0f7b2291e5b200ac8c7c3b92560405160405180910390a45050565b82600a54146112ae5760405163d068bf5b60e01b81526004810184905260240161053e565b600b6112ba828261332d565b50600f5467ffffffffffffffff166112d1836104ef565b1061133057600a546000908152601160205260409020546112fa906001600160a01b031661206e565b611303826104ef565b600a546000908152601160209081526040808320546001600160a01b031683526012909152902055611362565b611339826104ef565b600a546000908152601160209081526040808320546001600160a01b0316835260129091529020555b827f7873807bf6ddc50401cd3d29bbe0decee23fd4d68d273f4b5eb83cded4d2f17283600b6040516113959291906133ed565b60405180910390a2505050565b60008060045461082f9190613488565b600754156113f55760405162461bcd60e51b815260206004820152601060248201526f105b1c9958591e481c995d99585b195960821b604482015260640161053e565b806000815181106114085761140861328e565b60200260200101516007819055505050565b6000611425826111ff565b6114895760405162461bcd60e51b815260206004820152602f60248201527f4552433732315073693a206f70657261746f7220717565727920666f72206e6f60448201526e3732bc34b9ba32b73a103a37b5b2b760891b606482015260840161053e565b600061149483610cd8565b9050806001600160a01b0316846001600160a01b031614806114cf5750836001600160a01b03166114c4846105e1565b6001600160a01b0316145b806111e357506001600160a01b0380821660009081526006602090815260408083209388168352929052205460ff166111e3565b60008061150f83611b1a565b91509150846001600160a01b0316826001600160a01b0316146115895760405162461bcd60e51b815260206004820152602c60248201527f4552433732315073693a207472616e73666572206f6620746f6b656e2074686160448201526b3a1034b9903737ba1037bbb760a11b606482015260840161053e565b6001600160a01b0384166115ef5760405162461bcd60e51b815260206004820152602760248201527f4552433732315073693a207472616e7366657220746f20746865207a65726f206044820152666164647265737360c81b606482015260840161053e565b6115fc858585600161209a565b61160760008461121b565b600061161484600161349b565b600881901c600090815260208190526040902054909150600160ff1b60ff83161c16158015611644575060045481105b1561169057600081815260036020908152604080832080546001600160a01b0319166001600160a01b038b16179055600884901c83529082905290208054600160ff1b60ff84161c1790555b600084815260036020526040902080546001600160a01b0319166001600160a01b0387161790558184146116e157600884901c60009081526020819052604090208054600160ff1b60ff87161c1790555b83856001600160a01b0316876001600160a01b03167fddf252ad1be2c89b69c2b068fc378daa952ba7f163c4a11628f55a4df523b3ef60405160405180910390a45b505050505050565b6108b88260008084612126565b805160000361175a5760405163fe936cb760e01b815260040160405180910390fd5b60a090910152565b606060006117716101006121a4565b90506117aa6040518060400160405280600c81526020016b31b7b232a637b1b0ba34b7b760a11b815250826121c590919063ffffffff16565b82516117c89060028111156117c1576117c16134ae565b82906121de565b6040805180820190915260088152676c616e677561676560c01b60208201526117f29082906121c5565b60408301516118099080156117c1576117c16134ae565b604080518082019091526006815265736f7572636560d01b60208201526118319082906121c5565b60608301516118419082906121c5565b60a083015151156118d5576040805180820190915260048152636172677360e01b60208201526118729082906121c5565b61187b81612217565b60005b8360a00151518110156118cb576118bb8460a0015182815181106118a4576118a461328e565b6020026020010151836121c590919063ffffffff16565b6118c481613275565b905061187e565b506118d58161223b565b608083015151156119a7576000836020015160028111156118f8576118f86134ae565b036119165760405163a80d31f760e01b815260040160405180910390fd5b60408051808201909152600f81527f736563726574734c6f636174696f6e000000000000000000000000000000000060208201526119559082906121c5565b61196e836020015160028111156117c1576117c16134ae565b6040805180820190915260078152667365637265747360c81b60208201526119979082906121c5565b60808301516119a7908290612259565b60c08301515115611a405760408051808201909152600981526862797465734172677360b81b60208201526119dd9082906121c5565b6119e681612217565b60005b8360c0015151811015611a3657611a268460c001518281518110611a0f57611a0f61328e565b60200260200101518361225990919063ffffffff16565b611a2f81613275565b90506119e9565b50611a408161223b565b515192915050565b6000807f00000000000000000000000000000000000000000000000000000000000000006001600160a01b031663461d27628688600188886040518663ffffffff1660e01b8152600401611aa09594939291906134c4565b6020604051808303816000875af1158015611abf573d6000803e3d6000fd5b505050506040513d601f19601f82011682018060405250810190611ae39190613246565b60405190915081907f1131472297a800fee664d1d89cfa8f7676ff07189ecc53f80bbb5f4969099db890600090a295945050505050565b600080611b26836111ff565b611b875760405162461bcd60e51b815260206004820152602c60248201527f4552433732315073693a206f776e657220717565727920666f72206e6f6e657860448201526b34b9ba32b73a103a37b5b2b760a11b606482015260840161053e565b611b9083612266565b6000818152600360205260409020546001600160a01b031694909350915050565b6008546001600160a01b031633146110375760405162461bcd60e51b815260206004820152601660248201527f4f6e6c792063616c6c61626c65206279206f776e657200000000000000000000604482015260640161053e565b60075415611c4e5760405162461bcd60e51b815260206004820152601060248201526f105b1c9958591e481c995d99585b195960821b604482015260640161053e565b60007f00000000000000000000000000000000000000000000000000000000000000006001600160a01b0316635d3b1d307f00000000000000000000000000000000000000000000000000000000000000007f0000000000000000000000000000000000000000000000000000000000000000600a6040516001600160e01b031960e086901b168152600481019390935267ffffffffffffffff909116602483015261ffff16604482015262030d4060648201526001608482015260a4016020604051808303816000875af1158015611d2b573d6000803e3d6000fd5b505050506040513d601f19601f82011682018060405250810190611d4f9190613246565b90507f76421cb080d40e8a03ba462b500012451ba59bdebc46694dc458807c1d754b6281604051611d8291815260200190565b60405180910390a150565b611d98848484611503565b611da6848484600185612272565b6110b85760405162461bcd60e51b815260206004820152603560248201527f4552433732315073693a207472616e7366657220746f206e6f6e20455243373260448201527418a932b1b2b4bb32b91034b6b83632b6b2b73a32b960591b606482015260840161053e565b60606013805461055e9061320c565b60008184106040518060400160405280601e81526020017f696e707574206973206e6f742077697468696e2074686520646f6d61696e000081525090611e785760405162461bcd60e51b815260040161053e9190612e2f565b506000611e84836123f7565b60010160ff1690505b611e9a8585600384612461565b9150828210610ce457819450611e8d565b606081600003611ed25750506040805180820190915260018152600360fc1b602082015290565b8160005b8115611efc5780611ee681613275565b9150611ef59050600a83613524565b9150611ed6565b60008167ffffffffffffffff811115611f1757611f17612ceb565b6040519080825280601f01601f191660200182016040528015611f41576020820181803683370190505b5090505b84156111e357611f56600183613488565b9150611f63600a86613538565b611f6e90603061349b565b60f81b818381518110611f8357611f8361328e565b60200101907effffffffffffffffffffffffffffffffffffffffffffffffffffffffffffff1916908160001a905350611fbd600a86613524565b9450611f45565b336001600160a01b0382160361201c5760405162461bcd60e51b815260206004820152601760248201527f43616e6e6f74207472616e7366657220746f2073656c66000000000000000000604482015260640161053e565b600980546001600160a01b0319166001600160a01b03838116918217909255600854604051919216907fed8889f560326eb138920d842192f0eb3dd22b4f139c87a2c57538e05bae127890600090a350565b6007541561208f57604051631eb49d6d60e11b815260040160405180910390fd5b6111fc81600161255a565b6001600160a01b038416612121577f00000000000000000000000000000000000000000000000000000000000000006120d3828461349b565b11156121215760405162461bcd60e51b815260206004820152601660248201527f457863656564206d6178696d756d20737570706c792100000000000000000000604482015260640161053e565b6110b8565b8051600003612148576040516322ce3edd60e01b815260040160405180910390fd5b8383600281111561215b5761215b6134ae565b9081600281111561216e5761216e6134ae565b90525060408401828015612184576121846134ae565b90818015612194576121946134ae565b9052506060909301929092525050565b6121ac612c83565b80516121b89083612574565b5060006020820152919050565b6121d282600383516125eb565b815161079c908261270c565b81516121eb9060c2612734565b506108b8828260405160200161220391815260200190565b604051602081830303815290604052612259565b61222281600461279d565b600181602001818151612235919061349b565b90525050565b61224681600761279d565b6001816020018181516122359190613488565b6121d282600283516125eb565b60006104e981836127b4565b60006001600160a01b0385163b156123ea57506001835b612293848661349b565b8110156123e457604051630a85bd0160e11b81526001600160a01b0387169063150b7a02906122cc9033908b908690899060040161354c565b6020604051808303816000875af1925050508015612307575060408051601f3d908101601f1916820190925261230491810190613588565b60015b6123b2573d808015612335576040519150601f19603f3d011682016040523d82523d6000602084013e61233a565b606091505b5080516000036123aa5760405162461bcd60e51b815260206004820152603560248201527f4552433732315073693a207472616e7366657220746f206e6f6e20455243373260448201527418a932b1b2b4bb32b91034b6b83632b6b2b73a32b960591b606482015260840161053e565b805181602001fd5b8280156123cf57506001600160e01b03198116630a85bd0160e11b145b925050806123dc81613275565b915050612289565b506123ee565b5060015b95945050505050565b600060405180610120016040528061010081526020016136ad610100913960f87e818283848586878898a8b8c8d8e8f929395969799a9b9d9e9faaeb6bedeeff612440856128b5565b02901c815181106124535761245361328e565b016020015160f81c92915050565b600060028204808303600180821b60001990810191841b0188841c8216898216865b8981101561252e576040805160208082018e9052818301849052825180830384018152606090920190925280519101208260006001841681036124f257506040805160208082018790528183018590528251808303840181526060909201909252805191012087168518612520565b5060408051602080820187905281830185905282518083038401815260609092019092528051910120861685185b909450925050600101612483565b506002890660000361254a57941b90931793506111e392505050565b931b90921793506111e392505050565b6108b88282604051806020016040528060008152506128fc565b604080518082019091526060815260006020820152612594602083613538565b156125bc576125a4602083613538565b6125af906020613488565b6125b9908361349b565b91505b6020808401839052604051808552600081529081840101818110156125e057600080fd5b604052509192915050565b60178167ffffffffffffffff16116126125782516110b89060e0600585901b168317612734565b60ff8167ffffffffffffffff161161265457825161263b906018611fe0600586901b1617612734565b5082516110b89067ffffffffffffffff83166001612921565b61ffff8167ffffffffffffffff161161269757825161267e906019611fe0600586901b1617612734565b5082516110b89067ffffffffffffffff83166002612921565b63ffffffff8167ffffffffffffffff16116126dc5782516126c390601a611fe0600586901b1617612734565b5082516110b89067ffffffffffffffff83166004612921565b82516126f390601b611fe0600586901b1617612734565b5082516110b89067ffffffffffffffff83166008612921565b60408051808201909152606081526000602082015261272d838384516129a6565b9392505050565b604080518082019091526060815260006020820152825151600061275982600161349b565b90508460200151821061277a5761277a856127758360026135a5565b612a77565b8451602083820101858153508051821115612793578181525b5093949350505050565b815161079c90601f611fe0600585901b1617612734565b600881901c60008181526020849052604081205490919060ff808516919082181c80156127f6576127e481612a8e565b60ff168203600884901b1793506128ac565b6000831161286c5760405162461bcd60e51b815260206004820152603460248201527f4269744d6170733a205468652073657420626974206265666f7265207468652060448201527f696e64657820646f65736e27742065786973742e000000000000000000000000606482015260840161053e565b5060001990910160008181526020869052604090205490919080156128a75761289481612a8e565b60ff0360ff16600884901b1793506128ac565b6127f6565b50505092915050565b60008082116128c357600080fd5b50608081901c17604081901c17602081901c17601081901c17600881901c17600481901c17600281901c17600181811c909117811c0190565b600061290760045490565b90506129138484612ad7565b611da6600085838686612272565b6040805180820190915260608152600060208201528351516000612945828561349b565b9050856020015181111561296257612962866127758360026135a5565b60006001612972866101006136a0565b61297c9190613488565b9050865182810187831982511617815250805183111561299a578281525b50959695505050505050565b60408051808201909152606081526000602082015282518211156129c957600080fd5b83515160006129d8848361349b565b905085602001518111156129f5576129f5866127758360026135a5565b855180518382016020019160009180851115612a0f578482525b505050602086015b60208610612a4f5780518252612a2e60208361349b565b9150612a3b60208261349b565b9050612a48602087613488565b9550612a17565b51815160001960208890036101000a0190811690199190911617905250849150509392505050565b8151612a838383612574565b506110b8838261270c565b600060405180610120016040528061010081526020016136ad610100913960f87e818283848586878898a8b8c8d8e8f929395969799a9b9d9e9faaeb6bedeeff61244085612c6b565b6000612ae260045490565b905060008211612b425760405162461bcd60e51b815260206004820152602560248201527f4552433732315073693a207175616e74697479206d7573742062652067726561604482015264074657220360dc1b606482015260840161053e565b6001600160a01b038316612ba45760405162461bcd60e51b815260206004820152602360248201527f4552433732315073693a206d696e7420746f20746865207a65726f206164647260448201526265737360e81b606482015260840161053e565b612bb1600084838561209a565b8160046000828254612bc3919061349b565b9091555050600081815260036020908152604080832080546001600160a01b0319166001600160a01b038816179055600884901c83529082905290208054600160ff1b60ff84161c179055805b612c1a838361349b565b8110156110b85760405181906001600160a01b038616906000907fddf252ad1be2c89b69c2b068fc378daa952ba7f163c4a11628f55a4df523b3ef908290a480612c6381613275565b915050612c10565b6000808211612c7957600080fd5b5060008190031690565b6040518060400160405280612cab604051806040016040528060608152602001600081525090565b8152602001600081525090565b6001600160e01b0319811681146111fc57600080fd5b600060208284031215612ce057600080fd5b813561272d81612cb8565b634e487b7160e01b600052604160045260246000fd5b604051601f8201601f1916810167ffffffffffffffff81118282101715612d2a57612d2a612ceb565b604052919050565b600067ffffffffffffffff831115612d4c57612d4c612ceb565b612d5f601f8401601f1916602001612d01565b9050828152838383011115612d7357600080fd5b828260208301376000602084830101529392505050565b600082601f830112612d9b57600080fd5b61272d83833560208501612d32565b600060208284031215612dbc57600080fd5b813567ffffffffffffffff811115612dd357600080fd5b6111e384828501612d8a565b60005b83811015612dfa578181015183820152602001612de2565b50506000910152565b60008151808452612e1b816020860160208601612ddf565b601f01601f19169290920160200192915050565b60208152600061272d6020830184612e03565b600060208284031215612e5457600080fd5b5035919050565b80356001600160a01b0381168114612e7257600080fd5b919050565b60008060408385031215612e8a57600080fd5b612e9383612e5b565b946020939093013593505050565b600080600060608486031215612eb657600080fd5b83359250602084013567ffffffffffffffff80821115612ed557600080fd5b612ee187838801612d8a565b93506040860135915080821115612ef757600080fd5b50612f0486828701612d8a565b9150509250925092565b600067ffffffffffffffff821115612f2857612f28612ceb565b5060051b60200190565b60008060408385031215612f4557600080fd5b8235915060208084013567ffffffffffffffff811115612f6457600080fd5b8401601f81018613612f7557600080fd5b8035612f88612f8382612f0e565b612d01565b81815260059190911b82018301908381019088831115612fa757600080fd5b928401925b82841015612fc557833582529284019290840190612fac565b80955050505050509250929050565b600080600060608486031215612fe957600080fd5b612ff284612e5b565b925061300060208501612e5b565b9150604084013590509250925092565b6000602080838503121561302357600080fd5b823567ffffffffffffffff8082111561303b57600080fd5b818501915085601f83011261304f57600080fd5b813561305d612f8382612f0e565b81815260059190911b8301840190848101908883111561307c57600080fd5b8585015b838110156130c9578035858111156130985760008081fd5b8601603f81018b136130aa5760008081fd5b6130bb8b8983013560408401612d32565b845250918601918601613080565b5098975050505050505050565b6000602082840312156130e857600080fd5b61272d82612e5b565b6020808252825182820181905260009190848201906040850190845b818110156131295783518352928401929184019160010161310d565b50909695505050505050565b6000806040838503121561314857600080fd5b61315183612e5b565b91506020830135801515811461316657600080fd5b809150509250929050565b6000806000806080858703121561318757600080fd5b61319085612e5b565b935061319e60208601612e5b565b925060408501359150606085013567ffffffffffffffff8111156131c157600080fd5b6131cd87828801612d8a565b91505092959194509250565b600080604083850312156131ec57600080fd5b6131f583612e5b565b915061320360208401612e5b565b90509250929050565b600181811c9082168061322057607f821691505b60208210810361324057634e487b7160e01b600052602260045260246000fd5b50919050565b60006020828403121561325857600080fd5b5051919050565b634e487b7160e01b600052601160045260246000fd5b6000600182016132875761328761325f565b5060010190565b634e487b7160e01b600052603260045260246000fd5b600084516132b6818460208901612ddf565b8451908301906132ca818360208901612ddf565b84519101906132dd818360208801612ddf565b0195945050505050565b601f82111561079c57600081815260208120601f850160051c8101602086101561330e5750805b601f850160051c820191505b818110156117235782815560010161331a565b815167ffffffffffffffff81111561334757613347612ceb565b61335b81613355845461320c565b846132e7565b602080601f83116001811461339057600084156133785750858301515b600019600386901b1c1916600185901b178555611723565b600085815260208120601f198616915b828110156133bf578886015182559484019460019091019084016133a0565b50858210156133dd5787850151600019600388901b60f8161c191681555b5050505050600190811b01905550565b6040815260006134006040830185612e03565b602083820381850152600085546134168161320c565b80855260018281168015613431576001811461344b57613479565b60ff1984168787015282151560051b870186019450613479565b896000528560002060005b84811015613471578154898201890152908301908701613456565b880187019550505b50929998505050505050505050565b818103818111156104e9576104e961325f565b808201808211156104e9576104e961325f565b634e487b7160e01b600052602160045260246000fd5b67ffffffffffffffff8616815260a0602082015260006134e760a0830187612e03565b61ffff9590951660408301525063ffffffff92909216606083015260809091015292915050565b634e487b7160e01b600052601260045260246000fd5b6000826135335761353361350e565b500490565b6000826135475761354761350e565b500690565b60006001600160a01b0380871683528086166020840152508360408301526080606083015261357e6080830184612e03565b9695505050505050565b60006020828403121561359a57600080fd5b815161272d81612cb8565b80820281158282048414176104e9576104e961325f565b600181815b808511156135f75781600019048211156135dd576135dd61325f565b808516156135ea57918102915b93841c93908002906135c1565b509250929050565b60008261360e575060016104e9565b8161361b575060006104e9565b8160018114613631576002811461363b57613657565b60019150506104e9565b60ff84111561364c5761364c61325f565b50506001821b6104e9565b5060208310610133831016604e8410600b841016171561367a575081810a6104e9565b61368483836135bc565b80600019048211156136985761369861325f565b029392505050565b600061272d83836135ff56fe0001020903110a19042112290b311a3905412245134d2a550c5d32651b6d3a7506264262237d468514804e8d2b95569d0d495ea533a966b11c886eb93bc176c9071727374353637324837e9b47af86c7155181ad4fd18ed32c9096db57d59ee30e2e4a6a5f92a6be3498aae067ddb2eb1d5989b56fd7baf33ca0c2ee77e5caf7ff0810182028303840444c545c646c7425617c847f8c949c48a4a8b087b8c0c816365272829aaec650acd0d28fdad4e22d6991bd97dfdcea58b4d6f29fede4f6fe0f1f2f3f4b5b6b607b8b93a3a7b7bf357199c5abcfd9e168bcdee9b3f1ecf5fd1e3e5a7a8aa2b670c4ced8bbe8f0f4fc3d79a1c3cde7effb78cce6facbf9f8a264697066735822122098fa564925d4cc09344ae3a93a5f4fe4feda540fb7c980b1e1d1e92de9986ef464736f6c63430008130033636f6e7374206164647265737343726561746f72203d20617267735b305d636f6e737420616464726573734275796572203d20617267735b315d636f6e737420636865636b4e465450757263686173656452657175657374203d2061776169742046756e6374696f6e732e6d616b654874747052657175657374287b75726c3a206068747470733a2f2f6d657461646174612d73746f726167652e617a75726577656273697465732e6e65742f6170692f76312f736f6369616c732f63726561746f722f247b6164647265737343726561746f727d2f62757965722f247b6164647265737342757965727d607d2969662028636865636b4e4654507572636861736564526571756573742e6572726f7229207b636f6e736f6c652e6572726f7228636865636b4e4654507572636861736564526571756573742e6572726f72297468726f77204572726f72282752657175657374206661696c656427297d636f6e7374207b2064617461207d203d20636865636b4e465450757263686173656452657175657374636f6e7374206e6674426f75676874203d20646174612e6e756d42757972657475726e2046756e6374696f6e732e656e636f646555696e74323536286e6674426f7567687429a26469706673582212205997303b48e8ebd17434011b4e635b0b32ad719cbf07d65574c53423384194e364736f6c63430008130033",
  "linkReferences": {},
  "deployedLinkReferences": {}
}